{
  "contractName": "HereNFT",
  "abi": [
    {
      "inputs": [],
      "stateMutability": "nonpayable",
      "type": "constructor"
    },
    {
      "anonymous": false,
      "inputs": [
        {
          "indexed": true,
          "internalType": "address",
          "name": "owner",
          "type": "address"
        },
        {
          "indexed": true,
          "internalType": "address",
          "name": "approved",
          "type": "address"
        },
        {
          "indexed": true,
          "internalType": "uint256",
          "name": "tokenId",
          "type": "uint256"
        }
      ],
      "name": "Approval",
      "type": "event"
    },
    {
      "anonymous": false,
      "inputs": [
        {
          "indexed": true,
          "internalType": "address",
          "name": "owner",
          "type": "address"
        },
        {
          "indexed": true,
          "internalType": "address",
          "name": "operator",
          "type": "address"
        },
        {
          "indexed": false,
          "internalType": "bool",
          "name": "approved",
          "type": "bool"
        }
      ],
      "name": "ApprovalForAll",
      "type": "event"
    },
    {
      "anonymous": false,
      "inputs": [
        {
          "indexed": true,
          "internalType": "uint256",
          "name": "tokenId",
          "type": "uint256"
        },
        {
          "indexed": false,
          "internalType": "string",
          "name": "metadataURI",
          "type": "string"
        },
        {
          "indexed": false,
          "internalType": "bytes",
          "name": "metadata",
          "type": "bytes"
        },
        {
          "indexed": false,
          "internalType": "bytes32",
          "name": "metadataHash",
          "type": "bytes32"
        },
        {
          "indexed": false,
          "internalType": "bytes32",
          "name": "inputHash",
          "type": "bytes32"
        }
      ],
      "name": "NFTVerified",
      "type": "event"
    },
    {
      "anonymous": false,
      "inputs": [
        {
          "indexed": true,
          "internalType": "address",
          "name": "from",
          "type": "address"
        },
        {
          "indexed": true,
          "internalType": "address",
          "name": "to",
          "type": "address"
        },
        {
          "indexed": true,
          "internalType": "uint256",
          "name": "tokenId",
          "type": "uint256"
        }
      ],
      "name": "Transfer",
      "type": "event"
    },
    {
      "anonymous": false,
      "inputs": [
        {
          "indexed": true,
          "internalType": "uint256",
          "name": "_tokenId",
          "type": "uint256"
        },
        {
          "indexed": true,
          "internalType": "address",
          "name": "_owner",
          "type": "address"
        }
      ],
      "name": "createNFT",
      "type": "event"
    },
    {
      "inputs": [
        {
          "internalType": "address",
          "name": "to",
          "type": "address"
        },
        {
          "internalType": "uint256",
          "name": "tokenId",
          "type": "uint256"
        }
      ],
      "name": "approve",
      "outputs": [],
      "stateMutability": "nonpayable",
      "type": "function"
    },
    {
      "inputs": [
        {
          "internalType": "address",
          "name": "owner",
          "type": "address"
        }
      ],
      "name": "balanceOf",
      "outputs": [
        {
          "internalType": "uint256",
          "name": "",
          "type": "uint256"
        }
      ],
      "stateMutability": "view",
      "type": "function",
      "constant": true
    },
    {
      "inputs": [
        {
          "internalType": "uint256",
          "name": "tokenId",
          "type": "uint256"
        }
      ],
      "name": "getApproved",
      "outputs": [
        {
          "internalType": "address",
          "name": "",
          "type": "address"
        }
      ],
      "stateMutability": "view",
      "type": "function",
      "constant": true
    },
    {
      "inputs": [
        {
          "internalType": "address",
          "name": "owner",
          "type": "address"
        },
        {
          "internalType": "address",
          "name": "operator",
          "type": "address"
        }
      ],
      "name": "isApprovedForAll",
      "outputs": [
        {
          "internalType": "bool",
          "name": "",
          "type": "bool"
        }
      ],
      "stateMutability": "view",
      "type": "function",
      "constant": true
    },
    {
      "inputs": [],
      "name": "name",
      "outputs": [
        {
          "internalType": "string",
          "name": "",
          "type": "string"
        }
      ],
      "stateMutability": "view",
      "type": "function",
      "constant": true
    },
    {
      "inputs": [
        {
          "internalType": "uint256",
          "name": "tokenId",
          "type": "uint256"
        }
      ],
      "name": "ownerOf",
      "outputs": [
        {
          "internalType": "address",
          "name": "",
          "type": "address"
        }
      ],
      "stateMutability": "view",
      "type": "function",
      "constant": true
    },
    {
      "inputs": [
        {
          "internalType": "address",
          "name": "from",
          "type": "address"
        },
        {
          "internalType": "address",
          "name": "to",
          "type": "address"
        },
        {
          "internalType": "uint256",
          "name": "tokenId",
          "type": "uint256"
        }
      ],
      "name": "safeTransferFrom",
      "outputs": [],
      "stateMutability": "nonpayable",
      "type": "function"
    },
    {
      "inputs": [
        {
          "internalType": "address",
          "name": "from",
          "type": "address"
        },
        {
          "internalType": "address",
          "name": "to",
          "type": "address"
        },
        {
          "internalType": "uint256",
          "name": "tokenId",
          "type": "uint256"
        },
        {
          "internalType": "bytes",
          "name": "_data",
          "type": "bytes"
        }
      ],
      "name": "safeTransferFrom",
      "outputs": [],
      "stateMutability": "nonpayable",
      "type": "function"
    },
    {
      "inputs": [
        {
          "internalType": "address",
          "name": "operator",
          "type": "address"
        },
        {
          "internalType": "bool",
          "name": "approved",
          "type": "bool"
        }
      ],
      "name": "setApprovalForAll",
      "outputs": [],
      "stateMutability": "nonpayable",
      "type": "function"
    },
    {
      "inputs": [
        {
          "internalType": "bytes4",
          "name": "interfaceId",
          "type": "bytes4"
        }
      ],
      "name": "supportsInterface",
      "outputs": [
        {
          "internalType": "bool",
          "name": "",
          "type": "bool"
        }
      ],
      "stateMutability": "view",
      "type": "function",
      "constant": true
    },
    {
      "inputs": [],
      "name": "symbol",
      "outputs": [
        {
          "internalType": "string",
          "name": "",
          "type": "string"
        }
      ],
      "stateMutability": "view",
      "type": "function",
      "constant": true
    },
    {
      "inputs": [
        {
          "internalType": "uint256",
          "name": "",
          "type": "uint256"
        }
      ],
      "name": "transactionLogs",
      "outputs": [
        {
          "internalType": "address",
          "name": "from",
          "type": "address"
        },
        {
          "internalType": "address",
          "name": "to",
          "type": "address"
        },
        {
          "internalType": "uint256",
          "name": "tokenId",
          "type": "uint256"
        },
        {
          "internalType": "uint256",
          "name": "timestamp",
          "type": "uint256"
        }
      ],
      "stateMutability": "view",
      "type": "function",
      "constant": true
    },
    {
      "inputs": [
        {
          "internalType": "address",
          "name": "from",
          "type": "address"
        },
        {
          "internalType": "address",
          "name": "to",
          "type": "address"
        },
        {
          "internalType": "uint256",
          "name": "tokenId",
          "type": "uint256"
        }
      ],
      "name": "transferFrom",
      "outputs": [],
      "stateMutability": "nonpayable",
      "type": "function"
    },
    {
      "inputs": [
        {
          "internalType": "address",
          "name": "_from",
          "type": "address"
        },
        {
          "internalType": "address",
          "name": "_to",
          "type": "address"
        },
        {
          "internalType": "uint256",
          "name": "_tokenId",
          "type": "uint256"
        },
        {
          "internalType": "uint256",
          "name": "_timestamp",
          "type": "uint256"
        }
      ],
      "name": "donateNFT",
      "outputs": [],
      "stateMutability": "payable",
      "type": "function",
      "payable": true
    },
    {
      "inputs": [
        {
          "internalType": "address",
          "name": "_from",
          "type": "address"
        },
        {
          "internalType": "address",
          "name": "_to",
          "type": "address"
        },
        {
          "internalType": "uint256[]",
          "name": "_tokenIdList",
          "type": "uint256[]"
        },
        {
          "internalType": "uint256",
          "name": "_timestamp",
          "type": "uint256"
        }
      ],
      "name": "donateNFTList",
      "outputs": [],
      "stateMutability": "payable",
      "type": "function",
      "payable": true
    },
    {
      "inputs": [
        {
          "internalType": "uint256",
          "name": "_tokenId",
          "type": "uint256"
        }
      ],
      "name": "getTransactionLogs",
      "outputs": [
        {
          "components": [
            {
              "internalType": "address",
              "name": "from",
              "type": "address"
            },
            {
              "internalType": "address",
              "name": "to",
              "type": "address"
            },
            {
              "internalType": "uint256",
              "name": "tokenId",
              "type": "uint256"
            },
            {
              "internalType": "uint256",
              "name": "timestamp",
              "type": "uint256"
            }
          ],
          "internalType": "struct HereNFT.TransactionLog[]",
          "name": "",
          "type": "tuple[]"
        }
      ],
      "stateMutability": "view",
      "type": "function",
      "constant": true
    },
    {
      "inputs": [],
      "name": "current",
      "outputs": [
        {
          "internalType": "uint256",
          "name": "",
          "type": "uint256"
        }
      ],
      "stateMutability": "view",
      "type": "function",
      "constant": true
    },
    {
      "inputs": [
        {
          "internalType": "uint256",
          "name": "tokenId",
          "type": "uint256"
        }
      ],
      "name": "tokenURI",
      "outputs": [
        {
          "internalType": "string",
          "name": "",
          "type": "string"
        }
      ],
      "stateMutability": "view",
      "type": "function",
      "constant": true
    },
    {
      "inputs": [
        {
          "internalType": "address",
          "name": "to",
          "type": "address"
        },
        {
          "internalType": "string",
          "name": "_tokenURI1",
          "type": "string"
        },
        {
          "internalType": "string",
          "name": "_tokenURI2",
          "type": "string"
        }
      ],
      "name": "create",
      "outputs": [
        {
          "internalType": "uint256",
          "name": "",
          "type": "uint256"
        },
        {
          "internalType": "uint256",
          "name": "",
          "type": "uint256"
        }
      ],
      "stateMutability": "nonpayable",
      "type": "function"
    },
    {
      "inputs": [],
      "name": "getAllNFTs",
      "outputs": [
        {
          "components": [
            {
              "internalType": "string",
              "name": "tokenURI",
              "type": "string"
            },
            {
              "internalType": "bytes32",
              "name": "hashValue",
              "type": "bytes32"
            }
          ],
          "internalType": "struct HereNFT.NFT[]",
          "name": "",
          "type": "tuple[]"
        }
      ],
      "stateMutability": "view",
      "type": "function",
      "constant": true
    },
    {
      "inputs": [
        {
          "internalType": "uint256",
          "name": "tokenId",
          "type": "uint256"
        }
      ],
      "name": "getHashValue",
      "outputs": [
        {
          "internalType": "bytes32",
          "name": "",
          "type": "bytes32"
        }
      ],
      "stateMutability": "view",
      "type": "function",
      "constant": true
    },
    {
      "inputs": [
        {
          "internalType": "uint256",
          "name": "tokenId",
          "type": "uint256"
        },
        {
          "internalType": "bytes32",
          "name": "hash",
          "type": "bytes32"
        }
      ],
      "name": "verifyNFT",
      "outputs": [
        {
          "internalType": "bool",
          "name": "",
          "type": "bool"
        }
      ],
      "stateMutability": "view",
      "type": "function",
      "constant": true
    },
    {
      "inputs": [
        {
          "internalType": "uint256[][]",
          "name": "inputList",
          "type": "uint256[][]"
        }
      ],
      "name": "verifyNFTList",
      "outputs": [
        {
          "internalType": "bool[]",
          "name": "results",
          "type": "bool[]"
        }
      ],
      "stateMutability": "view",
      "type": "function",
      "constant": true
    }
  ],
  "bytecode": "0x60806040523480156200001157600080fd5b506040518060400160405280600881526020017f484552452d4e46540000000000000000000000000000000000000000000000008152506040518060400160405280600381526020017f5442440000000000000000000000000000000000000000000000000000000000815250816000908051906020019062000096929190620000b8565b508060019080519060200190620000af929190620000b8565b505050620001cd565b828054620000c69062000197565b90600052602060002090601f016020900481019282620000ea576000855562000136565b82601f106200010557805160ff191683800117855562000136565b8280016001018555821562000136579182015b828111156200013557825182559160200191906001019062000118565b5b50905062000145919062000149565b5090565b5b80821115620001645760008160009055506001016200014a565b5090565b7f4e487b7100000000000000000000000000000000000000000000000000000000600052602260045260246000fd5b60006002820490506001821680620001b057607f821691505b60208210811415620001c757620001c662000168565b5b50919050565b61412880620001dd6000396000f3fe6080604052600436106101405760003560e01c806395d89b41116100b6578063e2b553a41161006f578063e2b553a414610486578063e985e9c5146104a2578063eb58820d146104df578063f1f69f221461051c578063f5545e961461055c578063fb13effc1461059957610140565b806395d89b41146103765780639fa6a6e3146103a1578063a22cb465146103cc578063b88d4fde146103f5578063c87b56dd1461041e578063e0391b091461045b57610140565b806342842e0e1161010857806342842e0e1461023c5780636352211e146102655780636fbf29e6146102a25780637058cd54146102df57806370a08231146102fb578063796d58361461033857610140565b806301ffc9a71461014557806306fdde0314610182578063081812fc146101ad578063095ea7b3146101ea57806323b872dd14610213575b600080fd5b34801561015157600080fd5b5061016c6004803603810190610167919061267e565b6105d6565b60405161017991906126c6565b60405180910390f35b34801561018e57600080fd5b506101976106b8565b6040516101a4919061277a565b60405180910390f35b3480156101b957600080fd5b506101d460048036038101906101cf91906127d2565b61074a565b6040516101e19190612840565b60405180910390f35b3480156101f657600080fd5b50610211600480360381019061020c9190612887565b610790565b005b34801561021f57600080fd5b5061023a600480360381019061023591906128c7565b610985565b005b34801561024857600080fd5b50610263600480360381019061025e91906128c7565b6109de565b005b34801561027157600080fd5b5061028c600480360381019061028791906127d2565b6109fe565b6040516102999190612840565b60405180910390f35b3480156102ae57600080fd5b506102c960048036038101906102c491906127d2565b610ab0565b6040516102d69190612933565b60405180910390f35b6102f960048036038101906102f49190612a96565b610ad0565b005b34801561030757600080fd5b50610322600480360381019061031d9190612b19565b610da5565b60405161032f9190612b55565b60405180910390f35b34801561034457600080fd5b5061035f600480360381019061035a9190612c25565b610e5d565b60405161036d929190612cb0565b60405180910390f35b34801561038257600080fd5b5061038b611020565b604051610398919061277a565b60405180910390f35b3480156103ad57600080fd5b506103b66110b2565b6040516103c39190612b55565b60405180910390f35b3480156103d857600080fd5b506103f360048036038101906103ee9190612d05565b6110c3565b005b34801561040157600080fd5b5061041c60048036038101906104179190612de6565b61122f565b005b34801561042a57600080fd5b50610445600480360381019061044091906127d2565b61128a565b604051610452919061277a565b60405180910390f35b34801561046757600080fd5b50610470611338565b60405161047d9190612fc1565b60405180910390f35b6104a0600480360381019061049b9190612fe3565b6114c5565b005b3480156104ae57600080fd5b506104c960048036038101906104c4919061304a565b611716565b6040516104d691906126c6565b60405180910390f35b3480156104eb57600080fd5b506105066004803603810190610501919061316b565b6117aa565b6040516105139190613272565b60405180910390f35b34801561052857600080fd5b50610543600480360381019061053e91906127d2565b611985565b6040516105539493929190613294565b60405180910390f35b34801561056857600080fd5b50610583600480360381019061057e9190613305565b611a05565b60405161059091906126c6565b60405180910390f35b3480156105a557600080fd5b506105c060048036038101906105bb91906127d2565b611a7b565b6040516105cd9190613467565b60405180910390f35b60007f80ac58cd000000000000000000000000000000000000000000000000000000007bffffffffffffffffffffffffffffffffffffffffffffffffffffffff1916827bffffffffffffffffffffffffffffffffffffffffffffffffffffffff191614806106a157507f5b5e139f000000000000000000000000000000000000000000000000000000007bffffffffffffffffffffffffffffffffffffffffffffffffffffffff1916827bffffffffffffffffffffffffffffffffffffffffffffffffffffffff1916145b806106b157506106b082611cad565b5b9050919050565b6060600080546106c7906134b8565b80601f01602080910402602001604051908101604052809291908181526020018280546106f3906134b8565b80156107405780601f1061071557610100808354040283529160200191610740565b820191906000526020600020905b81548152906001019060200180831161072357829003601f168201915b5050505050905090565b600061075582611d17565b6004600083815260200190815260200160002060009054906101000a900473ffffffffffffffffffffffffffffffffffffffff169050919050565b600061079b826109fe565b90508073ffffffffffffffffffffffffffffffffffffffff168373ffffffffffffffffffffffffffffffffffffffff16141561080c576040517f08c379a000000000000000000000000000000000000000000000000000000000815260040161080390613536565b60405180910390fd5b61081582611d62565b610854576040517f08c379a000000000000000000000000000000000000000000000000000000000815260040161084b906135c8565b60405180910390fd5b8073ffffffffffffffffffffffffffffffffffffffff163373ffffffffffffffffffffffffffffffffffffffff16148061089457506108938133611716565b5b6108d3576040517f08c379a00000000000000000000000000000000000000000000000000000000081526004016108ca9061365a565b60405180910390fd5b826004600084815260200190815260200160002060006101000a81548173ffffffffffffffffffffffffffffffffffffffff021916908373ffffffffffffffffffffffffffffffffffffffff160217905550818373ffffffffffffffffffffffffffffffffffffffff168273ffffffffffffffffffffffffffffffffffffffff167f8c5be1e5ebec7d5bd14f71427d1e84f3dd0314c0f7b2291e5b200ac8c7c3b92560405160405180910390a4505050565b61098f3382611dce565b6109ce576040517f08c379a00000000000000000000000000000000000000000000000000000000081526004016109c5906136ec565b60405180910390fd5b6109d9838383611eac565b505050565b6109f98383836040518060200160405280600081525061122f565b505050565b6000806002600084815260200190815260200160002060009054906101000a900473ffffffffffffffffffffffffffffffffffffffff169050600073ffffffffffffffffffffffffffffffffffffffff168173ffffffffffffffffffffffffffffffffffffffff161415610aa7576040517f08c379a0000000000000000000000000000000000000000000000000000000008152600401610a9e90613758565b60405180910390fd5b80915050919050565b600060096000838152602001908152602001600020600101549050919050565b600073ffffffffffffffffffffffffffffffffffffffff168473ffffffffffffffffffffffffffffffffffffffff161415610b40576040517f08c379a0000000000000000000000000000000000000000000000000000000008152600401610b37906137c4565b60405180910390fd5b600073ffffffffffffffffffffffffffffffffffffffff168373ffffffffffffffffffffffffffffffffffffffff161415610bb0576040517f08c379a0000000000000000000000000000000000000000000000000000000008152600401610ba790613830565b60405180910390fd5b6000825111610bf4576040517f08c379a0000000000000000000000000000000000000000000000000000000008152600401610beb9061389c565b60405180910390fd5b60005b8251811015610d9e576000838281518110610c1557610c146138bc565b5b602002602001015190506000811415610c63576040517f08c379a0000000000000000000000000000000000000000000000000000000008152600401610c5a90613937565b60405180910390fd5b610c6e8686836109de565b600a60405180608001604052808873ffffffffffffffffffffffffffffffffffffffff1681526020018773ffffffffffffffffffffffffffffffffffffffff16815260200183815260200185815250908060018154018082558091505060019003906000526020600020906004020160009091909190915060008201518160000160006101000a81548173ffffffffffffffffffffffffffffffffffffffff021916908373ffffffffffffffffffffffffffffffffffffffff16021790555060208201518160010160006101000a81548173ffffffffffffffffffffffffffffffffffffffff021916908373ffffffffffffffffffffffffffffffffffffffff16021790555060408201518160020155606082015181600301555050508080610d9690613986565b915050610bf7565b5050505050565b60008073ffffffffffffffffffffffffffffffffffffffff168273ffffffffffffffffffffffffffffffffffffffff161415610e16576040517f08c379a0000000000000000000000000000000000000000000000000000000008152600401610e0d90613a41565b60405180910390fd5b600360008373ffffffffffffffffffffffffffffffffffffffff1673ffffffffffffffffffffffffffffffffffffffff168152602001908152602001600020549050919050565b600080610e6a60066120e9565b6000610e7660066120ff565b9050610e82868261210d565b84600760008381526020019081526020016000209080519060200190610ea99291906124fe565b5060008580519060200120905060006040518060400160405280888152602001838152509050600883908060018154018082558091505060019003906000526020600020016000909190919091505580600960008581526020019081526020016000206000820151816000019080519060200190610f289291906124fe565b5060208201518160010155905050610f4060066120e9565b6000610f4c60066120ff565b9050610f58898261210d565b86600760008381526020019081526020016000209080519060200190610f7f9291906124fe565b50600087805190602001209050600060405180604001604052808a8152602001838152509050600883908060018154018082558091505060019003906000526020600020016000909190919091505580600960008581526020019081526020016000206000820151816000019080519060200190610ffe9291906124fe565b5060208201518160010155905050858397509750505050505050935093915050565b60606001805461102f906134b8565b80601f016020809104026020016040519081016040528092919081815260200182805461105b906134b8565b80156110a85780601f1061107d576101008083540402835291602001916110a8565b820191906000526020600020905b81548152906001019060200180831161108b57829003601f168201915b5050505050905090565b60006110be60066120ff565b905090565b3373ffffffffffffffffffffffffffffffffffffffff168273ffffffffffffffffffffffffffffffffffffffff161415611132576040517f08c379a000000000000000000000000000000000000000000000000000000000815260040161112990613aad565b60405180910390fd5b80600560003373ffffffffffffffffffffffffffffffffffffffff1673ffffffffffffffffffffffffffffffffffffffff16815260200190815260200160002060008473ffffffffffffffffffffffffffffffffffffffff1673ffffffffffffffffffffffffffffffffffffffff16815260200190815260200160002060006101000a81548160ff0219169083151502179055508173ffffffffffffffffffffffffffffffffffffffff163373ffffffffffffffffffffffffffffffffffffffff167f17307eab39ab6107e8899845ad3d59bd9653f200f220920489ca2b5937696c318360405161122391906126c6565b60405180910390a35050565b6112393383611dce565b611278576040517f08c379a000000000000000000000000000000000000000000000000000000000815260040161126f90613b3f565b60405180910390fd5b611284848484846122c6565b50505050565b606061129582611d17565b6007600083815260200190815260200160002080546112b3906134b8565b80601f01602080910402602001604051908101604052809291908181526020018280546112df906134b8565b801561132c5780601f106113015761010080835404028352916020019161132c565b820191906000526020600020905b81548152906001019060200180831161130f57829003601f168201915b50505050509050919050565b60606000600880549050905060008167ffffffffffffffff8111156113605761135f612953565b5b60405190808252806020026020018201604052801561139957816020015b611386612584565b81526020019060019003908161137e5790505b50905060005b828110156114bc576000600882815481106113bd576113bc6138bc565b5b906000526020600020015490506000600960008381526020019081526020016000206040518060400160405290816000820180546113fa906134b8565b80601f0160208091040260200160405190810160405280929190818152602001828054611426906134b8565b80156114735780601f1061144857610100808354040283529160200191611473565b820191906000526020600020905b81548152906001019060200180831161145657829003601f168201915b5050505050815260200160018201548152505090508084848151811061149c5761149b6138bc565b5b6020026020010181905250505080806114b490613986565b91505061139f565b50809250505090565b600073ffffffffffffffffffffffffffffffffffffffff168473ffffffffffffffffffffffffffffffffffffffff161415611535576040517f08c379a000000000000000000000000000000000000000000000000000000000815260040161152c906137c4565b60405180910390fd5b600073ffffffffffffffffffffffffffffffffffffffff168373ffffffffffffffffffffffffffffffffffffffff1614156115a5576040517f08c379a000000000000000000000000000000000000000000000000000000000815260040161159c90613830565b60405180910390fd5b60008214156115e9576040517f08c379a00000000000000000000000000000000000000000000000000000000081526004016115e090613937565b60405180910390fd5b6115f48484846109de565b600a60405180608001604052808673ffffffffffffffffffffffffffffffffffffffff1681526020018573ffffffffffffffffffffffffffffffffffffffff16815260200184815260200183815250908060018154018082558091505060019003906000526020600020906004020160009091909190915060008201518160000160006101000a81548173ffffffffffffffffffffffffffffffffffffffff021916908373ffffffffffffffffffffffffffffffffffffffff16021790555060208201518160010160006101000a81548173ffffffffffffffffffffffffffffffffffffffff021916908373ffffffffffffffffffffffffffffffffffffffff1602179055506040820151816002015560608201518160030155505050505050565b6000600560008473ffffffffffffffffffffffffffffffffffffffff1673ffffffffffffffffffffffffffffffffffffffff16815260200190815260200160002060008373ffffffffffffffffffffffffffffffffffffffff1673ffffffffffffffffffffffffffffffffffffffff16815260200190815260200160002060009054906101000a900460ff16905092915050565b6060815167ffffffffffffffff8111156117c7576117c6612953565b5b6040519080825280602002602001820160405280156117f55781602001602082028036833780820191505090505b50905060005b825181101561197f576002838281518110611819576118186138bc565b5b60200260200101515114611862576040517f08c379a000000000000000000000000000000000000000000000000000000000815260040161185990613bd1565b60405180910390fd5b6000838281518110611877576118766138bc565b5b6020026020010151600081518110611892576118916138bc565b5b6020026020010151905060008483815181106118b1576118b06138bc565b5b60200260200101516001815181106118cc576118cb6138bc565b5b602002602001015160001b90506118e282611d62565b611921576040517f08c379a000000000000000000000000000000000000000000000000000000000815260040161191890613c3d565b60405180910390fd5b600061192c8361128a565b90506000818051906020012090506000838214905080878781518110611955576119546138bc565b5b6020026020010190151590811515815250505050505050808061197790613986565b9150506117fb565b50919050565b600a818154811061199557600080fd5b90600052602060002090600402016000915090508060000160009054906101000a900473ffffffffffffffffffffffffffffffffffffffff16908060010160009054906101000a900473ffffffffffffffffffffffffffffffffffffffff16908060020154908060030154905084565b6000611a1083611d62565b611a4f576040517f08c379a0000000000000000000000000000000000000000000000000000000008152600401611a4690613c3d565b60405180910390fd5b6000611a5a8461128a565b90506000818051906020012090506000848214905080935050505092915050565b60606000805b600a80549050811015611add5783600a8281548110611aa357611aa26138bc565b5b9060005260206000209060040201600201541415611aca578180611ac690613986565b9250505b8080611ad590613986565b915050611a81565b5060008167ffffffffffffffff811115611afa57611af9612953565b5b604051908082528060200260200182016040528015611b3357816020015b611b206125a1565b815260200190600190039081611b185790505b5090506000805b600a80549050811015611ca15785600a8281548110611b5c57611b5b6138bc565b5b9060005260206000209060040201600201541415611c8e57600a8181548110611b8857611b876138bc565b5b90600052602060002090600402016040518060800160405290816000820160009054906101000a900473ffffffffffffffffffffffffffffffffffffffff1673ffffffffffffffffffffffffffffffffffffffff1673ffffffffffffffffffffffffffffffffffffffff1681526020016001820160009054906101000a900473ffffffffffffffffffffffffffffffffffffffff1673ffffffffffffffffffffffffffffffffffffffff1673ffffffffffffffffffffffffffffffffffffffff16815260200160028201548152602001600382015481525050838381518110611c7457611c736138bc565b5b60200260200101819052508180611c8a90613986565b9250505b8080611c9990613986565b915050611b3a565b50819350505050919050565b60007f01ffc9a7000000000000000000000000000000000000000000000000000000007bffffffffffffffffffffffffffffffffffffffffffffffffffffffff1916827bffffffffffffffffffffffffffffffffffffffffffffffffffffffff1916149050919050565b611d2081611d62565b611d5f576040517f08c379a0000000000000000000000000000000000000000000000000000000008152600401611d5690613758565b60405180910390fd5b50565b60008073ffffffffffffffffffffffffffffffffffffffff166002600084815260200190815260200160002060009054906101000a900473ffffffffffffffffffffffffffffffffffffffff1673ffffffffffffffffffffffffffffffffffffffff1614159050919050565b6000611dd982611d62565b611e18576040517f08c379a0000000000000000000000000000000000000000000000000000000008152600401611e0f90613ccf565b60405180910390fd5b6000611e23836109fe565b90508073ffffffffffffffffffffffffffffffffffffffff168473ffffffffffffffffffffffffffffffffffffffff161480611e9257508373ffffffffffffffffffffffffffffffffffffffff16611e7a8461074a565b73ffffffffffffffffffffffffffffffffffffffff16145b80611ea35750611ea28185611716565b5b91505092915050565b8273ffffffffffffffffffffffffffffffffffffffff16611ecc826109fe565b73ffffffffffffffffffffffffffffffffffffffff1614611f22576040517f08c379a0000000000000000000000000000000000000000000000000000000008152600401611f1990613d61565b60405180910390fd5b600073ffffffffffffffffffffffffffffffffffffffff168273ffffffffffffffffffffffffffffffffffffffff161415611f92576040517f08c379a0000000000000000000000000000000000000000000000000000000008152600401611f8990613df3565b60405180910390fd5b611f9b81612322565b6001600360008573ffffffffffffffffffffffffffffffffffffffff1673ffffffffffffffffffffffffffffffffffffffff168152602001908152602001600020600082825403925050819055506001600360008473ffffffffffffffffffffffffffffffffffffffff1673ffffffffffffffffffffffffffffffffffffffff16815260200190815260200160002060008282540192505081905550816002600083815260200190815260200160002060006101000a81548173ffffffffffffffffffffffffffffffffffffffff021916908373ffffffffffffffffffffffffffffffffffffffff160217905550808273ffffffffffffffffffffffffffffffffffffffff168473ffffffffffffffffffffffffffffffffffffffff167fddf252ad1be2c89b69c2b068fc378daa952ba7f163c4a11628f55a4df523b3ef60405160405180910390a4505050565b6001816000016000828254019250508190555050565b600081600001549050919050565b600073ffffffffffffffffffffffffffffffffffffffff168273ffffffffffffffffffffffffffffffffffffffff16141561217d576040517f08c379a000000000000000000000000000000000000000000000000000000000815260040161217490613e5f565b60405180910390fd5b61218681611d62565b156121c6576040517f08c379a00000000000000000000000000000000000000000000000000000000081526004016121bd90613ecb565b60405180910390fd5b6001600360008473ffffffffffffffffffffffffffffffffffffffff1673ffffffffffffffffffffffffffffffffffffffff16815260200190815260200160002060008282540192505081905550816002600083815260200190815260200160002060006101000a81548173ffffffffffffffffffffffffffffffffffffffff021916908373ffffffffffffffffffffffffffffffffffffffff160217905550808273ffffffffffffffffffffffffffffffffffffffff16600073ffffffffffffffffffffffffffffffffffffffff167fddf252ad1be2c89b69c2b068fc378daa952ba7f163c4a11628f55a4df523b3ef60405160405180910390a45050565b6122d1848484611eac565b6122dd8484848461235b565b61231c576040517f08c379a000000000000000000000000000000000000000000000000000000000815260040161231390613f5d565b60405180910390fd5b50505050565b6004600082815260200190815260200160002060006101000a81549073ffffffffffffffffffffffffffffffffffffffff021916905550565b600061237c8473ffffffffffffffffffffffffffffffffffffffff166124e3565b156124d6578373ffffffffffffffffffffffffffffffffffffffff1663150b7a026123a56124f6565b8786866040518563ffffffff1660e01b81526004016123c79493929190613fd2565b6020604051808303816000875af192505050801561240357506040513d601f19601f820116820180604052508101906124009190614033565b60015b612486573d8060008114612433576040519150601f19603f3d011682016040523d82523d6000602084013e612438565b606091505b5060008151141561247e576040517f08c379a0000000000000000000000000000000000000000000000000000000008152600401612475906140d2565b60405180910390fd5b805181602001fd5b63150b7a0260e01b7bffffffffffffffffffffffffffffffffffffffffffffffffffffffff1916817bffffffffffffffffffffffffffffffffffffffffffffffffffffffff1916149150506124db565b600190505b949350505050565b600080823b905060008111915050919050565b600033905090565b82805461250a906134b8565b90600052602060002090601f01602090048101928261252c5760008555612573565b82601f1061254557805160ff1916838001178555612573565b82800160010185558215612573579182015b82811115612572578251825591602001919060010190612557565b5b50905061258091906125f5565b5090565b604051806040016040528060608152602001600080191681525090565b6040518060800160405280600073ffffffffffffffffffffffffffffffffffffffff168152602001600073ffffffffffffffffffffffffffffffffffffffff16815260200160008152602001600081525090565b5b8082111561260e5760008160009055506001016125f6565b5090565b6000604051905090565b600080fd5b600080fd5b60007fffffffff0000000000000000000000000000000000000000000000000000000082169050919050565b61265b81612626565b811461266657600080fd5b50565b60008135905061267881612652565b92915050565b6000602082840312156126945761269361261c565b5b60006126a284828501612669565b91505092915050565b60008115159050919050565b6126c0816126ab565b82525050565b60006020820190506126db60008301846126b7565b92915050565b600081519050919050565b600082825260208201905092915050565b60005b8381101561271b578082015181840152602081019050612700565b8381111561272a576000848401525b50505050565b6000601f19601f8301169050919050565b600061274c826126e1565b61275681856126ec565b93506127668185602086016126fd565b61276f81612730565b840191505092915050565b600060208201905081810360008301526127948184612741565b905092915050565b6000819050919050565b6127af8161279c565b81146127ba57600080fd5b50565b6000813590506127cc816127a6565b92915050565b6000602082840312156127e8576127e761261c565b5b60006127f6848285016127bd565b91505092915050565b600073ffffffffffffffffffffffffffffffffffffffff82169050919050565b600061282a826127ff565b9050919050565b61283a8161281f565b82525050565b60006020820190506128556000830184612831565b92915050565b6128648161281f565b811461286f57600080fd5b50565b6000813590506128818161285b565b92915050565b6000806040838503121561289e5761289d61261c565b5b60006128ac85828601612872565b92505060206128bd858286016127bd565b9150509250929050565b6000806000606084860312156128e0576128df61261c565b5b60006128ee86828701612872565b93505060206128ff86828701612872565b9250506040612910868287016127bd565b9150509250925092565b6000819050919050565b61292d8161291a565b82525050565b60006020820190506129486000830184612924565b92915050565b600080fd5b7f4e487b7100000000000000000000000000000000000000000000000000000000600052604160045260246000fd5b61298b82612730565b810181811067ffffffffffffffff821117156129aa576129a9612953565b5b80604052505050565b60006129bd612612565b90506129c98282612982565b919050565b600067ffffffffffffffff8211156129e9576129e8612953565b5b602082029050602081019050919050565b600080fd5b6000612a12612a0d846129ce565b6129b3565b90508083825260208201905060208402830185811115612a3557612a346129fa565b5b835b81811015612a5e5780612a4a88826127bd565b845260208401935050602081019050612a37565b5050509392505050565b600082601f830112612a7d57612a7c61294e565b5b8135612a8d8482602086016129ff565b91505092915050565b60008060008060808587031215612ab057612aaf61261c565b5b6000612abe87828801612872565b9450506020612acf87828801612872565b935050604085013567ffffffffffffffff811115612af057612aef612621565b5b612afc87828801612a68565b9250506060612b0d878288016127bd565b91505092959194509250565b600060208284031215612b2f57612b2e61261c565b5b6000612b3d84828501612872565b91505092915050565b612b4f8161279c565b82525050565b6000602082019050612b6a6000830184612b46565b92915050565b600080fd5b600067ffffffffffffffff821115612b9057612b8f612953565b5b612b9982612730565b9050602081019050919050565b82818337600083830152505050565b6000612bc8612bc384612b75565b6129b3565b905082815260208101848484011115612be457612be3612b70565b5b612bef848285612ba6565b509392505050565b600082601f830112612c0c57612c0b61294e565b5b8135612c1c848260208601612bb5565b91505092915050565b600080600060608486031215612c3e57612c3d61261c565b5b6000612c4c86828701612872565b935050602084013567ffffffffffffffff811115612c6d57612c6c612621565b5b612c7986828701612bf7565b925050604084013567ffffffffffffffff811115612c9a57612c99612621565b5b612ca686828701612bf7565b9150509250925092565b6000604082019050612cc56000830185612b46565b612cd26020830184612b46565b9392505050565b612ce2816126ab565b8114612ced57600080fd5b50565b600081359050612cff81612cd9565b92915050565b60008060408385031215612d1c57612d1b61261c565b5b6000612d2a85828601612872565b9250506020612d3b85828601612cf0565b9150509250929050565b600067ffffffffffffffff821115612d6057612d5f612953565b5b612d6982612730565b9050602081019050919050565b6000612d89612d8484612d45565b6129b3565b905082815260208101848484011115612da557612da4612b70565b5b612db0848285612ba6565b509392505050565b600082601f830112612dcd57612dcc61294e565b5b8135612ddd848260208601612d76565b91505092915050565b60008060008060808587031215612e0057612dff61261c565b5b6000612e0e87828801612872565b9450506020612e1f87828801612872565b9350506040612e30878288016127bd565b925050606085013567ffffffffffffffff811115612e5157612e50612621565b5b612e5d87828801612db8565b91505092959194509250565b600081519050919050565b600082825260208201905092915050565b6000819050602082019050919050565b600082825260208201905092915050565b6000612eb1826126e1565b612ebb8185612e95565b9350612ecb8185602086016126fd565b612ed481612730565b840191505092915050565b612ee88161291a565b82525050565b60006040830160008301518482036000860152612f0b8282612ea6565b9150506020830151612f206020860182612edf565b508091505092915050565b6000612f378383612eee565b905092915050565b6000602082019050919050565b6000612f5782612e69565b612f618185612e74565b935083602082028501612f7385612e85565b8060005b85811015612faf5784840389528151612f908582612f2b565b9450612f9b83612f3f565b925060208a01995050600181019050612f77565b50829750879550505050505092915050565b60006020820190508181036000830152612fdb8184612f4c565b905092915050565b60008060008060808587031215612ffd57612ffc61261c565b5b600061300b87828801612872565b945050602061301c87828801612872565b935050604061302d878288016127bd565b925050606061303e878288016127bd565b91505092959194509250565b600080604083850312156130615761306061261c565b5b600061306f85828601612872565b925050602061308085828601612872565b9150509250929050565b600067ffffffffffffffff8211156130a5576130a4612953565b5b602082029050602081019050919050565b60006130c96130c48461308a565b6129b3565b905080838252602082019050602084028301858111156130ec576130eb6129fa565b5b835b8181101561313357803567ffffffffffffffff8111156131115761311061294e565b5b80860161311e8982612a68565b855260208501945050506020810190506130ee565b5050509392505050565b600082601f8301126131525761315161294e565b5b81356131628482602086016130b6565b91505092915050565b6000602082840312156131815761318061261c565b5b600082013567ffffffffffffffff81111561319f5761319e612621565b5b6131ab8482850161313d565b91505092915050565b600081519050919050565b600082825260208201905092915050565b6000819050602082019050919050565b6131e9816126ab565b82525050565b60006131fb83836131e0565b60208301905092915050565b6000602082019050919050565b600061321f826131b4565b61322981856131bf565b9350613234836131d0565b8060005b8381101561326557815161324c88826131ef565b975061325783613207565b925050600181019050613238565b5085935050505092915050565b6000602082019050818103600083015261328c8184613214565b905092915050565b60006080820190506132a96000830187612831565b6132b66020830186612831565b6132c36040830185612b46565b6132d06060830184612b46565b95945050505050565b6132e28161291a565b81146132ed57600080fd5b50565b6000813590506132ff816132d9565b92915050565b6000806040838503121561331c5761331b61261c565b5b600061332a858286016127bd565b925050602061333b858286016132f0565b9150509250929050565b600081519050919050565b600082825260208201905092915050565b6000819050602082019050919050565b61337a8161281f565b82525050565b6133898161279c565b82525050565b6080820160008201516133a56000850182613371565b5060208201516133b86020850182613371565b5060408201516133cb6040850182613380565b5060608201516133de6060850182613380565b50505050565b60006133f0838361338f565b60808301905092915050565b6000602082019050919050565b600061341482613345565b61341e8185613350565b935061342983613361565b8060005b8381101561345a57815161344188826133e4565b975061344c836133fc565b92505060018101905061342d565b5085935050505092915050565b600060208201905081810360008301526134818184613409565b905092915050565b7f4e487b7100000000000000000000000000000000000000000000000000000000600052602260045260246000fd5b600060028204905060018216806134d057607f821691505b602082108114156134e4576134e3613489565b5b50919050565b7f617070726f76616c20746f2063757272656e74206f776e657200000000000000600082015250565b60006135206019836126ec565b915061352b826134ea565b602082019050919050565b6000602082019050818103600083015261354f81613513565b9050919050565b7f617070726f76656420717565727920666f72206e6f6e6578697374656e74207460008201527f6f6b656e00000000000000000000000000000000000000000000000000000000602082015250565b60006135b26024836126ec565b91506135bd82613556565b604082019050919050565b600060208201905081810360008301526135e1816135a5565b9050919050565b7f617070726f76652063616c6c6572206973206e6f74206f776e6572206e6f722060008201527f617070726f76656420666f7220616c6c00000000000000000000000000000000602082015250565b60006136446030836126ec565b915061364f826135e8565b604082019050919050565b6000602082019050818103600083015261367381613637565b9050919050565b7f7472616e736665722063616c6c6572206973206e6f7420746865206f776e657260008201527f206e6f7220617070726f76656400000000000000000000000000000000000000602082015250565b60006136d6602d836126ec565b91506136e18261367a565b604082019050919050565b60006020820190508181036000830152613705816136c9565b9050919050565b7f4552433732313a20696e76616c696420746f6b656e2049440000000000000000600082015250565b60006137426018836126ec565b915061374d8261370c565b602082019050919050565b6000602082019050818103600083015261377181613735565b9050919050565b7f496e76616c696420627579657220616464726573730000000000000000000000600082015250565b60006137ae6015836126ec565b91506137b982613778565b602082019050919050565b600060208201905081810360008301526137dd816137a1565b9050919050565b7f496e76616c69642073656c6c6572206164647265737300000000000000000000600082015250565b600061381a6016836126ec565b9150613825826137e4565b602082019050919050565b600060208201905081810360008301526138498161380d565b9050919050565b7f496e76616c696420746f6b656e20494473000000000000000000000000000000600082015250565b60006138866011836126ec565b915061389182613850565b602082019050919050565b600060208201905081810360008301526138b581613879565b9050919050565b7f4e487b7100000000000000000000000000000000000000000000000000000000600052603260045260246000fd5b7f496e76616c696420746f6b656e20494400000000000000000000000000000000600082015250565b60006139216010836126ec565b915061392c826138eb565b602082019050919050565b6000602082019050818103600083015261395081613914565b9050919050565b7f4e487b7100000000000000000000000000000000000000000000000000000000600052601160045260246000fd5b60006139918261279c565b91507fffffffffffffffffffffffffffffffffffffffffffffffffffffffffffffffff8214156139c4576139c3613957565b5b600182019050919050565b7f4552433732313a2061646472657373207a65726f206973206e6f74206120766160008201527f6c6964206f776e65720000000000000000000000000000000000000000000000602082015250565b6000613a2b6029836126ec565b9150613a36826139cf565b604082019050919050565b60006020820190508181036000830152613a5a81613a1e565b9050919050565b7f617070726f766520746f2063616c6c6572000000000000000000000000000000600082015250565b6000613a976011836126ec565b9150613aa282613a61565b602082019050919050565b60006020820190508181036000830152613ac681613a8a565b9050919050565b7f4552433732313a2063616c6c6572206973206e6f7420746f6b656e206f776e6560008201527f72206f7220617070726f76656400000000000000000000000000000000000000602082015250565b6000613b29602d836126ec565b9150613b3482613acd565b604082019050919050565b60006020820190508181036000830152613b5881613b1c565b9050919050565b7f496e76616c696420696e7075743a206172726179206c656e677468206d75737460008201527f2062652032000000000000000000000000000000000000000000000000000000602082015250565b6000613bbb6025836126ec565b9150613bc682613b5f565b604082019050919050565b60006020820190508181036000830152613bea81613bae565b9050919050565b7f4e465420646f6573206e6f742065786973740000000000000000000000000000600082015250565b6000613c276012836126ec565b9150613c3282613bf1565b602082019050919050565b60006020820190508181036000830152613c5681613c1a565b9050919050565b7f6f70657261746f7220716575727920666f72206e6f6e6578697374656e74207460008201527f6f6b656e00000000000000000000000000000000000000000000000000000000602082015250565b6000613cb96024836126ec565b9150613cc482613c5d565b604082019050919050565b60006020820190508181036000830152613ce881613cac565b9050919050565b7f4552433732313a207472616e736665722066726f6d20696e636f72726563742060008201527f6f776e6572000000000000000000000000000000000000000000000000000000602082015250565b6000613d4b6025836126ec565b9150613d5682613cef565b604082019050919050565b60006020820190508181036000830152613d7a81613d3e565b9050919050565b7f4552433732313a207472616e7366657220746f20746865207a65726f2061646460008201527f7265737300000000000000000000000000000000000000000000000000000000602082015250565b6000613ddd6024836126ec565b9150613de882613d81565b604082019050919050565b60006020820190508181036000830152613e0c81613dd0565b9050919050565b7f6d696e7420746f20746865207a65726f20616464726573730000000000000000600082015250565b6000613e496018836126ec565b9150613e5482613e13565b602082019050919050565b60006020820190508181036000830152613e7881613e3c565b9050919050565b7f746f6b656e20616c7265616479206d696e746564000000000000000000000000600082015250565b6000613eb56014836126ec565b9150613ec082613e7f565b602082019050919050565b60006020820190508181036000830152613ee481613ea8565b9050919050565b7f7472616e7366657220746f206e6f6e204552433732315265636569766572206960008201527f6d706c656d656e74657200000000000000000000000000000000000000000000602082015250565b6000613f47602a836126ec565b9150613f5282613eeb565b604082019050919050565b60006020820190508181036000830152613f7681613f3a565b9050919050565b600081519050919050565b600082825260208201905092915050565b6000613fa482613f7d565b613fae8185613f88565b9350613fbe8185602086016126fd565b613fc781612730565b840191505092915050565b6000608082019050613fe76000830187612831565b613ff46020830186612831565b6140016040830185612b46565b81810360608301526140138184613f99565b905095945050505050565b60008151905061402d81612652565b92915050565b6000602082840312156140495761404861261c565b5b60006140578482850161401e565b91505092915050565b7f4552433732313a207472616e7366657220746f206e6f6e20455243373231526560008201527f63656976657220696d706c656d656e7465720000000000000000000000000000602082015250565b60006140bc6032836126ec565b91506140c782614060565b604082019050919050565b600060208201905081810360008301526140eb816140af565b905091905056fea2646970667358221220f20ed509936945945a4f919e471a047fe9a3f21a91be72552b42e0c44ef446bd64736f6c634300080a0033",
  "immutableReferences": {},
  "source": "// SPDX-License-Identifier: MIT\r\npragma solidity >=0.4.22 <0.9.0;\r\n\r\nimport \"./token/ERC721/ERC721.sol\";\r\nimport \"./utils/Counters.sol\";\r\nimport \"./utils/Strings.sol\";\r\n\r\n/**\r\n * PJT  -  2) NFT Creator \r\n *         .\r\n */\r\ncontract HereNFT is ERC721 {\r\n    \r\n    using Counters for Counters.Counter;\r\n    using Strings for uint256;\r\n\r\n    Counters.Counter private _tokenIds;\r\n    mapping(uint256 => string) tokenURIs;\r\n\r\n    event createNFT (uint256 indexed _tokenId, address indexed _owner);\r\n\r\n    constructor() ERC721(\"HERE-NFT\", \"TBD\") {}\r\n\r\n    // NFT \r\n    struct NFT {\r\n        string tokenURI;\r\n        bytes32 hashValue;\r\n    }\r\n    uint256[] private _nftIds;\r\n    mapping(uint256 => NFT) private _nfts;\r\n\r\n    //  \r\n    struct TransactionLog {\r\n        address from;\r\n        address to;\r\n        uint256 tokenId;\r\n        uint256 timestamp;\r\n    }\r\n    //  \r\n    TransactionLog[] public transactionLogs;\r\n\r\n    // NFT    \r\n    function donateNFT(\r\n        address _from,\r\n        address _to,\r\n        uint256 _tokenId,\r\n        uint256 _timestamp\r\n    ) public payable {\r\n        require(_from != address(0), \"Invalid buyer address\");\r\n        require(_to != address(0), \"Invalid seller address\");\r\n        require(_tokenId != 0, \"Invalid token ID\");\r\n\r\n        // Transfer ownership of NFT from seller to buyer\r\n        //emit Transfer(_seller, _buyer, _tokenId);\r\n        safeTransferFrom(_from, _to, _tokenId);\r\n\r\n        // Add transaction log to the transactionLogs array\r\n        transactionLogs.push(\r\n            TransactionLog({\r\n                from: _from,\r\n                to: _to,\r\n                tokenId: _tokenId,\r\n                timestamp: _timestamp\r\n            })\r\n        );\r\n\r\n    }\r\n    // tokenid    nft   \r\n    function donateNFTList(\r\n        address _from,\r\n        address _to,\r\n        uint256[] memory _tokenIdList,\r\n        uint256 _timestamp\r\n    ) public payable {\r\n        require(_from != address(0), \"Invalid buyer address\");\r\n        require(_to != address(0), \"Invalid seller address\");\r\n        require(_tokenIdList.length > 0, \"Invalid token IDs\");\r\n\r\n        for (uint i = 0; i < _tokenIdList.length; i++) {\r\n            uint256 tokenId = _tokenIdList[i];\r\n            require(tokenId != 0, \"Invalid token ID\");\r\n\r\n            // Transfer ownership of NFT from seller to buyer\r\n            safeTransferFrom(_from, _to, tokenId);\r\n\r\n            // Add transaction log to the transactionLogs array\r\n            transactionLogs.push(\r\n                TransactionLog({\r\n                    from: _from,\r\n                    to: _to,\r\n                    tokenId: tokenId,\r\n                    timestamp: _timestamp\r\n                })\r\n            );\r\n        }\r\n    }\r\n\r\n    //  NFT    \r\n    function getTransactionLogs(uint256 _tokenId)\r\n        external\r\n        view\r\n        returns (TransactionLog[] memory)\r\n    {\r\n        uint256 count = 0;\r\n        for (uint256 i = 0; i < transactionLogs.length; i++) {\r\n            if (transactionLogs[i].tokenId == _tokenId) {\r\n                count++;\r\n            }\r\n        }\r\n        TransactionLog[] memory logs = new TransactionLog[](count);\r\n        uint256 index = 0;\r\n        for (uint256 i = 0; i < transactionLogs.length; i++) {\r\n            if (transactionLogs[i].tokenId == _tokenId) {\r\n                logs[index] = transactionLogs[i];\r\n                index++;\r\n            }\r\n        }\r\n        return logs;\r\n    }\r\n\r\n    //    \r\n    function current() public view returns (uint256) {\r\n        return _tokenIds.current();\r\n    }\r\n\r\n    \r\n    // tokenId  toenURI  \r\n    function tokenURI(uint256 tokenId) public view override returns (string memory) {\r\n        // TODO\r\n        _requireMinted(tokenId);\r\n        return tokenURIs[tokenId];\r\n    }\r\n\r\n    // \r\n    function create(address to, string memory _tokenURI1, string memory _tokenURI2) public returns (uint256, uint256) {\r\n        _tokenIds.increment();\r\n\r\n        uint256 newItemId1 = _tokenIds.current();\r\n        _mint(to, newItemId1);\r\n        tokenURIs[newItemId1] = _tokenURI1;\r\n\r\n        bytes32 hashValue1 = keccak256(bytes(_tokenURI1));\r\n        NFT memory nft1 = NFT({\r\n            tokenURI: _tokenURI1,\r\n            hashValue: hashValue1\r\n        });\r\n        _nftIds.push(newItemId1);\r\n        _nfts[newItemId1] = nft1;\r\n\r\n        _tokenIds.increment();\r\n\r\n        uint256 newItemId2 = _tokenIds.current();\r\n        _mint(to, newItemId2);\r\n        tokenURIs[newItemId2] = _tokenURI2;\r\n\r\n        bytes32 hashValue2 = keccak256(bytes(_tokenURI2));\r\n        NFT memory nft2 = NFT({\r\n            tokenURI: _tokenURI2,\r\n            hashValue: hashValue2\r\n        });\r\n        _nftIds.push(newItemId2);\r\n        _nfts[newItemId2] = nft2;\r\n\r\n        return (newItemId1, newItemId2);\r\n    }\r\n\r\n    //  NFT  \r\n    function getAllNFTs() public view returns (NFT[] memory) {\r\n        uint256 totalNFTs = _nftIds.length;\r\n        NFT[] memory nftsList = new NFT[](totalNFTs);\r\n        for (uint256 i = 0; i < totalNFTs; i++) {\r\n            uint256 nftId = _nftIds[i];\r\n            NFT memory nft = _nfts[nftId];\r\n            nftsList[i] = nft;\r\n        }\r\n        return nftsList;\r\n    }   \r\n\r\n    function getHashValue(uint256 tokenId) public view returns(bytes32) {\r\n        return _nfts[tokenId].hashValue;\r\n    }\r\n\r\n    event NFTVerified(uint256 indexed tokenId, string metadataURI, bytes metadata, bytes32 metadataHash, bytes32 inputHash);\r\n\r\n    function verifyNFT(uint256 tokenId, bytes32 hash) public view returns (bool) {\r\n        require(_exists(tokenId), \"NFT does not exist\");\r\n\r\n        // NFT Metadata URI \r\n        string memory metadataURI = tokenURI(tokenId);\r\n\r\n        // JSON   \r\n        bytes32 transactionHash = keccak256(bytes(metadataURI));\r\n\r\n         //      \r\n        bool verified = transactionHash == hash;\r\n\r\n\r\n        return verified;\r\n    }\r\n\r\n    function verifyNFTList(uint256[][] memory inputList) public view returns (bool[] memory results) {\r\n        results = new bool[](inputList.length);\r\n\r\n        for (uint256 i = 0; i < inputList.length; i++) {\r\n            require(inputList[i].length == 2, \"Invalid input: array length must be 2\");\r\n            uint256 tokenId = inputList[i][0];\r\n            bytes32 hash = bytes32(inputList[i][1]);\r\n\r\n            require(_exists(tokenId), \"NFT does not exist\");\r\n\r\n            string memory metadataURI = tokenURI(tokenId);\r\n            bytes32 transactionHash = keccak256(bytes(metadataURI));\r\n            bool verified = transactionHash == hash;\r\n            results[i] = verified;\r\n        }\r\n        return results;\r\n    }\r\n}",
  "sourcePath": "C:\\SSAFY\\workspace\\blockchain\\S08P22B209\\here-blockchain\\contracts\\HereNFT.sol",
  "compiler": {
    "name": "solc",
    "version": "0.8.10+commit.fc410830.Emscripten.clang"
  },
  "schemaVersion": "3.4.4",
  "updatedAt": "2023-04-01T12:51:48.057Z",
  "networkType": "ethereum",
  "devdoc": {
    "kind": "dev",
    "methods": {
      "approve(address,uint256)": {
        "details": "See {IERC721-approve}."
      },
      "balanceOf(address)": {
        "details": "See {IERC721-balanceOf}."
      },
      "getApproved(uint256)": {
        "details": "See {IERC721-getApproved}."
      },
      "isApprovedForAll(address,address)": {
        "details": "See {IERC721-isApprovedForAll}."
      },
      "name()": {
        "details": "See {IERC721Metadata-name}."
      },
      "ownerOf(uint256)": {
        "details": "See {IERC721-ownerOf}."
      },
      "safeTransferFrom(address,address,uint256)": {
        "details": "See {IERC721-safeTransferFrom}."
      },
      "safeTransferFrom(address,address,uint256,bytes)": {
        "details": "See {IERC721-safeTransferFrom}."
      },
      "setApprovalForAll(address,bool)": {
        "details": "See {IERC721-setApprovalForAll}."
      },
      "supportsInterface(bytes4)": {
        "details": "See {IERC165-supportsInterface}."
      },
      "symbol()": {
        "details": "See {IERC721Metadata-symbol}."
      },
      "tokenURI(uint256)": {
        "details": "See {IERC721Metadata-tokenURI}."
      },
      "transferFrom(address,address,uint256)": {
        "details": "See {IERC721-transferFrom}."
      }
    },
    "version": 1
  },
  "userdoc": {
    "kind": "user",
    "methods": {},
    "notice": "PJT  -  2) NFT Creator          .",
    "version": 1
  }
}