{
  "contractName": "HereNFT",
  "abi": [
    {
      "inputs": [],
      "stateMutability": "nonpayable",
      "type": "constructor"
    },
    {
      "anonymous": false,
      "inputs": [
        {
          "indexed": true,
          "internalType": "address",
          "name": "owner",
          "type": "address"
        },
        {
          "indexed": true,
          "internalType": "address",
          "name": "approved",
          "type": "address"
        },
        {
          "indexed": true,
          "internalType": "uint256",
          "name": "tokenId",
          "type": "uint256"
        }
      ],
      "name": "Approval",
      "type": "event"
    },
    {
      "anonymous": false,
      "inputs": [
        {
          "indexed": true,
          "internalType": "address",
          "name": "owner",
          "type": "address"
        },
        {
          "indexed": true,
          "internalType": "address",
          "name": "operator",
          "type": "address"
        },
        {
          "indexed": false,
          "internalType": "bool",
          "name": "approved",
          "type": "bool"
        }
      ],
      "name": "ApprovalForAll",
      "type": "event"
    },
    {
      "anonymous": false,
      "inputs": [
        {
          "indexed": true,
          "internalType": "uint256",
          "name": "tokenId",
          "type": "uint256"
        },
        {
          "indexed": false,
          "internalType": "string",
          "name": "metadataURI",
          "type": "string"
        },
        {
          "indexed": false,
          "internalType": "bytes",
          "name": "metadata",
          "type": "bytes"
        },
        {
          "indexed": false,
          "internalType": "bytes32",
          "name": "metadataHash",
          "type": "bytes32"
        },
        {
          "indexed": false,
          "internalType": "bytes32",
          "name": "inputHash",
          "type": "bytes32"
        }
      ],
      "name": "NFTVerified",
      "type": "event"
    },
    {
      "anonymous": false,
      "inputs": [
        {
          "indexed": true,
          "internalType": "address",
          "name": "from",
          "type": "address"
        },
        {
          "indexed": true,
          "internalType": "address",
          "name": "to",
          "type": "address"
        },
        {
          "indexed": true,
          "internalType": "uint256",
          "name": "tokenId",
          "type": "uint256"
        }
      ],
      "name": "Transfer",
      "type": "event"
    },
    {
      "anonymous": false,
      "inputs": [
        {
          "indexed": true,
          "internalType": "uint256",
          "name": "_tokenId",
          "type": "uint256"
        },
        {
          "indexed": true,
          "internalType": "address",
          "name": "_owner",
          "type": "address"
        }
      ],
      "name": "createNFT",
      "type": "event"
    },
    {
      "inputs": [
        {
          "internalType": "address",
          "name": "to",
          "type": "address"
        },
        {
          "internalType": "uint256",
          "name": "tokenId",
          "type": "uint256"
        }
      ],
      "name": "approve",
      "outputs": [],
      "stateMutability": "nonpayable",
      "type": "function"
    },
    {
      "inputs": [
        {
          "internalType": "address",
          "name": "owner",
          "type": "address"
        }
      ],
      "name": "balanceOf",
      "outputs": [
        {
          "internalType": "uint256",
          "name": "",
          "type": "uint256"
        }
      ],
      "stateMutability": "view",
      "type": "function",
      "constant": true
    },
    {
      "inputs": [
        {
          "internalType": "uint256",
          "name": "tokenId",
          "type": "uint256"
        }
      ],
      "name": "getApproved",
      "outputs": [
        {
          "internalType": "address",
          "name": "",
          "type": "address"
        }
      ],
      "stateMutability": "view",
      "type": "function",
      "constant": true
    },
    {
      "inputs": [
        {
          "internalType": "address",
          "name": "owner",
          "type": "address"
        },
        {
          "internalType": "address",
          "name": "operator",
          "type": "address"
        }
      ],
      "name": "isApprovedForAll",
      "outputs": [
        {
          "internalType": "bool",
          "name": "",
          "type": "bool"
        }
      ],
      "stateMutability": "view",
      "type": "function",
      "constant": true
    },
    {
      "inputs": [],
      "name": "name",
      "outputs": [
        {
          "internalType": "string",
          "name": "",
          "type": "string"
        }
      ],
      "stateMutability": "view",
      "type": "function",
      "constant": true
    },
    {
      "inputs": [
        {
          "internalType": "uint256",
          "name": "tokenId",
          "type": "uint256"
        }
      ],
      "name": "ownerOf",
      "outputs": [
        {
          "internalType": "address",
          "name": "",
          "type": "address"
        }
      ],
      "stateMutability": "view",
      "type": "function",
      "constant": true
    },
    {
      "inputs": [
        {
          "internalType": "address",
          "name": "from",
          "type": "address"
        },
        {
          "internalType": "address",
          "name": "to",
          "type": "address"
        },
        {
          "internalType": "uint256",
          "name": "tokenId",
          "type": "uint256"
        }
      ],
      "name": "safeTransferFrom",
      "outputs": [],
      "stateMutability": "nonpayable",
      "type": "function"
    },
    {
      "inputs": [
        {
          "internalType": "address",
          "name": "from",
          "type": "address"
        },
        {
          "internalType": "address",
          "name": "to",
          "type": "address"
        },
        {
          "internalType": "uint256",
          "name": "tokenId",
          "type": "uint256"
        },
        {
          "internalType": "bytes",
          "name": "_data",
          "type": "bytes"
        }
      ],
      "name": "safeTransferFrom",
      "outputs": [],
      "stateMutability": "nonpayable",
      "type": "function"
    },
    {
      "inputs": [
        {
          "internalType": "address",
          "name": "operator",
          "type": "address"
        },
        {
          "internalType": "bool",
          "name": "approved",
          "type": "bool"
        }
      ],
      "name": "setApprovalForAll",
      "outputs": [],
      "stateMutability": "nonpayable",
      "type": "function"
    },
    {
      "inputs": [
        {
          "internalType": "bytes4",
          "name": "interfaceId",
          "type": "bytes4"
        }
      ],
      "name": "supportsInterface",
      "outputs": [
        {
          "internalType": "bool",
          "name": "",
          "type": "bool"
        }
      ],
      "stateMutability": "view",
      "type": "function",
      "constant": true
    },
    {
      "inputs": [],
      "name": "symbol",
      "outputs": [
        {
          "internalType": "string",
          "name": "",
          "type": "string"
        }
      ],
      "stateMutability": "view",
      "type": "function",
      "constant": true
    },
    {
      "inputs": [
        {
          "internalType": "uint256",
          "name": "",
          "type": "uint256"
        }
      ],
      "name": "transactionLogs",
      "outputs": [
        {
          "internalType": "address",
          "name": "from",
          "type": "address"
        },
        {
          "internalType": "address",
          "name": "to",
          "type": "address"
        },
        {
          "internalType": "uint256",
          "name": "tokenId",
          "type": "uint256"
        },
        {
          "internalType": "uint256",
          "name": "timestamp",
          "type": "uint256"
        }
      ],
      "stateMutability": "view",
      "type": "function",
      "constant": true
    },
    {
      "inputs": [
        {
          "internalType": "address",
          "name": "from",
          "type": "address"
        },
        {
          "internalType": "address",
          "name": "to",
          "type": "address"
        },
        {
          "internalType": "uint256",
          "name": "tokenId",
          "type": "uint256"
        }
      ],
      "name": "transferFrom",
      "outputs": [],
      "stateMutability": "nonpayable",
      "type": "function"
    },
    {
      "inputs": [
        {
          "internalType": "address",
          "name": "_from",
          "type": "address"
        },
        {
          "internalType": "address",
          "name": "_to",
          "type": "address"
        },
        {
          "internalType": "uint256",
          "name": "_tokenId",
          "type": "uint256"
        },
        {
          "internalType": "uint256",
          "name": "_timestamp",
          "type": "uint256"
        }
      ],
      "name": "donateNFT",
      "outputs": [],
      "stateMutability": "payable",
      "type": "function",
      "payable": true
    },
    {
      "inputs": [
        {
          "internalType": "address",
          "name": "_from",
          "type": "address"
        },
        {
          "internalType": "address",
          "name": "_to",
          "type": "address"
        },
        {
          "internalType": "uint256[]",
          "name": "_tokenIdList",
          "type": "uint256[]"
        },
        {
          "internalType": "uint256",
          "name": "_timestamp",
          "type": "uint256"
        }
      ],
      "name": "donateNFTList",
      "outputs": [],
      "stateMutability": "payable",
      "type": "function",
      "payable": true
    },
    {
      "inputs": [
        {
          "internalType": "uint256",
          "name": "_tokenId",
          "type": "uint256"
        }
      ],
      "name": "getTransactionLogs",
      "outputs": [
        {
          "components": [
            {
              "internalType": "address",
              "name": "from",
              "type": "address"
            },
            {
              "internalType": "address",
              "name": "to",
              "type": "address"
            },
            {
              "internalType": "uint256",
              "name": "tokenId",
              "type": "uint256"
            },
            {
              "internalType": "uint256",
              "name": "timestamp",
              "type": "uint256"
            }
          ],
          "internalType": "struct HereNFT.TransactionLog[]",
          "name": "",
          "type": "tuple[]"
        }
      ],
      "stateMutability": "view",
      "type": "function",
      "constant": true
    },
    {
      "inputs": [],
      "name": "current",
      "outputs": [
        {
          "internalType": "uint256",
          "name": "",
          "type": "uint256"
        }
      ],
      "stateMutability": "view",
      "type": "function",
      "constant": true
    },
    {
      "inputs": [
        {
          "internalType": "uint256",
          "name": "tokenId",
          "type": "uint256"
        }
      ],
      "name": "tokenURI",
      "outputs": [
        {
          "internalType": "string",
          "name": "",
          "type": "string"
        }
      ],
      "stateMutability": "view",
      "type": "function",
      "constant": true
    },
    {
      "inputs": [
        {
          "internalType": "address",
          "name": "to",
          "type": "address"
        },
        {
          "internalType": "string",
          "name": "_tokenURI1",
          "type": "string"
        },
        {
          "internalType": "string",
          "name": "_tokenURI2",
          "type": "string"
        }
      ],
      "name": "create",
      "outputs": [
        {
          "internalType": "uint256",
          "name": "",
          "type": "uint256"
        },
        {
          "internalType": "uint256",
          "name": "",
          "type": "uint256"
        }
      ],
      "stateMutability": "nonpayable",
      "type": "function"
    },
    {
      "inputs": [],
      "name": "getAllNFTs",
      "outputs": [
        {
          "components": [
            {
              "internalType": "string",
              "name": "tokenURI",
              "type": "string"
            },
            {
              "internalType": "bytes32",
              "name": "hashValue",
              "type": "bytes32"
            }
          ],
          "internalType": "struct HereNFT.NFT[]",
          "name": "",
          "type": "tuple[]"
        }
      ],
      "stateMutability": "view",
      "type": "function",
      "constant": true
    },
    {
      "inputs": [
        {
          "internalType": "uint256",
          "name": "tokenId",
          "type": "uint256"
        }
      ],
      "name": "getHashValue",
      "outputs": [
        {
          "internalType": "bytes32",
          "name": "",
          "type": "bytes32"
        }
      ],
      "stateMutability": "view",
      "type": "function",
      "constant": true
    },
    {
      "inputs": [
        {
          "internalType": "uint256",
          "name": "tokenId",
          "type": "uint256"
        },
        {
          "internalType": "bytes32",
          "name": "hash",
          "type": "bytes32"
        }
      ],
      "name": "verifyNFT",
      "outputs": [
        {
          "internalType": "bool",
          "name": "",
          "type": "bool"
        }
      ],
      "stateMutability": "view",
      "type": "function",
      "constant": true
    }
  ],
  "bytecode": "0x60806040523480156200001157600080fd5b506040518060400160405280600881526020017f484552452d4e46540000000000000000000000000000000000000000000000008152506040518060400160405280600381526020017f5442440000000000000000000000000000000000000000000000000000000000815250816000908051906020019062000096929190620000b8565b508060019080519060200190620000af929190620000b8565b505050620001cd565b828054620000c69062000197565b90600052602060002090601f016020900481019282620000ea576000855562000136565b82601f106200010557805160ff191683800117855562000136565b8280016001018555821562000136579182015b828111156200013557825182559160200191906001019062000118565b5b50905062000145919062000149565b5090565b5b80821115620001645760008160009055506001016200014a565b5090565b7f4e487b7100000000000000000000000000000000000000000000000000000000600052602260045260246000fd5b60006002820490506001821680620001b057607f821691505b60208210811415620001c757620001c662000168565b5b50919050565b613c6980620001dd6000396000f3fe6080604052600436106101355760003560e01c806395d89b41116100ab578063e0391b091161006f578063e0391b0914610450578063e2b553a41461047b578063e985e9c514610497578063f1f69f22146104d4578063f5545e9614610514578063fb13effc1461055157610135565b806395d89b411461036b5780639fa6a6e314610396578063a22cb465146103c1578063b88d4fde146103ea578063c87b56dd1461041357610135565b806342842e0e116100fd57806342842e0e146102315780636352211e1461025a5780636fbf29e6146102975780637058cd54146102d457806370a08231146102f0578063796d58361461032d57610135565b806301ffc9a71461013a57806306fdde0314610177578063081812fc146101a2578063095ea7b3146101df57806323b872dd14610208575b600080fd5b34801561014657600080fd5b50610161600480360381019061015c919061245b565b61058e565b60405161016e91906124a3565b60405180910390f35b34801561018357600080fd5b5061018c610670565b6040516101999190612557565b60405180910390f35b3480156101ae57600080fd5b506101c960048036038101906101c491906125af565b610702565b6040516101d6919061261d565b60405180910390f35b3480156101eb57600080fd5b5061020660048036038101906102019190612664565b610748565b005b34801561021457600080fd5b5061022f600480360381019061022a91906126a4565b61093d565b005b34801561023d57600080fd5b50610258600480360381019061025391906126a4565b610996565b005b34801561026657600080fd5b50610281600480360381019061027c91906125af565b6109b6565b60405161028e919061261d565b60405180910390f35b3480156102a357600080fd5b506102be60048036038101906102b991906125af565b610a68565b6040516102cb9190612710565b60405180910390f35b6102ee60048036038101906102e99190612873565b610a88565b005b3480156102fc57600080fd5b50610317600480360381019061031291906128f6565b610d5d565b6040516103249190612932565b60405180910390f35b34801561033957600080fd5b50610354600480360381019061034f9190612a02565b610e15565b604051610362929190612a8d565b60405180910390f35b34801561037757600080fd5b50610380610fd8565b60405161038d9190612557565b60405180910390f35b3480156103a257600080fd5b506103ab61106a565b6040516103b89190612932565b60405180910390f35b3480156103cd57600080fd5b506103e860048036038101906103e39190612ae2565b61107b565b005b3480156103f657600080fd5b50610411600480360381019061040c9190612bc3565b6111e7565b005b34801561041f57600080fd5b5061043a600480360381019061043591906125af565b611242565b6040516104479190612557565b60405180910390f35b34801561045c57600080fd5b506104656112f0565b6040516104729190612d9e565b60405180910390f35b61049560048036038101906104909190612dc0565b61147d565b005b3480156104a357600080fd5b506104be60048036038101906104b99190612e27565b6116ce565b6040516104cb91906124a3565b60405180910390f35b3480156104e057600080fd5b506104fb60048036038101906104f691906125af565b611762565b60405161050b9493929190612e67565b60405180910390f35b34801561052057600080fd5b5061053b60048036038101906105369190612ed8565b6117e2565b60405161054891906124a3565b60405180910390f35b34801561055d57600080fd5b50610578600480360381019061057391906125af565b611858565b604051610585919061303a565b60405180910390f35b60007f80ac58cd000000000000000000000000000000000000000000000000000000007bffffffffffffffffffffffffffffffffffffffffffffffffffffffff1916827bffffffffffffffffffffffffffffffffffffffffffffffffffffffff1916148061065957507f5b5e139f000000000000000000000000000000000000000000000000000000007bffffffffffffffffffffffffffffffffffffffffffffffffffffffff1916827bffffffffffffffffffffffffffffffffffffffffffffffffffffffff1916145b80610669575061066882611a8a565b5b9050919050565b60606000805461067f9061308b565b80601f01602080910402602001604051908101604052809291908181526020018280546106ab9061308b565b80156106f85780601f106106cd576101008083540402835291602001916106f8565b820191906000526020600020905b8154815290600101906020018083116106db57829003601f168201915b5050505050905090565b600061070d82611af4565b6004600083815260200190815260200160002060009054906101000a900473ffffffffffffffffffffffffffffffffffffffff169050919050565b6000610753826109b6565b90508073ffffffffffffffffffffffffffffffffffffffff168373ffffffffffffffffffffffffffffffffffffffff1614156107c4576040517f08c379a00000000000000000000000000000000000000000000000000000000081526004016107bb90613109565b60405180910390fd5b6107cd82611b3f565b61080c576040517f08c379a00000000000000000000000000000000000000000000000000000000081526004016108039061319b565b60405180910390fd5b8073ffffffffffffffffffffffffffffffffffffffff163373ffffffffffffffffffffffffffffffffffffffff16148061084c575061084b81336116ce565b5b61088b576040517f08c379a00000000000000000000000000000000000000000000000000000000081526004016108829061322d565b60405180910390fd5b826004600084815260200190815260200160002060006101000a81548173ffffffffffffffffffffffffffffffffffffffff021916908373ffffffffffffffffffffffffffffffffffffffff160217905550818373ffffffffffffffffffffffffffffffffffffffff168273ffffffffffffffffffffffffffffffffffffffff167f8c5be1e5ebec7d5bd14f71427d1e84f3dd0314c0f7b2291e5b200ac8c7c3b92560405160405180910390a4505050565b6109473382611bab565b610986576040517f08c379a000000000000000000000000000000000000000000000000000000000815260040161097d906132bf565b60405180910390fd5b610991838383611c89565b505050565b6109b1838383604051806020016040528060008152506111e7565b505050565b6000806002600084815260200190815260200160002060009054906101000a900473ffffffffffffffffffffffffffffffffffffffff169050600073ffffffffffffffffffffffffffffffffffffffff168173ffffffffffffffffffffffffffffffffffffffff161415610a5f576040517f08c379a0000000000000000000000000000000000000000000000000000000008152600401610a569061332b565b60405180910390fd5b80915050919050565b600060096000838152602001908152602001600020600101549050919050565b600073ffffffffffffffffffffffffffffffffffffffff168473ffffffffffffffffffffffffffffffffffffffff161415610af8576040517f08c379a0000000000000000000000000000000000000000000000000000000008152600401610aef90613397565b60405180910390fd5b600073ffffffffffffffffffffffffffffffffffffffff168373ffffffffffffffffffffffffffffffffffffffff161415610b68576040517f08c379a0000000000000000000000000000000000000000000000000000000008152600401610b5f90613403565b60405180910390fd5b6000825111610bac576040517f08c379a0000000000000000000000000000000000000000000000000000000008152600401610ba39061346f565b60405180910390fd5b60005b8251811015610d56576000838281518110610bcd57610bcc61348f565b5b602002602001015190506000811415610c1b576040517f08c379a0000000000000000000000000000000000000000000000000000000008152600401610c129061350a565b60405180910390fd5b610c26868683610996565b600a60405180608001604052808873ffffffffffffffffffffffffffffffffffffffff1681526020018773ffffffffffffffffffffffffffffffffffffffff16815260200183815260200185815250908060018154018082558091505060019003906000526020600020906004020160009091909190915060008201518160000160006101000a81548173ffffffffffffffffffffffffffffffffffffffff021916908373ffffffffffffffffffffffffffffffffffffffff16021790555060208201518160010160006101000a81548173ffffffffffffffffffffffffffffffffffffffff021916908373ffffffffffffffffffffffffffffffffffffffff16021790555060408201518160020155606082015181600301555050508080610d4e90613559565b915050610baf565b5050505050565b60008073ffffffffffffffffffffffffffffffffffffffff168273ffffffffffffffffffffffffffffffffffffffff161415610dce576040517f08c379a0000000000000000000000000000000000000000000000000000000008152600401610dc590613614565b60405180910390fd5b600360008373ffffffffffffffffffffffffffffffffffffffff1673ffffffffffffffffffffffffffffffffffffffff168152602001908152602001600020549050919050565b600080610e226006611ec6565b6000610e2e6006611edc565b9050610e3a8682611eea565b84600760008381526020019081526020016000209080519060200190610e619291906122db565b5060008580519060200120905060006040518060400160405280888152602001838152509050600883908060018154018082558091505060019003906000526020600020016000909190919091505580600960008581526020019081526020016000206000820151816000019080519060200190610ee09291906122db565b5060208201518160010155905050610ef86006611ec6565b6000610f046006611edc565b9050610f108982611eea565b86600760008381526020019081526020016000209080519060200190610f379291906122db565b50600087805190602001209050600060405180604001604052808a8152602001838152509050600883908060018154018082558091505060019003906000526020600020016000909190919091505580600960008581526020019081526020016000206000820151816000019080519060200190610fb69291906122db565b5060208201518160010155905050858397509750505050505050935093915050565b606060018054610fe79061308b565b80601f01602080910402602001604051908101604052809291908181526020018280546110139061308b565b80156110605780601f1061103557610100808354040283529160200191611060565b820191906000526020600020905b81548152906001019060200180831161104357829003601f168201915b5050505050905090565b60006110766006611edc565b905090565b3373ffffffffffffffffffffffffffffffffffffffff168273ffffffffffffffffffffffffffffffffffffffff1614156110ea576040517f08c379a00000000000000000000000000000000000000000000000000000000081526004016110e190613680565b60405180910390fd5b80600560003373ffffffffffffffffffffffffffffffffffffffff1673ffffffffffffffffffffffffffffffffffffffff16815260200190815260200160002060008473ffffffffffffffffffffffffffffffffffffffff1673ffffffffffffffffffffffffffffffffffffffff16815260200190815260200160002060006101000a81548160ff0219169083151502179055508173ffffffffffffffffffffffffffffffffffffffff163373ffffffffffffffffffffffffffffffffffffffff167f17307eab39ab6107e8899845ad3d59bd9653f200f220920489ca2b5937696c31836040516111db91906124a3565b60405180910390a35050565b6111f13383611bab565b611230576040517f08c379a000000000000000000000000000000000000000000000000000000000815260040161122790613712565b60405180910390fd5b61123c848484846120a3565b50505050565b606061124d82611af4565b60076000838152602001908152602001600020805461126b9061308b565b80601f01602080910402602001604051908101604052809291908181526020018280546112979061308b565b80156112e45780601f106112b9576101008083540402835291602001916112e4565b820191906000526020600020905b8154815290600101906020018083116112c757829003601f168201915b50505050509050919050565b60606000600880549050905060008167ffffffffffffffff81111561131857611317612730565b5b60405190808252806020026020018201604052801561135157816020015b61133e612361565b8152602001906001900390816113365790505b50905060005b82811015611474576000600882815481106113755761137461348f565b5b906000526020600020015490506000600960008381526020019081526020016000206040518060400160405290816000820180546113b29061308b565b80601f01602080910402602001604051908101604052809291908181526020018280546113de9061308b565b801561142b5780601f106114005761010080835404028352916020019161142b565b820191906000526020600020905b81548152906001019060200180831161140e57829003601f168201915b505050505081526020016001820154815250509050808484815181106114545761145361348f565b5b60200260200101819052505050808061146c90613559565b915050611357565b50809250505090565b600073ffffffffffffffffffffffffffffffffffffffff168473ffffffffffffffffffffffffffffffffffffffff1614156114ed576040517f08c379a00000000000000000000000000000000000000000000000000000000081526004016114e490613397565b60405180910390fd5b600073ffffffffffffffffffffffffffffffffffffffff168373ffffffffffffffffffffffffffffffffffffffff16141561155d576040517f08c379a000000000000000000000000000000000000000000000000000000000815260040161155490613403565b60405180910390fd5b60008214156115a1576040517f08c379a00000000000000000000000000000000000000000000000000000000081526004016115989061350a565b60405180910390fd5b6115ac848484610996565b600a60405180608001604052808673ffffffffffffffffffffffffffffffffffffffff1681526020018573ffffffffffffffffffffffffffffffffffffffff16815260200184815260200183815250908060018154018082558091505060019003906000526020600020906004020160009091909190915060008201518160000160006101000a81548173ffffffffffffffffffffffffffffffffffffffff021916908373ffffffffffffffffffffffffffffffffffffffff16021790555060208201518160010160006101000a81548173ffffffffffffffffffffffffffffffffffffffff021916908373ffffffffffffffffffffffffffffffffffffffff1602179055506040820151816002015560608201518160030155505050505050565b6000600560008473ffffffffffffffffffffffffffffffffffffffff1673ffffffffffffffffffffffffffffffffffffffff16815260200190815260200160002060008373ffffffffffffffffffffffffffffffffffffffff1673ffffffffffffffffffffffffffffffffffffffff16815260200190815260200160002060009054906101000a900460ff16905092915050565b600a818154811061177257600080fd5b90600052602060002090600402016000915090508060000160009054906101000a900473ffffffffffffffffffffffffffffffffffffffff16908060010160009054906101000a900473ffffffffffffffffffffffffffffffffffffffff16908060020154908060030154905084565b60006117ed83611b3f565b61182c576040517f08c379a00000000000000000000000000000000000000000000000000000000081526004016118239061377e565b60405180910390fd5b600061183784611242565b90506000818051906020012090506000848214905080935050505092915050565b60606000805b600a805490508110156118ba5783600a82815481106118805761187f61348f565b5b90600052602060002090600402016002015414156118a75781806118a390613559565b9250505b80806118b290613559565b91505061185e565b5060008167ffffffffffffffff8111156118d7576118d6612730565b5b60405190808252806020026020018201604052801561191057816020015b6118fd61237e565b8152602001906001900390816118f55790505b5090506000805b600a80549050811015611a7e5785600a82815481106119395761193861348f565b5b9060005260206000209060040201600201541415611a6b57600a81815481106119655761196461348f565b5b90600052602060002090600402016040518060800160405290816000820160009054906101000a900473ffffffffffffffffffffffffffffffffffffffff1673ffffffffffffffffffffffffffffffffffffffff1673ffffffffffffffffffffffffffffffffffffffff1681526020016001820160009054906101000a900473ffffffffffffffffffffffffffffffffffffffff1673ffffffffffffffffffffffffffffffffffffffff1673ffffffffffffffffffffffffffffffffffffffff16815260200160028201548152602001600382015481525050838381518110611a5157611a5061348f565b5b60200260200101819052508180611a6790613559565b9250505b8080611a7690613559565b915050611917565b50819350505050919050565b60007f01ffc9a7000000000000000000000000000000000000000000000000000000007bffffffffffffffffffffffffffffffffffffffffffffffffffffffff1916827bffffffffffffffffffffffffffffffffffffffffffffffffffffffff1916149050919050565b611afd81611b3f565b611b3c576040517f08c379a0000000000000000000000000000000000000000000000000000000008152600401611b339061332b565b60405180910390fd5b50565b60008073ffffffffffffffffffffffffffffffffffffffff166002600084815260200190815260200160002060009054906101000a900473ffffffffffffffffffffffffffffffffffffffff1673ffffffffffffffffffffffffffffffffffffffff1614159050919050565b6000611bb682611b3f565b611bf5576040517f08c379a0000000000000000000000000000000000000000000000000000000008152600401611bec90613810565b60405180910390fd5b6000611c00836109b6565b90508073ffffffffffffffffffffffffffffffffffffffff168473ffffffffffffffffffffffffffffffffffffffff161480611c6f57508373ffffffffffffffffffffffffffffffffffffffff16611c5784610702565b73ffffffffffffffffffffffffffffffffffffffff16145b80611c805750611c7f81856116ce565b5b91505092915050565b8273ffffffffffffffffffffffffffffffffffffffff16611ca9826109b6565b73ffffffffffffffffffffffffffffffffffffffff1614611cff576040517f08c379a0000000000000000000000000000000000000000000000000000000008152600401611cf6906138a2565b60405180910390fd5b600073ffffffffffffffffffffffffffffffffffffffff168273ffffffffffffffffffffffffffffffffffffffff161415611d6f576040517f08c379a0000000000000000000000000000000000000000000000000000000008152600401611d6690613934565b60405180910390fd5b611d78816120ff565b6001600360008573ffffffffffffffffffffffffffffffffffffffff1673ffffffffffffffffffffffffffffffffffffffff168152602001908152602001600020600082825403925050819055506001600360008473ffffffffffffffffffffffffffffffffffffffff1673ffffffffffffffffffffffffffffffffffffffff16815260200190815260200160002060008282540192505081905550816002600083815260200190815260200160002060006101000a81548173ffffffffffffffffffffffffffffffffffffffff021916908373ffffffffffffffffffffffffffffffffffffffff160217905550808273ffffffffffffffffffffffffffffffffffffffff168473ffffffffffffffffffffffffffffffffffffffff167fddf252ad1be2c89b69c2b068fc378daa952ba7f163c4a11628f55a4df523b3ef60405160405180910390a4505050565b6001816000016000828254019250508190555050565b600081600001549050919050565b600073ffffffffffffffffffffffffffffffffffffffff168273ffffffffffffffffffffffffffffffffffffffff161415611f5a576040517f08c379a0000000000000000000000000000000000000000000000000000000008152600401611f51906139a0565b60405180910390fd5b611f6381611b3f565b15611fa3576040517f08c379a0000000000000000000000000000000000000000000000000000000008152600401611f9a90613a0c565b60405180910390fd5b6001600360008473ffffffffffffffffffffffffffffffffffffffff1673ffffffffffffffffffffffffffffffffffffffff16815260200190815260200160002060008282540192505081905550816002600083815260200190815260200160002060006101000a81548173ffffffffffffffffffffffffffffffffffffffff021916908373ffffffffffffffffffffffffffffffffffffffff160217905550808273ffffffffffffffffffffffffffffffffffffffff16600073ffffffffffffffffffffffffffffffffffffffff167fddf252ad1be2c89b69c2b068fc378daa952ba7f163c4a11628f55a4df523b3ef60405160405180910390a45050565b6120ae848484611c89565b6120ba84848484612138565b6120f9576040517f08c379a00000000000000000000000000000000000000000000000000000000081526004016120f090613a9e565b60405180910390fd5b50505050565b6004600082815260200190815260200160002060006101000a81549073ffffffffffffffffffffffffffffffffffffffff021916905550565b60006121598473ffffffffffffffffffffffffffffffffffffffff166122c0565b156122b3578373ffffffffffffffffffffffffffffffffffffffff1663150b7a026121826122d3565b8786866040518563ffffffff1660e01b81526004016121a49493929190613b13565b6020604051808303816000875af19250505080156121e057506040513d601f19601f820116820180604052508101906121dd9190613b74565b60015b612263573d8060008114612210576040519150601f19603f3d011682016040523d82523d6000602084013e612215565b606091505b5060008151141561225b576040517f08c379a000000000000000000000000000000000000000000000000000000000815260040161225290613c13565b60405180910390fd5b805181602001fd5b63150b7a0260e01b7bffffffffffffffffffffffffffffffffffffffffffffffffffffffff1916817bffffffffffffffffffffffffffffffffffffffffffffffffffffffff1916149150506122b8565b600190505b949350505050565b600080823b905060008111915050919050565b600033905090565b8280546122e79061308b565b90600052602060002090601f0160209004810192826123095760008555612350565b82601f1061232257805160ff1916838001178555612350565b82800160010185558215612350579182015b8281111561234f578251825591602001919060010190612334565b5b50905061235d91906123d2565b5090565b604051806040016040528060608152602001600080191681525090565b6040518060800160405280600073ffffffffffffffffffffffffffffffffffffffff168152602001600073ffffffffffffffffffffffffffffffffffffffff16815260200160008152602001600081525090565b5b808211156123eb5760008160009055506001016123d3565b5090565b6000604051905090565b600080fd5b600080fd5b60007fffffffff0000000000000000000000000000000000000000000000000000000082169050919050565b61243881612403565b811461244357600080fd5b50565b6000813590506124558161242f565b92915050565b600060208284031215612471576124706123f9565b5b600061247f84828501612446565b91505092915050565b60008115159050919050565b61249d81612488565b82525050565b60006020820190506124b86000830184612494565b92915050565b600081519050919050565b600082825260208201905092915050565b60005b838110156124f85780820151818401526020810190506124dd565b83811115612507576000848401525b50505050565b6000601f19601f8301169050919050565b6000612529826124be565b61253381856124c9565b93506125438185602086016124da565b61254c8161250d565b840191505092915050565b60006020820190508181036000830152612571818461251e565b905092915050565b6000819050919050565b61258c81612579565b811461259757600080fd5b50565b6000813590506125a981612583565b92915050565b6000602082840312156125c5576125c46123f9565b5b60006125d38482850161259a565b91505092915050565b600073ffffffffffffffffffffffffffffffffffffffff82169050919050565b6000612607826125dc565b9050919050565b612617816125fc565b82525050565b6000602082019050612632600083018461260e565b92915050565b612641816125fc565b811461264c57600080fd5b50565b60008135905061265e81612638565b92915050565b6000806040838503121561267b5761267a6123f9565b5b60006126898582860161264f565b925050602061269a8582860161259a565b9150509250929050565b6000806000606084860312156126bd576126bc6123f9565b5b60006126cb8682870161264f565b93505060206126dc8682870161264f565b92505060406126ed8682870161259a565b9150509250925092565b6000819050919050565b61270a816126f7565b82525050565b60006020820190506127256000830184612701565b92915050565b600080fd5b7f4e487b7100000000000000000000000000000000000000000000000000000000600052604160045260246000fd5b6127688261250d565b810181811067ffffffffffffffff8211171561278757612786612730565b5b80604052505050565b600061279a6123ef565b90506127a6828261275f565b919050565b600067ffffffffffffffff8211156127c6576127c5612730565b5b602082029050602081019050919050565b600080fd5b60006127ef6127ea846127ab565b612790565b90508083825260208201905060208402830185811115612812576128116127d7565b5b835b8181101561283b5780612827888261259a565b845260208401935050602081019050612814565b5050509392505050565b600082601f83011261285a5761285961272b565b5b813561286a8482602086016127dc565b91505092915050565b6000806000806080858703121561288d5761288c6123f9565b5b600061289b8782880161264f565b94505060206128ac8782880161264f565b935050604085013567ffffffffffffffff8111156128cd576128cc6123fe565b5b6128d987828801612845565b92505060606128ea8782880161259a565b91505092959194509250565b60006020828403121561290c5761290b6123f9565b5b600061291a8482850161264f565b91505092915050565b61292c81612579565b82525050565b60006020820190506129476000830184612923565b92915050565b600080fd5b600067ffffffffffffffff82111561296d5761296c612730565b5b6129768261250d565b9050602081019050919050565b82818337600083830152505050565b60006129a56129a084612952565b612790565b9050828152602081018484840111156129c1576129c061294d565b5b6129cc848285612983565b509392505050565b600082601f8301126129e9576129e861272b565b5b81356129f9848260208601612992565b91505092915050565b600080600060608486031215612a1b57612a1a6123f9565b5b6000612a298682870161264f565b935050602084013567ffffffffffffffff811115612a4a57612a496123fe565b5b612a56868287016129d4565b925050604084013567ffffffffffffffff811115612a7757612a766123fe565b5b612a83868287016129d4565b9150509250925092565b6000604082019050612aa26000830185612923565b612aaf6020830184612923565b9392505050565b612abf81612488565b8114612aca57600080fd5b50565b600081359050612adc81612ab6565b92915050565b60008060408385031215612af957612af86123f9565b5b6000612b078582860161264f565b9250506020612b1885828601612acd565b9150509250929050565b600067ffffffffffffffff821115612b3d57612b3c612730565b5b612b468261250d565b9050602081019050919050565b6000612b66612b6184612b22565b612790565b905082815260208101848484011115612b8257612b8161294d565b5b612b8d848285612983565b509392505050565b600082601f830112612baa57612ba961272b565b5b8135612bba848260208601612b53565b91505092915050565b60008060008060808587031215612bdd57612bdc6123f9565b5b6000612beb8782880161264f565b9450506020612bfc8782880161264f565b9350506040612c0d8782880161259a565b925050606085013567ffffffffffffffff811115612c2e57612c2d6123fe565b5b612c3a87828801612b95565b91505092959194509250565b600081519050919050565b600082825260208201905092915050565b6000819050602082019050919050565b600082825260208201905092915050565b6000612c8e826124be565b612c988185612c72565b9350612ca88185602086016124da565b612cb18161250d565b840191505092915050565b612cc5816126f7565b82525050565b60006040830160008301518482036000860152612ce88282612c83565b9150506020830151612cfd6020860182612cbc565b508091505092915050565b6000612d148383612ccb565b905092915050565b6000602082019050919050565b6000612d3482612c46565b612d3e8185612c51565b935083602082028501612d5085612c62565b8060005b85811015612d8c5784840389528151612d6d8582612d08565b9450612d7883612d1c565b925060208a01995050600181019050612d54565b50829750879550505050505092915050565b60006020820190508181036000830152612db88184612d29565b905092915050565b60008060008060808587031215612dda57612dd96123f9565b5b6000612de88782880161264f565b9450506020612df98782880161264f565b9350506040612e0a8782880161259a565b9250506060612e1b8782880161259a565b91505092959194509250565b60008060408385031215612e3e57612e3d6123f9565b5b6000612e4c8582860161264f565b9250506020612e5d8582860161264f565b9150509250929050565b6000608082019050612e7c600083018761260e565b612e89602083018661260e565b612e966040830185612923565b612ea36060830184612923565b95945050505050565b612eb5816126f7565b8114612ec057600080fd5b50565b600081359050612ed281612eac565b92915050565b60008060408385031215612eef57612eee6123f9565b5b6000612efd8582860161259a565b9250506020612f0e85828601612ec3565b9150509250929050565b600081519050919050565b600082825260208201905092915050565b6000819050602082019050919050565b612f4d816125fc565b82525050565b612f5c81612579565b82525050565b608082016000820151612f786000850182612f44565b506020820151612f8b6020850182612f44565b506040820151612f9e6040850182612f53565b506060820151612fb16060850182612f53565b50505050565b6000612fc38383612f62565b60808301905092915050565b6000602082019050919050565b6000612fe782612f18565b612ff18185612f23565b9350612ffc83612f34565b8060005b8381101561302d5781516130148882612fb7565b975061301f83612fcf565b925050600181019050613000565b5085935050505092915050565b600060208201905081810360008301526130548184612fdc565b905092915050565b7f4e487b7100000000000000000000000000000000000000000000000000000000600052602260045260246000fd5b600060028204905060018216806130a357607f821691505b602082108114156130b7576130b661305c565b5b50919050565b7f617070726f76616c20746f2063757272656e74206f776e657200000000000000600082015250565b60006130f36019836124c9565b91506130fe826130bd565b602082019050919050565b60006020820190508181036000830152613122816130e6565b9050919050565b7f617070726f76656420717565727920666f72206e6f6e6578697374656e74207460008201527f6f6b656e00000000000000000000000000000000000000000000000000000000602082015250565b60006131856024836124c9565b915061319082613129565b604082019050919050565b600060208201905081810360008301526131b481613178565b9050919050565b7f617070726f76652063616c6c6572206973206e6f74206f776e6572206e6f722060008201527f617070726f76656420666f7220616c6c00000000000000000000000000000000602082015250565b60006132176030836124c9565b9150613222826131bb565b604082019050919050565b600060208201905081810360008301526132468161320a565b9050919050565b7f7472616e736665722063616c6c6572206973206e6f7420746865206f776e657260008201527f206e6f7220617070726f76656400000000000000000000000000000000000000602082015250565b60006132a9602d836124c9565b91506132b48261324d565b604082019050919050565b600060208201905081810360008301526132d88161329c565b9050919050565b7f4552433732313a20696e76616c696420746f6b656e2049440000000000000000600082015250565b60006133156018836124c9565b9150613320826132df565b602082019050919050565b6000602082019050818103600083015261334481613308565b9050919050565b7f496e76616c696420627579657220616464726573730000000000000000000000600082015250565b60006133816015836124c9565b915061338c8261334b565b602082019050919050565b600060208201905081810360008301526133b081613374565b9050919050565b7f496e76616c69642073656c6c6572206164647265737300000000000000000000600082015250565b60006133ed6016836124c9565b91506133f8826133b7565b602082019050919050565b6000602082019050818103600083015261341c816133e0565b9050919050565b7f496e76616c696420746f6b656e20494473000000000000000000000000000000600082015250565b60006134596011836124c9565b915061346482613423565b602082019050919050565b600060208201905081810360008301526134888161344c565b9050919050565b7f4e487b7100000000000000000000000000000000000000000000000000000000600052603260045260246000fd5b7f496e76616c696420746f6b656e20494400000000000000000000000000000000600082015250565b60006134f46010836124c9565b91506134ff826134be565b602082019050919050565b60006020820190508181036000830152613523816134e7565b9050919050565b7f4e487b7100000000000000000000000000000000000000000000000000000000600052601160045260246000fd5b600061356482612579565b91507fffffffffffffffffffffffffffffffffffffffffffffffffffffffffffffffff8214156135975761359661352a565b5b600182019050919050565b7f4552433732313a2061646472657373207a65726f206973206e6f74206120766160008201527f6c6964206f776e65720000000000000000000000000000000000000000000000602082015250565b60006135fe6029836124c9565b9150613609826135a2565b604082019050919050565b6000602082019050818103600083015261362d816135f1565b9050919050565b7f617070726f766520746f2063616c6c6572000000000000000000000000000000600082015250565b600061366a6011836124c9565b915061367582613634565b602082019050919050565b600060208201905081810360008301526136998161365d565b9050919050565b7f4552433732313a2063616c6c6572206973206e6f7420746f6b656e206f776e6560008201527f72206f7220617070726f76656400000000000000000000000000000000000000602082015250565b60006136fc602d836124c9565b9150613707826136a0565b604082019050919050565b6000602082019050818103600083015261372b816136ef565b9050919050565b7f4e465420646f6573206e6f742065786973740000000000000000000000000000600082015250565b60006137686012836124c9565b915061377382613732565b602082019050919050565b600060208201905081810360008301526137978161375b565b9050919050565b7f6f70657261746f7220716575727920666f72206e6f6e6578697374656e74207460008201527f6f6b656e00000000000000000000000000000000000000000000000000000000602082015250565b60006137fa6024836124c9565b91506138058261379e565b604082019050919050565b60006020820190508181036000830152613829816137ed565b9050919050565b7f4552433732313a207472616e736665722066726f6d20696e636f72726563742060008201527f6f776e6572000000000000000000000000000000000000000000000000000000602082015250565b600061388c6025836124c9565b915061389782613830565b604082019050919050565b600060208201905081810360008301526138bb8161387f565b9050919050565b7f4552433732313a207472616e7366657220746f20746865207a65726f2061646460008201527f7265737300000000000000000000000000000000000000000000000000000000602082015250565b600061391e6024836124c9565b9150613929826138c2565b604082019050919050565b6000602082019050818103600083015261394d81613911565b9050919050565b7f6d696e7420746f20746865207a65726f20616464726573730000000000000000600082015250565b600061398a6018836124c9565b915061399582613954565b602082019050919050565b600060208201905081810360008301526139b98161397d565b9050919050565b7f746f6b656e20616c7265616479206d696e746564000000000000000000000000600082015250565b60006139f66014836124c9565b9150613a01826139c0565b602082019050919050565b60006020820190508181036000830152613a25816139e9565b9050919050565b7f7472616e7366657220746f206e6f6e204552433732315265636569766572206960008201527f6d706c656d656e74657200000000000000000000000000000000000000000000602082015250565b6000613a88602a836124c9565b9150613a9382613a2c565b604082019050919050565b60006020820190508181036000830152613ab781613a7b565b9050919050565b600081519050919050565b600082825260208201905092915050565b6000613ae582613abe565b613aef8185613ac9565b9350613aff8185602086016124da565b613b088161250d565b840191505092915050565b6000608082019050613b28600083018761260e565b613b35602083018661260e565b613b426040830185612923565b8181036060830152613b548184613ada565b905095945050505050565b600081519050613b6e8161242f565b92915050565b600060208284031215613b8a57613b896123f9565b5b6000613b9884828501613b5f565b91505092915050565b7f4552433732313a207472616e7366657220746f206e6f6e20455243373231526560008201527f63656976657220696d706c656d656e7465720000000000000000000000000000602082015250565b6000613bfd6032836124c9565b9150613c0882613ba1565b604082019050919050565b60006020820190508181036000830152613c2c81613bf0565b905091905056fea2646970667358221220b66a7445565dd3126362f219c05e739ec506eb50a96dca23ee438e9afb02b72a64736f6c634300080a0033",
  "immutableReferences": {},
  "source": "// SPDX-License-Identifier: MIT\r\npragma solidity >=0.4.22 <0.9.0;\r\n\r\nimport \"./token/ERC721/ERC721.sol\";\r\nimport \"./utils/Counters.sol\";\r\nimport \"./utils/Strings.sol\";\r\n\r\n/**\r\n * PJT  -  2) NFT Creator \r\n *         .\r\n */\r\ncontract HereNFT is ERC721 {\r\n    \r\n    using Counters for Counters.Counter;\r\n    using Strings for uint256;\r\n\r\n    Counters.Counter private _tokenIds;\r\n    mapping(uint256 => string) tokenURIs;\r\n\r\n    event createNFT (uint256 indexed _tokenId, address indexed _owner);\r\n\r\n    constructor() ERC721(\"HERE-NFT\", \"TBD\") {}\r\n\r\n    // NFT \r\n    struct NFT {\r\n        string tokenURI;\r\n        bytes32 hashValue;\r\n    }\r\n    uint256[] private _nftIds;\r\n    mapping(uint256 => NFT) private _nfts;\r\n\r\n    //  \r\n    struct TransactionLog {\r\n        address from;\r\n        address to;\r\n        uint256 tokenId;\r\n        uint256 timestamp;\r\n    }\r\n    //  \r\n    TransactionLog[] public transactionLogs;\r\n\r\n    // NFT    \r\n    function donateNFT(\r\n        address _from,\r\n        address _to,\r\n        uint256 _tokenId,\r\n        uint256 _timestamp\r\n    ) public payable {\r\n        require(_from != address(0), \"Invalid buyer address\");\r\n        require(_to != address(0), \"Invalid seller address\");\r\n        require(_tokenId != 0, \"Invalid token ID\");\r\n\r\n        // Transfer ownership of NFT from seller to buyer\r\n        //emit Transfer(_seller, _buyer, _tokenId);\r\n        safeTransferFrom(_from, _to, _tokenId);\r\n\r\n        // Add transaction log to the transactionLogs array\r\n        transactionLogs.push(\r\n            TransactionLog({\r\n                from: _from,\r\n                to: _to,\r\n                tokenId: _tokenId,\r\n                timestamp: _timestamp\r\n            })\r\n        );\r\n\r\n    }\r\n    // tokenid    nft   \r\n    function donateNFTList(\r\n        address _from,\r\n        address _to,\r\n        uint256[] memory _tokenIdList,\r\n        uint256 _timestamp\r\n    ) public payable {\r\n        require(_from != address(0), \"Invalid buyer address\");\r\n        require(_to != address(0), \"Invalid seller address\");\r\n        require(_tokenIdList.length > 0, \"Invalid token IDs\");\r\n\r\n        for (uint i = 0; i < _tokenIdList.length; i++) {\r\n            uint256 tokenId = _tokenIdList[i];\r\n            require(tokenId != 0, \"Invalid token ID\");\r\n\r\n            // Transfer ownership of NFT from seller to buyer\r\n            safeTransferFrom(_from, _to, tokenId);\r\n\r\n            // Add transaction log to the transactionLogs array\r\n            transactionLogs.push(\r\n                TransactionLog({\r\n                    from: _from,\r\n                    to: _to,\r\n                    tokenId: tokenId,\r\n                    timestamp: _timestamp\r\n                })\r\n            );\r\n        }\r\n    }\r\n\r\n    //  NFT    \r\n    function getTransactionLogs(uint256 _tokenId)\r\n        external\r\n        view\r\n        returns (TransactionLog[] memory)\r\n    {\r\n        uint256 count = 0;\r\n        for (uint256 i = 0; i < transactionLogs.length; i++) {\r\n            if (transactionLogs[i].tokenId == _tokenId) {\r\n                count++;\r\n            }\r\n        }\r\n        TransactionLog[] memory logs = new TransactionLog[](count);\r\n        uint256 index = 0;\r\n        for (uint256 i = 0; i < transactionLogs.length; i++) {\r\n            if (transactionLogs[i].tokenId == _tokenId) {\r\n                logs[index] = transactionLogs[i];\r\n                index++;\r\n            }\r\n        }\r\n        return logs;\r\n    }\r\n\r\n    function current() public view returns (uint256) {\r\n        return _tokenIds.current();\r\n    }\r\n\r\n    function tokenURI(uint256 tokenId) public view override returns (string memory) {\r\n        // TODO\r\n        _requireMinted(tokenId);\r\n        return tokenURIs[tokenId];\r\n    }\r\n\r\n    function create(address to, string memory _tokenURI1, string memory _tokenURI2) public returns (uint256, uint256) {\r\n        _tokenIds.increment();\r\n\r\n        uint256 newItemId1 = _tokenIds.current();\r\n        _mint(to, newItemId1);\r\n        tokenURIs[newItemId1] = _tokenURI1;\r\n\r\n        bytes32 hashValue1 = keccak256(bytes(_tokenURI1));\r\n        NFT memory nft1 = NFT({\r\n            tokenURI: _tokenURI1,\r\n            hashValue: hashValue1\r\n        });\r\n        _nftIds.push(newItemId1);\r\n        _nfts[newItemId1] = nft1;\r\n\r\n        _tokenIds.increment();\r\n\r\n        uint256 newItemId2 = _tokenIds.current();\r\n        _mint(to, newItemId2);\r\n        tokenURIs[newItemId2] = _tokenURI2;\r\n\r\n        bytes32 hashValue2 = keccak256(bytes(_tokenURI2));\r\n        NFT memory nft2 = NFT({\r\n            tokenURI: _tokenURI2,\r\n            hashValue: hashValue2\r\n        });\r\n        _nftIds.push(newItemId2);\r\n        _nfts[newItemId2] = nft2;\r\n\r\n        return (newItemId1, newItemId2);\r\n    }\r\n\r\n    function getAllNFTs() public view returns (NFT[] memory) {\r\n        uint256 totalNFTs = _nftIds.length;\r\n        NFT[] memory nftsList = new NFT[](totalNFTs);\r\n        for (uint256 i = 0; i < totalNFTs; i++) {\r\n            uint256 nftId = _nftIds[i];\r\n            NFT memory nft = _nfts[nftId];\r\n            nftsList[i] = nft;\r\n        }\r\n        return nftsList;\r\n    }   \r\n\r\n    function getHashValue(uint256 tokenId) public view returns(bytes32) {\r\n        return _nfts[tokenId].hashValue;\r\n    }\r\n\r\n    event NFTVerified(uint256 indexed tokenId, string metadataURI, bytes metadata, bytes32 metadataHash, bytes32 inputHash);\r\n\r\n    function verifyNFT(uint256 tokenId, bytes32 hash) public view returns (bool) {\r\n        require(_exists(tokenId), \"NFT does not exist\");\r\n\r\n        // NFT Metadata URI \r\n        string memory metadataURI = tokenURI(tokenId);\r\n\r\n        // JSON   \r\n        bytes32 transactionHash = keccak256(bytes(metadataURI));\r\n\r\n         //      \r\n        bool verified = transactionHash == hash;\r\n\r\n\r\n        return verified;\r\n    }\r\n}",
  "sourcePath": "C:\\SSAFY\\workspace\\blockchain\\S08P22B209\\here-blockchain\\contracts\\HereNFT.sol",
  "compiler": {
    "name": "solc",
    "version": "0.8.10+commit.fc410830.Emscripten.clang"
  },
  "schemaVersion": "3.4.4",
  "updatedAt": "2023-03-30T00:38:45.006Z",
  "networkType": "ethereum",
  "devdoc": {
    "kind": "dev",
    "methods": {
      "approve(address,uint256)": {
        "details": "See {IERC721-approve}."
      },
      "balanceOf(address)": {
        "details": "See {IERC721-balanceOf}."
      },
      "getApproved(uint256)": {
        "details": "See {IERC721-getApproved}."
      },
      "isApprovedForAll(address,address)": {
        "details": "See {IERC721-isApprovedForAll}."
      },
      "name()": {
        "details": "See {IERC721Metadata-name}."
      },
      "ownerOf(uint256)": {
        "details": "See {IERC721-ownerOf}."
      },
      "safeTransferFrom(address,address,uint256)": {
        "details": "See {IERC721-safeTransferFrom}."
      },
      "safeTransferFrom(address,address,uint256,bytes)": {
        "details": "See {IERC721-safeTransferFrom}."
      },
      "setApprovalForAll(address,bool)": {
        "details": "See {IERC721-setApprovalForAll}."
      },
      "supportsInterface(bytes4)": {
        "details": "See {IERC165-supportsInterface}."
      },
      "symbol()": {
        "details": "See {IERC721Metadata-symbol}."
      },
      "tokenURI(uint256)": {
        "details": "See {IERC721Metadata-tokenURI}."
      },
      "transferFrom(address,address,uint256)": {
        "details": "See {IERC721-transferFrom}."
      }
    },
    "version": 1
  },
  "userdoc": {
    "kind": "user",
    "methods": {},
    "notice": "PJT  -  2) NFT Creator          .",
    "version": 1
  }
}