{
  "contractName": "HereNFT",
  "abi": [
    {
      "inputs": [],
      "stateMutability": "nonpayable",
      "type": "constructor"
    },
    {
      "anonymous": false,
      "inputs": [
        {
          "indexed": true,
          "internalType": "address",
          "name": "owner",
          "type": "address"
        },
        {
          "indexed": true,
          "internalType": "address",
          "name": "approved",
          "type": "address"
        },
        {
          "indexed": true,
          "internalType": "uint256",
          "name": "tokenId",
          "type": "uint256"
        }
      ],
      "name": "Approval",
      "type": "event"
    },
    {
      "anonymous": false,
      "inputs": [
        {
          "indexed": true,
          "internalType": "address",
          "name": "owner",
          "type": "address"
        },
        {
          "indexed": true,
          "internalType": "address",
          "name": "operator",
          "type": "address"
        },
        {
          "indexed": false,
          "internalType": "bool",
          "name": "approved",
          "type": "bool"
        }
      ],
      "name": "ApprovalForAll",
      "type": "event"
    },
    {
      "anonymous": false,
      "inputs": [
        {
          "indexed": true,
          "internalType": "uint256",
          "name": "tokenId",
          "type": "uint256"
        },
        {
          "indexed": false,
          "internalType": "string",
          "name": "metadataURI",
          "type": "string"
        },
        {
          "indexed": false,
          "internalType": "bytes",
          "name": "metadata",
          "type": "bytes"
        },
        {
          "indexed": false,
          "internalType": "bytes32",
          "name": "metadataHash",
          "type": "bytes32"
        },
        {
          "indexed": false,
          "internalType": "bytes32",
          "name": "inputHash",
          "type": "bytes32"
        }
      ],
      "name": "NFTVerified",
      "type": "event"
    },
    {
      "anonymous": false,
      "inputs": [
        {
          "indexed": true,
          "internalType": "address",
          "name": "from",
          "type": "address"
        },
        {
          "indexed": true,
          "internalType": "address",
          "name": "to",
          "type": "address"
        },
        {
          "indexed": true,
          "internalType": "uint256",
          "name": "tokenId",
          "type": "uint256"
        }
      ],
      "name": "Transfer",
      "type": "event"
    },
    {
      "anonymous": false,
      "inputs": [
        {
          "indexed": true,
          "internalType": "uint256",
          "name": "_tokenId",
          "type": "uint256"
        },
        {
          "indexed": true,
          "internalType": "address",
          "name": "_owner",
          "type": "address"
        }
      ],
      "name": "createNFT",
      "type": "event"
    },
    {
      "inputs": [
        {
          "internalType": "address",
          "name": "to",
          "type": "address"
        },
        {
          "internalType": "uint256",
          "name": "tokenId",
          "type": "uint256"
        }
      ],
      "name": "approve",
      "outputs": [],
      "stateMutability": "nonpayable",
      "type": "function"
    },
    {
      "inputs": [
        {
          "internalType": "address",
          "name": "owner",
          "type": "address"
        }
      ],
      "name": "balanceOf",
      "outputs": [
        {
          "internalType": "uint256",
          "name": "",
          "type": "uint256"
        }
      ],
      "stateMutability": "view",
      "type": "function",
      "constant": true
    },
    {
      "inputs": [
        {
          "internalType": "uint256",
          "name": "tokenId",
          "type": "uint256"
        }
      ],
      "name": "getApproved",
      "outputs": [
        {
          "internalType": "address",
          "name": "",
          "type": "address"
        }
      ],
      "stateMutability": "view",
      "type": "function",
      "constant": true
    },
    {
      "inputs": [
        {
          "internalType": "address",
          "name": "owner",
          "type": "address"
        },
        {
          "internalType": "address",
          "name": "operator",
          "type": "address"
        }
      ],
      "name": "isApprovedForAll",
      "outputs": [
        {
          "internalType": "bool",
          "name": "",
          "type": "bool"
        }
      ],
      "stateMutability": "view",
      "type": "function",
      "constant": true
    },
    {
      "inputs": [],
      "name": "name",
      "outputs": [
        {
          "internalType": "string",
          "name": "",
          "type": "string"
        }
      ],
      "stateMutability": "view",
      "type": "function",
      "constant": true
    },
    {
      "inputs": [
        {
          "internalType": "uint256",
          "name": "",
          "type": "uint256"
        }
      ],
      "name": "nfts",
      "outputs": [
        {
          "internalType": "string",
          "name": "tokenURI",
          "type": "string"
        },
        {
          "internalType": "bytes32",
          "name": "hashValue",
          "type": "bytes32"
        }
      ],
      "stateMutability": "view",
      "type": "function",
      "constant": true
    },
    {
      "inputs": [
        {
          "internalType": "uint256",
          "name": "tokenId",
          "type": "uint256"
        }
      ],
      "name": "ownerOf",
      "outputs": [
        {
          "internalType": "address",
          "name": "",
          "type": "address"
        }
      ],
      "stateMutability": "view",
      "type": "function",
      "constant": true
    },
    {
      "inputs": [
        {
          "internalType": "address",
          "name": "from",
          "type": "address"
        },
        {
          "internalType": "address",
          "name": "to",
          "type": "address"
        },
        {
          "internalType": "uint256",
          "name": "tokenId",
          "type": "uint256"
        }
      ],
      "name": "safeTransferFrom",
      "outputs": [],
      "stateMutability": "nonpayable",
      "type": "function"
    },
    {
      "inputs": [
        {
          "internalType": "address",
          "name": "from",
          "type": "address"
        },
        {
          "internalType": "address",
          "name": "to",
          "type": "address"
        },
        {
          "internalType": "uint256",
          "name": "tokenId",
          "type": "uint256"
        },
        {
          "internalType": "bytes",
          "name": "_data",
          "type": "bytes"
        }
      ],
      "name": "safeTransferFrom",
      "outputs": [],
      "stateMutability": "nonpayable",
      "type": "function"
    },
    {
      "inputs": [
        {
          "internalType": "address",
          "name": "operator",
          "type": "address"
        },
        {
          "internalType": "bool",
          "name": "approved",
          "type": "bool"
        }
      ],
      "name": "setApprovalForAll",
      "outputs": [],
      "stateMutability": "nonpayable",
      "type": "function"
    },
    {
      "inputs": [
        {
          "internalType": "bytes4",
          "name": "interfaceId",
          "type": "bytes4"
        }
      ],
      "name": "supportsInterface",
      "outputs": [
        {
          "internalType": "bool",
          "name": "",
          "type": "bool"
        }
      ],
      "stateMutability": "view",
      "type": "function",
      "constant": true
    },
    {
      "inputs": [],
      "name": "symbol",
      "outputs": [
        {
          "internalType": "string",
          "name": "",
          "type": "string"
        }
      ],
      "stateMutability": "view",
      "type": "function",
      "constant": true
    },
    {
      "inputs": [
        {
          "internalType": "uint256",
          "name": "",
          "type": "uint256"
        }
      ],
      "name": "transactionLogs",
      "outputs": [
        {
          "internalType": "address",
          "name": "from",
          "type": "address"
        },
        {
          "internalType": "address",
          "name": "to",
          "type": "address"
        },
        {
          "internalType": "uint256",
          "name": "tokenId",
          "type": "uint256"
        },
        {
          "internalType": "uint256",
          "name": "timestamp",
          "type": "uint256"
        }
      ],
      "stateMutability": "view",
      "type": "function",
      "constant": true
    },
    {
      "inputs": [
        {
          "internalType": "address",
          "name": "from",
          "type": "address"
        },
        {
          "internalType": "address",
          "name": "to",
          "type": "address"
        },
        {
          "internalType": "uint256",
          "name": "tokenId",
          "type": "uint256"
        }
      ],
      "name": "transferFrom",
      "outputs": [],
      "stateMutability": "nonpayable",
      "type": "function"
    },
    {
      "inputs": [
        {
          "internalType": "address",
          "name": "_from",
          "type": "address"
        },
        {
          "internalType": "address",
          "name": "_to",
          "type": "address"
        },
        {
          "internalType": "uint256",
          "name": "_tokenId",
          "type": "uint256"
        },
        {
          "internalType": "uint256",
          "name": "_timestamp",
          "type": "uint256"
        }
      ],
      "name": "donateNFT",
      "outputs": [],
      "stateMutability": "payable",
      "type": "function",
      "payable": true
    },
    {
      "inputs": [
        {
          "internalType": "uint256",
          "name": "_tokenId",
          "type": "uint256"
        }
      ],
      "name": "getTransactionLogs",
      "outputs": [
        {
          "components": [
            {
              "internalType": "address",
              "name": "from",
              "type": "address"
            },
            {
              "internalType": "address",
              "name": "to",
              "type": "address"
            },
            {
              "internalType": "uint256",
              "name": "tokenId",
              "type": "uint256"
            },
            {
              "internalType": "uint256",
              "name": "timestamp",
              "type": "uint256"
            }
          ],
          "internalType": "struct HereNFT.TransactionLog[]",
          "name": "",
          "type": "tuple[]"
        }
      ],
      "stateMutability": "view",
      "type": "function",
      "constant": true
    },
    {
      "inputs": [],
      "name": "current",
      "outputs": [
        {
          "internalType": "uint256",
          "name": "",
          "type": "uint256"
        }
      ],
      "stateMutability": "view",
      "type": "function",
      "constant": true
    },
    {
      "inputs": [
        {
          "internalType": "uint256",
          "name": "tokenId",
          "type": "uint256"
        }
      ],
      "name": "tokenURI",
      "outputs": [
        {
          "internalType": "string",
          "name": "",
          "type": "string"
        }
      ],
      "stateMutability": "view",
      "type": "function",
      "constant": true
    },
    {
      "inputs": [
        {
          "internalType": "address",
          "name": "to",
          "type": "address"
        },
        {
          "internalType": "string",
          "name": "_tokenURI",
          "type": "string"
        }
      ],
      "name": "create",
      "outputs": [
        {
          "internalType": "uint256",
          "name": "",
          "type": "uint256"
        }
      ],
      "stateMutability": "nonpayable",
      "type": "function"
    },
    {
      "inputs": [
        {
          "internalType": "uint256",
          "name": "tokenId",
          "type": "uint256"
        }
      ],
      "name": "getHashValue",
      "outputs": [
        {
          "internalType": "bytes32",
          "name": "",
          "type": "bytes32"
        }
      ],
      "stateMutability": "view",
      "type": "function",
      "constant": true
    },
    {
      "inputs": [
        {
          "internalType": "uint256",
          "name": "tokenId",
          "type": "uint256"
        },
        {
          "internalType": "bytes32",
          "name": "hash",
          "type": "bytes32"
        }
      ],
      "name": "verifyNFT",
      "outputs": [
        {
          "internalType": "bool",
          "name": "",
          "type": "bool"
        }
      ],
      "stateMutability": "view",
      "type": "function",
      "constant": true
    }
  ],
  "bytecode": "0x60806040523480156200001157600080fd5b506040518060400160405280600881526020017f484552452d4e46540000000000000000000000000000000000000000000000008152506040518060400160405280600381526020017f5442440000000000000000000000000000000000000000000000000000000000815250816000908051906020019062000096929190620000b8565b508060019080519060200190620000af929190620000b8565b505050620001cd565b828054620000c69062000197565b90600052602060002090601f016020900481019282620000ea576000855562000136565b82601f106200010557805160ff191683800117855562000136565b8280016001018555821562000136579182015b828111156200013557825182559160200191906001019062000118565b5b50905062000145919062000149565b5090565b5b80821115620001645760008160009055506001016200014a565b5090565b7f4e487b7100000000000000000000000000000000000000000000000000000000600052602260045260246000fd5b60006002820490506001821680620001b057607f821691505b60208210811415620001c757620001c662000168565b5b50919050565b6134c780620001dd6000396000f3fe60806040526004361061012a5760003560e01c806395d89b41116100ab578063c87b56dd1161006f578063c87b56dd14610429578063e2b553a414610466578063e985e9c514610482578063f1f69f22146104bf578063f5545e96146104ff578063fb13effc1461053c5761012a565b806395d89b41146103445780639fa6a6e31461036f578063a15ab08d1461039a578063a22cb465146103d7578063b88d4fde146104005761012a565b8063265aa621116100f2578063265aa6211461022657806342842e0e146102645780636352211e1461028d5780636fbf29e6146102ca57806370a08231146103075761012a565b806301ffc9a71461012f57806306fdde031461016c578063081812fc14610197578063095ea7b3146101d457806323b872dd146101fd575b600080fd5b34801561013b57600080fd5b5061015660048036038101906101519190612012565b610579565b604051610163919061205a565b60405180910390f35b34801561017857600080fd5b5061018161065b565b60405161018e919061210e565b60405180910390f35b3480156101a357600080fd5b506101be60048036038101906101b99190612166565b6106ed565b6040516101cb91906121d4565b60405180910390f35b3480156101e057600080fd5b506101fb60048036038101906101f6919061221b565b610733565b005b34801561020957600080fd5b50610224600480360381019061021f919061225b565b610928565b005b34801561023257600080fd5b5061024d60048036038101906102489190612166565b610981565b60405161025b9291906122c7565b60405180910390f35b34801561027057600080fd5b5061028b6004803603810190610286919061225b565b610a2d565b005b34801561029957600080fd5b506102b460048036038101906102af9190612166565b610a4d565b6040516102c191906121d4565b60405180910390f35b3480156102d657600080fd5b506102f160048036038101906102ec9190612166565b610aff565b6040516102fe91906122f7565b60405180910390f35b34801561031357600080fd5b5061032e60048036038101906103299190612312565b610b1f565b60405161033b919061234e565b60405180910390f35b34801561035057600080fd5b50610359610bd7565b604051610366919061210e565b60405180910390f35b34801561037b57600080fd5b50610384610c69565b604051610391919061234e565b60405180910390f35b3480156103a657600080fd5b506103c160048036038101906103bc919061249e565b610c7a565b6040516103ce919061234e565b60405180910390f35b3480156103e357600080fd5b506103fe60048036038101906103f99190612526565b610ddc565b005b34801561040c57600080fd5b5061042760048036038101906104229190612607565b610f48565b005b34801561043557600080fd5b50610450600480360381019061044b9190612166565b610fa3565b60405161045d919061210e565b60405180910390f35b610480600480360381019061047b919061268a565b611051565b005b34801561048e57600080fd5b506104a960048036038101906104a491906126f1565b6112a2565b6040516104b6919061205a565b60405180910390f35b3480156104cb57600080fd5b506104e660048036038101906104e19190612166565b611336565b6040516104f69493929190612731565b60405180910390f35b34801561050b57600080fd5b50610526600480360381019061052191906127a2565b6113b6565b604051610533919061205a565b60405180910390f35b34801561054857600080fd5b50610563600480360381019061055e9190612166565b61142c565b6040516105709190612904565b60405180910390f35b60007f80ac58cd000000000000000000000000000000000000000000000000000000007bffffffffffffffffffffffffffffffffffffffffffffffffffffffff1916827bffffffffffffffffffffffffffffffffffffffffffffffffffffffff1916148061064457507f5b5e139f000000000000000000000000000000000000000000000000000000007bffffffffffffffffffffffffffffffffffffffffffffffffffffffff1916827bffffffffffffffffffffffffffffffffffffffffffffffffffffffff1916145b8061065457506106538261165e565b5b9050919050565b60606000805461066a90612955565b80601f016020809104026020016040519081016040528092919081815260200182805461069690612955565b80156106e35780601f106106b8576101008083540402835291602001916106e3565b820191906000526020600020905b8154815290600101906020018083116106c657829003601f168201915b5050505050905090565b60006106f8826116c8565b6004600083815260200190815260200160002060009054906101000a900473ffffffffffffffffffffffffffffffffffffffff169050919050565b600061073e82610a4d565b90508073ffffffffffffffffffffffffffffffffffffffff168373ffffffffffffffffffffffffffffffffffffffff1614156107af576040517f08c379a00000000000000000000000000000000000000000000000000000000081526004016107a6906129d3565b60405180910390fd5b6107b882611713565b6107f7576040517f08c379a00000000000000000000000000000000000000000000000000000000081526004016107ee90612a65565b60405180910390fd5b8073ffffffffffffffffffffffffffffffffffffffff163373ffffffffffffffffffffffffffffffffffffffff161480610837575061083681336112a2565b5b610876576040517f08c379a000000000000000000000000000000000000000000000000000000000815260040161086d90612af7565b60405180910390fd5b826004600084815260200190815260200160002060006101000a81548173ffffffffffffffffffffffffffffffffffffffff021916908373ffffffffffffffffffffffffffffffffffffffff160217905550818373ffffffffffffffffffffffffffffffffffffffff168273ffffffffffffffffffffffffffffffffffffffff167f8c5be1e5ebec7d5bd14f71427d1e84f3dd0314c0f7b2291e5b200ac8c7c3b92560405160405180910390a4505050565b610932338261177f565b610971576040517f08c379a000000000000000000000000000000000000000000000000000000000815260040161096890612b89565b60405180910390fd5b61097c83838361185d565b505050565b60086020528060005260406000206000915090508060000180546109a490612955565b80601f01602080910402602001604051908101604052809291908181526020018280546109d090612955565b8015610a1d5780601f106109f257610100808354040283529160200191610a1d565b820191906000526020600020905b815481529060010190602001808311610a0057829003601f168201915b5050505050908060010154905082565b610a4883838360405180602001604052806000815250610f48565b505050565b6000806002600084815260200190815260200160002060009054906101000a900473ffffffffffffffffffffffffffffffffffffffff169050600073ffffffffffffffffffffffffffffffffffffffff168173ffffffffffffffffffffffffffffffffffffffff161415610af6576040517f08c379a0000000000000000000000000000000000000000000000000000000008152600401610aed90612bf5565b60405180910390fd5b80915050919050565b600060086000838152602001908152602001600020600101549050919050565b60008073ffffffffffffffffffffffffffffffffffffffff168273ffffffffffffffffffffffffffffffffffffffff161415610b90576040517f08c379a0000000000000000000000000000000000000000000000000000000008152600401610b8790612c87565b60405180910390fd5b600360008373ffffffffffffffffffffffffffffffffffffffff1673ffffffffffffffffffffffffffffffffffffffff168152602001908152602001600020549050919050565b606060018054610be690612955565b80601f0160208091040260200160405190810160405280929190818152602001828054610c1290612955565b8015610c5f5780601f10610c3457610100808354040283529160200191610c5f565b820191906000526020600020905b815481529060010190602001808311610c4257829003601f168201915b5050505050905090565b6000610c756006611a9a565b905090565b6000610c866006611aa8565b6000610c926006611a9a565b9050610c9e8482611abe565b82600760008381526020019081526020016000209080519060200190610cc5929190611eaf565b506000838051906020012090506000604051806040016040528086815260200183815250905080600860008581526020019081526020016000206000820151816000019080519060200190610d1b929190611eaf565b5060208201518160010155905050610d336006611aa8565b610d3d6006611a9a565b9250610d498684611abe565b84600760008581526020019081526020016000209080519060200190610d70929190611eaf565b5084805190602001209150604051806040016040528086815260200183815250905080600860008581526020019081526020016000206000820151816000019080519060200190610dc2929190611eaf565b506020820151816001015590505082935050505092915050565b3373ffffffffffffffffffffffffffffffffffffffff168273ffffffffffffffffffffffffffffffffffffffff161415610e4b576040517f08c379a0000000000000000000000000000000000000000000000000000000008152600401610e4290612cf3565b60405180910390fd5b80600560003373ffffffffffffffffffffffffffffffffffffffff1673ffffffffffffffffffffffffffffffffffffffff16815260200190815260200160002060008473ffffffffffffffffffffffffffffffffffffffff1673ffffffffffffffffffffffffffffffffffffffff16815260200190815260200160002060006101000a81548160ff0219169083151502179055508173ffffffffffffffffffffffffffffffffffffffff163373ffffffffffffffffffffffffffffffffffffffff167f17307eab39ab6107e8899845ad3d59bd9653f200f220920489ca2b5937696c3183604051610f3c919061205a565b60405180910390a35050565b610f52338361177f565b610f91576040517f08c379a0000000000000000000000000000000000000000000000000000000008152600401610f8890612d85565b60405180910390fd5b610f9d84848484611c77565b50505050565b6060610fae826116c8565b600760008381526020019081526020016000208054610fcc90612955565b80601f0160208091040260200160405190810160405280929190818152602001828054610ff890612955565b80156110455780601f1061101a57610100808354040283529160200191611045565b820191906000526020600020905b81548152906001019060200180831161102857829003601f168201915b50505050509050919050565b600073ffffffffffffffffffffffffffffffffffffffff168473ffffffffffffffffffffffffffffffffffffffff1614156110c1576040517f08c379a00000000000000000000000000000000000000000000000000000000081526004016110b890612df1565b60405180910390fd5b600073ffffffffffffffffffffffffffffffffffffffff168373ffffffffffffffffffffffffffffffffffffffff161415611131576040517f08c379a000000000000000000000000000000000000000000000000000000000815260040161112890612e5d565b60405180910390fd5b6000821415611175576040517f08c379a000000000000000000000000000000000000000000000000000000000815260040161116c90612ec9565b60405180910390fd5b611180848484610a2d565b600960405180608001604052808673ffffffffffffffffffffffffffffffffffffffff1681526020018573ffffffffffffffffffffffffffffffffffffffff16815260200184815260200183815250908060018154018082558091505060019003906000526020600020906004020160009091909190915060008201518160000160006101000a81548173ffffffffffffffffffffffffffffffffffffffff021916908373ffffffffffffffffffffffffffffffffffffffff16021790555060208201518160010160006101000a81548173ffffffffffffffffffffffffffffffffffffffff021916908373ffffffffffffffffffffffffffffffffffffffff1602179055506040820151816002015560608201518160030155505050505050565b6000600560008473ffffffffffffffffffffffffffffffffffffffff1673ffffffffffffffffffffffffffffffffffffffff16815260200190815260200160002060008373ffffffffffffffffffffffffffffffffffffffff1673ffffffffffffffffffffffffffffffffffffffff16815260200190815260200160002060009054906101000a900460ff16905092915050565b6009818154811061134657600080fd5b90600052602060002090600402016000915090508060000160009054906101000a900473ffffffffffffffffffffffffffffffffffffffff16908060010160009054906101000a900473ffffffffffffffffffffffffffffffffffffffff16908060020154908060030154905084565b60006113c183611713565b611400576040517f08c379a00000000000000000000000000000000000000000000000000000000081526004016113f790612f35565b60405180910390fd5b600061140b84610fa3565b90506000818051906020012090506000848214905080935050505092915050565b60606000805b60098054905081101561148e57836009828154811061145457611453612f55565b5b906000526020600020906004020160020154141561147b57818061147790612fb3565b9250505b808061148690612fb3565b915050611432565b5060008167ffffffffffffffff8111156114ab576114aa612373565b5b6040519080825280602002602001820160405280156114e457816020015b6114d1611f35565b8152602001906001900390816114c95790505b5090506000805b60098054905081101561165257856009828154811061150d5761150c612f55565b5b906000526020600020906004020160020154141561163f576009818154811061153957611538612f55565b5b90600052602060002090600402016040518060800160405290816000820160009054906101000a900473ffffffffffffffffffffffffffffffffffffffff1673ffffffffffffffffffffffffffffffffffffffff1673ffffffffffffffffffffffffffffffffffffffff1681526020016001820160009054906101000a900473ffffffffffffffffffffffffffffffffffffffff1673ffffffffffffffffffffffffffffffffffffffff1673ffffffffffffffffffffffffffffffffffffffff1681526020016002820154815260200160038201548152505083838151811061162557611624612f55565b5b6020026020010181905250818061163b90612fb3565b9250505b808061164a90612fb3565b9150506114eb565b50819350505050919050565b60007f01ffc9a7000000000000000000000000000000000000000000000000000000007bffffffffffffffffffffffffffffffffffffffffffffffffffffffff1916827bffffffffffffffffffffffffffffffffffffffffffffffffffffffff1916149050919050565b6116d181611713565b611710576040517f08c379a000000000000000000000000000000000000000000000000000000000815260040161170790612bf5565b60405180910390fd5b50565b60008073ffffffffffffffffffffffffffffffffffffffff166002600084815260200190815260200160002060009054906101000a900473ffffffffffffffffffffffffffffffffffffffff1673ffffffffffffffffffffffffffffffffffffffff1614159050919050565b600061178a82611713565b6117c9576040517f08c379a00000000000000000000000000000000000000000000000000000000081526004016117c09061306e565b60405180910390fd5b60006117d483610a4d565b90508073ffffffffffffffffffffffffffffffffffffffff168473ffffffffffffffffffffffffffffffffffffffff16148061184357508373ffffffffffffffffffffffffffffffffffffffff1661182b846106ed565b73ffffffffffffffffffffffffffffffffffffffff16145b80611854575061185381856112a2565b5b91505092915050565b8273ffffffffffffffffffffffffffffffffffffffff1661187d82610a4d565b73ffffffffffffffffffffffffffffffffffffffff16146118d3576040517f08c379a00000000000000000000000000000000000000000000000000000000081526004016118ca90613100565b60405180910390fd5b600073ffffffffffffffffffffffffffffffffffffffff168273ffffffffffffffffffffffffffffffffffffffff161415611943576040517f08c379a000000000000000000000000000000000000000000000000000000000815260040161193a90613192565b60405180910390fd5b61194c81611cd3565b6001600360008573ffffffffffffffffffffffffffffffffffffffff1673ffffffffffffffffffffffffffffffffffffffff168152602001908152602001600020600082825403925050819055506001600360008473ffffffffffffffffffffffffffffffffffffffff1673ffffffffffffffffffffffffffffffffffffffff16815260200190815260200160002060008282540192505081905550816002600083815260200190815260200160002060006101000a81548173ffffffffffffffffffffffffffffffffffffffff021916908373ffffffffffffffffffffffffffffffffffffffff160217905550808273ffffffffffffffffffffffffffffffffffffffff168473ffffffffffffffffffffffffffffffffffffffff167fddf252ad1be2c89b69c2b068fc378daa952ba7f163c4a11628f55a4df523b3ef60405160405180910390a4505050565b600081600001549050919050565b6001816000016000828254019250508190555050565b600073ffffffffffffffffffffffffffffffffffffffff168273ffffffffffffffffffffffffffffffffffffffff161415611b2e576040517f08c379a0000000000000000000000000000000000000000000000000000000008152600401611b25906131fe565b60405180910390fd5b611b3781611713565b15611b77576040517f08c379a0000000000000000000000000000000000000000000000000000000008152600401611b6e9061326a565b60405180910390fd5b6001600360008473ffffffffffffffffffffffffffffffffffffffff1673ffffffffffffffffffffffffffffffffffffffff16815260200190815260200160002060008282540192505081905550816002600083815260200190815260200160002060006101000a81548173ffffffffffffffffffffffffffffffffffffffff021916908373ffffffffffffffffffffffffffffffffffffffff160217905550808273ffffffffffffffffffffffffffffffffffffffff16600073ffffffffffffffffffffffffffffffffffffffff167fddf252ad1be2c89b69c2b068fc378daa952ba7f163c4a11628f55a4df523b3ef60405160405180910390a45050565b611c8284848461185d565b611c8e84848484611d0c565b611ccd576040517f08c379a0000000000000000000000000000000000000000000000000000000008152600401611cc4906132fc565b60405180910390fd5b50505050565b6004600082815260200190815260200160002060006101000a81549073ffffffffffffffffffffffffffffffffffffffff021916905550565b6000611d2d8473ffffffffffffffffffffffffffffffffffffffff16611e94565b15611e87578373ffffffffffffffffffffffffffffffffffffffff1663150b7a02611d56611ea7565b8786866040518563ffffffff1660e01b8152600401611d789493929190613371565b6020604051808303816000875af1925050508015611db457506040513d601f19601f82011682018060405250810190611db191906133d2565b60015b611e37573d8060008114611de4576040519150601f19603f3d011682016040523d82523d6000602084013e611de9565b606091505b50600081511415611e2f576040517f08c379a0000000000000000000000000000000000000000000000000000000008152600401611e2690613471565b60405180910390fd5b805181602001fd5b63150b7a0260e01b7bffffffffffffffffffffffffffffffffffffffffffffffffffffffff1916817bffffffffffffffffffffffffffffffffffffffffffffffffffffffff191614915050611e8c565b600190505b949350505050565b600080823b905060008111915050919050565b600033905090565b828054611ebb90612955565b90600052602060002090601f016020900481019282611edd5760008555611f24565b82601f10611ef657805160ff1916838001178555611f24565b82800160010185558215611f24579182015b82811115611f23578251825591602001919060010190611f08565b5b509050611f319190611f89565b5090565b6040518060800160405280600073ffffffffffffffffffffffffffffffffffffffff168152602001600073ffffffffffffffffffffffffffffffffffffffff16815260200160008152602001600081525090565b5b80821115611fa2576000816000905550600101611f8a565b5090565b6000604051905090565b600080fd5b600080fd5b60007fffffffff0000000000000000000000000000000000000000000000000000000082169050919050565b611fef81611fba565b8114611ffa57600080fd5b50565b60008135905061200c81611fe6565b92915050565b60006020828403121561202857612027611fb0565b5b600061203684828501611ffd565b91505092915050565b60008115159050919050565b6120548161203f565b82525050565b600060208201905061206f600083018461204b565b92915050565b600081519050919050565b600082825260208201905092915050565b60005b838110156120af578082015181840152602081019050612094565b838111156120be576000848401525b50505050565b6000601f19601f8301169050919050565b60006120e082612075565b6120ea8185612080565b93506120fa818560208601612091565b612103816120c4565b840191505092915050565b6000602082019050818103600083015261212881846120d5565b905092915050565b6000819050919050565b61214381612130565b811461214e57600080fd5b50565b6000813590506121608161213a565b92915050565b60006020828403121561217c5761217b611fb0565b5b600061218a84828501612151565b91505092915050565b600073ffffffffffffffffffffffffffffffffffffffff82169050919050565b60006121be82612193565b9050919050565b6121ce816121b3565b82525050565b60006020820190506121e960008301846121c5565b92915050565b6121f8816121b3565b811461220357600080fd5b50565b600081359050612215816121ef565b92915050565b6000806040838503121561223257612231611fb0565b5b600061224085828601612206565b925050602061225185828601612151565b9150509250929050565b60008060006060848603121561227457612273611fb0565b5b600061228286828701612206565b935050602061229386828701612206565b92505060406122a486828701612151565b9150509250925092565b6000819050919050565b6122c1816122ae565b82525050565b600060408201905081810360008301526122e181856120d5565b90506122f060208301846122b8565b9392505050565b600060208201905061230c60008301846122b8565b92915050565b60006020828403121561232857612327611fb0565b5b600061233684828501612206565b91505092915050565b61234881612130565b82525050565b6000602082019050612363600083018461233f565b92915050565b600080fd5b600080fd5b7f4e487b7100000000000000000000000000000000000000000000000000000000600052604160045260246000fd5b6123ab826120c4565b810181811067ffffffffffffffff821117156123ca576123c9612373565b5b80604052505050565b60006123dd611fa6565b90506123e982826123a2565b919050565b600067ffffffffffffffff82111561240957612408612373565b5b612412826120c4565b9050602081019050919050565b82818337600083830152505050565b600061244161243c846123ee565b6123d3565b90508281526020810184848401111561245d5761245c61236e565b5b61246884828561241f565b509392505050565b600082601f83011261248557612484612369565b5b813561249584826020860161242e565b91505092915050565b600080604083850312156124b5576124b4611fb0565b5b60006124c385828601612206565b925050602083013567ffffffffffffffff8111156124e4576124e3611fb5565b5b6124f085828601612470565b9150509250929050565b6125038161203f565b811461250e57600080fd5b50565b600081359050612520816124fa565b92915050565b6000806040838503121561253d5761253c611fb0565b5b600061254b85828601612206565b925050602061255c85828601612511565b9150509250929050565b600067ffffffffffffffff82111561258157612580612373565b5b61258a826120c4565b9050602081019050919050565b60006125aa6125a584612566565b6123d3565b9050828152602081018484840111156125c6576125c561236e565b5b6125d184828561241f565b509392505050565b600082601f8301126125ee576125ed612369565b5b81356125fe848260208601612597565b91505092915050565b6000806000806080858703121561262157612620611fb0565b5b600061262f87828801612206565b945050602061264087828801612206565b935050604061265187828801612151565b925050606085013567ffffffffffffffff81111561267257612671611fb5565b5b61267e878288016125d9565b91505092959194509250565b600080600080608085870312156126a4576126a3611fb0565b5b60006126b287828801612206565b94505060206126c387828801612206565b93505060406126d487828801612151565b92505060606126e587828801612151565b91505092959194509250565b6000806040838503121561270857612707611fb0565b5b600061271685828601612206565b925050602061272785828601612206565b9150509250929050565b600060808201905061274660008301876121c5565b61275360208301866121c5565b612760604083018561233f565b61276d606083018461233f565b95945050505050565b61277f816122ae565b811461278a57600080fd5b50565b60008135905061279c81612776565b92915050565b600080604083850312156127b9576127b8611fb0565b5b60006127c785828601612151565b92505060206127d88582860161278d565b9150509250929050565b600081519050919050565b600082825260208201905092915050565b6000819050602082019050919050565b612817816121b3565b82525050565b61282681612130565b82525050565b608082016000820151612842600085018261280e565b506020820151612855602085018261280e565b506040820151612868604085018261281d565b50606082015161287b606085018261281d565b50505050565b600061288d838361282c565b60808301905092915050565b6000602082019050919050565b60006128b1826127e2565b6128bb81856127ed565b93506128c6836127fe565b8060005b838110156128f75781516128de8882612881565b97506128e983612899565b9250506001810190506128ca565b5085935050505092915050565b6000602082019050818103600083015261291e81846128a6565b905092915050565b7f4e487b7100000000000000000000000000000000000000000000000000000000600052602260045260246000fd5b6000600282049050600182168061296d57607f821691505b6020821081141561298157612980612926565b5b50919050565b7f617070726f76616c20746f2063757272656e74206f776e657200000000000000600082015250565b60006129bd601983612080565b91506129c882612987565b602082019050919050565b600060208201905081810360008301526129ec816129b0565b9050919050565b7f617070726f76656420717565727920666f72206e6f6e6578697374656e74207460008201527f6f6b656e00000000000000000000000000000000000000000000000000000000602082015250565b6000612a4f602483612080565b9150612a5a826129f3565b604082019050919050565b60006020820190508181036000830152612a7e81612a42565b9050919050565b7f617070726f76652063616c6c6572206973206e6f74206f776e6572206e6f722060008201527f617070726f76656420666f7220616c6c00000000000000000000000000000000602082015250565b6000612ae1603083612080565b9150612aec82612a85565b604082019050919050565b60006020820190508181036000830152612b1081612ad4565b9050919050565b7f7472616e736665722063616c6c6572206973206e6f7420746865206f776e657260008201527f206e6f7220617070726f76656400000000000000000000000000000000000000602082015250565b6000612b73602d83612080565b9150612b7e82612b17565b604082019050919050565b60006020820190508181036000830152612ba281612b66565b9050919050565b7f4552433732313a20696e76616c696420746f6b656e2049440000000000000000600082015250565b6000612bdf601883612080565b9150612bea82612ba9565b602082019050919050565b60006020820190508181036000830152612c0e81612bd2565b9050919050565b7f4552433732313a2061646472657373207a65726f206973206e6f74206120766160008201527f6c6964206f776e65720000000000000000000000000000000000000000000000602082015250565b6000612c71602983612080565b9150612c7c82612c15565b604082019050919050565b60006020820190508181036000830152612ca081612c64565b9050919050565b7f617070726f766520746f2063616c6c6572000000000000000000000000000000600082015250565b6000612cdd601183612080565b9150612ce882612ca7565b602082019050919050565b60006020820190508181036000830152612d0c81612cd0565b9050919050565b7f4552433732313a2063616c6c6572206973206e6f7420746f6b656e206f776e6560008201527f72206f7220617070726f76656400000000000000000000000000000000000000602082015250565b6000612d6f602d83612080565b9150612d7a82612d13565b604082019050919050565b60006020820190508181036000830152612d9e81612d62565b9050919050565b7f496e76616c696420627579657220616464726573730000000000000000000000600082015250565b6000612ddb601583612080565b9150612de682612da5565b602082019050919050565b60006020820190508181036000830152612e0a81612dce565b9050919050565b7f496e76616c69642073656c6c6572206164647265737300000000000000000000600082015250565b6000612e47601683612080565b9150612e5282612e11565b602082019050919050565b60006020820190508181036000830152612e7681612e3a565b9050919050565b7f496e76616c696420746f6b656e20494400000000000000000000000000000000600082015250565b6000612eb3601083612080565b9150612ebe82612e7d565b602082019050919050565b60006020820190508181036000830152612ee281612ea6565b9050919050565b7f4e465420646f6573206e6f742065786973740000000000000000000000000000600082015250565b6000612f1f601283612080565b9150612f2a82612ee9565b602082019050919050565b60006020820190508181036000830152612f4e81612f12565b9050919050565b7f4e487b7100000000000000000000000000000000000000000000000000000000600052603260045260246000fd5b7f4e487b7100000000000000000000000000000000000000000000000000000000600052601160045260246000fd5b6000612fbe82612130565b91507fffffffffffffffffffffffffffffffffffffffffffffffffffffffffffffffff821415612ff157612ff0612f84565b5b600182019050919050565b7f6f70657261746f7220716575727920666f72206e6f6e6578697374656e74207460008201527f6f6b656e00000000000000000000000000000000000000000000000000000000602082015250565b6000613058602483612080565b915061306382612ffc565b604082019050919050565b600060208201905081810360008301526130878161304b565b9050919050565b7f4552433732313a207472616e736665722066726f6d20696e636f72726563742060008201527f6f776e6572000000000000000000000000000000000000000000000000000000602082015250565b60006130ea602583612080565b91506130f58261308e565b604082019050919050565b60006020820190508181036000830152613119816130dd565b9050919050565b7f4552433732313a207472616e7366657220746f20746865207a65726f2061646460008201527f7265737300000000000000000000000000000000000000000000000000000000602082015250565b600061317c602483612080565b915061318782613120565b604082019050919050565b600060208201905081810360008301526131ab8161316f565b9050919050565b7f6d696e7420746f20746865207a65726f20616464726573730000000000000000600082015250565b60006131e8601883612080565b91506131f3826131b2565b602082019050919050565b60006020820190508181036000830152613217816131db565b9050919050565b7f746f6b656e20616c7265616479206d696e746564000000000000000000000000600082015250565b6000613254601483612080565b915061325f8261321e565b602082019050919050565b6000602082019050818103600083015261328381613247565b9050919050565b7f7472616e7366657220746f206e6f6e204552433732315265636569766572206960008201527f6d706c656d656e74657200000000000000000000000000000000000000000000602082015250565b60006132e6602a83612080565b91506132f18261328a565b604082019050919050565b60006020820190508181036000830152613315816132d9565b9050919050565b600081519050919050565b600082825260208201905092915050565b60006133438261331c565b61334d8185613327565b935061335d818560208601612091565b613366816120c4565b840191505092915050565b600060808201905061338660008301876121c5565b61339360208301866121c5565b6133a0604083018561233f565b81810360608301526133b28184613338565b905095945050505050565b6000815190506133cc81611fe6565b92915050565b6000602082840312156133e8576133e7611fb0565b5b60006133f6848285016133bd565b91505092915050565b7f4552433732313a207472616e7366657220746f206e6f6e20455243373231526560008201527f63656976657220696d706c656d656e7465720000000000000000000000000000602082015250565b600061345b603283612080565b9150613466826133ff565b604082019050919050565b6000602082019050818103600083015261348a8161344e565b905091905056fea2646970667358221220ab9c0d2e612a6b260c33246a42ad531253f410caa68578518e9921683f9fa57864736f6c634300080a0033",
  "immutableReferences": {},
  "source": "// SPDX-License-Identifier: MIT\r\npragma solidity >=0.4.22 <0.9.0;\r\n\r\nimport \"./token/ERC721/ERC721.sol\";\r\nimport \"./utils/Counters.sol\";\r\nimport \"./utils/Strings.sol\";\r\n\r\n/**\r\n * PJT  -  2) NFT Creator \r\n *         .\r\n */\r\ncontract HereNFT is ERC721 {\r\n    \r\n    using Counters for Counters.Counter;\r\n    using Strings for uint256;\r\n\r\n    Counters.Counter private _tokenIds;\r\n    mapping(uint256 => string) tokenURIs;\r\n\r\n    event createNFT (uint256 indexed _tokenId, address indexed _owner);\r\n\r\n    constructor() ERC721(\"HERE-NFT\", \"TBD\") {}\r\n\r\n    // NFT \r\n    struct NFT {\r\n        string tokenURI;\r\n        bytes32 hashValue;\r\n    }\r\n    mapping(uint256 => NFT) public nfts;\r\n\r\n    //  \r\n    struct TransactionLog {\r\n        address from;\r\n        address to;\r\n        uint256 tokenId;\r\n        uint256 timestamp;\r\n    }\r\n    //  \r\n    TransactionLog[] public transactionLogs;\r\n\r\n    // NFT    \r\n    function donateNFT(\r\n        address _from,\r\n        address _to,\r\n        uint256 _tokenId,\r\n        uint256 _timestamp\r\n    ) public payable {\r\n        require(_from != address(0), \"Invalid buyer address\");\r\n        require(_to != address(0), \"Invalid seller address\");\r\n        require(_tokenId != 0, \"Invalid token ID\");\r\n\r\n        // Transfer ownership of NFT from seller to buyer\r\n        //emit Transfer(_seller, _buyer, _tokenId);\r\n        safeTransferFrom(_from, _to, _tokenId);\r\n\r\n        // Add transaction log to the transactionLogs array\r\n        transactionLogs.push(\r\n            TransactionLog({\r\n                from: _from,\r\n                to: _to,\r\n                tokenId: _tokenId,\r\n                timestamp: _timestamp\r\n            })\r\n        );\r\n\r\n    }\r\n\r\n    //  NFT    \r\n    function getTransactionLogs(uint256 _tokenId)\r\n        external\r\n        view\r\n        returns (TransactionLog[] memory)\r\n    {\r\n        uint256 count = 0;\r\n        for (uint256 i = 0; i < transactionLogs.length; i++) {\r\n            if (transactionLogs[i].tokenId == _tokenId) {\r\n                count++;\r\n            }\r\n        }\r\n        TransactionLog[] memory logs = new TransactionLog[](count);\r\n        uint256 index = 0;\r\n        for (uint256 i = 0; i < transactionLogs.length; i++) {\r\n            if (transactionLogs[i].tokenId == _tokenId) {\r\n                logs[index] = transactionLogs[i];\r\n                index++;\r\n            }\r\n        }\r\n        return logs;\r\n    }\r\n\r\n    function current() public view returns (uint256) {\r\n        return _tokenIds.current();\r\n    }\r\n\r\n    function tokenURI(uint256 tokenId) public view override returns (string memory) {\r\n        // TODO\r\n        _requireMinted(tokenId);\r\n        return tokenURIs[tokenId];\r\n    }\r\n\r\n    function create(address to, string memory _tokenURI) public returns (uint256) {\r\n\r\n        // TODO\r\n        _tokenIds.increment();\r\n\r\n        uint256 newItemId = _tokenIds.current();\r\n        _mint(to, newItemId);\r\n        tokenURIs[newItemId] = _tokenURI;\r\n\r\n        bytes32 hashValue = keccak256(bytes(_tokenURI));\r\n        NFT memory nft = NFT({\r\n            tokenURI: _tokenURI,\r\n            hashValue: hashValue\r\n        });\r\n        nfts[newItemId] = nft;\r\n\r\n        _tokenIds.increment();\r\n\r\n        newItemId = _tokenIds.current();\r\n        _mint(to, newItemId);\r\n        tokenURIs[newItemId] = _tokenURI;\r\n\r\n        hashValue = keccak256(bytes(_tokenURI));\r\n        nft = NFT({\r\n            tokenURI: _tokenURI,\r\n            hashValue: hashValue\r\n        });\r\n        nfts[newItemId] = nft;\r\n        //emit createNFT(newItemId, to);\r\n        return newItemId;\r\n    }\r\n\r\n    function getHashValue(uint256 tokenId) public view returns(bytes32) {\r\n        return nfts[tokenId].hashValue;\r\n    }\r\n\r\n    event NFTVerified(uint256 indexed tokenId, string metadataURI, bytes metadata, bytes32 metadataHash, bytes32 inputHash);\r\n\r\n    function verifyNFT(uint256 tokenId, bytes32 hash) public view returns (bool) {\r\n        require(_exists(tokenId), \"NFT does not exist\");\r\n\r\n        // NFT Metadata URI \r\n        string memory metadataURI = tokenURI(tokenId);\r\n\r\n        // JSON   \r\n        bytes32 transactionHash = keccak256(bytes(metadataURI));\r\n\r\n         //      \r\n        bool verified = transactionHash == hash;\r\n\r\n\r\n        return verified;\r\n    }\r\n}",
  "sourcePath": "C:\\SSAFY\\workspace\\work-blockchain\\S08P22B209\\here-blockchain\\contracts\\HereNFT.sol",
  "compiler": {
    "name": "solc",
    "version": "0.8.10+commit.fc410830.Emscripten.clang"
  },
  "schemaVersion": "3.4.4",
  "updatedAt": "2023-03-26T07:11:13.667Z",
  "networkType": "ethereum",
  "devdoc": {
    "kind": "dev",
    "methods": {
      "approve(address,uint256)": {
        "details": "See {IERC721-approve}."
      },
      "balanceOf(address)": {
        "details": "See {IERC721-balanceOf}."
      },
      "getApproved(uint256)": {
        "details": "See {IERC721-getApproved}."
      },
      "isApprovedForAll(address,address)": {
        "details": "See {IERC721-isApprovedForAll}."
      },
      "name()": {
        "details": "See {IERC721Metadata-name}."
      },
      "ownerOf(uint256)": {
        "details": "See {IERC721-ownerOf}."
      },
      "safeTransferFrom(address,address,uint256)": {
        "details": "See {IERC721-safeTransferFrom}."
      },
      "safeTransferFrom(address,address,uint256,bytes)": {
        "details": "See {IERC721-safeTransferFrom}."
      },
      "setApprovalForAll(address,bool)": {
        "details": "See {IERC721-setApprovalForAll}."
      },
      "supportsInterface(bytes4)": {
        "details": "See {IERC165-supportsInterface}."
      },
      "symbol()": {
        "details": "See {IERC721Metadata-symbol}."
      },
      "tokenURI(uint256)": {
        "details": "See {IERC721Metadata-tokenURI}."
      },
      "transferFrom(address,address,uint256)": {
        "details": "See {IERC721-transferFrom}."
      }
    },
    "version": 1
  },
  "userdoc": {
    "kind": "user",
    "methods": {},
    "notice": "PJT  -  2) NFT Creator          .",
    "version": 1
  }
}