{
  "contractName": "HereNFT",
  "abi": [
    {
      "inputs": [],
      "stateMutability": "nonpayable",
      "type": "constructor"
    },
    {
      "anonymous": false,
      "inputs": [
        {
          "indexed": true,
          "internalType": "address",
          "name": "owner",
          "type": "address"
        },
        {
          "indexed": true,
          "internalType": "address",
          "name": "approved",
          "type": "address"
        },
        {
          "indexed": true,
          "internalType": "uint256",
          "name": "tokenId",
          "type": "uint256"
        }
      ],
      "name": "Approval",
      "type": "event"
    },
    {
      "anonymous": false,
      "inputs": [
        {
          "indexed": true,
          "internalType": "address",
          "name": "owner",
          "type": "address"
        },
        {
          "indexed": true,
          "internalType": "address",
          "name": "operator",
          "type": "address"
        },
        {
          "indexed": false,
          "internalType": "bool",
          "name": "approved",
          "type": "bool"
        }
      ],
      "name": "ApprovalForAll",
      "type": "event"
    },
    {
      "anonymous": false,
      "inputs": [
        {
          "indexed": true,
          "internalType": "address",
          "name": "from",
          "type": "address"
        },
        {
          "indexed": true,
          "internalType": "address",
          "name": "to",
          "type": "address"
        },
        {
          "indexed": true,
          "internalType": "uint256",
          "name": "tokenId",
          "type": "uint256"
        }
      ],
      "name": "Transfer",
      "type": "event"
    },
    {
      "anonymous": false,
      "inputs": [
        {
          "indexed": true,
          "internalType": "uint256",
          "name": "_tokenId",
          "type": "uint256"
        },
        {
          "indexed": true,
          "internalType": "address",
          "name": "_owner",
          "type": "address"
        }
      ],
      "name": "createNFT",
      "type": "event"
    },
    {
      "inputs": [
        {
          "internalType": "address",
          "name": "to",
          "type": "address"
        },
        {
          "internalType": "uint256",
          "name": "tokenId",
          "type": "uint256"
        }
      ],
      "name": "approve",
      "outputs": [],
      "stateMutability": "nonpayable",
      "type": "function"
    },
    {
      "inputs": [
        {
          "internalType": "address",
          "name": "owner",
          "type": "address"
        }
      ],
      "name": "balanceOf",
      "outputs": [
        {
          "internalType": "uint256",
          "name": "",
          "type": "uint256"
        }
      ],
      "stateMutability": "view",
      "type": "function",
      "constant": true
    },
    {
      "inputs": [
        {
          "internalType": "uint256",
          "name": "tokenId",
          "type": "uint256"
        }
      ],
      "name": "getApproved",
      "outputs": [
        {
          "internalType": "address",
          "name": "",
          "type": "address"
        }
      ],
      "stateMutability": "view",
      "type": "function",
      "constant": true
    },
    {
      "inputs": [
        {
          "internalType": "address",
          "name": "owner",
          "type": "address"
        },
        {
          "internalType": "address",
          "name": "operator",
          "type": "address"
        }
      ],
      "name": "isApprovedForAll",
      "outputs": [
        {
          "internalType": "bool",
          "name": "",
          "type": "bool"
        }
      ],
      "stateMutability": "view",
      "type": "function",
      "constant": true
    },
    {
      "inputs": [],
      "name": "name",
      "outputs": [
        {
          "internalType": "string",
          "name": "",
          "type": "string"
        }
      ],
      "stateMutability": "view",
      "type": "function",
      "constant": true
    },
    {
      "inputs": [
        {
          "internalType": "uint256",
          "name": "tokenId",
          "type": "uint256"
        }
      ],
      "name": "ownerOf",
      "outputs": [
        {
          "internalType": "address",
          "name": "",
          "type": "address"
        }
      ],
      "stateMutability": "view",
      "type": "function",
      "constant": true
    },
    {
      "inputs": [
        {
          "internalType": "address",
          "name": "from",
          "type": "address"
        },
        {
          "internalType": "address",
          "name": "to",
          "type": "address"
        },
        {
          "internalType": "uint256",
          "name": "tokenId",
          "type": "uint256"
        }
      ],
      "name": "safeTransferFrom",
      "outputs": [],
      "stateMutability": "nonpayable",
      "type": "function"
    },
    {
      "inputs": [
        {
          "internalType": "address",
          "name": "from",
          "type": "address"
        },
        {
          "internalType": "address",
          "name": "to",
          "type": "address"
        },
        {
          "internalType": "uint256",
          "name": "tokenId",
          "type": "uint256"
        },
        {
          "internalType": "bytes",
          "name": "_data",
          "type": "bytes"
        }
      ],
      "name": "safeTransferFrom",
      "outputs": [],
      "stateMutability": "nonpayable",
      "type": "function"
    },
    {
      "inputs": [
        {
          "internalType": "address",
          "name": "operator",
          "type": "address"
        },
        {
          "internalType": "bool",
          "name": "approved",
          "type": "bool"
        }
      ],
      "name": "setApprovalForAll",
      "outputs": [],
      "stateMutability": "nonpayable",
      "type": "function"
    },
    {
      "inputs": [
        {
          "internalType": "bytes4",
          "name": "interfaceId",
          "type": "bytes4"
        }
      ],
      "name": "supportsInterface",
      "outputs": [
        {
          "internalType": "bool",
          "name": "",
          "type": "bool"
        }
      ],
      "stateMutability": "view",
      "type": "function",
      "constant": true
    },
    {
      "inputs": [],
      "name": "symbol",
      "outputs": [
        {
          "internalType": "string",
          "name": "",
          "type": "string"
        }
      ],
      "stateMutability": "view",
      "type": "function",
      "constant": true
    },
    {
      "inputs": [
        {
          "internalType": "address",
          "name": "from",
          "type": "address"
        },
        {
          "internalType": "address",
          "name": "to",
          "type": "address"
        },
        {
          "internalType": "uint256",
          "name": "tokenId",
          "type": "uint256"
        }
      ],
      "name": "transferFrom",
      "outputs": [],
      "stateMutability": "nonpayable",
      "type": "function"
    },
    {
      "inputs": [],
      "name": "current",
      "outputs": [
        {
          "internalType": "uint256",
          "name": "",
          "type": "uint256"
        }
      ],
      "stateMutability": "view",
      "type": "function",
      "constant": true
    },
    {
      "inputs": [
        {
          "internalType": "uint256",
          "name": "tokenId",
          "type": "uint256"
        }
      ],
      "name": "tokenURI",
      "outputs": [
        {
          "internalType": "string",
          "name": "",
          "type": "string"
        }
      ],
      "stateMutability": "view",
      "type": "function",
      "constant": true
    },
    {
      "inputs": [
        {
          "internalType": "address",
          "name": "to",
          "type": "address"
        },
        {
          "internalType": "string",
          "name": "_tokenURI",
          "type": "string"
        }
      ],
      "name": "create",
      "outputs": [
        {
          "internalType": "uint256",
          "name": "",
          "type": "uint256"
        }
      ],
      "stateMutability": "nonpayable",
      "type": "function"
    }
  ],
  "bytecode": "0x60806040523480156200001157600080fd5b506040518060400160405280600881526020017f484552452d4e46540000000000000000000000000000000000000000000000008152506040518060400160405280600381526020017f5442440000000000000000000000000000000000000000000000000000000000815250816000908051906020019062000096929190620000b8565b508060019080519060200190620000af929190620000b8565b505050620001cd565b828054620000c69062000197565b90600052602060002090601f016020900481019282620000ea576000855562000136565b82601f106200010557805160ff191683800117855562000136565b8280016001018555821562000136579182015b828111156200013557825182559160200191906001019062000118565b5b50905062000145919062000149565b5090565b5b80821115620001645760008160009055506001016200014a565b5090565b7f4e487b7100000000000000000000000000000000000000000000000000000000600052602260045260246000fd5b60006002820490506001821680620001b057607f821691505b60208210811415620001c757620001c662000168565b5b50919050565b61260680620001dd6000396000f3fe608060405234801561001057600080fd5b50600436106100f55760003560e01c806370a0823111610097578063a22cb46511610066578063a22cb46514610298578063b88d4fde146102b4578063c87b56dd146102d0578063e985e9c514610300576100f5565b806370a08231146101fc57806395d89b411461022c5780639fa6a6e31461024a578063a15ab08d14610268576100f5565b8063095ea7b3116100d3578063095ea7b31461017857806323b872dd1461019457806342842e0e146101b05780636352211e146101cc576100f5565b806301ffc9a7146100fa57806306fdde031461012a578063081812fc14610148575b600080fd5b610114600480360381019061010f9190611668565b610330565b60405161012191906116b0565b60405180910390f35b610132610412565b60405161013f9190611764565b60405180910390f35b610162600480360381019061015d91906117bc565b6104a4565b60405161016f919061182a565b60405180910390f35b610192600480360381019061018d9190611871565b6104ea565b005b6101ae60048036038101906101a991906118b1565b6106df565b005b6101ca60048036038101906101c591906118b1565b610738565b005b6101e660048036038101906101e191906117bc565b610758565b6040516101f3919061182a565b60405180910390f35b61021660048036038101906102119190611904565b61080a565b6040516102239190611940565b60405180910390f35b6102346108c2565b6040516102419190611764565b60405180910390f35b610252610954565b60405161025f9190611940565b60405180910390f35b610282600480360381019061027d9190611a90565b610965565b60405161028f9190611940565b60405180910390f35b6102b260048036038101906102ad9190611b18565b6109ff565b005b6102ce60048036038101906102c99190611bf9565b610b6b565b005b6102ea60048036038101906102e591906117bc565b610bc6565b6040516102f79190611764565b60405180910390f35b61031a60048036038101906103159190611c7c565b610c74565b60405161032791906116b0565b60405180910390f35b60007f80ac58cd000000000000000000000000000000000000000000000000000000007bffffffffffffffffffffffffffffffffffffffffffffffffffffffff1916827bffffffffffffffffffffffffffffffffffffffffffffffffffffffff191614806103fb57507f5b5e139f000000000000000000000000000000000000000000000000000000007bffffffffffffffffffffffffffffffffffffffffffffffffffffffff1916827bffffffffffffffffffffffffffffffffffffffffffffffffffffffff1916145b8061040b575061040a82610d08565b5b9050919050565b60606000805461042190611ceb565b80601f016020809104026020016040519081016040528092919081815260200182805461044d90611ceb565b801561049a5780601f1061046f5761010080835404028352916020019161049a565b820191906000526020600020905b81548152906001019060200180831161047d57829003601f168201915b5050505050905090565b60006104af82610d72565b6004600083815260200190815260200160002060009054906101000a900473ffffffffffffffffffffffffffffffffffffffff169050919050565b60006104f582610758565b90508073ffffffffffffffffffffffffffffffffffffffff168373ffffffffffffffffffffffffffffffffffffffff161415610566576040517f08c379a000000000000000000000000000000000000000000000000000000000815260040161055d90611d69565b60405180910390fd5b61056f82610dbd565b6105ae576040517f08c379a00000000000000000000000000000000000000000000000000000000081526004016105a590611dfb565b60405180910390fd5b8073ffffffffffffffffffffffffffffffffffffffff163373ffffffffffffffffffffffffffffffffffffffff1614806105ee57506105ed8133610c74565b5b61062d576040517f08c379a000000000000000000000000000000000000000000000000000000000815260040161062490611e8d565b60405180910390fd5b826004600084815260200190815260200160002060006101000a81548173ffffffffffffffffffffffffffffffffffffffff021916908373ffffffffffffffffffffffffffffffffffffffff160217905550818373ffffffffffffffffffffffffffffffffffffffff168273ffffffffffffffffffffffffffffffffffffffff167f8c5be1e5ebec7d5bd14f71427d1e84f3dd0314c0f7b2291e5b200ac8c7c3b92560405160405180910390a4505050565b6106e93382610e29565b610728576040517f08c379a000000000000000000000000000000000000000000000000000000000815260040161071f90611f1f565b60405180910390fd5b610733838383610f07565b505050565b61075383838360405180602001604052806000815250610b6b565b505050565b6000806002600084815260200190815260200160002060009054906101000a900473ffffffffffffffffffffffffffffffffffffffff169050600073ffffffffffffffffffffffffffffffffffffffff168173ffffffffffffffffffffffffffffffffffffffff161415610801576040517f08c379a00000000000000000000000000000000000000000000000000000000081526004016107f890611f8b565b60405180910390fd5b80915050919050565b60008073ffffffffffffffffffffffffffffffffffffffff168273ffffffffffffffffffffffffffffffffffffffff16141561087b576040517f08c379a00000000000000000000000000000000000000000000000000000000081526004016108729061201d565b60405180910390fd5b600360008373ffffffffffffffffffffffffffffffffffffffff1673ffffffffffffffffffffffffffffffffffffffff168152602001908152602001600020549050919050565b6060600180546108d190611ceb565b80601f01602080910402602001604051908101604052809291908181526020018280546108fd90611ceb565b801561094a5780601f1061091f5761010080835404028352916020019161094a565b820191906000526020600020905b81548152906001019060200180831161092d57829003601f168201915b5050505050905090565b60006109606006611144565b905090565b60006109716006611152565b600061097d6006611144565b90506109898482611168565b826007600083815260200190815260200160002090805190602001906109b0929190611559565b508373ffffffffffffffffffffffffffffffffffffffff16817f11407ed8d92a37c76ddc993ad3fce6827392297bbf8439605bef4399994f470d60405160405180910390a38091505092915050565b3373ffffffffffffffffffffffffffffffffffffffff168273ffffffffffffffffffffffffffffffffffffffff161415610a6e576040517f08c379a0000000000000000000000000000000000000000000000000000000008152600401610a6590612089565b60405180910390fd5b80600560003373ffffffffffffffffffffffffffffffffffffffff1673ffffffffffffffffffffffffffffffffffffffff16815260200190815260200160002060008473ffffffffffffffffffffffffffffffffffffffff1673ffffffffffffffffffffffffffffffffffffffff16815260200190815260200160002060006101000a81548160ff0219169083151502179055508173ffffffffffffffffffffffffffffffffffffffff163373ffffffffffffffffffffffffffffffffffffffff167f17307eab39ab6107e8899845ad3d59bd9653f200f220920489ca2b5937696c3183604051610b5f91906116b0565b60405180910390a35050565b610b753383610e29565b610bb4576040517f08c379a0000000000000000000000000000000000000000000000000000000008152600401610bab9061211b565b60405180910390fd5b610bc084848484611321565b50505050565b6060610bd182610d72565b600760008381526020019081526020016000208054610bef90611ceb565b80601f0160208091040260200160405190810160405280929190818152602001828054610c1b90611ceb565b8015610c685780601f10610c3d57610100808354040283529160200191610c68565b820191906000526020600020905b815481529060010190602001808311610c4b57829003601f168201915b50505050509050919050565b6000600560008473ffffffffffffffffffffffffffffffffffffffff1673ffffffffffffffffffffffffffffffffffffffff16815260200190815260200160002060008373ffffffffffffffffffffffffffffffffffffffff1673ffffffffffffffffffffffffffffffffffffffff16815260200190815260200160002060009054906101000a900460ff16905092915050565b60007f01ffc9a7000000000000000000000000000000000000000000000000000000007bffffffffffffffffffffffffffffffffffffffffffffffffffffffff1916827bffffffffffffffffffffffffffffffffffffffffffffffffffffffff1916149050919050565b610d7b81610dbd565b610dba576040517f08c379a0000000000000000000000000000000000000000000000000000000008152600401610db190611f8b565b60405180910390fd5b50565b60008073ffffffffffffffffffffffffffffffffffffffff166002600084815260200190815260200160002060009054906101000a900473ffffffffffffffffffffffffffffffffffffffff1673ffffffffffffffffffffffffffffffffffffffff1614159050919050565b6000610e3482610dbd565b610e73576040517f08c379a0000000000000000000000000000000000000000000000000000000008152600401610e6a906121ad565b60405180910390fd5b6000610e7e83610758565b90508073ffffffffffffffffffffffffffffffffffffffff168473ffffffffffffffffffffffffffffffffffffffff161480610eed57508373ffffffffffffffffffffffffffffffffffffffff16610ed5846104a4565b73ffffffffffffffffffffffffffffffffffffffff16145b80610efe5750610efd8185610c74565b5b91505092915050565b8273ffffffffffffffffffffffffffffffffffffffff16610f2782610758565b73ffffffffffffffffffffffffffffffffffffffff1614610f7d576040517f08c379a0000000000000000000000000000000000000000000000000000000008152600401610f749061223f565b60405180910390fd5b600073ffffffffffffffffffffffffffffffffffffffff168273ffffffffffffffffffffffffffffffffffffffff161415610fed576040517f08c379a0000000000000000000000000000000000000000000000000000000008152600401610fe4906122d1565b60405180910390fd5b610ff68161137d565b6001600360008573ffffffffffffffffffffffffffffffffffffffff1673ffffffffffffffffffffffffffffffffffffffff168152602001908152602001600020600082825403925050819055506001600360008473ffffffffffffffffffffffffffffffffffffffff1673ffffffffffffffffffffffffffffffffffffffff16815260200190815260200160002060008282540192505081905550816002600083815260200190815260200160002060006101000a81548173ffffffffffffffffffffffffffffffffffffffff021916908373ffffffffffffffffffffffffffffffffffffffff160217905550808273ffffffffffffffffffffffffffffffffffffffff168473ffffffffffffffffffffffffffffffffffffffff167fddf252ad1be2c89b69c2b068fc378daa952ba7f163c4a11628f55a4df523b3ef60405160405180910390a4505050565b600081600001549050919050565b6001816000016000828254019250508190555050565b600073ffffffffffffffffffffffffffffffffffffffff168273ffffffffffffffffffffffffffffffffffffffff1614156111d8576040517f08c379a00000000000000000000000000000000000000000000000000000000081526004016111cf9061233d565b60405180910390fd5b6111e181610dbd565b15611221576040517f08c379a0000000000000000000000000000000000000000000000000000000008152600401611218906123a9565b60405180910390fd5b6001600360008473ffffffffffffffffffffffffffffffffffffffff1673ffffffffffffffffffffffffffffffffffffffff16815260200190815260200160002060008282540192505081905550816002600083815260200190815260200160002060006101000a81548173ffffffffffffffffffffffffffffffffffffffff021916908373ffffffffffffffffffffffffffffffffffffffff160217905550808273ffffffffffffffffffffffffffffffffffffffff16600073ffffffffffffffffffffffffffffffffffffffff167fddf252ad1be2c89b69c2b068fc378daa952ba7f163c4a11628f55a4df523b3ef60405160405180910390a45050565b61132c848484610f07565b611338848484846113b6565b611377576040517f08c379a000000000000000000000000000000000000000000000000000000000815260040161136e9061243b565b60405180910390fd5b50505050565b6004600082815260200190815260200160002060006101000a81549073ffffffffffffffffffffffffffffffffffffffff021916905550565b60006113d78473ffffffffffffffffffffffffffffffffffffffff1661153e565b15611531578373ffffffffffffffffffffffffffffffffffffffff1663150b7a02611400611551565b8786866040518563ffffffff1660e01b815260040161142294939291906124b0565b6020604051808303816000875af192505050801561145e57506040513d601f19601f8201168201806040525081019061145b9190612511565b60015b6114e1573d806000811461148e576040519150601f19603f3d011682016040523d82523d6000602084013e611493565b606091505b506000815114156114d9576040517f08c379a00000000000000000000000000000000000000000000000000000000081526004016114d0906125b0565b60405180910390fd5b805181602001fd5b63150b7a0260e01b7bffffffffffffffffffffffffffffffffffffffffffffffffffffffff1916817bffffffffffffffffffffffffffffffffffffffffffffffffffffffff191614915050611536565b600190505b949350505050565b600080823b905060008111915050919050565b600033905090565b82805461156590611ceb565b90600052602060002090601f01602090048101928261158757600085556115ce565b82601f106115a057805160ff19168380011785556115ce565b828001600101855582156115ce579182015b828111156115cd5782518255916020019190600101906115b2565b5b5090506115db91906115df565b5090565b5b808211156115f85760008160009055506001016115e0565b5090565b6000604051905090565b600080fd5b600080fd5b60007fffffffff0000000000000000000000000000000000000000000000000000000082169050919050565b61164581611610565b811461165057600080fd5b50565b6000813590506116628161163c565b92915050565b60006020828403121561167e5761167d611606565b5b600061168c84828501611653565b91505092915050565b60008115159050919050565b6116aa81611695565b82525050565b60006020820190506116c560008301846116a1565b92915050565b600081519050919050565b600082825260208201905092915050565b60005b838110156117055780820151818401526020810190506116ea565b83811115611714576000848401525b50505050565b6000601f19601f8301169050919050565b6000611736826116cb565b61174081856116d6565b93506117508185602086016116e7565b6117598161171a565b840191505092915050565b6000602082019050818103600083015261177e818461172b565b905092915050565b6000819050919050565b61179981611786565b81146117a457600080fd5b50565b6000813590506117b681611790565b92915050565b6000602082840312156117d2576117d1611606565b5b60006117e0848285016117a7565b91505092915050565b600073ffffffffffffffffffffffffffffffffffffffff82169050919050565b6000611814826117e9565b9050919050565b61182481611809565b82525050565b600060208201905061183f600083018461181b565b92915050565b61184e81611809565b811461185957600080fd5b50565b60008135905061186b81611845565b92915050565b6000806040838503121561188857611887611606565b5b60006118968582860161185c565b92505060206118a7858286016117a7565b9150509250929050565b6000806000606084860312156118ca576118c9611606565b5b60006118d88682870161185c565b93505060206118e98682870161185c565b92505060406118fa868287016117a7565b9150509250925092565b60006020828403121561191a57611919611606565b5b60006119288482850161185c565b91505092915050565b61193a81611786565b82525050565b60006020820190506119556000830184611931565b92915050565b600080fd5b600080fd5b7f4e487b7100000000000000000000000000000000000000000000000000000000600052604160045260246000fd5b61199d8261171a565b810181811067ffffffffffffffff821117156119bc576119bb611965565b5b80604052505050565b60006119cf6115fc565b90506119db8282611994565b919050565b600067ffffffffffffffff8211156119fb576119fa611965565b5b611a048261171a565b9050602081019050919050565b82818337600083830152505050565b6000611a33611a2e846119e0565b6119c5565b905082815260208101848484011115611a4f57611a4e611960565b5b611a5a848285611a11565b509392505050565b600082601f830112611a7757611a7661195b565b5b8135611a87848260208601611a20565b91505092915050565b60008060408385031215611aa757611aa6611606565b5b6000611ab58582860161185c565b925050602083013567ffffffffffffffff811115611ad657611ad561160b565b5b611ae285828601611a62565b9150509250929050565b611af581611695565b8114611b0057600080fd5b50565b600081359050611b1281611aec565b92915050565b60008060408385031215611b2f57611b2e611606565b5b6000611b3d8582860161185c565b9250506020611b4e85828601611b03565b9150509250929050565b600067ffffffffffffffff821115611b7357611b72611965565b5b611b7c8261171a565b9050602081019050919050565b6000611b9c611b9784611b58565b6119c5565b905082815260208101848484011115611bb857611bb7611960565b5b611bc3848285611a11565b509392505050565b600082601f830112611be057611bdf61195b565b5b8135611bf0848260208601611b89565b91505092915050565b60008060008060808587031215611c1357611c12611606565b5b6000611c218782880161185c565b9450506020611c328782880161185c565b9350506040611c43878288016117a7565b925050606085013567ffffffffffffffff811115611c6457611c6361160b565b5b611c7087828801611bcb565b91505092959194509250565b60008060408385031215611c9357611c92611606565b5b6000611ca18582860161185c565b9250506020611cb28582860161185c565b9150509250929050565b7f4e487b7100000000000000000000000000000000000000000000000000000000600052602260045260246000fd5b60006002820490506001821680611d0357607f821691505b60208210811415611d1757611d16611cbc565b5b50919050565b7f617070726f76616c20746f2063757272656e74206f776e657200000000000000600082015250565b6000611d536019836116d6565b9150611d5e82611d1d565b602082019050919050565b60006020820190508181036000830152611d8281611d46565b9050919050565b7f617070726f76656420717565727920666f72206e6f6e6578697374656e74207460008201527f6f6b656e00000000000000000000000000000000000000000000000000000000602082015250565b6000611de56024836116d6565b9150611df082611d89565b604082019050919050565b60006020820190508181036000830152611e1481611dd8565b9050919050565b7f617070726f76652063616c6c6572206973206e6f74206f776e6572206e6f722060008201527f617070726f76656420666f7220616c6c00000000000000000000000000000000602082015250565b6000611e776030836116d6565b9150611e8282611e1b565b604082019050919050565b60006020820190508181036000830152611ea681611e6a565b9050919050565b7f7472616e736665722063616c6c6572206973206e6f7420746865206f776e657260008201527f206e6f7220617070726f76656400000000000000000000000000000000000000602082015250565b6000611f09602d836116d6565b9150611f1482611ead565b604082019050919050565b60006020820190508181036000830152611f3881611efc565b9050919050565b7f4552433732313a20696e76616c696420746f6b656e2049440000000000000000600082015250565b6000611f756018836116d6565b9150611f8082611f3f565b602082019050919050565b60006020820190508181036000830152611fa481611f68565b9050919050565b7f4552433732313a2061646472657373207a65726f206973206e6f74206120766160008201527f6c6964206f776e65720000000000000000000000000000000000000000000000602082015250565b60006120076029836116d6565b915061201282611fab565b604082019050919050565b6000602082019050818103600083015261203681611ffa565b9050919050565b7f617070726f766520746f2063616c6c6572000000000000000000000000000000600082015250565b60006120736011836116d6565b915061207e8261203d565b602082019050919050565b600060208201905081810360008301526120a281612066565b9050919050565b7f4552433732313a2063616c6c6572206973206e6f7420746f6b656e206f776e6560008201527f72206f7220617070726f76656400000000000000000000000000000000000000602082015250565b6000612105602d836116d6565b9150612110826120a9565b604082019050919050565b60006020820190508181036000830152612134816120f8565b9050919050565b7f6f70657261746f7220716575727920666f72206e6f6e6578697374656e74207460008201527f6f6b656e00000000000000000000000000000000000000000000000000000000602082015250565b60006121976024836116d6565b91506121a28261213b565b604082019050919050565b600060208201905081810360008301526121c68161218a565b9050919050565b7f4552433732313a207472616e736665722066726f6d20696e636f72726563742060008201527f6f776e6572000000000000000000000000000000000000000000000000000000602082015250565b60006122296025836116d6565b9150612234826121cd565b604082019050919050565b600060208201905081810360008301526122588161221c565b9050919050565b7f4552433732313a207472616e7366657220746f20746865207a65726f2061646460008201527f7265737300000000000000000000000000000000000000000000000000000000602082015250565b60006122bb6024836116d6565b91506122c68261225f565b604082019050919050565b600060208201905081810360008301526122ea816122ae565b9050919050565b7f6d696e7420746f20746865207a65726f20616464726573730000000000000000600082015250565b60006123276018836116d6565b9150612332826122f1565b602082019050919050565b600060208201905081810360008301526123568161231a565b9050919050565b7f746f6b656e20616c7265616479206d696e746564000000000000000000000000600082015250565b60006123936014836116d6565b915061239e8261235d565b602082019050919050565b600060208201905081810360008301526123c281612386565b9050919050565b7f7472616e7366657220746f206e6f6e204552433732315265636569766572206960008201527f6d706c656d656e74657200000000000000000000000000000000000000000000602082015250565b6000612425602a836116d6565b9150612430826123c9565b604082019050919050565b6000602082019050818103600083015261245481612418565b9050919050565b600081519050919050565b600082825260208201905092915050565b60006124828261245b565b61248c8185612466565b935061249c8185602086016116e7565b6124a58161171a565b840191505092915050565b60006080820190506124c5600083018761181b565b6124d2602083018661181b565b6124df6040830185611931565b81810360608301526124f18184612477565b905095945050505050565b60008151905061250b8161163c565b92915050565b60006020828403121561252757612526611606565b5b6000612535848285016124fc565b91505092915050565b7f4552433732313a207472616e7366657220746f206e6f6e20455243373231526560008201527f63656976657220696d706c656d656e7465720000000000000000000000000000602082015250565b600061259a6032836116d6565b91506125a58261253e565b604082019050919050565b600060208201905081810360008301526125c98161258d565b905091905056fea2646970667358221220e8101cf25379c4d4efea09bad498f1591e37d690343f2d15b28ae0207c333a3264736f6c634300080a0033",
  "immutableReferences": {},
  "source": "// SPDX-License-Identifier: MIT\r\npragma solidity ^0.8.4;\r\n\r\nimport \"./token/ERC721/ERC721.sol\";\r\nimport \"./utils/Counters.sol\";\r\nimport \"./utils/Strings.sol\";\r\n\r\n/**\r\n * PJT  -  2) NFT Creator \r\n *         .\r\n */\r\ncontract HereNFT is ERC721 {\r\n    using Counters for Counters.Counter;\r\n    using Strings for uint256;\r\n\r\n    Counters.Counter private _tokenIds;\r\n    //uint256 private _tokenIds;\r\n    mapping(uint256 => string) tokenURIs;\r\n\r\n   event createNFT (uint256 indexed _tokenId, address indexed _owner);\r\n\r\n    constructor() ERC721(\"HERE-NFT\", \"TBD\") {}\r\n\r\n    function current() public view returns (uint256) {\r\n        return _tokenIds.current();\r\n    }\r\n\r\n    function tokenURI(uint256 tokenId) public view override returns (string memory) {\r\n        // TODO\r\n        _requireMinted(tokenId);\r\n        return tokenURIs[tokenId];\r\n    }\r\n\r\n    function create(address to, string memory _tokenURI) public returns (uint256) {\r\n        // TODO\r\n        _tokenIds.increment();\r\n\r\n        uint256 newItemId = _tokenIds.current();\r\n        _mint(to, newItemId);\r\n        tokenURIs[newItemId] = _tokenURI;\r\n        emit createNFT(newItemId, to);\r\n        return newItemId;\r\n    }\r\n}",
  "sourcePath": "C:\\SSAFY\\workspace\\NFTsampleCode\\blockchain-nft-skeleton\\smart-contracts\\contracts\\HereNFT.sol",
  "compiler": {
    "name": "solc",
    "version": "0.8.10+commit.fc410830.Emscripten.clang"
  },
  "schemaVersion": "3.4.4",
  "updatedAt": "2023-03-14T07:57:04.218Z",
  "networkType": "ethereum",
  "devdoc": {
    "kind": "dev",
    "methods": {
      "approve(address,uint256)": {
        "details": "See {IERC721-approve}."
      },
      "balanceOf(address)": {
        "details": "See {IERC721-balanceOf}."
      },
      "getApproved(uint256)": {
        "details": "See {IERC721-getApproved}."
      },
      "isApprovedForAll(address,address)": {
        "details": "See {IERC721-isApprovedForAll}."
      },
      "name()": {
        "details": "See {IERC721Metadata-name}."
      },
      "ownerOf(uint256)": {
        "details": "See {IERC721-ownerOf}."
      },
      "safeTransferFrom(address,address,uint256)": {
        "details": "See {IERC721-safeTransferFrom}."
      },
      "safeTransferFrom(address,address,uint256,bytes)": {
        "details": "See {IERC721-safeTransferFrom}."
      },
      "setApprovalForAll(address,bool)": {
        "details": "See {IERC721-setApprovalForAll}."
      },
      "supportsInterface(bytes4)": {
        "details": "See {IERC165-supportsInterface}."
      },
      "symbol()": {
        "details": "See {IERC721Metadata-symbol}."
      },
      "tokenURI(uint256)": {
        "details": "See {IERC721Metadata-tokenURI}."
      },
      "transferFrom(address,address,uint256)": {
        "details": "See {IERC721-transferFrom}."
      }
    },
    "version": 1
  },
  "userdoc": {
    "kind": "user",
    "methods": {},
    "notice": "PJT  -  2) NFT Creator          .",
    "version": 1
  }
}