{
  "contractName": "HereNFT",
  "abi": [
    {
      "inputs": [],
      "stateMutability": "nonpayable",
      "type": "constructor"
    },
    {
      "anonymous": false,
      "inputs": [
        {
          "indexed": true,
          "internalType": "address",
          "name": "owner",
          "type": "address"
        },
        {
          "indexed": true,
          "internalType": "address",
          "name": "approved",
          "type": "address"
        },
        {
          "indexed": true,
          "internalType": "uint256",
          "name": "tokenId",
          "type": "uint256"
        }
      ],
      "name": "Approval",
      "type": "event"
    },
    {
      "anonymous": false,
      "inputs": [
        {
          "indexed": true,
          "internalType": "address",
          "name": "owner",
          "type": "address"
        },
        {
          "indexed": true,
          "internalType": "address",
          "name": "operator",
          "type": "address"
        },
        {
          "indexed": false,
          "internalType": "bool",
          "name": "approved",
          "type": "bool"
        }
      ],
      "name": "ApprovalForAll",
      "type": "event"
    },
    {
      "anonymous": false,
      "inputs": [
        {
          "indexed": true,
          "internalType": "uint256",
          "name": "tokenId",
          "type": "uint256"
        },
        {
          "indexed": false,
          "internalType": "string",
          "name": "metadataURI",
          "type": "string"
        },
        {
          "indexed": false,
          "internalType": "bytes",
          "name": "metadata",
          "type": "bytes"
        },
        {
          "indexed": false,
          "internalType": "bytes32",
          "name": "metadataHash",
          "type": "bytes32"
        },
        {
          "indexed": false,
          "internalType": "bytes32",
          "name": "inputHash",
          "type": "bytes32"
        }
      ],
      "name": "NFTVerified",
      "type": "event"
    },
    {
      "anonymous": false,
      "inputs": [
        {
          "indexed": true,
          "internalType": "address",
          "name": "from",
          "type": "address"
        },
        {
          "indexed": true,
          "internalType": "address",
          "name": "to",
          "type": "address"
        },
        {
          "indexed": true,
          "internalType": "uint256",
          "name": "tokenId",
          "type": "uint256"
        }
      ],
      "name": "Transfer",
      "type": "event"
    },
    {
      "anonymous": false,
      "inputs": [
        {
          "indexed": true,
          "internalType": "uint256",
          "name": "_tokenId",
          "type": "uint256"
        },
        {
          "indexed": true,
          "internalType": "address",
          "name": "_owner",
          "type": "address"
        }
      ],
      "name": "createNFT",
      "type": "event"
    },
    {
      "inputs": [
        {
          "internalType": "address",
          "name": "to",
          "type": "address"
        },
        {
          "internalType": "uint256",
          "name": "tokenId",
          "type": "uint256"
        }
      ],
      "name": "approve",
      "outputs": [],
      "stateMutability": "nonpayable",
      "type": "function"
    },
    {
      "inputs": [
        {
          "internalType": "address",
          "name": "owner",
          "type": "address"
        }
      ],
      "name": "balanceOf",
      "outputs": [
        {
          "internalType": "uint256",
          "name": "",
          "type": "uint256"
        }
      ],
      "stateMutability": "view",
      "type": "function",
      "constant": true
    },
    {
      "inputs": [
        {
          "internalType": "uint256",
          "name": "tokenId",
          "type": "uint256"
        }
      ],
      "name": "getApproved",
      "outputs": [
        {
          "internalType": "address",
          "name": "",
          "type": "address"
        }
      ],
      "stateMutability": "view",
      "type": "function",
      "constant": true
    },
    {
      "inputs": [
        {
          "internalType": "address",
          "name": "owner",
          "type": "address"
        },
        {
          "internalType": "address",
          "name": "operator",
          "type": "address"
        }
      ],
      "name": "isApprovedForAll",
      "outputs": [
        {
          "internalType": "bool",
          "name": "",
          "type": "bool"
        }
      ],
      "stateMutability": "view",
      "type": "function",
      "constant": true
    },
    {
      "inputs": [],
      "name": "name",
      "outputs": [
        {
          "internalType": "string",
          "name": "",
          "type": "string"
        }
      ],
      "stateMutability": "view",
      "type": "function",
      "constant": true
    },
    {
      "inputs": [
        {
          "internalType": "uint256",
          "name": "tokenId",
          "type": "uint256"
        }
      ],
      "name": "ownerOf",
      "outputs": [
        {
          "internalType": "address",
          "name": "",
          "type": "address"
        }
      ],
      "stateMutability": "view",
      "type": "function",
      "constant": true
    },
    {
      "inputs": [
        {
          "internalType": "address",
          "name": "from",
          "type": "address"
        },
        {
          "internalType": "address",
          "name": "to",
          "type": "address"
        },
        {
          "internalType": "uint256",
          "name": "tokenId",
          "type": "uint256"
        }
      ],
      "name": "safeTransferFrom",
      "outputs": [],
      "stateMutability": "nonpayable",
      "type": "function"
    },
    {
      "inputs": [
        {
          "internalType": "address",
          "name": "from",
          "type": "address"
        },
        {
          "internalType": "address",
          "name": "to",
          "type": "address"
        },
        {
          "internalType": "uint256",
          "name": "tokenId",
          "type": "uint256"
        },
        {
          "internalType": "bytes",
          "name": "_data",
          "type": "bytes"
        }
      ],
      "name": "safeTransferFrom",
      "outputs": [],
      "stateMutability": "nonpayable",
      "type": "function"
    },
    {
      "inputs": [
        {
          "internalType": "address",
          "name": "operator",
          "type": "address"
        },
        {
          "internalType": "bool",
          "name": "approved",
          "type": "bool"
        }
      ],
      "name": "setApprovalForAll",
      "outputs": [],
      "stateMutability": "nonpayable",
      "type": "function"
    },
    {
      "inputs": [
        {
          "internalType": "bytes4",
          "name": "interfaceId",
          "type": "bytes4"
        }
      ],
      "name": "supportsInterface",
      "outputs": [
        {
          "internalType": "bool",
          "name": "",
          "type": "bool"
        }
      ],
      "stateMutability": "view",
      "type": "function",
      "constant": true
    },
    {
      "inputs": [],
      "name": "symbol",
      "outputs": [
        {
          "internalType": "string",
          "name": "",
          "type": "string"
        }
      ],
      "stateMutability": "view",
      "type": "function",
      "constant": true
    },
    {
      "inputs": [
        {
          "internalType": "uint256",
          "name": "",
          "type": "uint256"
        }
      ],
      "name": "transactionLogs",
      "outputs": [
        {
          "internalType": "address",
          "name": "from",
          "type": "address"
        },
        {
          "internalType": "address",
          "name": "to",
          "type": "address"
        },
        {
          "internalType": "uint256",
          "name": "tokenId",
          "type": "uint256"
        },
        {
          "internalType": "uint256",
          "name": "timestamp",
          "type": "uint256"
        }
      ],
      "stateMutability": "view",
      "type": "function",
      "constant": true
    },
    {
      "inputs": [
        {
          "internalType": "address",
          "name": "from",
          "type": "address"
        },
        {
          "internalType": "address",
          "name": "to",
          "type": "address"
        },
        {
          "internalType": "uint256",
          "name": "tokenId",
          "type": "uint256"
        }
      ],
      "name": "transferFrom",
      "outputs": [],
      "stateMutability": "nonpayable",
      "type": "function"
    },
    {
      "inputs": [
        {
          "internalType": "address",
          "name": "_from",
          "type": "address"
        },
        {
          "internalType": "address",
          "name": "_to",
          "type": "address"
        },
        {
          "internalType": "uint256",
          "name": "_tokenId",
          "type": "uint256"
        },
        {
          "internalType": "uint256",
          "name": "_timestamp",
          "type": "uint256"
        }
      ],
      "name": "donateNFT",
      "outputs": [],
      "stateMutability": "payable",
      "type": "function",
      "payable": true
    },
    {
      "inputs": [
        {
          "internalType": "address",
          "name": "_from",
          "type": "address"
        },
        {
          "internalType": "address",
          "name": "_to",
          "type": "address"
        },
        {
          "internalType": "uint256[]",
          "name": "_tokenIdList",
          "type": "uint256[]"
        },
        {
          "internalType": "uint256",
          "name": "_timestamp",
          "type": "uint256"
        }
      ],
      "name": "donateNFTList",
      "outputs": [],
      "stateMutability": "payable",
      "type": "function",
      "payable": true
    },
    {
      "inputs": [
        {
          "internalType": "uint256",
          "name": "_tokenId",
          "type": "uint256"
        }
      ],
      "name": "getTransactionLogs",
      "outputs": [
        {
          "components": [
            {
              "internalType": "address",
              "name": "from",
              "type": "address"
            },
            {
              "internalType": "address",
              "name": "to",
              "type": "address"
            },
            {
              "internalType": "uint256",
              "name": "tokenId",
              "type": "uint256"
            },
            {
              "internalType": "uint256",
              "name": "timestamp",
              "type": "uint256"
            }
          ],
          "internalType": "struct HereNFT.TransactionLog[]",
          "name": "",
          "type": "tuple[]"
        }
      ],
      "stateMutability": "view",
      "type": "function",
      "constant": true
    },
    {
      "inputs": [],
      "name": "current",
      "outputs": [
        {
          "internalType": "uint256",
          "name": "",
          "type": "uint256"
        }
      ],
      "stateMutability": "view",
      "type": "function",
      "constant": true
    },
    {
      "inputs": [
        {
          "internalType": "uint256",
          "name": "tokenId",
          "type": "uint256"
        }
      ],
      "name": "tokenURI",
      "outputs": [
        {
          "internalType": "string",
          "name": "",
          "type": "string"
        }
      ],
      "stateMutability": "view",
      "type": "function",
      "constant": true
    },
    {
      "inputs": [
        {
          "internalType": "address",
          "name": "to",
          "type": "address"
        },
        {
          "internalType": "string",
          "name": "_tokenURI1",
          "type": "string"
        },
        {
          "internalType": "string",
          "name": "_tokenURI2",
          "type": "string"
        }
      ],
      "name": "create",
      "outputs": [
        {
          "internalType": "uint256",
          "name": "",
          "type": "uint256"
        },
        {
          "internalType": "uint256",
          "name": "",
          "type": "uint256"
        }
      ],
      "stateMutability": "nonpayable",
      "type": "function"
    },
    {
      "inputs": [
        {
          "internalType": "address",
          "name": "from",
          "type": "address"
        },
        {
          "internalType": "address",
          "name": "to",
          "type": "address"
        },
        {
          "internalType": "string",
          "name": "_tokenURI1",
          "type": "string"
        },
        {
          "internalType": "string",
          "name": "_tokenURI2",
          "type": "string"
        }
      ],
      "name": "createAndTransfer",
      "outputs": [
        {
          "internalType": "uint256",
          "name": "",
          "type": "uint256"
        },
        {
          "internalType": "uint256",
          "name": "",
          "type": "uint256"
        }
      ],
      "stateMutability": "nonpayable",
      "type": "function"
    },
    {
      "inputs": [],
      "name": "getAllNFTs",
      "outputs": [
        {
          "components": [
            {
              "internalType": "string",
              "name": "tokenURI",
              "type": "string"
            },
            {
              "internalType": "bytes32",
              "name": "hashValue",
              "type": "bytes32"
            }
          ],
          "internalType": "struct HereNFT.NFT[]",
          "name": "",
          "type": "tuple[]"
        }
      ],
      "stateMutability": "view",
      "type": "function",
      "constant": true
    },
    {
      "inputs": [
        {
          "internalType": "uint256",
          "name": "tokenId",
          "type": "uint256"
        }
      ],
      "name": "getHashValue",
      "outputs": [
        {
          "internalType": "bytes32",
          "name": "",
          "type": "bytes32"
        }
      ],
      "stateMutability": "view",
      "type": "function",
      "constant": true
    },
    {
      "inputs": [
        {
          "internalType": "uint256",
          "name": "tokenId",
          "type": "uint256"
        },
        {
          "internalType": "bytes32",
          "name": "hash",
          "type": "bytes32"
        }
      ],
      "name": "verifyNFT",
      "outputs": [
        {
          "internalType": "bool",
          "name": "",
          "type": "bool"
        }
      ],
      "stateMutability": "view",
      "type": "function",
      "constant": true
    },
    {
      "inputs": [
        {
          "internalType": "uint256[]",
          "name": "tokenIds",
          "type": "uint256[]"
        },
        {
          "internalType": "bytes32[]",
          "name": "hashes",
          "type": "bytes32[]"
        }
      ],
      "name": "verifyNFTList",
      "outputs": [
        {
          "internalType": "bool[]",
          "name": "results",
          "type": "bool[]"
        }
      ],
      "stateMutability": "view",
      "type": "function",
      "constant": true
    }
  ],
  "bytecode": "0x60806040523480156200001157600080fd5b506040518060400160405280600881526020017f484552452d4e46540000000000000000000000000000000000000000000000008152506040518060400160405280600381526020017f5442440000000000000000000000000000000000000000000000000000000000815250816000908051906020019062000096929190620000b8565b508060019080519060200190620000af929190620000b8565b505050620001cd565b828054620000c69062000197565b90600052602060002090601f016020900481019282620000ea576000855562000136565b82601f106200010557805160ff191683800117855562000136565b8280016001018555821562000136579182015b828111156200013557825182559160200191906001019062000118565b5b50905062000145919062000149565b5090565b5b80821115620001645760008160009055506001016200014a565b5090565b7f4e487b7100000000000000000000000000000000000000000000000000000000600052602260045260246000fd5b60006002820490506001821680620001b057607f821691505b60208210811415620001c757620001c662000168565b5b50919050565b6143b780620001dd6000396000f3fe60806040526004361061014b5760003560e01c806395d89b41116100b6578063e2b553a41161006f578063e2b553a4146104ce578063e900ecca146104ea578063e985e9c514610528578063f1f69f2214610565578063f5545e96146105a5578063fb13effc146105e25761014b565b806395d89b41146103be5780639fa6a6e3146103e9578063a22cb46514610414578063b88d4fde1461043d578063c87b56dd14610466578063e0391b09146104a35761014b565b8063520e68bd11610108578063520e68bd146102705780636352211e146102ad5780636fbf29e6146102ea5780637058cd541461032757806370a0823114610343578063796d5836146103805761014b565b806301ffc9a71461015057806306fdde031461018d578063081812fc146101b8578063095ea7b3146101f557806323b872dd1461021e57806342842e0e14610247575b600080fd5b34801561015c57600080fd5b506101776004803603810190610172919061285d565b61061f565b60405161018491906128a5565b60405180910390f35b34801561019957600080fd5b506101a2610701565b6040516101af9190612959565b60405180910390f35b3480156101c457600080fd5b506101df60048036038101906101da91906129b1565b610793565b6040516101ec9190612a1f565b60405180910390f35b34801561020157600080fd5b5061021c60048036038101906102179190612a66565b6107d9565b005b34801561022a57600080fd5b5061024560048036038101906102409190612aa6565b6109ce565b005b34801561025357600080fd5b5061026e60048036038101906102699190612aa6565b610a27565b005b34801561027c57600080fd5b5061029760048036038101906102929190612d3a565b610a47565b6040516102a49190612e70565b60405180910390f35b3480156102b957600080fd5b506102d460048036038101906102cf91906129b1565b610bde565b6040516102e19190612a1f565b60405180910390f35b3480156102f657600080fd5b50610311600480360381019061030c91906129b1565b610c90565b60405161031e9190612ea1565b60405180910390f35b610341600480360381019061033c9190612ebc565b610cb0565b005b34801561034f57600080fd5b5061036a60048036038101906103659190612f3f565b610f85565b6040516103779190612f7b565b60405180910390f35b34801561038c57600080fd5b506103a760048036038101906103a2919061304b565b61103d565b6040516103b59291906130d6565b60405180910390f35b3480156103ca57600080fd5b506103d3611200565b6040516103e09190612959565b60405180910390f35b3480156103f557600080fd5b506103fe611292565b60405161040b9190612f7b565b60405180910390f35b34801561042057600080fd5b5061043b6004803603810190610436919061312b565b6112a3565b005b34801561044957600080fd5b50610464600480360381019061045f919061320c565b61140f565b005b34801561047257600080fd5b5061048d600480360381019061048891906129b1565b61146a565b60405161049a9190612959565b60405180910390f35b3480156104af57600080fd5b506104b8611518565b6040516104c591906133e7565b60405180910390f35b6104e860048036038101906104e39190613409565b6116a5565b005b3480156104f657600080fd5b50610511600480360381019061050c9190613470565b6118f6565b60405161051f9291906130d6565b60405180910390f35b34801561053457600080fd5b5061054f600480360381019061054a919061350f565b611ad0565b60405161055c91906128a5565b60405180910390f35b34801561057157600080fd5b5061058c600480360381019061058791906129b1565b611b64565b60405161059c949392919061354f565b60405180910390f35b3480156105b157600080fd5b506105cc60048036038101906105c79190613594565b611be4565b6040516105d991906128a5565b60405180910390f35b3480156105ee57600080fd5b50610609600480360381019061060491906129b1565b611c5a565b60405161061691906136f6565b60405180910390f35b60007f80ac58cd000000000000000000000000000000000000000000000000000000007bffffffffffffffffffffffffffffffffffffffffffffffffffffffff1916827bffffffffffffffffffffffffffffffffffffffffffffffffffffffff191614806106ea57507f5b5e139f000000000000000000000000000000000000000000000000000000007bffffffffffffffffffffffffffffffffffffffffffffffffffffffff1916827bffffffffffffffffffffffffffffffffffffffffffffffffffffffff1916145b806106fa57506106f982611e8c565b5b9050919050565b60606000805461071090613747565b80601f016020809104026020016040519081016040528092919081815260200182805461073c90613747565b80156107895780601f1061075e57610100808354040283529160200191610789565b820191906000526020600020905b81548152906001019060200180831161076c57829003601f168201915b5050505050905090565b600061079e82611ef6565b6004600083815260200190815260200160002060009054906101000a900473ffffffffffffffffffffffffffffffffffffffff169050919050565b60006107e482610bde565b90508073ffffffffffffffffffffffffffffffffffffffff168373ffffffffffffffffffffffffffffffffffffffff161415610855576040517f08c379a000000000000000000000000000000000000000000000000000000000815260040161084c906137c5565b60405180910390fd5b61085e82611f41565b61089d576040517f08c379a000000000000000000000000000000000000000000000000000000000815260040161089490613857565b60405180910390fd5b8073ffffffffffffffffffffffffffffffffffffffff163373ffffffffffffffffffffffffffffffffffffffff1614806108dd57506108dc8133611ad0565b5b61091c576040517f08c379a0000000000000000000000000000000000000000000000000000000008152600401610913906138e9565b60405180910390fd5b826004600084815260200190815260200160002060006101000a81548173ffffffffffffffffffffffffffffffffffffffff021916908373ffffffffffffffffffffffffffffffffffffffff160217905550818373ffffffffffffffffffffffffffffffffffffffff168273ffffffffffffffffffffffffffffffffffffffff167f8c5be1e5ebec7d5bd14f71427d1e84f3dd0314c0f7b2291e5b200ac8c7c3b92560405160405180910390a4505050565b6109d83382611fad565b610a17576040517f08c379a0000000000000000000000000000000000000000000000000000000008152600401610a0e9061397b565b60405180910390fd5b610a2283838361208b565b505050565b610a428383836040518060200160405280600081525061140f565b505050565b60608151835114610a8d576040517f08c379a0000000000000000000000000000000000000000000000000000000008152600401610a8490613a0d565b60405180910390fd5b825167ffffffffffffffff811115610aa857610aa7612afe565b5b604051908082528060200260200182016040528015610ad65781602001602082028036833780820191505090505b50905060005b8351811015610bd757610b08848281518110610afb57610afa613a2d565b5b6020026020010151611f41565b610b47576040517f08c379a0000000000000000000000000000000000000000000000000000000008152600401610b3e90613aa8565b60405180910390fd5b6000610b6c858381518110610b5f57610b5e613a2d565b5b602002602001015161146a565b90506000818051906020012090506000858481518110610b8f57610b8e613a2d565b5b60200260200101518214905080858581518110610baf57610bae613a2d565b5b6020026020010190151590811515815250505050508080610bcf90613af7565b915050610adc565b5092915050565b6000806002600084815260200190815260200160002060009054906101000a900473ffffffffffffffffffffffffffffffffffffffff169050600073ffffffffffffffffffffffffffffffffffffffff168173ffffffffffffffffffffffffffffffffffffffff161415610c87576040517f08c379a0000000000000000000000000000000000000000000000000000000008152600401610c7e90613b8c565b60405180910390fd5b80915050919050565b600060096000838152602001908152602001600020600101549050919050565b600073ffffffffffffffffffffffffffffffffffffffff168473ffffffffffffffffffffffffffffffffffffffff161415610d20576040517f08c379a0000000000000000000000000000000000000000000000000000000008152600401610d1790613bf8565b60405180910390fd5b600073ffffffffffffffffffffffffffffffffffffffff168373ffffffffffffffffffffffffffffffffffffffff161415610d90576040517f08c379a0000000000000000000000000000000000000000000000000000000008152600401610d8790613c64565b60405180910390fd5b6000825111610dd4576040517f08c379a0000000000000000000000000000000000000000000000000000000008152600401610dcb90613cd0565b60405180910390fd5b60005b8251811015610f7e576000838281518110610df557610df4613a2d565b5b602002602001015190506000811415610e43576040517f08c379a0000000000000000000000000000000000000000000000000000000008152600401610e3a90613d3c565b60405180910390fd5b610e4e868683610a27565b600a60405180608001604052808873ffffffffffffffffffffffffffffffffffffffff1681526020018773ffffffffffffffffffffffffffffffffffffffff16815260200183815260200185815250908060018154018082558091505060019003906000526020600020906004020160009091909190915060008201518160000160006101000a81548173ffffffffffffffffffffffffffffffffffffffff021916908373ffffffffffffffffffffffffffffffffffffffff16021790555060208201518160010160006101000a81548173ffffffffffffffffffffffffffffffffffffffff021916908373ffffffffffffffffffffffffffffffffffffffff16021790555060408201518160020155606082015181600301555050508080610f7690613af7565b915050610dd7565b5050505050565b60008073ffffffffffffffffffffffffffffffffffffffff168273ffffffffffffffffffffffffffffffffffffffff161415610ff6576040517f08c379a0000000000000000000000000000000000000000000000000000000008152600401610fed90613dce565b60405180910390fd5b600360008373ffffffffffffffffffffffffffffffffffffffff1673ffffffffffffffffffffffffffffffffffffffff168152602001908152602001600020549050919050565b60008061104a60066122c8565b600061105660066122de565b905061106286826122ec565b846007600083815260200190815260200160002090805190602001906110899291906126dd565b50600085805190602001209050600060405180604001604052808881526020018381525090506008839080600181540180825580915050600190039060005260206000200160009091909190915055806009600085815260200190815260200160002060008201518160000190805190602001906111089291906126dd565b506020820151816001015590505061112060066122c8565b600061112c60066122de565b905061113889826122ec565b8660076000838152602001908152602001600020908051906020019061115f9291906126dd565b50600087805190602001209050600060405180604001604052808a81526020018381525090506008839080600181540180825580915050600190039060005260206000200160009091909190915055806009600085815260200190815260200160002060008201518160000190805190602001906111de9291906126dd565b5060208201518160010155905050858397509750505050505050935093915050565b60606001805461120f90613747565b80601f016020809104026020016040519081016040528092919081815260200182805461123b90613747565b80156112885780601f1061125d57610100808354040283529160200191611288565b820191906000526020600020905b81548152906001019060200180831161126b57829003601f168201915b5050505050905090565b600061129e60066122de565b905090565b3373ffffffffffffffffffffffffffffffffffffffff168273ffffffffffffffffffffffffffffffffffffffff161415611312576040517f08c379a000000000000000000000000000000000000000000000000000000000815260040161130990613e3a565b60405180910390fd5b80600560003373ffffffffffffffffffffffffffffffffffffffff1673ffffffffffffffffffffffffffffffffffffffff16815260200190815260200160002060008473ffffffffffffffffffffffffffffffffffffffff1673ffffffffffffffffffffffffffffffffffffffff16815260200190815260200160002060006101000a81548160ff0219169083151502179055508173ffffffffffffffffffffffffffffffffffffffff163373ffffffffffffffffffffffffffffffffffffffff167f17307eab39ab6107e8899845ad3d59bd9653f200f220920489ca2b5937696c318360405161140391906128a5565b60405180910390a35050565b6114193383611fad565b611458576040517f08c379a000000000000000000000000000000000000000000000000000000000815260040161144f90613ecc565b60405180910390fd5b611464848484846124a5565b50505050565b606061147582611ef6565b60076000838152602001908152602001600020805461149390613747565b80601f01602080910402602001604051908101604052809291908181526020018280546114bf90613747565b801561150c5780601f106114e15761010080835404028352916020019161150c565b820191906000526020600020905b8154815290600101906020018083116114ef57829003601f168201915b50505050509050919050565b60606000600880549050905060008167ffffffffffffffff8111156115405761153f612afe565b5b60405190808252806020026020018201604052801561157957816020015b611566612763565b81526020019060019003908161155e5790505b50905060005b8281101561169c5760006008828154811061159d5761159c613a2d565b5b906000526020600020015490506000600960008381526020019081526020016000206040518060400160405290816000820180546115da90613747565b80601f016020809104026020016040519081016040528092919081815260200182805461160690613747565b80156116535780601f1061162857610100808354040283529160200191611653565b820191906000526020600020905b81548152906001019060200180831161163657829003601f168201915b5050505050815260200160018201548152505090508084848151811061167c5761167b613a2d565b5b60200260200101819052505050808061169490613af7565b91505061157f565b50809250505090565b600073ffffffffffffffffffffffffffffffffffffffff168473ffffffffffffffffffffffffffffffffffffffff161415611715576040517f08c379a000000000000000000000000000000000000000000000000000000000815260040161170c90613bf8565b60405180910390fd5b600073ffffffffffffffffffffffffffffffffffffffff168373ffffffffffffffffffffffffffffffffffffffff161415611785576040517f08c379a000000000000000000000000000000000000000000000000000000000815260040161177c90613c64565b60405180910390fd5b60008214156117c9576040517f08c379a00000000000000000000000000000000000000000000000000000000081526004016117c090613d3c565b60405180910390fd5b6117d4848484610a27565b600a60405180608001604052808673ffffffffffffffffffffffffffffffffffffffff1681526020018573ffffffffffffffffffffffffffffffffffffffff16815260200184815260200183815250908060018154018082558091505060019003906000526020600020906004020160009091909190915060008201518160000160006101000a81548173ffffffffffffffffffffffffffffffffffffffff021916908373ffffffffffffffffffffffffffffffffffffffff16021790555060208201518160010160006101000a81548173ffffffffffffffffffffffffffffffffffffffff021916908373ffffffffffffffffffffffffffffffffffffffff1602179055506040820151816002015560608201518160030155505050505050565b60008061190360066122c8565b600061190f60066122de565b905061191b87826122ec565b846007600083815260200190815260200160002090805190602001906119429291906126dd565b50600085805190602001209050600060405180604001604052808881526020018381525090506008839080600181540180825580915050600190039060005260206000200160009091909190915055806009600085815260200190815260200160002060008201518160000190805190602001906119c19291906126dd565b50602082015181600101559050506119d960066122c8565b60006119e560066122de565b90506119f18a826122ec565b86600760008381526020019081526020016000209080519060200190611a189291906126dd565b50600087805190602001209050600060405180604001604052808a8152602001838152509050600883908060018154018082558091505060019003906000526020600020016000909190919091505580600960008581526020019081526020016000206000820151816000019080519060200190611a979291906126dd565b5060208201518160010155905050611ab08c8c88610a27565b611abb8c8c85610a27565b85839750975050505050505094509492505050565b6000600560008473ffffffffffffffffffffffffffffffffffffffff1673ffffffffffffffffffffffffffffffffffffffff16815260200190815260200160002060008373ffffffffffffffffffffffffffffffffffffffff1673ffffffffffffffffffffffffffffffffffffffff16815260200190815260200160002060009054906101000a900460ff16905092915050565b600a8181548110611b7457600080fd5b90600052602060002090600402016000915090508060000160009054906101000a900473ffffffffffffffffffffffffffffffffffffffff16908060010160009054906101000a900473ffffffffffffffffffffffffffffffffffffffff16908060020154908060030154905084565b6000611bef83611f41565b611c2e576040517f08c379a0000000000000000000000000000000000000000000000000000000008152600401611c2590613aa8565b60405180910390fd5b6000611c398461146a565b90506000818051906020012090506000848214905080935050505092915050565b60606000805b600a80549050811015611cbc5783600a8281548110611c8257611c81613a2d565b5b9060005260206000209060040201600201541415611ca9578180611ca590613af7565b9250505b8080611cb490613af7565b915050611c60565b5060008167ffffffffffffffff811115611cd957611cd8612afe565b5b604051908082528060200260200182016040528015611d1257816020015b611cff612780565b815260200190600190039081611cf75790505b5090506000805b600a80549050811015611e805785600a8281548110611d3b57611d3a613a2d565b5b9060005260206000209060040201600201541415611e6d57600a8181548110611d6757611d66613a2d565b5b90600052602060002090600402016040518060800160405290816000820160009054906101000a900473ffffffffffffffffffffffffffffffffffffffff1673ffffffffffffffffffffffffffffffffffffffff1673ffffffffffffffffffffffffffffffffffffffff1681526020016001820160009054906101000a900473ffffffffffffffffffffffffffffffffffffffff1673ffffffffffffffffffffffffffffffffffffffff1673ffffffffffffffffffffffffffffffffffffffff16815260200160028201548152602001600382015481525050838381518110611e5357611e52613a2d565b5b60200260200101819052508180611e6990613af7565b9250505b8080611e7890613af7565b915050611d19565b50819350505050919050565b60007f01ffc9a7000000000000000000000000000000000000000000000000000000007bffffffffffffffffffffffffffffffffffffffffffffffffffffffff1916827bffffffffffffffffffffffffffffffffffffffffffffffffffffffff1916149050919050565b611eff81611f41565b611f3e576040517f08c379a0000000000000000000000000000000000000000000000000000000008152600401611f3590613b8c565b60405180910390fd5b50565b60008073ffffffffffffffffffffffffffffffffffffffff166002600084815260200190815260200160002060009054906101000a900473ffffffffffffffffffffffffffffffffffffffff1673ffffffffffffffffffffffffffffffffffffffff1614159050919050565b6000611fb882611f41565b611ff7576040517f08c379a0000000000000000000000000000000000000000000000000000000008152600401611fee90613f5e565b60405180910390fd5b600061200283610bde565b90508073ffffffffffffffffffffffffffffffffffffffff168473ffffffffffffffffffffffffffffffffffffffff16148061207157508373ffffffffffffffffffffffffffffffffffffffff1661205984610793565b73ffffffffffffffffffffffffffffffffffffffff16145b8061208257506120818185611ad0565b5b91505092915050565b8273ffffffffffffffffffffffffffffffffffffffff166120ab82610bde565b73ffffffffffffffffffffffffffffffffffffffff1614612101576040517f08c379a00000000000000000000000000000000000000000000000000000000081526004016120f890613ff0565b60405180910390fd5b600073ffffffffffffffffffffffffffffffffffffffff168273ffffffffffffffffffffffffffffffffffffffff161415612171576040517f08c379a000000000000000000000000000000000000000000000000000000000815260040161216890614082565b60405180910390fd5b61217a81612501565b6001600360008573ffffffffffffffffffffffffffffffffffffffff1673ffffffffffffffffffffffffffffffffffffffff168152602001908152602001600020600082825403925050819055506001600360008473ffffffffffffffffffffffffffffffffffffffff1673ffffffffffffffffffffffffffffffffffffffff16815260200190815260200160002060008282540192505081905550816002600083815260200190815260200160002060006101000a81548173ffffffffffffffffffffffffffffffffffffffff021916908373ffffffffffffffffffffffffffffffffffffffff160217905550808273ffffffffffffffffffffffffffffffffffffffff168473ffffffffffffffffffffffffffffffffffffffff167fddf252ad1be2c89b69c2b068fc378daa952ba7f163c4a11628f55a4df523b3ef60405160405180910390a4505050565b6001816000016000828254019250508190555050565b600081600001549050919050565b600073ffffffffffffffffffffffffffffffffffffffff168273ffffffffffffffffffffffffffffffffffffffff16141561235c576040517f08c379a0000000000000000000000000000000000000000000000000000000008152600401612353906140ee565b60405180910390fd5b61236581611f41565b156123a5576040517f08c379a000000000000000000000000000000000000000000000000000000000815260040161239c9061415a565b60405180910390fd5b6001600360008473ffffffffffffffffffffffffffffffffffffffff1673ffffffffffffffffffffffffffffffffffffffff16815260200190815260200160002060008282540192505081905550816002600083815260200190815260200160002060006101000a81548173ffffffffffffffffffffffffffffffffffffffff021916908373ffffffffffffffffffffffffffffffffffffffff160217905550808273ffffffffffffffffffffffffffffffffffffffff16600073ffffffffffffffffffffffffffffffffffffffff167fddf252ad1be2c89b69c2b068fc378daa952ba7f163c4a11628f55a4df523b3ef60405160405180910390a45050565b6124b084848461208b565b6124bc8484848461253a565b6124fb576040517f08c379a00000000000000000000000000000000000000000000000000000000081526004016124f2906141ec565b60405180910390fd5b50505050565b6004600082815260200190815260200160002060006101000a81549073ffffffffffffffffffffffffffffffffffffffff021916905550565b600061255b8473ffffffffffffffffffffffffffffffffffffffff166126c2565b156126b5578373ffffffffffffffffffffffffffffffffffffffff1663150b7a026125846126d5565b8786866040518563ffffffff1660e01b81526004016125a69493929190614261565b6020604051808303816000875af19250505080156125e257506040513d601f19601f820116820180604052508101906125df91906142c2565b60015b612665573d8060008114612612576040519150601f19603f3d011682016040523d82523d6000602084013e612617565b606091505b5060008151141561265d576040517f08c379a000000000000000000000000000000000000000000000000000000000815260040161265490614361565b60405180910390fd5b805181602001fd5b63150b7a0260e01b7bffffffffffffffffffffffffffffffffffffffffffffffffffffffff1916817bffffffffffffffffffffffffffffffffffffffffffffffffffffffff1916149150506126ba565b600190505b949350505050565b600080823b905060008111915050919050565b600033905090565b8280546126e990613747565b90600052602060002090601f01602090048101928261270b5760008555612752565b82601f1061272457805160ff1916838001178555612752565b82800160010185558215612752579182015b82811115612751578251825591602001919060010190612736565b5b50905061275f91906127d4565b5090565b604051806040016040528060608152602001600080191681525090565b6040518060800160405280600073ffffffffffffffffffffffffffffffffffffffff168152602001600073ffffffffffffffffffffffffffffffffffffffff16815260200160008152602001600081525090565b5b808211156127ed5760008160009055506001016127d5565b5090565b6000604051905090565b600080fd5b600080fd5b60007fffffffff0000000000000000000000000000000000000000000000000000000082169050919050565b61283a81612805565b811461284557600080fd5b50565b60008135905061285781612831565b92915050565b600060208284031215612873576128726127fb565b5b600061288184828501612848565b91505092915050565b60008115159050919050565b61289f8161288a565b82525050565b60006020820190506128ba6000830184612896565b92915050565b600081519050919050565b600082825260208201905092915050565b60005b838110156128fa5780820151818401526020810190506128df565b83811115612909576000848401525b50505050565b6000601f19601f8301169050919050565b600061292b826128c0565b61293581856128cb565b93506129458185602086016128dc565b61294e8161290f565b840191505092915050565b600060208201905081810360008301526129738184612920565b905092915050565b6000819050919050565b61298e8161297b565b811461299957600080fd5b50565b6000813590506129ab81612985565b92915050565b6000602082840312156129c7576129c66127fb565b5b60006129d58482850161299c565b91505092915050565b600073ffffffffffffffffffffffffffffffffffffffff82169050919050565b6000612a09826129de565b9050919050565b612a19816129fe565b82525050565b6000602082019050612a346000830184612a10565b92915050565b612a43816129fe565b8114612a4e57600080fd5b50565b600081359050612a6081612a3a565b92915050565b60008060408385031215612a7d57612a7c6127fb565b5b6000612a8b85828601612a51565b9250506020612a9c8582860161299c565b9150509250929050565b600080600060608486031215612abf57612abe6127fb565b5b6000612acd86828701612a51565b9350506020612ade86828701612a51565b9250506040612aef8682870161299c565b9150509250925092565b600080fd5b7f4e487b7100000000000000000000000000000000000000000000000000000000600052604160045260246000fd5b612b368261290f565b810181811067ffffffffffffffff82111715612b5557612b54612afe565b5b80604052505050565b6000612b686127f1565b9050612b748282612b2d565b919050565b600067ffffffffffffffff821115612b9457612b93612afe565b5b602082029050602081019050919050565b600080fd5b6000612bbd612bb884612b79565b612b5e565b90508083825260208201905060208402830185811115612be057612bdf612ba5565b5b835b81811015612c095780612bf5888261299c565b845260208401935050602081019050612be2565b5050509392505050565b600082601f830112612c2857612c27612af9565b5b8135612c38848260208601612baa565b91505092915050565b600067ffffffffffffffff821115612c5c57612c5b612afe565b5b602082029050602081019050919050565b6000819050919050565b612c8081612c6d565b8114612c8b57600080fd5b50565b600081359050612c9d81612c77565b92915050565b6000612cb6612cb184612c41565b612b5e565b90508083825260208201905060208402830185811115612cd957612cd8612ba5565b5b835b81811015612d025780612cee8882612c8e565b845260208401935050602081019050612cdb565b5050509392505050565b600082601f830112612d2157612d20612af9565b5b8135612d31848260208601612ca3565b91505092915050565b60008060408385031215612d5157612d506127fb565b5b600083013567ffffffffffffffff811115612d6f57612d6e612800565b5b612d7b85828601612c13565b925050602083013567ffffffffffffffff811115612d9c57612d9b612800565b5b612da885828601612d0c565b9150509250929050565b600081519050919050565b600082825260208201905092915050565b6000819050602082019050919050565b612de78161288a565b82525050565b6000612df98383612dde565b60208301905092915050565b6000602082019050919050565b6000612e1d82612db2565b612e278185612dbd565b9350612e3283612dce565b8060005b83811015612e63578151612e4a8882612ded565b9750612e5583612e05565b925050600181019050612e36565b5085935050505092915050565b60006020820190508181036000830152612e8a8184612e12565b905092915050565b612e9b81612c6d565b82525050565b6000602082019050612eb66000830184612e92565b92915050565b60008060008060808587031215612ed657612ed56127fb565b5b6000612ee487828801612a51565b9450506020612ef587828801612a51565b935050604085013567ffffffffffffffff811115612f1657612f15612800565b5b612f2287828801612c13565b9250506060612f338782880161299c565b91505092959194509250565b600060208284031215612f5557612f546127fb565b5b6000612f6384828501612a51565b91505092915050565b612f758161297b565b82525050565b6000602082019050612f906000830184612f6c565b92915050565b600080fd5b600067ffffffffffffffff821115612fb657612fb5612afe565b5b612fbf8261290f565b9050602081019050919050565b82818337600083830152505050565b6000612fee612fe984612f9b565b612b5e565b90508281526020810184848401111561300a57613009612f96565b5b613015848285612fcc565b509392505050565b600082601f83011261303257613031612af9565b5b8135613042848260208601612fdb565b91505092915050565b600080600060608486031215613064576130636127fb565b5b600061307286828701612a51565b935050602084013567ffffffffffffffff81111561309357613092612800565b5b61309f8682870161301d565b925050604084013567ffffffffffffffff8111156130c0576130bf612800565b5b6130cc8682870161301d565b9150509250925092565b60006040820190506130eb6000830185612f6c565b6130f86020830184612f6c565b9392505050565b6131088161288a565b811461311357600080fd5b50565b600081359050613125816130ff565b92915050565b60008060408385031215613142576131416127fb565b5b600061315085828601612a51565b925050602061316185828601613116565b9150509250929050565b600067ffffffffffffffff82111561318657613185612afe565b5b61318f8261290f565b9050602081019050919050565b60006131af6131aa8461316b565b612b5e565b9050828152602081018484840111156131cb576131ca612f96565b5b6131d6848285612fcc565b509392505050565b600082601f8301126131f3576131f2612af9565b5b813561320384826020860161319c565b91505092915050565b60008060008060808587031215613226576132256127fb565b5b600061323487828801612a51565b945050602061324587828801612a51565b93505060406132568782880161299c565b925050606085013567ffffffffffffffff81111561327757613276612800565b5b613283878288016131de565b91505092959194509250565b600081519050919050565b600082825260208201905092915050565b6000819050602082019050919050565b600082825260208201905092915050565b60006132d7826128c0565b6132e181856132bb565b93506132f18185602086016128dc565b6132fa8161290f565b840191505092915050565b61330e81612c6d565b82525050565b6000604083016000830151848203600086015261333182826132cc565b91505060208301516133466020860182613305565b508091505092915050565b600061335d8383613314565b905092915050565b6000602082019050919050565b600061337d8261328f565b613387818561329a565b935083602082028501613399856132ab565b8060005b858110156133d557848403895281516133b68582613351565b94506133c183613365565b925060208a0199505060018101905061339d565b50829750879550505050505092915050565b600060208201905081810360008301526134018184613372565b905092915050565b60008060008060808587031215613423576134226127fb565b5b600061343187828801612a51565b945050602061344287828801612a51565b93505060406134538782880161299c565b92505060606134648782880161299c565b91505092959194509250565b6000806000806080858703121561348a576134896127fb565b5b600061349887828801612a51565b94505060206134a987828801612a51565b935050604085013567ffffffffffffffff8111156134ca576134c9612800565b5b6134d68782880161301d565b925050606085013567ffffffffffffffff8111156134f7576134f6612800565b5b6135038782880161301d565b91505092959194509250565b60008060408385031215613526576135256127fb565b5b600061353485828601612a51565b925050602061354585828601612a51565b9150509250929050565b60006080820190506135646000830187612a10565b6135716020830186612a10565b61357e6040830185612f6c565b61358b6060830184612f6c565b95945050505050565b600080604083850312156135ab576135aa6127fb565b5b60006135b98582860161299c565b92505060206135ca85828601612c8e565b9150509250929050565b600081519050919050565b600082825260208201905092915050565b6000819050602082019050919050565b613609816129fe565b82525050565b6136188161297b565b82525050565b6080820160008201516136346000850182613600565b5060208201516136476020850182613600565b50604082015161365a604085018261360f565b50606082015161366d606085018261360f565b50505050565b600061367f838361361e565b60808301905092915050565b6000602082019050919050565b60006136a3826135d4565b6136ad81856135df565b93506136b8836135f0565b8060005b838110156136e95781516136d08882613673565b97506136db8361368b565b9250506001810190506136bc565b5085935050505092915050565b600060208201905081810360008301526137108184613698565b905092915050565b7f4e487b7100000000000000000000000000000000000000000000000000000000600052602260045260246000fd5b6000600282049050600182168061375f57607f821691505b6020821081141561377357613772613718565b5b50919050565b7f617070726f76616c20746f2063757272656e74206f776e657200000000000000600082015250565b60006137af6019836128cb565b91506137ba82613779565b602082019050919050565b600060208201905081810360008301526137de816137a2565b9050919050565b7f617070726f76656420717565727920666f72206e6f6e6578697374656e74207460008201527f6f6b656e00000000000000000000000000000000000000000000000000000000602082015250565b60006138416024836128cb565b915061384c826137e5565b604082019050919050565b6000602082019050818103600083015261387081613834565b9050919050565b7f617070726f76652063616c6c6572206973206e6f74206f776e6572206e6f722060008201527f617070726f76656420666f7220616c6c00000000000000000000000000000000602082015250565b60006138d36030836128cb565b91506138de82613877565b604082019050919050565b60006020820190508181036000830152613902816138c6565b9050919050565b7f7472616e736665722063616c6c6572206973206e6f7420746865206f776e657260008201527f206e6f7220617070726f76656400000000000000000000000000000000000000602082015250565b6000613965602d836128cb565b915061397082613909565b604082019050919050565b6000602082019050818103600083015261399481613958565b9050919050565b7f496e76616c696420696e7075743a206c656e6774687320646f206e6f74206d6160008201527f7463680000000000000000000000000000000000000000000000000000000000602082015250565b60006139f76023836128cb565b9150613a028261399b565b604082019050919050565b60006020820190508181036000830152613a26816139ea565b9050919050565b7f4e487b7100000000000000000000000000000000000000000000000000000000600052603260045260246000fd5b7f4e465420646f6573206e6f742065786973740000000000000000000000000000600082015250565b6000613a926012836128cb565b9150613a9d82613a5c565b602082019050919050565b60006020820190508181036000830152613ac181613a85565b9050919050565b7f4e487b7100000000000000000000000000000000000000000000000000000000600052601160045260246000fd5b6000613b028261297b565b91507fffffffffffffffffffffffffffffffffffffffffffffffffffffffffffffffff821415613b3557613b34613ac8565b5b600182019050919050565b7f4552433732313a20696e76616c696420746f6b656e2049440000000000000000600082015250565b6000613b766018836128cb565b9150613b8182613b40565b602082019050919050565b60006020820190508181036000830152613ba581613b69565b9050919050565b7f496e76616c696420627579657220616464726573730000000000000000000000600082015250565b6000613be26015836128cb565b9150613bed82613bac565b602082019050919050565b60006020820190508181036000830152613c1181613bd5565b9050919050565b7f496e76616c69642073656c6c6572206164647265737300000000000000000000600082015250565b6000613c4e6016836128cb565b9150613c5982613c18565b602082019050919050565b60006020820190508181036000830152613c7d81613c41565b9050919050565b7f496e76616c696420746f6b656e20494473000000000000000000000000000000600082015250565b6000613cba6011836128cb565b9150613cc582613c84565b602082019050919050565b60006020820190508181036000830152613ce981613cad565b9050919050565b7f496e76616c696420746f6b656e20494400000000000000000000000000000000600082015250565b6000613d266010836128cb565b9150613d3182613cf0565b602082019050919050565b60006020820190508181036000830152613d5581613d19565b9050919050565b7f4552433732313a2061646472657373207a65726f206973206e6f74206120766160008201527f6c6964206f776e65720000000000000000000000000000000000000000000000602082015250565b6000613db86029836128cb565b9150613dc382613d5c565b604082019050919050565b60006020820190508181036000830152613de781613dab565b9050919050565b7f617070726f766520746f2063616c6c6572000000000000000000000000000000600082015250565b6000613e246011836128cb565b9150613e2f82613dee565b602082019050919050565b60006020820190508181036000830152613e5381613e17565b9050919050565b7f4552433732313a2063616c6c6572206973206e6f7420746f6b656e206f776e6560008201527f72206f7220617070726f76656400000000000000000000000000000000000000602082015250565b6000613eb6602d836128cb565b9150613ec182613e5a565b604082019050919050565b60006020820190508181036000830152613ee581613ea9565b9050919050565b7f6f70657261746f7220716575727920666f72206e6f6e6578697374656e74207460008201527f6f6b656e00000000000000000000000000000000000000000000000000000000602082015250565b6000613f486024836128cb565b9150613f5382613eec565b604082019050919050565b60006020820190508181036000830152613f7781613f3b565b9050919050565b7f4552433732313a207472616e736665722066726f6d20696e636f72726563742060008201527f6f776e6572000000000000000000000000000000000000000000000000000000602082015250565b6000613fda6025836128cb565b9150613fe582613f7e565b604082019050919050565b6000602082019050818103600083015261400981613fcd565b9050919050565b7f4552433732313a207472616e7366657220746f20746865207a65726f2061646460008201527f7265737300000000000000000000000000000000000000000000000000000000602082015250565b600061406c6024836128cb565b915061407782614010565b604082019050919050565b6000602082019050818103600083015261409b8161405f565b9050919050565b7f6d696e7420746f20746865207a65726f20616464726573730000000000000000600082015250565b60006140d86018836128cb565b91506140e3826140a2565b602082019050919050565b60006020820190508181036000830152614107816140cb565b9050919050565b7f746f6b656e20616c7265616479206d696e746564000000000000000000000000600082015250565b60006141446014836128cb565b915061414f8261410e565b602082019050919050565b6000602082019050818103600083015261417381614137565b9050919050565b7f7472616e7366657220746f206e6f6e204552433732315265636569766572206960008201527f6d706c656d656e74657200000000000000000000000000000000000000000000602082015250565b60006141d6602a836128cb565b91506141e18261417a565b604082019050919050565b60006020820190508181036000830152614205816141c9565b9050919050565b600081519050919050565b600082825260208201905092915050565b60006142338261420c565b61423d8185614217565b935061424d8185602086016128dc565b6142568161290f565b840191505092915050565b60006080820190506142766000830187612a10565b6142836020830186612a10565b6142906040830185612f6c565b81810360608301526142a28184614228565b905095945050505050565b6000815190506142bc81612831565b92915050565b6000602082840312156142d8576142d76127fb565b5b60006142e6848285016142ad565b91505092915050565b7f4552433732313a207472616e7366657220746f206e6f6e20455243373231526560008201527f63656976657220696d706c656d656e7465720000000000000000000000000000602082015250565b600061434b6032836128cb565b9150614356826142ef565b604082019050919050565b6000602082019050818103600083015261437a8161433e565b905091905056fea2646970667358221220cf865dac20ec6d96d3c970fee311881e4e2caf997aa46fcea7a0bfbc4ce4c90964736f6c634300080a0033",
  "immutableReferences": {},
  "source": "// SPDX-License-Identifier: MIT\r\npragma solidity >=0.4.22 <0.9.0;\r\n\r\nimport \"./token/ERC721/ERC721.sol\";\r\nimport \"./utils/Counters.sol\";\r\nimport \"./utils/Strings.sol\";\r\n\r\n/**\r\n * PJT  -  2) NFT Creator \r\n *         .\r\n */\r\ncontract HereNFT is ERC721 {\r\n    \r\n    using Counters for Counters.Counter;\r\n    using Strings for uint256;\r\n\r\n    Counters.Counter private _tokenIds;\r\n    mapping(uint256 => string) tokenURIs;\r\n\r\n    event createNFT (uint256 indexed _tokenId, address indexed _owner);\r\n\r\n    constructor() ERC721(\"HERE-NFT\", \"TBD\") {}\r\n\r\n    // NFT \r\n    struct NFT {\r\n        string tokenURI;\r\n        bytes32 hashValue;\r\n    }\r\n    uint256[] private _nftIds;\r\n    mapping(uint256 => NFT) private _nfts;\r\n\r\n    //  \r\n    struct TransactionLog {\r\n        address from;\r\n        address to;\r\n        uint256 tokenId;\r\n        uint256 timestamp;\r\n    }\r\n\r\n    struct NFTInput {\r\n        uint256 tokenId;\r\n        bytes32 hashValue;\r\n    }\r\n    \r\n    //  \r\n    TransactionLog[] public transactionLogs;\r\n\r\n    // NFT    \r\n    function donateNFT(\r\n        address _from,\r\n        address _to,\r\n        uint256 _tokenId,\r\n        uint256 _timestamp\r\n    ) public payable {\r\n        require(_from != address(0), \"Invalid buyer address\");\r\n        require(_to != address(0), \"Invalid seller address\");\r\n        require(_tokenId != 0, \"Invalid token ID\");\r\n\r\n        // Transfer ownership of NFT from seller to buyer\r\n        //emit Transfer(_seller, _buyer, _tokenId);\r\n        safeTransferFrom(_from, _to, _tokenId);\r\n\r\n        // Add transaction log to the transactionLogs array\r\n        transactionLogs.push(\r\n            TransactionLog({\r\n                from: _from,\r\n                to: _to,\r\n                tokenId: _tokenId,\r\n                timestamp: _timestamp\r\n            })\r\n        );\r\n\r\n    }\r\n    // tokenid    nft   \r\n    function donateNFTList(\r\n        address _from,\r\n        address _to,\r\n        uint256[] memory _tokenIdList,\r\n        uint256 _timestamp\r\n    ) public payable {\r\n        require(_from != address(0), \"Invalid buyer address\");\r\n        require(_to != address(0), \"Invalid seller address\");\r\n        require(_tokenIdList.length > 0, \"Invalid token IDs\");\r\n\r\n        for (uint i = 0; i < _tokenIdList.length; i++) {\r\n            uint256 tokenId = _tokenIdList[i];\r\n            require(tokenId != 0, \"Invalid token ID\");\r\n\r\n            // Transfer ownership of NFT from seller to buyer\r\n            safeTransferFrom(_from, _to, tokenId);\r\n\r\n            // Add transaction log to the transactionLogs array\r\n            transactionLogs.push(\r\n                TransactionLog({\r\n                    from: _from,\r\n                    to: _to,\r\n                    tokenId: tokenId,\r\n                    timestamp: _timestamp\r\n                })\r\n            );\r\n        }\r\n    }\r\n\r\n    //  NFT    \r\n    function getTransactionLogs(uint256 _tokenId)\r\n        external\r\n        view\r\n        returns (TransactionLog[] memory)\r\n    {\r\n        uint256 count = 0;\r\n        for (uint256 i = 0; i < transactionLogs.length; i++) {\r\n            if (transactionLogs[i].tokenId == _tokenId) {\r\n                count++;\r\n            }\r\n        }\r\n        TransactionLog[] memory logs = new TransactionLog[](count);\r\n        uint256 index = 0;\r\n        for (uint256 i = 0; i < transactionLogs.length; i++) {\r\n            if (transactionLogs[i].tokenId == _tokenId) {\r\n                logs[index] = transactionLogs[i];\r\n                index++;\r\n            }\r\n        }\r\n        return logs;\r\n    }\r\n\r\n    //    \r\n    function current() public view returns (uint256) {\r\n        return _tokenIds.current();\r\n    }\r\n\r\n    \r\n    // tokenId  toenURI  \r\n    function tokenURI(uint256 tokenId) public view override returns (string memory) {\r\n        // TODO\r\n        _requireMinted(tokenId);\r\n        return tokenURIs[tokenId];\r\n    }\r\n\r\n    // \r\n    function create(address to, string memory _tokenURI1, string memory _tokenURI2) public returns (uint256, uint256) {\r\n        _tokenIds.increment();\r\n\r\n        uint256 newItemId1 = _tokenIds.current();\r\n        _mint(to, newItemId1);\r\n        tokenURIs[newItemId1] = _tokenURI1;\r\n\r\n        bytes32 hashValue1 = keccak256(bytes(_tokenURI1));\r\n        NFT memory nft1 = NFT({\r\n            tokenURI: _tokenURI1,\r\n            hashValue: hashValue1\r\n        });\r\n        _nftIds.push(newItemId1);\r\n        _nfts[newItemId1] = nft1;\r\n\r\n        _tokenIds.increment();\r\n\r\n        uint256 newItemId2 = _tokenIds.current();\r\n        _mint(to, newItemId2);\r\n        tokenURIs[newItemId2] = _tokenURI2;\r\n\r\n        bytes32 hashValue2 = keccak256(bytes(_tokenURI2));\r\n        NFT memory nft2 = NFT({\r\n            tokenURI: _tokenURI2,\r\n            hashValue: hashValue2\r\n        });\r\n        _nftIds.push(newItemId2);\r\n        _nfts[newItemId2] = nft2;\r\n\r\n        return (newItemId1, newItemId2);\r\n    }\r\n\r\n    //     \r\n    function createAndTransfer(address from, address to, string memory _tokenURI1, string memory _tokenURI2) public returns (uint256, uint256) {\r\n        _tokenIds.increment();\r\n\r\n        uint256 newItemId1 = _tokenIds.current();\r\n        _mint(from, newItemId1);\r\n        tokenURIs[newItemId1] = _tokenURI1;\r\n\r\n        bytes32 hashValue1 = keccak256(bytes(_tokenURI1));\r\n        NFT memory nft1 = NFT({\r\n            tokenURI: _tokenURI1,\r\n            hashValue: hashValue1\r\n        });\r\n        _nftIds.push(newItemId1);\r\n        _nfts[newItemId1] = nft1;\r\n\r\n        _tokenIds.increment();\r\n\r\n        uint256 newItemId2 = _tokenIds.current();\r\n        _mint(from, newItemId2);\r\n        tokenURIs[newItemId2] = _tokenURI2;\r\n\r\n        bytes32 hashValue2 = keccak256(bytes(_tokenURI2));\r\n        NFT memory nft2 = NFT({\r\n            tokenURI: _tokenURI2,\r\n            hashValue: hashValue2\r\n        });\r\n        _nftIds.push(newItemId2);\r\n        _nfts[newItemId2] = nft2;\r\n\r\n        safeTransferFrom(from, to, newItemId1);\r\n        safeTransferFrom(from, to, newItemId2);\r\n        return (newItemId1, newItemId2);\r\n    }\r\n\r\n    //  NFT  \r\n    function getAllNFTs() public view returns (NFT[] memory) {\r\n        uint256 totalNFTs = _nftIds.length;\r\n        NFT[] memory nftsList = new NFT[](totalNFTs);\r\n        for (uint256 i = 0; i < totalNFTs; i++) {\r\n            uint256 nftId = _nftIds[i];\r\n            NFT memory nft = _nfts[nftId];\r\n            nftsList[i] = nft;\r\n        }\r\n        return nftsList;\r\n    }   \r\n\r\n    function getHashValue(uint256 tokenId) public view returns(bytes32) {\r\n        return _nfts[tokenId].hashValue;\r\n    }\r\n\r\n    event NFTVerified(uint256 indexed tokenId, string metadataURI, bytes metadata, bytes32 metadataHash, bytes32 inputHash);\r\n\r\n    function verifyNFT(uint256 tokenId, bytes32 hash) public view returns (bool) {\r\n        require(_exists(tokenId), \"NFT does not exist\");\r\n\r\n        // NFT Metadata URI \r\n        string memory metadataURI = tokenURI(tokenId);\r\n\r\n        // JSON   \r\n        bytes32 transactionHash = keccak256(bytes(metadataURI));\r\n\r\n         //      \r\n        bool verified = transactionHash == hash;\r\n\r\n\r\n        return verified;\r\n    }\r\n\r\n    function verifyNFTList(uint256[] memory tokenIds, bytes32[] memory hashes) public view returns (bool[] memory results) {\r\n        require(tokenIds.length == hashes.length, \"Invalid input: lengths do not match\");\r\n\r\n        results = new bool[](tokenIds.length);\r\n\r\n        for (uint256 i = 0; i < tokenIds.length; i++) {\r\n            require(_exists(tokenIds[i]), \"NFT does not exist\");\r\n\r\n            string memory metadataURI = tokenURI(tokenIds[i]);\r\n            bytes32 transactionHash = keccak256(bytes(metadataURI));\r\n            bool verified = transactionHash == hashes[i];\r\n            results[i] = verified;\r\n        }\r\n\r\n        return results;\r\n    }\r\n}",
  "sourcePath": "C:\\SSAFY\\workspace\\work-blockchain\\S08P22B209\\here-blockchain\\contracts\\HereNFT.sol",
  "compiler": {
    "name": "solc",
    "version": "0.8.10+commit.fc410830.Emscripten.clang"
  },
  "schemaVersion": "3.4.4",
  "updatedAt": "2023-04-03T17:00:27.671Z",
  "networkType": "ethereum",
  "devdoc": {
    "kind": "dev",
    "methods": {
      "approve(address,uint256)": {
        "details": "See {IERC721-approve}."
      },
      "balanceOf(address)": {
        "details": "See {IERC721-balanceOf}."
      },
      "getApproved(uint256)": {
        "details": "See {IERC721-getApproved}."
      },
      "isApprovedForAll(address,address)": {
        "details": "See {IERC721-isApprovedForAll}."
      },
      "name()": {
        "details": "See {IERC721Metadata-name}."
      },
      "ownerOf(uint256)": {
        "details": "See {IERC721-ownerOf}."
      },
      "safeTransferFrom(address,address,uint256)": {
        "details": "See {IERC721-safeTransferFrom}."
      },
      "safeTransferFrom(address,address,uint256,bytes)": {
        "details": "See {IERC721-safeTransferFrom}."
      },
      "setApprovalForAll(address,bool)": {
        "details": "See {IERC721-setApprovalForAll}."
      },
      "supportsInterface(bytes4)": {
        "details": "See {IERC165-supportsInterface}."
      },
      "symbol()": {
        "details": "See {IERC721Metadata-symbol}."
      },
      "tokenURI(uint256)": {
        "details": "See {IERC721Metadata-tokenURI}."
      },
      "transferFrom(address,address,uint256)": {
        "details": "See {IERC721-transferFrom}."
      }
    },
    "version": 1
  },
  "userdoc": {
    "kind": "user",
    "methods": {},
    "notice": "PJT  -  2) NFT Creator          .",
    "version": 1
  }
}