{
  "contractName": "HereNFT",
  "abi": [
    {
      "inputs": [],
      "stateMutability": "nonpayable",
      "type": "constructor"
    },
    {
      "anonymous": false,
      "inputs": [
        {
          "indexed": true,
          "internalType": "address",
          "name": "owner",
          "type": "address"
        },
        {
          "indexed": true,
          "internalType": "address",
          "name": "approved",
          "type": "address"
        },
        {
          "indexed": true,
          "internalType": "uint256",
          "name": "tokenId",
          "type": "uint256"
        }
      ],
      "name": "Approval",
      "type": "event"
    },
    {
      "anonymous": false,
      "inputs": [
        {
          "indexed": true,
          "internalType": "address",
          "name": "owner",
          "type": "address"
        },
        {
          "indexed": true,
          "internalType": "address",
          "name": "operator",
          "type": "address"
        },
        {
          "indexed": false,
          "internalType": "bool",
          "name": "approved",
          "type": "bool"
        }
      ],
      "name": "ApprovalForAll",
      "type": "event"
    },
    {
      "anonymous": false,
      "inputs": [
        {
          "indexed": true,
          "internalType": "uint256",
          "name": "tokenId",
          "type": "uint256"
        },
        {
          "indexed": false,
          "internalType": "string",
          "name": "metadataURI",
          "type": "string"
        },
        {
          "indexed": false,
          "internalType": "bytes",
          "name": "metadata",
          "type": "bytes"
        },
        {
          "indexed": false,
          "internalType": "bytes32",
          "name": "metadataHash",
          "type": "bytes32"
        },
        {
          "indexed": false,
          "internalType": "bytes32",
          "name": "inputHash",
          "type": "bytes32"
        }
      ],
      "name": "NFTVerified",
      "type": "event"
    },
    {
      "anonymous": false,
      "inputs": [
        {
          "indexed": true,
          "internalType": "address",
          "name": "from",
          "type": "address"
        },
        {
          "indexed": true,
          "internalType": "address",
          "name": "to",
          "type": "address"
        },
        {
          "indexed": true,
          "internalType": "uint256",
          "name": "tokenId",
          "type": "uint256"
        }
      ],
      "name": "Transfer",
      "type": "event"
    },
    {
      "anonymous": false,
      "inputs": [
        {
          "indexed": true,
          "internalType": "uint256",
          "name": "_tokenId",
          "type": "uint256"
        },
        {
          "indexed": true,
          "internalType": "address",
          "name": "_owner",
          "type": "address"
        }
      ],
      "name": "createNFT",
      "type": "event"
    },
    {
      "inputs": [
        {
          "internalType": "address",
          "name": "to",
          "type": "address"
        },
        {
          "internalType": "uint256",
          "name": "tokenId",
          "type": "uint256"
        }
      ],
      "name": "approve",
      "outputs": [],
      "stateMutability": "nonpayable",
      "type": "function"
    },
    {
      "inputs": [
        {
          "internalType": "address",
          "name": "owner",
          "type": "address"
        }
      ],
      "name": "balanceOf",
      "outputs": [
        {
          "internalType": "uint256",
          "name": "",
          "type": "uint256"
        }
      ],
      "stateMutability": "view",
      "type": "function",
      "constant": true
    },
    {
      "inputs": [
        {
          "internalType": "uint256",
          "name": "tokenId",
          "type": "uint256"
        }
      ],
      "name": "getApproved",
      "outputs": [
        {
          "internalType": "address",
          "name": "",
          "type": "address"
        }
      ],
      "stateMutability": "view",
      "type": "function",
      "constant": true
    },
    {
      "inputs": [
        {
          "internalType": "address",
          "name": "owner",
          "type": "address"
        },
        {
          "internalType": "address",
          "name": "operator",
          "type": "address"
        }
      ],
      "name": "isApprovedForAll",
      "outputs": [
        {
          "internalType": "bool",
          "name": "",
          "type": "bool"
        }
      ],
      "stateMutability": "view",
      "type": "function",
      "constant": true
    },
    {
      "inputs": [],
      "name": "name",
      "outputs": [
        {
          "internalType": "string",
          "name": "",
          "type": "string"
        }
      ],
      "stateMutability": "view",
      "type": "function",
      "constant": true
    },
    {
      "inputs": [
        {
          "internalType": "uint256",
          "name": "tokenId",
          "type": "uint256"
        }
      ],
      "name": "ownerOf",
      "outputs": [
        {
          "internalType": "address",
          "name": "",
          "type": "address"
        }
      ],
      "stateMutability": "view",
      "type": "function",
      "constant": true
    },
    {
      "inputs": [
        {
          "internalType": "address",
          "name": "from",
          "type": "address"
        },
        {
          "internalType": "address",
          "name": "to",
          "type": "address"
        },
        {
          "internalType": "uint256",
          "name": "tokenId",
          "type": "uint256"
        }
      ],
      "name": "safeTransferFrom",
      "outputs": [],
      "stateMutability": "nonpayable",
      "type": "function"
    },
    {
      "inputs": [
        {
          "internalType": "address",
          "name": "from",
          "type": "address"
        },
        {
          "internalType": "address",
          "name": "to",
          "type": "address"
        },
        {
          "internalType": "uint256",
          "name": "tokenId",
          "type": "uint256"
        },
        {
          "internalType": "bytes",
          "name": "_data",
          "type": "bytes"
        }
      ],
      "name": "safeTransferFrom",
      "outputs": [],
      "stateMutability": "nonpayable",
      "type": "function"
    },
    {
      "inputs": [
        {
          "internalType": "address",
          "name": "operator",
          "type": "address"
        },
        {
          "internalType": "bool",
          "name": "approved",
          "type": "bool"
        }
      ],
      "name": "setApprovalForAll",
      "outputs": [],
      "stateMutability": "nonpayable",
      "type": "function"
    },
    {
      "inputs": [
        {
          "internalType": "bytes4",
          "name": "interfaceId",
          "type": "bytes4"
        }
      ],
      "name": "supportsInterface",
      "outputs": [
        {
          "internalType": "bool",
          "name": "",
          "type": "bool"
        }
      ],
      "stateMutability": "view",
      "type": "function",
      "constant": true
    },
    {
      "inputs": [],
      "name": "symbol",
      "outputs": [
        {
          "internalType": "string",
          "name": "",
          "type": "string"
        }
      ],
      "stateMutability": "view",
      "type": "function",
      "constant": true
    },
    {
      "inputs": [
        {
          "internalType": "uint256",
          "name": "",
          "type": "uint256"
        }
      ],
      "name": "transactionLogs",
      "outputs": [
        {
          "internalType": "address",
          "name": "from",
          "type": "address"
        },
        {
          "internalType": "address",
          "name": "to",
          "type": "address"
        },
        {
          "internalType": "uint256",
          "name": "tokenId",
          "type": "uint256"
        },
        {
          "internalType": "uint256",
          "name": "timestamp",
          "type": "uint256"
        }
      ],
      "stateMutability": "view",
      "type": "function",
      "constant": true
    },
    {
      "inputs": [
        {
          "internalType": "address",
          "name": "from",
          "type": "address"
        },
        {
          "internalType": "address",
          "name": "to",
          "type": "address"
        },
        {
          "internalType": "uint256",
          "name": "tokenId",
          "type": "uint256"
        }
      ],
      "name": "transferFrom",
      "outputs": [],
      "stateMutability": "nonpayable",
      "type": "function"
    },
    {
      "inputs": [
        {
          "internalType": "address",
          "name": "_from",
          "type": "address"
        },
        {
          "internalType": "address",
          "name": "_to",
          "type": "address"
        },
        {
          "internalType": "uint256",
          "name": "_tokenId",
          "type": "uint256"
        },
        {
          "internalType": "uint256",
          "name": "_timestamp",
          "type": "uint256"
        }
      ],
      "name": "donateNFT",
      "outputs": [],
      "stateMutability": "payable",
      "type": "function",
      "payable": true
    },
    {
      "inputs": [
        {
          "internalType": "address",
          "name": "_from",
          "type": "address"
        },
        {
          "internalType": "address",
          "name": "_to",
          "type": "address"
        },
        {
          "internalType": "uint256[]",
          "name": "_tokenIdList",
          "type": "uint256[]"
        },
        {
          "internalType": "uint256",
          "name": "_timestamp",
          "type": "uint256"
        }
      ],
      "name": "donateNFTList",
      "outputs": [],
      "stateMutability": "payable",
      "type": "function",
      "payable": true
    },
    {
      "inputs": [
        {
          "internalType": "uint256",
          "name": "_tokenId",
          "type": "uint256"
        }
      ],
      "name": "getTransactionLogs",
      "outputs": [
        {
          "components": [
            {
              "internalType": "address",
              "name": "from",
              "type": "address"
            },
            {
              "internalType": "address",
              "name": "to",
              "type": "address"
            },
            {
              "internalType": "uint256",
              "name": "tokenId",
              "type": "uint256"
            },
            {
              "internalType": "uint256",
              "name": "timestamp",
              "type": "uint256"
            }
          ],
          "internalType": "struct HereNFT.TransactionLog[]",
          "name": "",
          "type": "tuple[]"
        }
      ],
      "stateMutability": "view",
      "type": "function",
      "constant": true
    },
    {
      "inputs": [],
      "name": "current",
      "outputs": [
        {
          "internalType": "uint256",
          "name": "",
          "type": "uint256"
        }
      ],
      "stateMutability": "view",
      "type": "function",
      "constant": true
    },
    {
      "inputs": [
        {
          "internalType": "uint256",
          "name": "tokenId",
          "type": "uint256"
        }
      ],
      "name": "tokenURI",
      "outputs": [
        {
          "internalType": "string",
          "name": "",
          "type": "string"
        }
      ],
      "stateMutability": "view",
      "type": "function",
      "constant": true
    },
    {
      "inputs": [
        {
          "internalType": "address",
          "name": "to",
          "type": "address"
        },
        {
          "internalType": "string",
          "name": "_tokenURI1",
          "type": "string"
        },
        {
          "internalType": "string",
          "name": "_tokenURI2",
          "type": "string"
        }
      ],
      "name": "create",
      "outputs": [
        {
          "internalType": "uint256",
          "name": "",
          "type": "uint256"
        },
        {
          "internalType": "uint256",
          "name": "",
          "type": "uint256"
        }
      ],
      "stateMutability": "nonpayable",
      "type": "function"
    },
    {
      "inputs": [],
      "name": "getAllNFTs",
      "outputs": [
        {
          "components": [
            {
              "internalType": "string",
              "name": "tokenURI",
              "type": "string"
            },
            {
              "internalType": "bytes32",
              "name": "hashValue",
              "type": "bytes32"
            }
          ],
          "internalType": "struct HereNFT.NFT[]",
          "name": "",
          "type": "tuple[]"
        }
      ],
      "stateMutability": "view",
      "type": "function",
      "constant": true
    },
    {
      "inputs": [
        {
          "internalType": "uint256",
          "name": "tokenId",
          "type": "uint256"
        }
      ],
      "name": "getHashValue",
      "outputs": [
        {
          "internalType": "bytes32",
          "name": "",
          "type": "bytes32"
        }
      ],
      "stateMutability": "view",
      "type": "function",
      "constant": true
    },
    {
      "inputs": [
        {
          "internalType": "uint256",
          "name": "tokenId",
          "type": "uint256"
        },
        {
          "internalType": "bytes32",
          "name": "hash",
          "type": "bytes32"
        }
      ],
      "name": "verifyNFT",
      "outputs": [
        {
          "internalType": "bool",
          "name": "",
          "type": "bool"
        }
      ],
      "stateMutability": "view",
      "type": "function",
      "constant": true
    },
    {
      "inputs": [
        {
          "internalType": "uint256[]",
          "name": "tokenIds",
          "type": "uint256[]"
        },
        {
          "internalType": "bytes32[]",
          "name": "hashes",
          "type": "bytes32[]"
        }
      ],
      "name": "verifyNFTList",
      "outputs": [
        {
          "internalType": "bool[]",
          "name": "results",
          "type": "bool[]"
        }
      ],
      "stateMutability": "view",
      "type": "function",
      "constant": true
    }
  ],
  "bytecode": "0x60806040523480156200001157600080fd5b506040518060400160405280600881526020017f484552452d4e46540000000000000000000000000000000000000000000000008152506040518060400160405280600381526020017f5442440000000000000000000000000000000000000000000000000000000000815250816000908051906020019062000096929190620000b8565b508060019080519060200190620000af929190620000b8565b505050620001cd565b828054620000c69062000197565b90600052602060002090601f016020900481019282620000ea576000855562000136565b82601f106200010557805160ff191683800117855562000136565b8280016001018555821562000136579182015b828111156200013557825182559160200191906001019062000118565b5b50905062000145919062000149565b5090565b5b80821115620001645760008160009055506001016200014a565b5090565b7f4e487b7100000000000000000000000000000000000000000000000000000000600052602260045260246000fd5b60006002820490506001821680620001b057607f821691505b60208210811415620001c757620001c662000168565b5b50919050565b6140f580620001dd6000396000f3fe6080604052600436106101405760003560e01c8063796d5836116100b6578063e0391b091161006f578063e0391b0914610498578063e2b553a4146104c3578063e985e9c5146104df578063f1f69f221461051c578063f5545e961461055c578063fb13effc1461059957610140565b8063796d58361461037557806395d89b41146103b35780639fa6a6e3146103de578063a22cb46514610409578063b88d4fde14610432578063c87b56dd1461045b57610140565b806342842e0e1161010857806342842e0e1461023c578063520e68bd146102655780636352211e146102a25780636fbf29e6146102df5780637058cd541461031c57806370a082311461033857610140565b806301ffc9a71461014557806306fdde0314610182578063081812fc146101ad578063095ea7b3146101ea57806323b872dd14610213575b600080fd5b34801561015157600080fd5b5061016c6004803603810190610167919061263a565b6105d6565b6040516101799190612682565b60405180910390f35b34801561018e57600080fd5b506101976106b8565b6040516101a49190612736565b60405180910390f35b3480156101b957600080fd5b506101d460048036038101906101cf919061278e565b61074a565b6040516101e191906127fc565b60405180910390f35b3480156101f657600080fd5b50610211600480360381019061020c9190612843565b610790565b005b34801561021f57600080fd5b5061023a60048036038101906102359190612883565b610985565b005b34801561024857600080fd5b50610263600480360381019061025e9190612883565b6109de565b005b34801561027157600080fd5b5061028c60048036038101906102879190612b17565b6109fe565b6040516102999190612c4d565b60405180910390f35b3480156102ae57600080fd5b506102c960048036038101906102c4919061278e565b610b95565b6040516102d691906127fc565b60405180910390f35b3480156102eb57600080fd5b506103066004803603810190610301919061278e565b610c47565b6040516103139190612c7e565b60405180910390f35b61033660048036038101906103319190612c99565b610c67565b005b34801561034457600080fd5b5061035f600480360381019061035a9190612d1c565b610f3c565b60405161036c9190612d58565b60405180910390f35b34801561038157600080fd5b5061039c60048036038101906103979190612e28565b610ff4565b6040516103aa929190612eb3565b60405180910390f35b3480156103bf57600080fd5b506103c86111b7565b6040516103d59190612736565b60405180910390f35b3480156103ea57600080fd5b506103f3611249565b6040516104009190612d58565b60405180910390f35b34801561041557600080fd5b50610430600480360381019061042b9190612f08565b61125a565b005b34801561043e57600080fd5b5061045960048036038101906104549190612fe9565b6113c6565b005b34801561046757600080fd5b50610482600480360381019061047d919061278e565b611421565b60405161048f9190612736565b60405180910390f35b3480156104a457600080fd5b506104ad6114cf565b6040516104ba91906131c4565b60405180910390f35b6104dd60048036038101906104d891906131e6565b61165c565b005b3480156104eb57600080fd5b506105066004803603810190610501919061324d565b6118ad565b6040516105139190612682565b60405180910390f35b34801561052857600080fd5b50610543600480360381019061053e919061278e565b611941565b604051610553949392919061328d565b60405180910390f35b34801561056857600080fd5b50610583600480360381019061057e91906132d2565b6119c1565b6040516105909190612682565b60405180910390f35b3480156105a557600080fd5b506105c060048036038101906105bb919061278e565b611a37565b6040516105cd9190613434565b60405180910390f35b60007f80ac58cd000000000000000000000000000000000000000000000000000000007bffffffffffffffffffffffffffffffffffffffffffffffffffffffff1916827bffffffffffffffffffffffffffffffffffffffffffffffffffffffff191614806106a157507f5b5e139f000000000000000000000000000000000000000000000000000000007bffffffffffffffffffffffffffffffffffffffffffffffffffffffff1916827bffffffffffffffffffffffffffffffffffffffffffffffffffffffff1916145b806106b157506106b082611c69565b5b9050919050565b6060600080546106c790613485565b80601f01602080910402602001604051908101604052809291908181526020018280546106f390613485565b80156107405780601f1061071557610100808354040283529160200191610740565b820191906000526020600020905b81548152906001019060200180831161072357829003601f168201915b5050505050905090565b600061075582611cd3565b6004600083815260200190815260200160002060009054906101000a900473ffffffffffffffffffffffffffffffffffffffff169050919050565b600061079b82610b95565b90508073ffffffffffffffffffffffffffffffffffffffff168373ffffffffffffffffffffffffffffffffffffffff16141561080c576040517f08c379a000000000000000000000000000000000000000000000000000000000815260040161080390613503565b60405180910390fd5b61081582611d1e565b610854576040517f08c379a000000000000000000000000000000000000000000000000000000000815260040161084b90613595565b60405180910390fd5b8073ffffffffffffffffffffffffffffffffffffffff163373ffffffffffffffffffffffffffffffffffffffff161480610894575061089381336118ad565b5b6108d3576040517f08c379a00000000000000000000000000000000000000000000000000000000081526004016108ca90613627565b60405180910390fd5b826004600084815260200190815260200160002060006101000a81548173ffffffffffffffffffffffffffffffffffffffff021916908373ffffffffffffffffffffffffffffffffffffffff160217905550818373ffffffffffffffffffffffffffffffffffffffff168273ffffffffffffffffffffffffffffffffffffffff167f8c5be1e5ebec7d5bd14f71427d1e84f3dd0314c0f7b2291e5b200ac8c7c3b92560405160405180910390a4505050565b61098f3382611d8a565b6109ce576040517f08c379a00000000000000000000000000000000000000000000000000000000081526004016109c5906136b9565b60405180910390fd5b6109d9838383611e68565b505050565b6109f9838383604051806020016040528060008152506113c6565b505050565b60608151835114610a44576040517f08c379a0000000000000000000000000000000000000000000000000000000008152600401610a3b9061374b565b60405180910390fd5b825167ffffffffffffffff811115610a5f57610a5e6128db565b5b604051908082528060200260200182016040528015610a8d5781602001602082028036833780820191505090505b50905060005b8351811015610b8e57610abf848281518110610ab257610ab161376b565b5b6020026020010151611d1e565b610afe576040517f08c379a0000000000000000000000000000000000000000000000000000000008152600401610af5906137e6565b60405180910390fd5b6000610b23858381518110610b1657610b1561376b565b5b6020026020010151611421565b90506000818051906020012090506000858481518110610b4657610b4561376b565b5b60200260200101518214905080858581518110610b6657610b6561376b565b5b6020026020010190151590811515815250505050508080610b8690613835565b915050610a93565b5092915050565b6000806002600084815260200190815260200160002060009054906101000a900473ffffffffffffffffffffffffffffffffffffffff169050600073ffffffffffffffffffffffffffffffffffffffff168173ffffffffffffffffffffffffffffffffffffffff161415610c3e576040517f08c379a0000000000000000000000000000000000000000000000000000000008152600401610c35906138ca565b60405180910390fd5b80915050919050565b600060096000838152602001908152602001600020600101549050919050565b600073ffffffffffffffffffffffffffffffffffffffff168473ffffffffffffffffffffffffffffffffffffffff161415610cd7576040517f08c379a0000000000000000000000000000000000000000000000000000000008152600401610cce90613936565b60405180910390fd5b600073ffffffffffffffffffffffffffffffffffffffff168373ffffffffffffffffffffffffffffffffffffffff161415610d47576040517f08c379a0000000000000000000000000000000000000000000000000000000008152600401610d3e906139a2565b60405180910390fd5b6000825111610d8b576040517f08c379a0000000000000000000000000000000000000000000000000000000008152600401610d8290613a0e565b60405180910390fd5b60005b8251811015610f35576000838281518110610dac57610dab61376b565b5b602002602001015190506000811415610dfa576040517f08c379a0000000000000000000000000000000000000000000000000000000008152600401610df190613a7a565b60405180910390fd5b610e058686836109de565b600a60405180608001604052808873ffffffffffffffffffffffffffffffffffffffff1681526020018773ffffffffffffffffffffffffffffffffffffffff16815260200183815260200185815250908060018154018082558091505060019003906000526020600020906004020160009091909190915060008201518160000160006101000a81548173ffffffffffffffffffffffffffffffffffffffff021916908373ffffffffffffffffffffffffffffffffffffffff16021790555060208201518160010160006101000a81548173ffffffffffffffffffffffffffffffffffffffff021916908373ffffffffffffffffffffffffffffffffffffffff16021790555060408201518160020155606082015181600301555050508080610f2d90613835565b915050610d8e565b5050505050565b60008073ffffffffffffffffffffffffffffffffffffffff168273ffffffffffffffffffffffffffffffffffffffff161415610fad576040517f08c379a0000000000000000000000000000000000000000000000000000000008152600401610fa490613b0c565b60405180910390fd5b600360008373ffffffffffffffffffffffffffffffffffffffff1673ffffffffffffffffffffffffffffffffffffffff168152602001908152602001600020549050919050565b60008061100160066120a5565b600061100d60066120bb565b905061101986826120c9565b846007600083815260200190815260200160002090805190602001906110409291906124ba565b50600085805190602001209050600060405180604001604052808881526020018381525090506008839080600181540180825580915050600190039060005260206000200160009091909190915055806009600085815260200190815260200160002060008201518160000190805190602001906110bf9291906124ba565b50602082015181600101559050506110d760066120a5565b60006110e360066120bb565b90506110ef89826120c9565b866007600083815260200190815260200160002090805190602001906111169291906124ba565b50600087805190602001209050600060405180604001604052808a81526020018381525090506008839080600181540180825580915050600190039060005260206000200160009091909190915055806009600085815260200190815260200160002060008201518160000190805190602001906111959291906124ba565b5060208201518160010155905050858397509750505050505050935093915050565b6060600180546111c690613485565b80601f01602080910402602001604051908101604052809291908181526020018280546111f290613485565b801561123f5780601f106112145761010080835404028352916020019161123f565b820191906000526020600020905b81548152906001019060200180831161122257829003601f168201915b5050505050905090565b600061125560066120bb565b905090565b3373ffffffffffffffffffffffffffffffffffffffff168273ffffffffffffffffffffffffffffffffffffffff1614156112c9576040517f08c379a00000000000000000000000000000000000000000000000000000000081526004016112c090613b78565b60405180910390fd5b80600560003373ffffffffffffffffffffffffffffffffffffffff1673ffffffffffffffffffffffffffffffffffffffff16815260200190815260200160002060008473ffffffffffffffffffffffffffffffffffffffff1673ffffffffffffffffffffffffffffffffffffffff16815260200190815260200160002060006101000a81548160ff0219169083151502179055508173ffffffffffffffffffffffffffffffffffffffff163373ffffffffffffffffffffffffffffffffffffffff167f17307eab39ab6107e8899845ad3d59bd9653f200f220920489ca2b5937696c31836040516113ba9190612682565b60405180910390a35050565b6113d03383611d8a565b61140f576040517f08c379a000000000000000000000000000000000000000000000000000000000815260040161140690613c0a565b60405180910390fd5b61141b84848484612282565b50505050565b606061142c82611cd3565b60076000838152602001908152602001600020805461144a90613485565b80601f016020809104026020016040519081016040528092919081815260200182805461147690613485565b80156114c35780601f10611498576101008083540402835291602001916114c3565b820191906000526020600020905b8154815290600101906020018083116114a657829003601f168201915b50505050509050919050565b60606000600880549050905060008167ffffffffffffffff8111156114f7576114f66128db565b5b60405190808252806020026020018201604052801561153057816020015b61151d612540565b8152602001906001900390816115155790505b50905060005b82811015611653576000600882815481106115545761155361376b565b5b9060005260206000200154905060006009600083815260200190815260200160002060405180604001604052908160008201805461159190613485565b80601f01602080910402602001604051908101604052809291908181526020018280546115bd90613485565b801561160a5780601f106115df5761010080835404028352916020019161160a565b820191906000526020600020905b8154815290600101906020018083116115ed57829003601f168201915b505050505081526020016001820154815250509050808484815181106116335761163261376b565b5b60200260200101819052505050808061164b90613835565b915050611536565b50809250505090565b600073ffffffffffffffffffffffffffffffffffffffff168473ffffffffffffffffffffffffffffffffffffffff1614156116cc576040517f08c379a00000000000000000000000000000000000000000000000000000000081526004016116c390613936565b60405180910390fd5b600073ffffffffffffffffffffffffffffffffffffffff168373ffffffffffffffffffffffffffffffffffffffff16141561173c576040517f08c379a0000000000000000000000000000000000000000000000000000000008152600401611733906139a2565b60405180910390fd5b6000821415611780576040517f08c379a000000000000000000000000000000000000000000000000000000000815260040161177790613a7a565b60405180910390fd5b61178b8484846109de565b600a60405180608001604052808673ffffffffffffffffffffffffffffffffffffffff1681526020018573ffffffffffffffffffffffffffffffffffffffff16815260200184815260200183815250908060018154018082558091505060019003906000526020600020906004020160009091909190915060008201518160000160006101000a81548173ffffffffffffffffffffffffffffffffffffffff021916908373ffffffffffffffffffffffffffffffffffffffff16021790555060208201518160010160006101000a81548173ffffffffffffffffffffffffffffffffffffffff021916908373ffffffffffffffffffffffffffffffffffffffff1602179055506040820151816002015560608201518160030155505050505050565b6000600560008473ffffffffffffffffffffffffffffffffffffffff1673ffffffffffffffffffffffffffffffffffffffff16815260200190815260200160002060008373ffffffffffffffffffffffffffffffffffffffff1673ffffffffffffffffffffffffffffffffffffffff16815260200190815260200160002060009054906101000a900460ff16905092915050565b600a818154811061195157600080fd5b90600052602060002090600402016000915090508060000160009054906101000a900473ffffffffffffffffffffffffffffffffffffffff16908060010160009054906101000a900473ffffffffffffffffffffffffffffffffffffffff16908060020154908060030154905084565b60006119cc83611d1e565b611a0b576040517f08c379a0000000000000000000000000000000000000000000000000000000008152600401611a02906137e6565b60405180910390fd5b6000611a1684611421565b90506000818051906020012090506000848214905080935050505092915050565b60606000805b600a80549050811015611a995783600a8281548110611a5f57611a5e61376b565b5b9060005260206000209060040201600201541415611a86578180611a8290613835565b9250505b8080611a9190613835565b915050611a3d565b5060008167ffffffffffffffff811115611ab657611ab56128db565b5b604051908082528060200260200182016040528015611aef57816020015b611adc61255d565b815260200190600190039081611ad45790505b5090506000805b600a80549050811015611c5d5785600a8281548110611b1857611b1761376b565b5b9060005260206000209060040201600201541415611c4a57600a8181548110611b4457611b4361376b565b5b90600052602060002090600402016040518060800160405290816000820160009054906101000a900473ffffffffffffffffffffffffffffffffffffffff1673ffffffffffffffffffffffffffffffffffffffff1673ffffffffffffffffffffffffffffffffffffffff1681526020016001820160009054906101000a900473ffffffffffffffffffffffffffffffffffffffff1673ffffffffffffffffffffffffffffffffffffffff1673ffffffffffffffffffffffffffffffffffffffff16815260200160028201548152602001600382015481525050838381518110611c3057611c2f61376b565b5b60200260200101819052508180611c4690613835565b9250505b8080611c5590613835565b915050611af6565b50819350505050919050565b60007f01ffc9a7000000000000000000000000000000000000000000000000000000007bffffffffffffffffffffffffffffffffffffffffffffffffffffffff1916827bffffffffffffffffffffffffffffffffffffffffffffffffffffffff1916149050919050565b611cdc81611d1e565b611d1b576040517f08c379a0000000000000000000000000000000000000000000000000000000008152600401611d12906138ca565b60405180910390fd5b50565b60008073ffffffffffffffffffffffffffffffffffffffff166002600084815260200190815260200160002060009054906101000a900473ffffffffffffffffffffffffffffffffffffffff1673ffffffffffffffffffffffffffffffffffffffff1614159050919050565b6000611d9582611d1e565b611dd4576040517f08c379a0000000000000000000000000000000000000000000000000000000008152600401611dcb90613c9c565b60405180910390fd5b6000611ddf83610b95565b90508073ffffffffffffffffffffffffffffffffffffffff168473ffffffffffffffffffffffffffffffffffffffff161480611e4e57508373ffffffffffffffffffffffffffffffffffffffff16611e368461074a565b73ffffffffffffffffffffffffffffffffffffffff16145b80611e5f5750611e5e81856118ad565b5b91505092915050565b8273ffffffffffffffffffffffffffffffffffffffff16611e8882610b95565b73ffffffffffffffffffffffffffffffffffffffff1614611ede576040517f08c379a0000000000000000000000000000000000000000000000000000000008152600401611ed590613d2e565b60405180910390fd5b600073ffffffffffffffffffffffffffffffffffffffff168273ffffffffffffffffffffffffffffffffffffffff161415611f4e576040517f08c379a0000000000000000000000000000000000000000000000000000000008152600401611f4590613dc0565b60405180910390fd5b611f57816122de565b6001600360008573ffffffffffffffffffffffffffffffffffffffff1673ffffffffffffffffffffffffffffffffffffffff168152602001908152602001600020600082825403925050819055506001600360008473ffffffffffffffffffffffffffffffffffffffff1673ffffffffffffffffffffffffffffffffffffffff16815260200190815260200160002060008282540192505081905550816002600083815260200190815260200160002060006101000a81548173ffffffffffffffffffffffffffffffffffffffff021916908373ffffffffffffffffffffffffffffffffffffffff160217905550808273ffffffffffffffffffffffffffffffffffffffff168473ffffffffffffffffffffffffffffffffffffffff167fddf252ad1be2c89b69c2b068fc378daa952ba7f163c4a11628f55a4df523b3ef60405160405180910390a4505050565b6001816000016000828254019250508190555050565b600081600001549050919050565b600073ffffffffffffffffffffffffffffffffffffffff168273ffffffffffffffffffffffffffffffffffffffff161415612139576040517f08c379a000000000000000000000000000000000000000000000000000000000815260040161213090613e2c565b60405180910390fd5b61214281611d1e565b15612182576040517f08c379a000000000000000000000000000000000000000000000000000000000815260040161217990613e98565b60405180910390fd5b6001600360008473ffffffffffffffffffffffffffffffffffffffff1673ffffffffffffffffffffffffffffffffffffffff16815260200190815260200160002060008282540192505081905550816002600083815260200190815260200160002060006101000a81548173ffffffffffffffffffffffffffffffffffffffff021916908373ffffffffffffffffffffffffffffffffffffffff160217905550808273ffffffffffffffffffffffffffffffffffffffff16600073ffffffffffffffffffffffffffffffffffffffff167fddf252ad1be2c89b69c2b068fc378daa952ba7f163c4a11628f55a4df523b3ef60405160405180910390a45050565b61228d848484611e68565b61229984848484612317565b6122d8576040517f08c379a00000000000000000000000000000000000000000000000000000000081526004016122cf90613f2a565b60405180910390fd5b50505050565b6004600082815260200190815260200160002060006101000a81549073ffffffffffffffffffffffffffffffffffffffff021916905550565b60006123388473ffffffffffffffffffffffffffffffffffffffff1661249f565b15612492578373ffffffffffffffffffffffffffffffffffffffff1663150b7a026123616124b2565b8786866040518563ffffffff1660e01b81526004016123839493929190613f9f565b6020604051808303816000875af19250505080156123bf57506040513d601f19601f820116820180604052508101906123bc9190614000565b60015b612442573d80600081146123ef576040519150601f19603f3d011682016040523d82523d6000602084013e6123f4565b606091505b5060008151141561243a576040517f08c379a00000000000000000000000000000000000000000000000000000000081526004016124319061409f565b60405180910390fd5b805181602001fd5b63150b7a0260e01b7bffffffffffffffffffffffffffffffffffffffffffffffffffffffff1916817bffffffffffffffffffffffffffffffffffffffffffffffffffffffff191614915050612497565b600190505b949350505050565b600080823b905060008111915050919050565b600033905090565b8280546124c690613485565b90600052602060002090601f0160209004810192826124e8576000855561252f565b82601f1061250157805160ff191683800117855561252f565b8280016001018555821561252f579182015b8281111561252e578251825591602001919060010190612513565b5b50905061253c91906125b1565b5090565b604051806040016040528060608152602001600080191681525090565b6040518060800160405280600073ffffffffffffffffffffffffffffffffffffffff168152602001600073ffffffffffffffffffffffffffffffffffffffff16815260200160008152602001600081525090565b5b808211156125ca5760008160009055506001016125b2565b5090565b6000604051905090565b600080fd5b600080fd5b60007fffffffff0000000000000000000000000000000000000000000000000000000082169050919050565b612617816125e2565b811461262257600080fd5b50565b6000813590506126348161260e565b92915050565b6000602082840312156126505761264f6125d8565b5b600061265e84828501612625565b91505092915050565b60008115159050919050565b61267c81612667565b82525050565b60006020820190506126976000830184612673565b92915050565b600081519050919050565b600082825260208201905092915050565b60005b838110156126d75780820151818401526020810190506126bc565b838111156126e6576000848401525b50505050565b6000601f19601f8301169050919050565b60006127088261269d565b61271281856126a8565b93506127228185602086016126b9565b61272b816126ec565b840191505092915050565b6000602082019050818103600083015261275081846126fd565b905092915050565b6000819050919050565b61276b81612758565b811461277657600080fd5b50565b60008135905061278881612762565b92915050565b6000602082840312156127a4576127a36125d8565b5b60006127b284828501612779565b91505092915050565b600073ffffffffffffffffffffffffffffffffffffffff82169050919050565b60006127e6826127bb565b9050919050565b6127f6816127db565b82525050565b600060208201905061281160008301846127ed565b92915050565b612820816127db565b811461282b57600080fd5b50565b60008135905061283d81612817565b92915050565b6000806040838503121561285a576128596125d8565b5b60006128688582860161282e565b925050602061287985828601612779565b9150509250929050565b60008060006060848603121561289c5761289b6125d8565b5b60006128aa8682870161282e565b93505060206128bb8682870161282e565b92505060406128cc86828701612779565b9150509250925092565b600080fd5b7f4e487b7100000000000000000000000000000000000000000000000000000000600052604160045260246000fd5b612913826126ec565b810181811067ffffffffffffffff82111715612932576129316128db565b5b80604052505050565b60006129456125ce565b9050612951828261290a565b919050565b600067ffffffffffffffff821115612971576129706128db565b5b602082029050602081019050919050565b600080fd5b600061299a61299584612956565b61293b565b905080838252602082019050602084028301858111156129bd576129bc612982565b5b835b818110156129e657806129d28882612779565b8452602084019350506020810190506129bf565b5050509392505050565b600082601f830112612a0557612a046128d6565b5b8135612a15848260208601612987565b91505092915050565b600067ffffffffffffffff821115612a3957612a386128db565b5b602082029050602081019050919050565b6000819050919050565b612a5d81612a4a565b8114612a6857600080fd5b50565b600081359050612a7a81612a54565b92915050565b6000612a93612a8e84612a1e565b61293b565b90508083825260208201905060208402830185811115612ab657612ab5612982565b5b835b81811015612adf5780612acb8882612a6b565b845260208401935050602081019050612ab8565b5050509392505050565b600082601f830112612afe57612afd6128d6565b5b8135612b0e848260208601612a80565b91505092915050565b60008060408385031215612b2e57612b2d6125d8565b5b600083013567ffffffffffffffff811115612b4c57612b4b6125dd565b5b612b58858286016129f0565b925050602083013567ffffffffffffffff811115612b7957612b786125dd565b5b612b8585828601612ae9565b9150509250929050565b600081519050919050565b600082825260208201905092915050565b6000819050602082019050919050565b612bc481612667565b82525050565b6000612bd68383612bbb565b60208301905092915050565b6000602082019050919050565b6000612bfa82612b8f565b612c048185612b9a565b9350612c0f83612bab565b8060005b83811015612c40578151612c278882612bca565b9750612c3283612be2565b925050600181019050612c13565b5085935050505092915050565b60006020820190508181036000830152612c678184612bef565b905092915050565b612c7881612a4a565b82525050565b6000602082019050612c936000830184612c6f565b92915050565b60008060008060808587031215612cb357612cb26125d8565b5b6000612cc18782880161282e565b9450506020612cd28782880161282e565b935050604085013567ffffffffffffffff811115612cf357612cf26125dd565b5b612cff878288016129f0565b9250506060612d1087828801612779565b91505092959194509250565b600060208284031215612d3257612d316125d8565b5b6000612d408482850161282e565b91505092915050565b612d5281612758565b82525050565b6000602082019050612d6d6000830184612d49565b92915050565b600080fd5b600067ffffffffffffffff821115612d9357612d926128db565b5b612d9c826126ec565b9050602081019050919050565b82818337600083830152505050565b6000612dcb612dc684612d78565b61293b565b905082815260208101848484011115612de757612de6612d73565b5b612df2848285612da9565b509392505050565b600082601f830112612e0f57612e0e6128d6565b5b8135612e1f848260208601612db8565b91505092915050565b600080600060608486031215612e4157612e406125d8565b5b6000612e4f8682870161282e565b935050602084013567ffffffffffffffff811115612e7057612e6f6125dd565b5b612e7c86828701612dfa565b925050604084013567ffffffffffffffff811115612e9d57612e9c6125dd565b5b612ea986828701612dfa565b9150509250925092565b6000604082019050612ec86000830185612d49565b612ed56020830184612d49565b9392505050565b612ee581612667565b8114612ef057600080fd5b50565b600081359050612f0281612edc565b92915050565b60008060408385031215612f1f57612f1e6125d8565b5b6000612f2d8582860161282e565b9250506020612f3e85828601612ef3565b9150509250929050565b600067ffffffffffffffff821115612f6357612f626128db565b5b612f6c826126ec565b9050602081019050919050565b6000612f8c612f8784612f48565b61293b565b905082815260208101848484011115612fa857612fa7612d73565b5b612fb3848285612da9565b509392505050565b600082601f830112612fd057612fcf6128d6565b5b8135612fe0848260208601612f79565b91505092915050565b60008060008060808587031215613003576130026125d8565b5b60006130118782880161282e565b94505060206130228782880161282e565b935050604061303387828801612779565b925050606085013567ffffffffffffffff811115613054576130536125dd565b5b61306087828801612fbb565b91505092959194509250565b600081519050919050565b600082825260208201905092915050565b6000819050602082019050919050565b600082825260208201905092915050565b60006130b48261269d565b6130be8185613098565b93506130ce8185602086016126b9565b6130d7816126ec565b840191505092915050565b6130eb81612a4a565b82525050565b6000604083016000830151848203600086015261310e82826130a9565b915050602083015161312360208601826130e2565b508091505092915050565b600061313a83836130f1565b905092915050565b6000602082019050919050565b600061315a8261306c565b6131648185613077565b93508360208202850161317685613088565b8060005b858110156131b25784840389528151613193858261312e565b945061319e83613142565b925060208a0199505060018101905061317a565b50829750879550505050505092915050565b600060208201905081810360008301526131de818461314f565b905092915050565b60008060008060808587031215613200576131ff6125d8565b5b600061320e8782880161282e565b945050602061321f8782880161282e565b935050604061323087828801612779565b925050606061324187828801612779565b91505092959194509250565b60008060408385031215613264576132636125d8565b5b60006132728582860161282e565b92505060206132838582860161282e565b9150509250929050565b60006080820190506132a260008301876127ed565b6132af60208301866127ed565b6132bc6040830185612d49565b6132c96060830184612d49565b95945050505050565b600080604083850312156132e9576132e86125d8565b5b60006132f785828601612779565b925050602061330885828601612a6b565b9150509250929050565b600081519050919050565b600082825260208201905092915050565b6000819050602082019050919050565b613347816127db565b82525050565b61335681612758565b82525050565b608082016000820151613372600085018261333e565b506020820151613385602085018261333e565b506040820151613398604085018261334d565b5060608201516133ab606085018261334d565b50505050565b60006133bd838361335c565b60808301905092915050565b6000602082019050919050565b60006133e182613312565b6133eb818561331d565b93506133f68361332e565b8060005b8381101561342757815161340e88826133b1565b9750613419836133c9565b9250506001810190506133fa565b5085935050505092915050565b6000602082019050818103600083015261344e81846133d6565b905092915050565b7f4e487b7100000000000000000000000000000000000000000000000000000000600052602260045260246000fd5b6000600282049050600182168061349d57607f821691505b602082108114156134b1576134b0613456565b5b50919050565b7f617070726f76616c20746f2063757272656e74206f776e657200000000000000600082015250565b60006134ed6019836126a8565b91506134f8826134b7565b602082019050919050565b6000602082019050818103600083015261351c816134e0565b9050919050565b7f617070726f76656420717565727920666f72206e6f6e6578697374656e74207460008201527f6f6b656e00000000000000000000000000000000000000000000000000000000602082015250565b600061357f6024836126a8565b915061358a82613523565b604082019050919050565b600060208201905081810360008301526135ae81613572565b9050919050565b7f617070726f76652063616c6c6572206973206e6f74206f776e6572206e6f722060008201527f617070726f76656420666f7220616c6c00000000000000000000000000000000602082015250565b60006136116030836126a8565b915061361c826135b5565b604082019050919050565b6000602082019050818103600083015261364081613604565b9050919050565b7f7472616e736665722063616c6c6572206973206e6f7420746865206f776e657260008201527f206e6f7220617070726f76656400000000000000000000000000000000000000602082015250565b60006136a3602d836126a8565b91506136ae82613647565b604082019050919050565b600060208201905081810360008301526136d281613696565b9050919050565b7f496e76616c696420696e7075743a206c656e6774687320646f206e6f74206d6160008201527f7463680000000000000000000000000000000000000000000000000000000000602082015250565b60006137356023836126a8565b9150613740826136d9565b604082019050919050565b6000602082019050818103600083015261376481613728565b9050919050565b7f4e487b7100000000000000000000000000000000000000000000000000000000600052603260045260246000fd5b7f4e465420646f6573206e6f742065786973740000000000000000000000000000600082015250565b60006137d06012836126a8565b91506137db8261379a565b602082019050919050565b600060208201905081810360008301526137ff816137c3565b9050919050565b7f4e487b7100000000000000000000000000000000000000000000000000000000600052601160045260246000fd5b600061384082612758565b91507fffffffffffffffffffffffffffffffffffffffffffffffffffffffffffffffff82141561387357613872613806565b5b600182019050919050565b7f4552433732313a20696e76616c696420746f6b656e2049440000000000000000600082015250565b60006138b46018836126a8565b91506138bf8261387e565b602082019050919050565b600060208201905081810360008301526138e3816138a7565b9050919050565b7f496e76616c696420627579657220616464726573730000000000000000000000600082015250565b60006139206015836126a8565b915061392b826138ea565b602082019050919050565b6000602082019050818103600083015261394f81613913565b9050919050565b7f496e76616c69642073656c6c6572206164647265737300000000000000000000600082015250565b600061398c6016836126a8565b915061399782613956565b602082019050919050565b600060208201905081810360008301526139bb8161397f565b9050919050565b7f496e76616c696420746f6b656e20494473000000000000000000000000000000600082015250565b60006139f86011836126a8565b9150613a03826139c2565b602082019050919050565b60006020820190508181036000830152613a27816139eb565b9050919050565b7f496e76616c696420746f6b656e20494400000000000000000000000000000000600082015250565b6000613a646010836126a8565b9150613a6f82613a2e565b602082019050919050565b60006020820190508181036000830152613a9381613a57565b9050919050565b7f4552433732313a2061646472657373207a65726f206973206e6f74206120766160008201527f6c6964206f776e65720000000000000000000000000000000000000000000000602082015250565b6000613af66029836126a8565b9150613b0182613a9a565b604082019050919050565b60006020820190508181036000830152613b2581613ae9565b9050919050565b7f617070726f766520746f2063616c6c6572000000000000000000000000000000600082015250565b6000613b626011836126a8565b9150613b6d82613b2c565b602082019050919050565b60006020820190508181036000830152613b9181613b55565b9050919050565b7f4552433732313a2063616c6c6572206973206e6f7420746f6b656e206f776e6560008201527f72206f7220617070726f76656400000000000000000000000000000000000000602082015250565b6000613bf4602d836126a8565b9150613bff82613b98565b604082019050919050565b60006020820190508181036000830152613c2381613be7565b9050919050565b7f6f70657261746f7220716575727920666f72206e6f6e6578697374656e74207460008201527f6f6b656e00000000000000000000000000000000000000000000000000000000602082015250565b6000613c866024836126a8565b9150613c9182613c2a565b604082019050919050565b60006020820190508181036000830152613cb581613c79565b9050919050565b7f4552433732313a207472616e736665722066726f6d20696e636f72726563742060008201527f6f776e6572000000000000000000000000000000000000000000000000000000602082015250565b6000613d186025836126a8565b9150613d2382613cbc565b604082019050919050565b60006020820190508181036000830152613d4781613d0b565b9050919050565b7f4552433732313a207472616e7366657220746f20746865207a65726f2061646460008201527f7265737300000000000000000000000000000000000000000000000000000000602082015250565b6000613daa6024836126a8565b9150613db582613d4e565b604082019050919050565b60006020820190508181036000830152613dd981613d9d565b9050919050565b7f6d696e7420746f20746865207a65726f20616464726573730000000000000000600082015250565b6000613e166018836126a8565b9150613e2182613de0565b602082019050919050565b60006020820190508181036000830152613e4581613e09565b9050919050565b7f746f6b656e20616c7265616479206d696e746564000000000000000000000000600082015250565b6000613e826014836126a8565b9150613e8d82613e4c565b602082019050919050565b60006020820190508181036000830152613eb181613e75565b9050919050565b7f7472616e7366657220746f206e6f6e204552433732315265636569766572206960008201527f6d706c656d656e74657200000000000000000000000000000000000000000000602082015250565b6000613f14602a836126a8565b9150613f1f82613eb8565b604082019050919050565b60006020820190508181036000830152613f4381613f07565b9050919050565b600081519050919050565b600082825260208201905092915050565b6000613f7182613f4a565b613f7b8185613f55565b9350613f8b8185602086016126b9565b613f94816126ec565b840191505092915050565b6000608082019050613fb460008301876127ed565b613fc160208301866127ed565b613fce6040830185612d49565b8181036060830152613fe08184613f66565b905095945050505050565b600081519050613ffa8161260e565b92915050565b600060208284031215614016576140156125d8565b5b600061402484828501613feb565b91505092915050565b7f4552433732313a207472616e7366657220746f206e6f6e20455243373231526560008201527f63656976657220696d706c656d656e7465720000000000000000000000000000602082015250565b60006140896032836126a8565b91506140948261402d565b604082019050919050565b600060208201905081810360008301526140b88161407c565b905091905056fea264697066735822122094d326a814de6f9d8aa94e25544b986cfc8dc37c24450804c5a92eac72810b3264736f6c634300080a0033",
  "immutableReferences": {},
  "source": "// SPDX-License-Identifier: MIT\r\npragma solidity >=0.4.22 <0.9.0;\r\n\r\nimport \"./token/ERC721/ERC721.sol\";\r\nimport \"./utils/Counters.sol\";\r\nimport \"./utils/Strings.sol\";\r\n\r\n/**\r\n * PJT  -  2) NFT Creator \r\n *         .\r\n */\r\ncontract HereNFT is ERC721 {\r\n    \r\n    using Counters for Counters.Counter;\r\n    using Strings for uint256;\r\n\r\n    Counters.Counter private _tokenIds;\r\n    mapping(uint256 => string) tokenURIs;\r\n\r\n    event createNFT (uint256 indexed _tokenId, address indexed _owner);\r\n\r\n    constructor() ERC721(\"HERE-NFT\", \"TBD\") {}\r\n\r\n    // NFT \r\n    struct NFT {\r\n        string tokenURI;\r\n        bytes32 hashValue;\r\n    }\r\n    uint256[] private _nftIds;\r\n    mapping(uint256 => NFT) private _nfts;\r\n\r\n    //  \r\n    struct TransactionLog {\r\n        address from;\r\n        address to;\r\n        uint256 tokenId;\r\n        uint256 timestamp;\r\n    }\r\n\r\n    struct NFTInput {\r\n        uint256 tokenId;\r\n        bytes32 hashValue;\r\n    }\r\n    \r\n    //  \r\n    TransactionLog[] public transactionLogs;\r\n\r\n    // NFT    \r\n    function donateNFT(\r\n        address _from,\r\n        address _to,\r\n        uint256 _tokenId,\r\n        uint256 _timestamp\r\n    ) public payable {\r\n        require(_from != address(0), \"Invalid buyer address\");\r\n        require(_to != address(0), \"Invalid seller address\");\r\n        require(_tokenId != 0, \"Invalid token ID\");\r\n\r\n        // Transfer ownership of NFT from seller to buyer\r\n        //emit Transfer(_seller, _buyer, _tokenId);\r\n        safeTransferFrom(_from, _to, _tokenId);\r\n\r\n        // Add transaction log to the transactionLogs array\r\n        transactionLogs.push(\r\n            TransactionLog({\r\n                from: _from,\r\n                to: _to,\r\n                tokenId: _tokenId,\r\n                timestamp: _timestamp\r\n            })\r\n        );\r\n\r\n    }\r\n    // tokenid    nft   \r\n    function donateNFTList(\r\n        address _from,\r\n        address _to,\r\n        uint256[] memory _tokenIdList,\r\n        uint256 _timestamp\r\n    ) public payable {\r\n        require(_from != address(0), \"Invalid buyer address\");\r\n        require(_to != address(0), \"Invalid seller address\");\r\n        require(_tokenIdList.length > 0, \"Invalid token IDs\");\r\n\r\n        for (uint i = 0; i < _tokenIdList.length; i++) {\r\n            uint256 tokenId = _tokenIdList[i];\r\n            require(tokenId != 0, \"Invalid token ID\");\r\n\r\n            // Transfer ownership of NFT from seller to buyer\r\n            safeTransferFrom(_from, _to, tokenId);\r\n\r\n            // Add transaction log to the transactionLogs array\r\n            transactionLogs.push(\r\n                TransactionLog({\r\n                    from: _from,\r\n                    to: _to,\r\n                    tokenId: tokenId,\r\n                    timestamp: _timestamp\r\n                })\r\n            );\r\n        }\r\n    }\r\n\r\n    //  NFT    \r\n    function getTransactionLogs(uint256 _tokenId)\r\n        external\r\n        view\r\n        returns (TransactionLog[] memory)\r\n    {\r\n        uint256 count = 0;\r\n        for (uint256 i = 0; i < transactionLogs.length; i++) {\r\n            if (transactionLogs[i].tokenId == _tokenId) {\r\n                count++;\r\n            }\r\n        }\r\n        TransactionLog[] memory logs = new TransactionLog[](count);\r\n        uint256 index = 0;\r\n        for (uint256 i = 0; i < transactionLogs.length; i++) {\r\n            if (transactionLogs[i].tokenId == _tokenId) {\r\n                logs[index] = transactionLogs[i];\r\n                index++;\r\n            }\r\n        }\r\n        return logs;\r\n    }\r\n\r\n    //    \r\n    function current() public view returns (uint256) {\r\n        return _tokenIds.current();\r\n    }\r\n\r\n    \r\n    // tokenId  toenURI  \r\n    function tokenURI(uint256 tokenId) public view override returns (string memory) {\r\n        // TODO\r\n        _requireMinted(tokenId);\r\n        return tokenURIs[tokenId];\r\n    }\r\n\r\n    // \r\n    function create(address to, string memory _tokenURI1, string memory _tokenURI2) public returns (uint256, uint256) {\r\n        _tokenIds.increment();\r\n\r\n        uint256 newItemId1 = _tokenIds.current();\r\n        _mint(to, newItemId1);\r\n        tokenURIs[newItemId1] = _tokenURI1;\r\n\r\n        bytes32 hashValue1 = keccak256(bytes(_tokenURI1));\r\n        NFT memory nft1 = NFT({\r\n            tokenURI: _tokenURI1,\r\n            hashValue: hashValue1\r\n        });\r\n        _nftIds.push(newItemId1);\r\n        _nfts[newItemId1] = nft1;\r\n\r\n        _tokenIds.increment();\r\n\r\n        uint256 newItemId2 = _tokenIds.current();\r\n        _mint(to, newItemId2);\r\n        tokenURIs[newItemId2] = _tokenURI2;\r\n\r\n        bytes32 hashValue2 = keccak256(bytes(_tokenURI2));\r\n        NFT memory nft2 = NFT({\r\n            tokenURI: _tokenURI2,\r\n            hashValue: hashValue2\r\n        });\r\n        _nftIds.push(newItemId2);\r\n        _nfts[newItemId2] = nft2;\r\n\r\n        return (newItemId1, newItemId2);\r\n    }\r\n\r\n    //  NFT  \r\n    function getAllNFTs() public view returns (NFT[] memory) {\r\n        uint256 totalNFTs = _nftIds.length;\r\n        NFT[] memory nftsList = new NFT[](totalNFTs);\r\n        for (uint256 i = 0; i < totalNFTs; i++) {\r\n            uint256 nftId = _nftIds[i];\r\n            NFT memory nft = _nfts[nftId];\r\n            nftsList[i] = nft;\r\n        }\r\n        return nftsList;\r\n    }   \r\n\r\n    function getHashValue(uint256 tokenId) public view returns(bytes32) {\r\n        return _nfts[tokenId].hashValue;\r\n    }\r\n\r\n    event NFTVerified(uint256 indexed tokenId, string metadataURI, bytes metadata, bytes32 metadataHash, bytes32 inputHash);\r\n\r\n    function verifyNFT(uint256 tokenId, bytes32 hash) public view returns (bool) {\r\n        require(_exists(tokenId), \"NFT does not exist\");\r\n\r\n        // NFT Metadata URI \r\n        string memory metadataURI = tokenURI(tokenId);\r\n\r\n        // JSON   \r\n        bytes32 transactionHash = keccak256(bytes(metadataURI));\r\n\r\n         //      \r\n        bool verified = transactionHash == hash;\r\n\r\n\r\n        return verified;\r\n    }\r\n\r\n    function verifyNFTList(uint256[] memory tokenIds, bytes32[] memory hashes) public view returns (bool[] memory results) {\r\n        require(tokenIds.length == hashes.length, \"Invalid input: lengths do not match\");\r\n\r\n        results = new bool[](tokenIds.length);\r\n\r\n        for (uint256 i = 0; i < tokenIds.length; i++) {\r\n            require(_exists(tokenIds[i]), \"NFT does not exist\");\r\n\r\n            string memory metadataURI = tokenURI(tokenIds[i]);\r\n            bytes32 transactionHash = keccak256(bytes(metadataURI));\r\n            bool verified = transactionHash == hashes[i];\r\n            results[i] = verified;\r\n        }\r\n\r\n        return results;\r\n    }\r\n}",
  "sourcePath": "C:\\SSAFY\\workspace\\blockchain\\S08P22B209\\here-blockchain\\contracts\\HereNFT.sol",
  "compiler": {
    "name": "solc",
    "version": "0.8.10+commit.fc410830.Emscripten.clang"
  },
  "schemaVersion": "3.4.4",
  "updatedAt": "2023-04-01T14:53:27.948Z",
  "networkType": "ethereum",
  "devdoc": {
    "kind": "dev",
    "methods": {
      "approve(address,uint256)": {
        "details": "See {IERC721-approve}."
      },
      "balanceOf(address)": {
        "details": "See {IERC721-balanceOf}."
      },
      "getApproved(uint256)": {
        "details": "See {IERC721-getApproved}."
      },
      "isApprovedForAll(address,address)": {
        "details": "See {IERC721-isApprovedForAll}."
      },
      "name()": {
        "details": "See {IERC721Metadata-name}."
      },
      "ownerOf(uint256)": {
        "details": "See {IERC721-ownerOf}."
      },
      "safeTransferFrom(address,address,uint256)": {
        "details": "See {IERC721-safeTransferFrom}."
      },
      "safeTransferFrom(address,address,uint256,bytes)": {
        "details": "See {IERC721-safeTransferFrom}."
      },
      "setApprovalForAll(address,bool)": {
        "details": "See {IERC721-setApprovalForAll}."
      },
      "supportsInterface(bytes4)": {
        "details": "See {IERC165-supportsInterface}."
      },
      "symbol()": {
        "details": "See {IERC721Metadata-symbol}."
      },
      "tokenURI(uint256)": {
        "details": "See {IERC721Metadata-tokenURI}."
      },
      "transferFrom(address,address,uint256)": {
        "details": "See {IERC721-transferFrom}."
      }
    },
    "version": 1
  },
  "userdoc": {
    "kind": "user",
    "methods": {},
    "notice": "PJT  -  2) NFT Creator          .",
    "version": 1
  }
}