{
  "contractName": "HereNFT",
  "abi": [
    {
      "inputs": [],
      "stateMutability": "nonpayable",
      "type": "constructor"
    },
    {
      "anonymous": false,
      "inputs": [
        {
          "indexed": true,
          "internalType": "address",
          "name": "owner",
          "type": "address"
        },
        {
          "indexed": true,
          "internalType": "address",
          "name": "approved",
          "type": "address"
        },
        {
          "indexed": true,
          "internalType": "uint256",
          "name": "tokenId",
          "type": "uint256"
        }
      ],
      "name": "Approval",
      "type": "event"
    },
    {
      "anonymous": false,
      "inputs": [
        {
          "indexed": true,
          "internalType": "address",
          "name": "owner",
          "type": "address"
        },
        {
          "indexed": true,
          "internalType": "address",
          "name": "operator",
          "type": "address"
        },
        {
          "indexed": false,
          "internalType": "bool",
          "name": "approved",
          "type": "bool"
        }
      ],
      "name": "ApprovalForAll",
      "type": "event"
    },
    {
      "anonymous": false,
      "inputs": [
        {
          "indexed": true,
          "internalType": "address",
          "name": "from",
          "type": "address"
        },
        {
          "indexed": true,
          "internalType": "address",
          "name": "to",
          "type": "address"
        },
        {
          "indexed": true,
          "internalType": "uint256",
          "name": "tokenId",
          "type": "uint256"
        }
      ],
      "name": "Transfer",
      "type": "event"
    },
    {
      "anonymous": false,
      "inputs": [
        {
          "indexed": true,
          "internalType": "uint256",
          "name": "_tokenId",
          "type": "uint256"
        },
        {
          "indexed": true,
          "internalType": "address",
          "name": "_owner",
          "type": "address"
        }
      ],
      "name": "createNFT",
      "type": "event"
    },
    {
      "inputs": [
        {
          "internalType": "address",
          "name": "to",
          "type": "address"
        },
        {
          "internalType": "uint256",
          "name": "tokenId",
          "type": "uint256"
        }
      ],
      "name": "approve",
      "outputs": [],
      "stateMutability": "nonpayable",
      "type": "function"
    },
    {
      "inputs": [
        {
          "internalType": "address",
          "name": "owner",
          "type": "address"
        }
      ],
      "name": "balanceOf",
      "outputs": [
        {
          "internalType": "uint256",
          "name": "",
          "type": "uint256"
        }
      ],
      "stateMutability": "view",
      "type": "function",
      "constant": true
    },
    {
      "inputs": [
        {
          "internalType": "uint256",
          "name": "tokenId",
          "type": "uint256"
        }
      ],
      "name": "getApproved",
      "outputs": [
        {
          "internalType": "address",
          "name": "",
          "type": "address"
        }
      ],
      "stateMutability": "view",
      "type": "function",
      "constant": true
    },
    {
      "inputs": [
        {
          "internalType": "address",
          "name": "owner",
          "type": "address"
        },
        {
          "internalType": "address",
          "name": "operator",
          "type": "address"
        }
      ],
      "name": "isApprovedForAll",
      "outputs": [
        {
          "internalType": "bool",
          "name": "",
          "type": "bool"
        }
      ],
      "stateMutability": "view",
      "type": "function",
      "constant": true
    },
    {
      "inputs": [],
      "name": "name",
      "outputs": [
        {
          "internalType": "string",
          "name": "",
          "type": "string"
        }
      ],
      "stateMutability": "view",
      "type": "function",
      "constant": true
    },
    {
      "inputs": [
        {
          "internalType": "uint256",
          "name": "tokenId",
          "type": "uint256"
        }
      ],
      "name": "ownerOf",
      "outputs": [
        {
          "internalType": "address",
          "name": "",
          "type": "address"
        }
      ],
      "stateMutability": "view",
      "type": "function",
      "constant": true
    },
    {
      "inputs": [
        {
          "internalType": "address",
          "name": "from",
          "type": "address"
        },
        {
          "internalType": "address",
          "name": "to",
          "type": "address"
        },
        {
          "internalType": "uint256",
          "name": "tokenId",
          "type": "uint256"
        }
      ],
      "name": "safeTransferFrom",
      "outputs": [],
      "stateMutability": "nonpayable",
      "type": "function"
    },
    {
      "inputs": [
        {
          "internalType": "address",
          "name": "from",
          "type": "address"
        },
        {
          "internalType": "address",
          "name": "to",
          "type": "address"
        },
        {
          "internalType": "uint256",
          "name": "tokenId",
          "type": "uint256"
        },
        {
          "internalType": "bytes",
          "name": "_data",
          "type": "bytes"
        }
      ],
      "name": "safeTransferFrom",
      "outputs": [],
      "stateMutability": "nonpayable",
      "type": "function"
    },
    {
      "inputs": [
        {
          "internalType": "address",
          "name": "operator",
          "type": "address"
        },
        {
          "internalType": "bool",
          "name": "approved",
          "type": "bool"
        }
      ],
      "name": "setApprovalForAll",
      "outputs": [],
      "stateMutability": "nonpayable",
      "type": "function"
    },
    {
      "inputs": [
        {
          "internalType": "bytes4",
          "name": "interfaceId",
          "type": "bytes4"
        }
      ],
      "name": "supportsInterface",
      "outputs": [
        {
          "internalType": "bool",
          "name": "",
          "type": "bool"
        }
      ],
      "stateMutability": "view",
      "type": "function",
      "constant": true
    },
    {
      "inputs": [],
      "name": "symbol",
      "outputs": [
        {
          "internalType": "string",
          "name": "",
          "type": "string"
        }
      ],
      "stateMutability": "view",
      "type": "function",
      "constant": true
    },
    {
      "inputs": [
        {
          "internalType": "address",
          "name": "from",
          "type": "address"
        },
        {
          "internalType": "address",
          "name": "to",
          "type": "address"
        },
        {
          "internalType": "uint256",
          "name": "tokenId",
          "type": "uint256"
        }
      ],
      "name": "transferFrom",
      "outputs": [],
      "stateMutability": "nonpayable",
      "type": "function"
    },
    {
      "inputs": [],
      "name": "current",
      "outputs": [
        {
          "internalType": "uint256",
          "name": "",
          "type": "uint256"
        }
      ],
      "stateMutability": "view",
      "type": "function",
      "constant": true
    },
    {
      "inputs": [
        {
          "internalType": "uint256",
          "name": "tokenId",
          "type": "uint256"
        }
      ],
      "name": "tokenURI",
      "outputs": [
        {
          "internalType": "string",
          "name": "",
          "type": "string"
        }
      ],
      "stateMutability": "view",
      "type": "function",
      "constant": true
    },
    {
      "inputs": [
        {
          "internalType": "address",
          "name": "to",
          "type": "address"
        },
        {
          "internalType": "string",
          "name": "_tokenURI",
          "type": "string"
        }
      ],
      "name": "create",
      "outputs": [
        {
          "internalType": "uint256",
          "name": "",
          "type": "uint256"
        }
      ],
      "stateMutability": "nonpayable",
      "type": "function"
    }
  ],
  "bytecode": "0x60806040523480156200001157600080fd5b506040518060400160405280600881526020017f484552452d4e46540000000000000000000000000000000000000000000000008152506040518060400160405280600381526020017f5442440000000000000000000000000000000000000000000000000000000000815250816000908051906020019062000096929190620000b8565b508060019080519060200190620000af929190620000b8565b505050620001cd565b828054620000c69062000197565b90600052602060002090601f016020900481019282620000ea576000855562000136565b82601f106200010557805160ff191683800117855562000136565b8280016001018555821562000136579182015b828111156200013557825182559160200191906001019062000118565b5b50905062000145919062000149565b5090565b5b80821115620001645760008160009055506001016200014a565b5090565b7f4e487b7100000000000000000000000000000000000000000000000000000000600052602260045260246000fd5b60006002820490506001821680620001b057607f821691505b60208210811415620001c757620001c662000168565b5b50919050565b61266180620001dd6000396000f3fe608060405234801561001057600080fd5b50600436106100f55760003560e01c806370a0823111610097578063a22cb46511610066578063a22cb46514610298578063b88d4fde146102b4578063c87b56dd146102d0578063e985e9c514610300576100f5565b806370a08231146101fc57806395d89b411461022c5780639fa6a6e31461024a578063a15ab08d14610268576100f5565b8063095ea7b3116100d3578063095ea7b31461017857806323b872dd1461019457806342842e0e146101b05780636352211e146101cc576100f5565b806301ffc9a7146100fa57806306fdde031461012a578063081812fc14610148575b600080fd5b610114600480360381019061010f91906116c3565b610330565b604051610121919061170b565b60405180910390f35b610132610412565b60405161013f91906117bf565b60405180910390f35b610162600480360381019061015d9190611817565b6104a4565b60405161016f9190611885565b60405180910390f35b610192600480360381019061018d91906118cc565b6104ea565b005b6101ae60048036038101906101a9919061190c565b6106df565b005b6101ca60048036038101906101c5919061190c565b610793565b005b6101e660048036038101906101e19190611817565b6107b3565b6040516101f39190611885565b60405180910390f35b6102166004803603810190610211919061195f565b610865565b604051610223919061199b565b60405180910390f35b61023461091d565b60405161024191906117bf565b60405180910390f35b6102526109af565b60405161025f919061199b565b60405180910390f35b610282600480360381019061027d9190611aeb565b6109c0565b60405161028f919061199b565b60405180910390f35b6102b260048036038101906102ad9190611b73565b610a5a565b005b6102ce60048036038101906102c99190611c54565b610bc6565b005b6102ea60048036038101906102e59190611817565b610c21565b6040516102f791906117bf565b60405180910390f35b61031a60048036038101906103159190611cd7565b610ccf565b604051610327919061170b565b60405180910390f35b60007f80ac58cd000000000000000000000000000000000000000000000000000000007bffffffffffffffffffffffffffffffffffffffffffffffffffffffff1916827bffffffffffffffffffffffffffffffffffffffffffffffffffffffff191614806103fb57507f5b5e139f000000000000000000000000000000000000000000000000000000007bffffffffffffffffffffffffffffffffffffffffffffffffffffffff1916827bffffffffffffffffffffffffffffffffffffffffffffffffffffffff1916145b8061040b575061040a82610d63565b5b9050919050565b60606000805461042190611d46565b80601f016020809104026020016040519081016040528092919081815260200182805461044d90611d46565b801561049a5780601f1061046f5761010080835404028352916020019161049a565b820191906000526020600020905b81548152906001019060200180831161047d57829003601f168201915b5050505050905090565b60006104af82610dcd565b6004600083815260200190815260200160002060009054906101000a900473ffffffffffffffffffffffffffffffffffffffff169050919050565b60006104f5826107b3565b90508073ffffffffffffffffffffffffffffffffffffffff168373ffffffffffffffffffffffffffffffffffffffff161415610566576040517f08c379a000000000000000000000000000000000000000000000000000000000815260040161055d90611dc4565b60405180910390fd5b61056f82610e18565b6105ae576040517f08c379a00000000000000000000000000000000000000000000000000000000081526004016105a590611e56565b60405180910390fd5b8073ffffffffffffffffffffffffffffffffffffffff163373ffffffffffffffffffffffffffffffffffffffff1614806105ee57506105ed8133610ccf565b5b61062d576040517f08c379a000000000000000000000000000000000000000000000000000000000815260040161062490611ee8565b60405180910390fd5b826004600084815260200190815260200160002060006101000a81548173ffffffffffffffffffffffffffffffffffffffff021916908373ffffffffffffffffffffffffffffffffffffffff160217905550818373ffffffffffffffffffffffffffffffffffffffff168273ffffffffffffffffffffffffffffffffffffffff167f8c5be1e5ebec7d5bd14f71427d1e84f3dd0314c0f7b2291e5b200ac8c7c3b92560405160405180910390a4505050565b6106e93382610e84565b610728576040517f08c379a000000000000000000000000000000000000000000000000000000000815260040161071f90611f7a565b60405180910390fd5b808273ffffffffffffffffffffffffffffffffffffffff168473ffffffffffffffffffffffffffffffffffffffff167fddf252ad1be2c89b69c2b068fc378daa952ba7f163c4a11628f55a4df523b3ef60405160405180910390a461078e838383610f62565b505050565b6107ae83838360405180602001604052806000815250610bc6565b505050565b6000806002600084815260200190815260200160002060009054906101000a900473ffffffffffffffffffffffffffffffffffffffff169050600073ffffffffffffffffffffffffffffffffffffffff168173ffffffffffffffffffffffffffffffffffffffff16141561085c576040517f08c379a000000000000000000000000000000000000000000000000000000000815260040161085390611fe6565b60405180910390fd5b80915050919050565b60008073ffffffffffffffffffffffffffffffffffffffff168273ffffffffffffffffffffffffffffffffffffffff1614156108d6576040517f08c379a00000000000000000000000000000000000000000000000000000000081526004016108cd90612078565b60405180910390fd5b600360008373ffffffffffffffffffffffffffffffffffffffff1673ffffffffffffffffffffffffffffffffffffffff168152602001908152602001600020549050919050565b60606001805461092c90611d46565b80601f016020809104026020016040519081016040528092919081815260200182805461095890611d46565b80156109a55780601f1061097a576101008083540402835291602001916109a5565b820191906000526020600020905b81548152906001019060200180831161098857829003601f168201915b5050505050905090565b60006109bb600661119f565b905090565b60006109cc60066111ad565b60006109d8600661119f565b90506109e484826111c3565b82600760008381526020019081526020016000209080519060200190610a0b9291906115b4565b508373ffffffffffffffffffffffffffffffffffffffff16817f11407ed8d92a37c76ddc993ad3fce6827392297bbf8439605bef4399994f470d60405160405180910390a38091505092915050565b3373ffffffffffffffffffffffffffffffffffffffff168273ffffffffffffffffffffffffffffffffffffffff161415610ac9576040517f08c379a0000000000000000000000000000000000000000000000000000000008152600401610ac0906120e4565b60405180910390fd5b80600560003373ffffffffffffffffffffffffffffffffffffffff1673ffffffffffffffffffffffffffffffffffffffff16815260200190815260200160002060008473ffffffffffffffffffffffffffffffffffffffff1673ffffffffffffffffffffffffffffffffffffffff16815260200190815260200160002060006101000a81548160ff0219169083151502179055508173ffffffffffffffffffffffffffffffffffffffff163373ffffffffffffffffffffffffffffffffffffffff167f17307eab39ab6107e8899845ad3d59bd9653f200f220920489ca2b5937696c3183604051610bba919061170b565b60405180910390a35050565b610bd03383610e84565b610c0f576040517f08c379a0000000000000000000000000000000000000000000000000000000008152600401610c0690612176565b60405180910390fd5b610c1b8484848461137c565b50505050565b6060610c2c82610dcd565b600760008381526020019081526020016000208054610c4a90611d46565b80601f0160208091040260200160405190810160405280929190818152602001828054610c7690611d46565b8015610cc35780601f10610c9857610100808354040283529160200191610cc3565b820191906000526020600020905b815481529060010190602001808311610ca657829003601f168201915b50505050509050919050565b6000600560008473ffffffffffffffffffffffffffffffffffffffff1673ffffffffffffffffffffffffffffffffffffffff16815260200190815260200160002060008373ffffffffffffffffffffffffffffffffffffffff1673ffffffffffffffffffffffffffffffffffffffff16815260200190815260200160002060009054906101000a900460ff16905092915050565b60007f01ffc9a7000000000000000000000000000000000000000000000000000000007bffffffffffffffffffffffffffffffffffffffffffffffffffffffff1916827bffffffffffffffffffffffffffffffffffffffffffffffffffffffff1916149050919050565b610dd681610e18565b610e15576040517f08c379a0000000000000000000000000000000000000000000000000000000008152600401610e0c90611fe6565b60405180910390fd5b50565b60008073ffffffffffffffffffffffffffffffffffffffff166002600084815260200190815260200160002060009054906101000a900473ffffffffffffffffffffffffffffffffffffffff1673ffffffffffffffffffffffffffffffffffffffff1614159050919050565b6000610e8f82610e18565b610ece576040517f08c379a0000000000000000000000000000000000000000000000000000000008152600401610ec590612208565b60405180910390fd5b6000610ed9836107b3565b90508073ffffffffffffffffffffffffffffffffffffffff168473ffffffffffffffffffffffffffffffffffffffff161480610f4857508373ffffffffffffffffffffffffffffffffffffffff16610f30846104a4565b73ffffffffffffffffffffffffffffffffffffffff16145b80610f595750610f588185610ccf565b5b91505092915050565b8273ffffffffffffffffffffffffffffffffffffffff16610f82826107b3565b73ffffffffffffffffffffffffffffffffffffffff1614610fd8576040517f08c379a0000000000000000000000000000000000000000000000000000000008152600401610fcf9061229a565b60405180910390fd5b600073ffffffffffffffffffffffffffffffffffffffff168273ffffffffffffffffffffffffffffffffffffffff161415611048576040517f08c379a000000000000000000000000000000000000000000000000000000000815260040161103f9061232c565b60405180910390fd5b611051816113d8565b6001600360008573ffffffffffffffffffffffffffffffffffffffff1673ffffffffffffffffffffffffffffffffffffffff168152602001908152602001600020600082825403925050819055506001600360008473ffffffffffffffffffffffffffffffffffffffff1673ffffffffffffffffffffffffffffffffffffffff16815260200190815260200160002060008282540192505081905550816002600083815260200190815260200160002060006101000a81548173ffffffffffffffffffffffffffffffffffffffff021916908373ffffffffffffffffffffffffffffffffffffffff160217905550808273ffffffffffffffffffffffffffffffffffffffff168473ffffffffffffffffffffffffffffffffffffffff167fddf252ad1be2c89b69c2b068fc378daa952ba7f163c4a11628f55a4df523b3ef60405160405180910390a4505050565b600081600001549050919050565b6001816000016000828254019250508190555050565b600073ffffffffffffffffffffffffffffffffffffffff168273ffffffffffffffffffffffffffffffffffffffff161415611233576040517f08c379a000000000000000000000000000000000000000000000000000000000815260040161122a90612398565b60405180910390fd5b61123c81610e18565b1561127c576040517f08c379a000000000000000000000000000000000000000000000000000000000815260040161127390612404565b60405180910390fd5b6001600360008473ffffffffffffffffffffffffffffffffffffffff1673ffffffffffffffffffffffffffffffffffffffff16815260200190815260200160002060008282540192505081905550816002600083815260200190815260200160002060006101000a81548173ffffffffffffffffffffffffffffffffffffffff021916908373ffffffffffffffffffffffffffffffffffffffff160217905550808273ffffffffffffffffffffffffffffffffffffffff16600073ffffffffffffffffffffffffffffffffffffffff167fddf252ad1be2c89b69c2b068fc378daa952ba7f163c4a11628f55a4df523b3ef60405160405180910390a45050565b611387848484610f62565b61139384848484611411565b6113d2576040517f08c379a00000000000000000000000000000000000000000000000000000000081526004016113c990612496565b60405180910390fd5b50505050565b6004600082815260200190815260200160002060006101000a81549073ffffffffffffffffffffffffffffffffffffffff021916905550565b60006114328473ffffffffffffffffffffffffffffffffffffffff16611599565b1561158c578373ffffffffffffffffffffffffffffffffffffffff1663150b7a0261145b6115ac565b8786866040518563ffffffff1660e01b815260040161147d949392919061250b565b6020604051808303816000875af19250505080156114b957506040513d601f19601f820116820180604052508101906114b6919061256c565b60015b61153c573d80600081146114e9576040519150601f19603f3d011682016040523d82523d6000602084013e6114ee565b606091505b50600081511415611534576040517f08c379a000000000000000000000000000000000000000000000000000000000815260040161152b9061260b565b60405180910390fd5b805181602001fd5b63150b7a0260e01b7bffffffffffffffffffffffffffffffffffffffffffffffffffffffff1916817bffffffffffffffffffffffffffffffffffffffffffffffffffffffff191614915050611591565b600190505b949350505050565b600080823b905060008111915050919050565b600033905090565b8280546115c090611d46565b90600052602060002090601f0160209004810192826115e25760008555611629565b82601f106115fb57805160ff1916838001178555611629565b82800160010185558215611629579182015b8281111561162857825182559160200191906001019061160d565b5b509050611636919061163a565b5090565b5b8082111561165357600081600090555060010161163b565b5090565b6000604051905090565b600080fd5b600080fd5b60007fffffffff0000000000000000000000000000000000000000000000000000000082169050919050565b6116a08161166b565b81146116ab57600080fd5b50565b6000813590506116bd81611697565b92915050565b6000602082840312156116d9576116d8611661565b5b60006116e7848285016116ae565b91505092915050565b60008115159050919050565b611705816116f0565b82525050565b600060208201905061172060008301846116fc565b92915050565b600081519050919050565b600082825260208201905092915050565b60005b83811015611760578082015181840152602081019050611745565b8381111561176f576000848401525b50505050565b6000601f19601f8301169050919050565b600061179182611726565b61179b8185611731565b93506117ab818560208601611742565b6117b481611775565b840191505092915050565b600060208201905081810360008301526117d98184611786565b905092915050565b6000819050919050565b6117f4816117e1565b81146117ff57600080fd5b50565b600081359050611811816117eb565b92915050565b60006020828403121561182d5761182c611661565b5b600061183b84828501611802565b91505092915050565b600073ffffffffffffffffffffffffffffffffffffffff82169050919050565b600061186f82611844565b9050919050565b61187f81611864565b82525050565b600060208201905061189a6000830184611876565b92915050565b6118a981611864565b81146118b457600080fd5b50565b6000813590506118c6816118a0565b92915050565b600080604083850312156118e3576118e2611661565b5b60006118f1858286016118b7565b925050602061190285828601611802565b9150509250929050565b60008060006060848603121561192557611924611661565b5b6000611933868287016118b7565b9350506020611944868287016118b7565b925050604061195586828701611802565b9150509250925092565b60006020828403121561197557611974611661565b5b6000611983848285016118b7565b91505092915050565b611995816117e1565b82525050565b60006020820190506119b0600083018461198c565b92915050565b600080fd5b600080fd5b7f4e487b7100000000000000000000000000000000000000000000000000000000600052604160045260246000fd5b6119f882611775565b810181811067ffffffffffffffff82111715611a1757611a166119c0565b5b80604052505050565b6000611a2a611657565b9050611a3682826119ef565b919050565b600067ffffffffffffffff821115611a5657611a556119c0565b5b611a5f82611775565b9050602081019050919050565b82818337600083830152505050565b6000611a8e611a8984611a3b565b611a20565b905082815260208101848484011115611aaa57611aa96119bb565b5b611ab5848285611a6c565b509392505050565b600082601f830112611ad257611ad16119b6565b5b8135611ae2848260208601611a7b565b91505092915050565b60008060408385031215611b0257611b01611661565b5b6000611b10858286016118b7565b925050602083013567ffffffffffffffff811115611b3157611b30611666565b5b611b3d85828601611abd565b9150509250929050565b611b50816116f0565b8114611b5b57600080fd5b50565b600081359050611b6d81611b47565b92915050565b60008060408385031215611b8a57611b89611661565b5b6000611b98858286016118b7565b9250506020611ba985828601611b5e565b9150509250929050565b600067ffffffffffffffff821115611bce57611bcd6119c0565b5b611bd782611775565b9050602081019050919050565b6000611bf7611bf284611bb3565b611a20565b905082815260208101848484011115611c1357611c126119bb565b5b611c1e848285611a6c565b509392505050565b600082601f830112611c3b57611c3a6119b6565b5b8135611c4b848260208601611be4565b91505092915050565b60008060008060808587031215611c6e57611c6d611661565b5b6000611c7c878288016118b7565b9450506020611c8d878288016118b7565b9350506040611c9e87828801611802565b925050606085013567ffffffffffffffff811115611cbf57611cbe611666565b5b611ccb87828801611c26565b91505092959194509250565b60008060408385031215611cee57611ced611661565b5b6000611cfc858286016118b7565b9250506020611d0d858286016118b7565b9150509250929050565b7f4e487b7100000000000000000000000000000000000000000000000000000000600052602260045260246000fd5b60006002820490506001821680611d5e57607f821691505b60208210811415611d7257611d71611d17565b5b50919050565b7f617070726f76616c20746f2063757272656e74206f776e657200000000000000600082015250565b6000611dae601983611731565b9150611db982611d78565b602082019050919050565b60006020820190508181036000830152611ddd81611da1565b9050919050565b7f617070726f76656420717565727920666f72206e6f6e6578697374656e74207460008201527f6f6b656e00000000000000000000000000000000000000000000000000000000602082015250565b6000611e40602483611731565b9150611e4b82611de4565b604082019050919050565b60006020820190508181036000830152611e6f81611e33565b9050919050565b7f617070726f76652063616c6c6572206973206e6f74206f776e6572206e6f722060008201527f617070726f76656420666f7220616c6c00000000000000000000000000000000602082015250565b6000611ed2603083611731565b9150611edd82611e76565b604082019050919050565b60006020820190508181036000830152611f0181611ec5565b9050919050565b7f7472616e736665722063616c6c6572206973206e6f7420746865206f776e657260008201527f206e6f7220617070726f76656400000000000000000000000000000000000000602082015250565b6000611f64602d83611731565b9150611f6f82611f08565b604082019050919050565b60006020820190508181036000830152611f9381611f57565b9050919050565b7f4552433732313a20696e76616c696420746f6b656e2049440000000000000000600082015250565b6000611fd0601883611731565b9150611fdb82611f9a565b602082019050919050565b60006020820190508181036000830152611fff81611fc3565b9050919050565b7f4552433732313a2061646472657373207a65726f206973206e6f74206120766160008201527f6c6964206f776e65720000000000000000000000000000000000000000000000602082015250565b6000612062602983611731565b915061206d82612006565b604082019050919050565b6000602082019050818103600083015261209181612055565b9050919050565b7f617070726f766520746f2063616c6c6572000000000000000000000000000000600082015250565b60006120ce601183611731565b91506120d982612098565b602082019050919050565b600060208201905081810360008301526120fd816120c1565b9050919050565b7f4552433732313a2063616c6c6572206973206e6f7420746f6b656e206f776e6560008201527f72206f7220617070726f76656400000000000000000000000000000000000000602082015250565b6000612160602d83611731565b915061216b82612104565b604082019050919050565b6000602082019050818103600083015261218f81612153565b9050919050565b7f6f70657261746f7220716575727920666f72206e6f6e6578697374656e74207460008201527f6f6b656e00000000000000000000000000000000000000000000000000000000602082015250565b60006121f2602483611731565b91506121fd82612196565b604082019050919050565b60006020820190508181036000830152612221816121e5565b9050919050565b7f4552433732313a207472616e736665722066726f6d20696e636f72726563742060008201527f6f776e6572000000000000000000000000000000000000000000000000000000602082015250565b6000612284602583611731565b915061228f82612228565b604082019050919050565b600060208201905081810360008301526122b381612277565b9050919050565b7f4552433732313a207472616e7366657220746f20746865207a65726f2061646460008201527f7265737300000000000000000000000000000000000000000000000000000000602082015250565b6000612316602483611731565b9150612321826122ba565b604082019050919050565b6000602082019050818103600083015261234581612309565b9050919050565b7f6d696e7420746f20746865207a65726f20616464726573730000000000000000600082015250565b6000612382601883611731565b915061238d8261234c565b602082019050919050565b600060208201905081810360008301526123b181612375565b9050919050565b7f746f6b656e20616c7265616479206d696e746564000000000000000000000000600082015250565b60006123ee601483611731565b91506123f9826123b8565b602082019050919050565b6000602082019050818103600083015261241d816123e1565b9050919050565b7f7472616e7366657220746f206e6f6e204552433732315265636569766572206960008201527f6d706c656d656e74657200000000000000000000000000000000000000000000602082015250565b6000612480602a83611731565b915061248b82612424565b604082019050919050565b600060208201905081810360008301526124af81612473565b9050919050565b600081519050919050565b600082825260208201905092915050565b60006124dd826124b6565b6124e781856124c1565b93506124f7818560208601611742565b61250081611775565b840191505092915050565b60006080820190506125206000830187611876565b61252d6020830186611876565b61253a604083018561198c565b818103606083015261254c81846124d2565b905095945050505050565b60008151905061256681611697565b92915050565b60006020828403121561258257612581611661565b5b600061259084828501612557565b91505092915050565b7f4552433732313a207472616e7366657220746f206e6f6e20455243373231526560008201527f63656976657220696d706c656d656e7465720000000000000000000000000000602082015250565b60006125f5603283611731565b915061260082612599565b604082019050919050565b60006020820190508181036000830152612624816125e8565b905091905056fea26469706673582212201d1407d3ad28f91ff3e204f24e9e4a67a206d9c3ed9a6c79f5756d267d414d0464736f6c634300080a0033",
  "immutableReferences": {},
  "source": "// SPDX-License-Identifier: MIT\r\npragma solidity >=0.4.22 <0.9.0;\r\n\r\nimport \"./token/ERC721/ERC721.sol\";\r\nimport \"./utils/Counters.sol\";\r\nimport \"./utils/Strings.sol\";\r\nimport \"./NFTTransactionLogger.sol\";\r\n\r\n/**\r\n * PJT  -  2) NFT Creator \r\n *         .\r\n */\r\ncontract HereNFT is ERC721 {\r\n    using Counters for Counters.Counter;\r\n    using Strings for uint256;\r\n\r\n    Counters.Counter private _tokenIds;\r\n    //uint256 private _tokenIds;\r\n    mapping(uint256 => string) tokenURIs;\r\n\r\n   event createNFT (uint256 indexed _tokenId, address indexed _owner);\r\n\r\n    constructor() ERC721(\"HERE-NFT\", \"TBD\") {}\r\n\r\n    function current() public view returns (uint256) {\r\n        return _tokenIds.current();\r\n    }\r\n\r\n    function tokenURI(uint256 tokenId) public view override returns (string memory) {\r\n        // TODO\r\n        _requireMinted(tokenId);\r\n        return tokenURIs[tokenId];\r\n    }\r\n\r\n    function create(address to, string memory _tokenURI) public returns (uint256) {\r\n        // TODO\r\n        _tokenIds.increment();\r\n\r\n        uint256 newItemId = _tokenIds.current();\r\n        _mint(to, newItemId);\r\n        tokenURIs[newItemId] = _tokenURI;\r\n        emit createNFT(newItemId, to);\r\n        return newItemId;\r\n    }\r\n}",
  "sourcePath": "C:\\SSAFY\\workspace\\work-blockchain\\S08P22B209\\here-blockchain\\contracts\\HereNFT.sol",
  "compiler": {
    "name": "solc",
    "version": "0.8.10+commit.fc410830.Emscripten.clang"
  },
  "schemaVersion": "3.4.4",
  "updatedAt": "2023-03-20T16:44:34.498Z",
  "networkType": "ethereum",
  "devdoc": {
    "kind": "dev",
    "methods": {
      "approve(address,uint256)": {
        "details": "See {IERC721-approve}."
      },
      "balanceOf(address)": {
        "details": "See {IERC721-balanceOf}."
      },
      "getApproved(uint256)": {
        "details": "See {IERC721-getApproved}."
      },
      "isApprovedForAll(address,address)": {
        "details": "See {IERC721-isApprovedForAll}."
      },
      "name()": {
        "details": "See {IERC721Metadata-name}."
      },
      "ownerOf(uint256)": {
        "details": "See {IERC721-ownerOf}."
      },
      "safeTransferFrom(address,address,uint256)": {
        "details": "See {IERC721-safeTransferFrom}."
      },
      "safeTransferFrom(address,address,uint256,bytes)": {
        "details": "See {IERC721-safeTransferFrom}."
      },
      "setApprovalForAll(address,bool)": {
        "details": "See {IERC721-setApprovalForAll}."
      },
      "supportsInterface(bytes4)": {
        "details": "See {IERC165-supportsInterface}."
      },
      "symbol()": {
        "details": "See {IERC721Metadata-symbol}."
      },
      "tokenURI(uint256)": {
        "details": "See {IERC721Metadata-tokenURI}."
      },
      "transferFrom(address,address,uint256)": {
        "details": "See {IERC721-transferFrom}."
      }
    },
    "version": 1
  },
  "userdoc": {
    "kind": "user",
    "methods": {},
    "notice": "PJT  -  2) NFT Creator          .",
    "version": 1
  }
}