{
  "contractName": "HereNFT",
  "abi": [
    {
      "inputs": [],
      "stateMutability": "nonpayable",
      "type": "constructor"
    },
    {
      "anonymous": false,
      "inputs": [
        {
          "indexed": true,
          "internalType": "address",
          "name": "owner",
          "type": "address"
        },
        {
          "indexed": true,
          "internalType": "address",
          "name": "approved",
          "type": "address"
        },
        {
          "indexed": true,
          "internalType": "uint256",
          "name": "tokenId",
          "type": "uint256"
        }
      ],
      "name": "Approval",
      "type": "event"
    },
    {
      "anonymous": false,
      "inputs": [
        {
          "indexed": true,
          "internalType": "address",
          "name": "owner",
          "type": "address"
        },
        {
          "indexed": true,
          "internalType": "address",
          "name": "operator",
          "type": "address"
        },
        {
          "indexed": false,
          "internalType": "bool",
          "name": "approved",
          "type": "bool"
        }
      ],
      "name": "ApprovalForAll",
      "type": "event"
    },
    {
      "anonymous": false,
      "inputs": [
        {
          "indexed": true,
          "internalType": "uint256",
          "name": "tokenId",
          "type": "uint256"
        },
        {
          "indexed": false,
          "internalType": "string",
          "name": "metadataURI",
          "type": "string"
        },
        {
          "indexed": false,
          "internalType": "bytes",
          "name": "metadata",
          "type": "bytes"
        },
        {
          "indexed": false,
          "internalType": "bytes32",
          "name": "metadataHash",
          "type": "bytes32"
        },
        {
          "indexed": false,
          "internalType": "bytes32",
          "name": "inputHash",
          "type": "bytes32"
        }
      ],
      "name": "NFTVerified",
      "type": "event"
    },
    {
      "anonymous": false,
      "inputs": [
        {
          "indexed": true,
          "internalType": "address",
          "name": "from",
          "type": "address"
        },
        {
          "indexed": true,
          "internalType": "address",
          "name": "to",
          "type": "address"
        },
        {
          "indexed": true,
          "internalType": "uint256",
          "name": "tokenId",
          "type": "uint256"
        }
      ],
      "name": "Transfer",
      "type": "event"
    },
    {
      "anonymous": false,
      "inputs": [
        {
          "indexed": true,
          "internalType": "uint256",
          "name": "_tokenId",
          "type": "uint256"
        },
        {
          "indexed": true,
          "internalType": "address",
          "name": "_owner",
          "type": "address"
        }
      ],
      "name": "createNFT",
      "type": "event"
    },
    {
      "inputs": [
        {
          "internalType": "address",
          "name": "to",
          "type": "address"
        },
        {
          "internalType": "uint256",
          "name": "tokenId",
          "type": "uint256"
        }
      ],
      "name": "approve",
      "outputs": [],
      "stateMutability": "nonpayable",
      "type": "function"
    },
    {
      "inputs": [
        {
          "internalType": "address",
          "name": "owner",
          "type": "address"
        }
      ],
      "name": "balanceOf",
      "outputs": [
        {
          "internalType": "uint256",
          "name": "",
          "type": "uint256"
        }
      ],
      "stateMutability": "view",
      "type": "function",
      "constant": true
    },
    {
      "inputs": [
        {
          "internalType": "uint256",
          "name": "tokenId",
          "type": "uint256"
        }
      ],
      "name": "getApproved",
      "outputs": [
        {
          "internalType": "address",
          "name": "",
          "type": "address"
        }
      ],
      "stateMutability": "view",
      "type": "function",
      "constant": true
    },
    {
      "inputs": [
        {
          "internalType": "address",
          "name": "owner",
          "type": "address"
        },
        {
          "internalType": "address",
          "name": "operator",
          "type": "address"
        }
      ],
      "name": "isApprovedForAll",
      "outputs": [
        {
          "internalType": "bool",
          "name": "",
          "type": "bool"
        }
      ],
      "stateMutability": "view",
      "type": "function",
      "constant": true
    },
    {
      "inputs": [],
      "name": "name",
      "outputs": [
        {
          "internalType": "string",
          "name": "",
          "type": "string"
        }
      ],
      "stateMutability": "view",
      "type": "function",
      "constant": true
    },
    {
      "inputs": [
        {
          "internalType": "uint256",
          "name": "",
          "type": "uint256"
        }
      ],
      "name": "nfts",
      "outputs": [
        {
          "internalType": "string",
          "name": "tokenURI",
          "type": "string"
        },
        {
          "internalType": "bytes32",
          "name": "hashValue",
          "type": "bytes32"
        }
      ],
      "stateMutability": "view",
      "type": "function",
      "constant": true
    },
    {
      "inputs": [
        {
          "internalType": "uint256",
          "name": "tokenId",
          "type": "uint256"
        }
      ],
      "name": "ownerOf",
      "outputs": [
        {
          "internalType": "address",
          "name": "",
          "type": "address"
        }
      ],
      "stateMutability": "view",
      "type": "function",
      "constant": true
    },
    {
      "inputs": [
        {
          "internalType": "address",
          "name": "from",
          "type": "address"
        },
        {
          "internalType": "address",
          "name": "to",
          "type": "address"
        },
        {
          "internalType": "uint256",
          "name": "tokenId",
          "type": "uint256"
        }
      ],
      "name": "safeTransferFrom",
      "outputs": [],
      "stateMutability": "nonpayable",
      "type": "function"
    },
    {
      "inputs": [
        {
          "internalType": "address",
          "name": "from",
          "type": "address"
        },
        {
          "internalType": "address",
          "name": "to",
          "type": "address"
        },
        {
          "internalType": "uint256",
          "name": "tokenId",
          "type": "uint256"
        },
        {
          "internalType": "bytes",
          "name": "_data",
          "type": "bytes"
        }
      ],
      "name": "safeTransferFrom",
      "outputs": [],
      "stateMutability": "nonpayable",
      "type": "function"
    },
    {
      "inputs": [
        {
          "internalType": "address",
          "name": "operator",
          "type": "address"
        },
        {
          "internalType": "bool",
          "name": "approved",
          "type": "bool"
        }
      ],
      "name": "setApprovalForAll",
      "outputs": [],
      "stateMutability": "nonpayable",
      "type": "function"
    },
    {
      "inputs": [
        {
          "internalType": "bytes4",
          "name": "interfaceId",
          "type": "bytes4"
        }
      ],
      "name": "supportsInterface",
      "outputs": [
        {
          "internalType": "bool",
          "name": "",
          "type": "bool"
        }
      ],
      "stateMutability": "view",
      "type": "function",
      "constant": true
    },
    {
      "inputs": [],
      "name": "symbol",
      "outputs": [
        {
          "internalType": "string",
          "name": "",
          "type": "string"
        }
      ],
      "stateMutability": "view",
      "type": "function",
      "constant": true
    },
    {
      "inputs": [
        {
          "internalType": "uint256",
          "name": "",
          "type": "uint256"
        }
      ],
      "name": "transactionLogs",
      "outputs": [
        {
          "internalType": "address",
          "name": "from",
          "type": "address"
        },
        {
          "internalType": "address",
          "name": "to",
          "type": "address"
        },
        {
          "internalType": "uint256",
          "name": "tokenId",
          "type": "uint256"
        },
        {
          "internalType": "uint256",
          "name": "timestamp",
          "type": "uint256"
        }
      ],
      "stateMutability": "view",
      "type": "function",
      "constant": true
    },
    {
      "inputs": [
        {
          "internalType": "address",
          "name": "from",
          "type": "address"
        },
        {
          "internalType": "address",
          "name": "to",
          "type": "address"
        },
        {
          "internalType": "uint256",
          "name": "tokenId",
          "type": "uint256"
        }
      ],
      "name": "transferFrom",
      "outputs": [],
      "stateMutability": "nonpayable",
      "type": "function"
    },
    {
      "inputs": [
        {
          "internalType": "address",
          "name": "_from",
          "type": "address"
        },
        {
          "internalType": "address",
          "name": "_to",
          "type": "address"
        },
        {
          "internalType": "uint256",
          "name": "_tokenId",
          "type": "uint256"
        },
        {
          "internalType": "uint256",
          "name": "_timestamp",
          "type": "uint256"
        }
      ],
      "name": "donateNFT",
      "outputs": [],
      "stateMutability": "payable",
      "type": "function",
      "payable": true
    },
    {
      "inputs": [
        {
          "internalType": "uint256",
          "name": "_tokenId",
          "type": "uint256"
        }
      ],
      "name": "getTransactionLogs",
      "outputs": [
        {
          "components": [
            {
              "internalType": "address",
              "name": "from",
              "type": "address"
            },
            {
              "internalType": "address",
              "name": "to",
              "type": "address"
            },
            {
              "internalType": "uint256",
              "name": "tokenId",
              "type": "uint256"
            },
            {
              "internalType": "uint256",
              "name": "timestamp",
              "type": "uint256"
            }
          ],
          "internalType": "struct HereNFT.TransactionLog[]",
          "name": "",
          "type": "tuple[]"
        }
      ],
      "stateMutability": "view",
      "type": "function",
      "constant": true
    },
    {
      "inputs": [],
      "name": "current",
      "outputs": [
        {
          "internalType": "uint256",
          "name": "",
          "type": "uint256"
        }
      ],
      "stateMutability": "view",
      "type": "function",
      "constant": true
    },
    {
      "inputs": [
        {
          "internalType": "uint256",
          "name": "tokenId",
          "type": "uint256"
        }
      ],
      "name": "tokenURI",
      "outputs": [
        {
          "internalType": "string",
          "name": "",
          "type": "string"
        }
      ],
      "stateMutability": "view",
      "type": "function",
      "constant": true
    },
    {
      "inputs": [
        {
          "internalType": "address",
          "name": "to",
          "type": "address"
        },
        {
          "internalType": "string",
          "name": "_tokenURI",
          "type": "string"
        }
      ],
      "name": "create",
      "outputs": [
        {
          "internalType": "uint256",
          "name": "",
          "type": "uint256"
        }
      ],
      "stateMutability": "nonpayable",
      "type": "function"
    },
    {
      "inputs": [
        {
          "internalType": "uint256",
          "name": "tokenId",
          "type": "uint256"
        }
      ],
      "name": "getHashValue",
      "outputs": [
        {
          "internalType": "bytes32",
          "name": "",
          "type": "bytes32"
        }
      ],
      "stateMutability": "view",
      "type": "function",
      "constant": true
    },
    {
      "inputs": [
        {
          "internalType": "uint256",
          "name": "tokenId",
          "type": "uint256"
        },
        {
          "internalType": "bytes32",
          "name": "hash",
          "type": "bytes32"
        }
      ],
      "name": "verifyNFT",
      "outputs": [
        {
          "internalType": "bool",
          "name": "",
          "type": "bool"
        }
      ],
      "stateMutability": "view",
      "type": "function",
      "constant": true
    }
  ],
  "bytecode": "0x60806040523480156200001157600080fd5b506040518060400160405280600881526020017f484552452d4e46540000000000000000000000000000000000000000000000008152506040518060400160405280600381526020017f5442440000000000000000000000000000000000000000000000000000000000815250816000908051906020019062000096929190620000b8565b508060019080519060200190620000af929190620000b8565b505050620001cd565b828054620000c69062000197565b90600052602060002090601f016020900481019282620000ea576000855562000136565b82601f106200010557805160ff191683800117855562000136565b8280016001018555821562000136579182015b828111156200013557825182559160200191906001019062000118565b5b50905062000145919062000149565b5090565b5b80821115620001645760008160009055506001016200014a565b5090565b7f4e487b7100000000000000000000000000000000000000000000000000000000600052602260045260246000fd5b60006002820490506001821680620001b057607f821691505b60208210811415620001c757620001c662000168565b5b50919050565b61342080620001dd6000396000f3fe60806040526004361061012a5760003560e01c806395d89b41116100ab578063c87b56dd1161006f578063c87b56dd14610429578063e2b553a414610466578063e985e9c514610482578063f1f69f22146104bf578063f5545e96146104ff578063fb13effc1461053c5761012a565b806395d89b41146103445780639fa6a6e31461036f578063a15ab08d1461039a578063a22cb465146103d7578063b88d4fde146104005761012a565b8063265aa621116100f2578063265aa6211461022657806342842e0e146102645780636352211e1461028d5780636fbf29e6146102ca57806370a08231146103075761012a565b806301ffc9a71461012f57806306fdde031461016c578063081812fc14610197578063095ea7b3146101d457806323b872dd146101fd575b600080fd5b34801561013b57600080fd5b5061015660048036038101906101519190611f6b565b610579565b6040516101639190611fb3565b60405180910390f35b34801561017857600080fd5b5061018161065b565b60405161018e9190612067565b60405180910390f35b3480156101a357600080fd5b506101be60048036038101906101b991906120bf565b6106ed565b6040516101cb919061212d565b60405180910390f35b3480156101e057600080fd5b506101fb60048036038101906101f69190612174565b610733565b005b34801561020957600080fd5b50610224600480360381019061021f91906121b4565b610928565b005b34801561023257600080fd5b5061024d600480360381019061024891906120bf565b610981565b60405161025b929190612220565b60405180910390f35b34801561027057600080fd5b5061028b600480360381019061028691906121b4565b610a2d565b005b34801561029957600080fd5b506102b460048036038101906102af91906120bf565b610a4d565b6040516102c1919061212d565b60405180910390f35b3480156102d657600080fd5b506102f160048036038101906102ec91906120bf565b610aff565b6040516102fe9190612250565b60405180910390f35b34801561031357600080fd5b5061032e6004803603810190610329919061226b565b610b1f565b60405161033b91906122a7565b60405180910390f35b34801561035057600080fd5b50610359610bd7565b6040516103669190612067565b60405180910390f35b34801561037b57600080fd5b50610384610c69565b60405161039191906122a7565b60405180910390f35b3480156103a657600080fd5b506103c160048036038101906103bc91906123f7565b610c7a565b6040516103ce91906122a7565b60405180910390f35b3480156103e357600080fd5b506103fe60048036038101906103f9919061247f565b610d35565b005b34801561040c57600080fd5b5061042760048036038101906104229190612560565b610ea1565b005b34801561043557600080fd5b50610450600480360381019061044b91906120bf565b610efc565b60405161045d9190612067565b60405180910390f35b610480600480360381019061047b91906125e3565b610faa565b005b34801561048e57600080fd5b506104a960048036038101906104a4919061264a565b6111fb565b6040516104b69190611fb3565b60405180910390f35b3480156104cb57600080fd5b506104e660048036038101906104e191906120bf565b61128f565b6040516104f6949392919061268a565b60405180910390f35b34801561050b57600080fd5b50610526600480360381019061052191906126fb565b61130f565b6040516105339190611fb3565b60405180910390f35b34801561054857600080fd5b50610563600480360381019061055e91906120bf565b611385565b604051610570919061285d565b60405180910390f35b60007f80ac58cd000000000000000000000000000000000000000000000000000000007bffffffffffffffffffffffffffffffffffffffffffffffffffffffff1916827bffffffffffffffffffffffffffffffffffffffffffffffffffffffff1916148061064457507f5b5e139f000000000000000000000000000000000000000000000000000000007bffffffffffffffffffffffffffffffffffffffffffffffffffffffff1916827bffffffffffffffffffffffffffffffffffffffffffffffffffffffff1916145b806106545750610653826115b7565b5b9050919050565b60606000805461066a906128ae565b80601f0160208091040260200160405190810160405280929190818152602001828054610696906128ae565b80156106e35780601f106106b8576101008083540402835291602001916106e3565b820191906000526020600020905b8154815290600101906020018083116106c657829003601f168201915b5050505050905090565b60006106f882611621565b6004600083815260200190815260200160002060009054906101000a900473ffffffffffffffffffffffffffffffffffffffff169050919050565b600061073e82610a4d565b90508073ffffffffffffffffffffffffffffffffffffffff168373ffffffffffffffffffffffffffffffffffffffff1614156107af576040517f08c379a00000000000000000000000000000000000000000000000000000000081526004016107a69061292c565b60405180910390fd5b6107b88261166c565b6107f7576040517f08c379a00000000000000000000000000000000000000000000000000000000081526004016107ee906129be565b60405180910390fd5b8073ffffffffffffffffffffffffffffffffffffffff163373ffffffffffffffffffffffffffffffffffffffff161480610837575061083681336111fb565b5b610876576040517f08c379a000000000000000000000000000000000000000000000000000000000815260040161086d90612a50565b60405180910390fd5b826004600084815260200190815260200160002060006101000a81548173ffffffffffffffffffffffffffffffffffffffff021916908373ffffffffffffffffffffffffffffffffffffffff160217905550818373ffffffffffffffffffffffffffffffffffffffff168273ffffffffffffffffffffffffffffffffffffffff167f8c5be1e5ebec7d5bd14f71427d1e84f3dd0314c0f7b2291e5b200ac8c7c3b92560405160405180910390a4505050565b61093233826116d8565b610971576040517f08c379a000000000000000000000000000000000000000000000000000000000815260040161096890612ae2565b60405180910390fd5b61097c8383836117b6565b505050565b60086020528060005260406000206000915090508060000180546109a4906128ae565b80601f01602080910402602001604051908101604052809291908181526020018280546109d0906128ae565b8015610a1d5780601f106109f257610100808354040283529160200191610a1d565b820191906000526020600020905b815481529060010190602001808311610a0057829003601f168201915b5050505050908060010154905082565b610a4883838360405180602001604052806000815250610ea1565b505050565b6000806002600084815260200190815260200160002060009054906101000a900473ffffffffffffffffffffffffffffffffffffffff169050600073ffffffffffffffffffffffffffffffffffffffff168173ffffffffffffffffffffffffffffffffffffffff161415610af6576040517f08c379a0000000000000000000000000000000000000000000000000000000008152600401610aed90612b4e565b60405180910390fd5b80915050919050565b600060086000838152602001908152602001600020600101549050919050565b60008073ffffffffffffffffffffffffffffffffffffffff168273ffffffffffffffffffffffffffffffffffffffff161415610b90576040517f08c379a0000000000000000000000000000000000000000000000000000000008152600401610b8790612be0565b60405180910390fd5b600360008373ffffffffffffffffffffffffffffffffffffffff1673ffffffffffffffffffffffffffffffffffffffff168152602001908152602001600020549050919050565b606060018054610be6906128ae565b80601f0160208091040260200160405190810160405280929190818152602001828054610c12906128ae565b8015610c5f5780601f10610c3457610100808354040283529160200191610c5f565b820191906000526020600020905b815481529060010190602001808311610c4257829003601f168201915b5050505050905090565b6000610c7560066119f3565b905090565b6000610c866006611a01565b6000610c9260066119f3565b9050610c9e8482611a17565b82600760008381526020019081526020016000209080519060200190610cc5929190611e08565b506000838051906020012090506000604051806040016040528086815260200183815250905080600860008581526020019081526020016000206000820151816000019080519060200190610d1b929190611e08565b506020820151816001015590505082935050505092915050565b3373ffffffffffffffffffffffffffffffffffffffff168273ffffffffffffffffffffffffffffffffffffffff161415610da4576040517f08c379a0000000000000000000000000000000000000000000000000000000008152600401610d9b90612c4c565b60405180910390fd5b80600560003373ffffffffffffffffffffffffffffffffffffffff1673ffffffffffffffffffffffffffffffffffffffff16815260200190815260200160002060008473ffffffffffffffffffffffffffffffffffffffff1673ffffffffffffffffffffffffffffffffffffffff16815260200190815260200160002060006101000a81548160ff0219169083151502179055508173ffffffffffffffffffffffffffffffffffffffff163373ffffffffffffffffffffffffffffffffffffffff167f17307eab39ab6107e8899845ad3d59bd9653f200f220920489ca2b5937696c3183604051610e959190611fb3565b60405180910390a35050565b610eab33836116d8565b610eea576040517f08c379a0000000000000000000000000000000000000000000000000000000008152600401610ee190612cde565b60405180910390fd5b610ef684848484611bd0565b50505050565b6060610f0782611621565b600760008381526020019081526020016000208054610f25906128ae565b80601f0160208091040260200160405190810160405280929190818152602001828054610f51906128ae565b8015610f9e5780601f10610f7357610100808354040283529160200191610f9e565b820191906000526020600020905b815481529060010190602001808311610f8157829003601f168201915b50505050509050919050565b600073ffffffffffffffffffffffffffffffffffffffff168473ffffffffffffffffffffffffffffffffffffffff16141561101a576040517f08c379a000000000000000000000000000000000000000000000000000000000815260040161101190612d4a565b60405180910390fd5b600073ffffffffffffffffffffffffffffffffffffffff168373ffffffffffffffffffffffffffffffffffffffff16141561108a576040517f08c379a000000000000000000000000000000000000000000000000000000000815260040161108190612db6565b60405180910390fd5b60008214156110ce576040517f08c379a00000000000000000000000000000000000000000000000000000000081526004016110c590612e22565b60405180910390fd5b6110d9848484610a2d565b600960405180608001604052808673ffffffffffffffffffffffffffffffffffffffff1681526020018573ffffffffffffffffffffffffffffffffffffffff16815260200184815260200183815250908060018154018082558091505060019003906000526020600020906004020160009091909190915060008201518160000160006101000a81548173ffffffffffffffffffffffffffffffffffffffff021916908373ffffffffffffffffffffffffffffffffffffffff16021790555060208201518160010160006101000a81548173ffffffffffffffffffffffffffffffffffffffff021916908373ffffffffffffffffffffffffffffffffffffffff1602179055506040820151816002015560608201518160030155505050505050565b6000600560008473ffffffffffffffffffffffffffffffffffffffff1673ffffffffffffffffffffffffffffffffffffffff16815260200190815260200160002060008373ffffffffffffffffffffffffffffffffffffffff1673ffffffffffffffffffffffffffffffffffffffff16815260200190815260200160002060009054906101000a900460ff16905092915050565b6009818154811061129f57600080fd5b90600052602060002090600402016000915090508060000160009054906101000a900473ffffffffffffffffffffffffffffffffffffffff16908060010160009054906101000a900473ffffffffffffffffffffffffffffffffffffffff16908060020154908060030154905084565b600061131a8361166c565b611359576040517f08c379a000000000000000000000000000000000000000000000000000000000815260040161135090612e8e565b60405180910390fd5b600061136484610efc565b90506000818051906020012090506000848214905080935050505092915050565b60606000805b6009805490508110156113e75783600982815481106113ad576113ac612eae565b5b90600052602060002090600402016002015414156113d45781806113d090612f0c565b9250505b80806113df90612f0c565b91505061138b565b5060008167ffffffffffffffff811115611404576114036122cc565b5b60405190808252806020026020018201604052801561143d57816020015b61142a611e8e565b8152602001906001900390816114225790505b5090506000805b6009805490508110156115ab57856009828154811061146657611465612eae565b5b9060005260206000209060040201600201541415611598576009818154811061149257611491612eae565b5b90600052602060002090600402016040518060800160405290816000820160009054906101000a900473ffffffffffffffffffffffffffffffffffffffff1673ffffffffffffffffffffffffffffffffffffffff1673ffffffffffffffffffffffffffffffffffffffff1681526020016001820160009054906101000a900473ffffffffffffffffffffffffffffffffffffffff1673ffffffffffffffffffffffffffffffffffffffff1673ffffffffffffffffffffffffffffffffffffffff1681526020016002820154815260200160038201548152505083838151811061157e5761157d612eae565b5b6020026020010181905250818061159490612f0c565b9250505b80806115a390612f0c565b915050611444565b50819350505050919050565b60007f01ffc9a7000000000000000000000000000000000000000000000000000000007bffffffffffffffffffffffffffffffffffffffffffffffffffffffff1916827bffffffffffffffffffffffffffffffffffffffffffffffffffffffff1916149050919050565b61162a8161166c565b611669576040517f08c379a000000000000000000000000000000000000000000000000000000000815260040161166090612b4e565b60405180910390fd5b50565b60008073ffffffffffffffffffffffffffffffffffffffff166002600084815260200190815260200160002060009054906101000a900473ffffffffffffffffffffffffffffffffffffffff1673ffffffffffffffffffffffffffffffffffffffff1614159050919050565b60006116e38261166c565b611722576040517f08c379a000000000000000000000000000000000000000000000000000000000815260040161171990612fc7565b60405180910390fd5b600061172d83610a4d565b90508073ffffffffffffffffffffffffffffffffffffffff168473ffffffffffffffffffffffffffffffffffffffff16148061179c57508373ffffffffffffffffffffffffffffffffffffffff16611784846106ed565b73ffffffffffffffffffffffffffffffffffffffff16145b806117ad57506117ac81856111fb565b5b91505092915050565b8273ffffffffffffffffffffffffffffffffffffffff166117d682610a4d565b73ffffffffffffffffffffffffffffffffffffffff161461182c576040517f08c379a000000000000000000000000000000000000000000000000000000000815260040161182390613059565b60405180910390fd5b600073ffffffffffffffffffffffffffffffffffffffff168273ffffffffffffffffffffffffffffffffffffffff16141561189c576040517f08c379a0000000000000000000000000000000000000000000000000000000008152600401611893906130eb565b60405180910390fd5b6118a581611c2c565b6001600360008573ffffffffffffffffffffffffffffffffffffffff1673ffffffffffffffffffffffffffffffffffffffff168152602001908152602001600020600082825403925050819055506001600360008473ffffffffffffffffffffffffffffffffffffffff1673ffffffffffffffffffffffffffffffffffffffff16815260200190815260200160002060008282540192505081905550816002600083815260200190815260200160002060006101000a81548173ffffffffffffffffffffffffffffffffffffffff021916908373ffffffffffffffffffffffffffffffffffffffff160217905550808273ffffffffffffffffffffffffffffffffffffffff168473ffffffffffffffffffffffffffffffffffffffff167fddf252ad1be2c89b69c2b068fc378daa952ba7f163c4a11628f55a4df523b3ef60405160405180910390a4505050565b600081600001549050919050565b6001816000016000828254019250508190555050565b600073ffffffffffffffffffffffffffffffffffffffff168273ffffffffffffffffffffffffffffffffffffffff161415611a87576040517f08c379a0000000000000000000000000000000000000000000000000000000008152600401611a7e90613157565b60405180910390fd5b611a908161166c565b15611ad0576040517f08c379a0000000000000000000000000000000000000000000000000000000008152600401611ac7906131c3565b60405180910390fd5b6001600360008473ffffffffffffffffffffffffffffffffffffffff1673ffffffffffffffffffffffffffffffffffffffff16815260200190815260200160002060008282540192505081905550816002600083815260200190815260200160002060006101000a81548173ffffffffffffffffffffffffffffffffffffffff021916908373ffffffffffffffffffffffffffffffffffffffff160217905550808273ffffffffffffffffffffffffffffffffffffffff16600073ffffffffffffffffffffffffffffffffffffffff167fddf252ad1be2c89b69c2b068fc378daa952ba7f163c4a11628f55a4df523b3ef60405160405180910390a45050565b611bdb8484846117b6565b611be784848484611c65565b611c26576040517f08c379a0000000000000000000000000000000000000000000000000000000008152600401611c1d90613255565b60405180910390fd5b50505050565b6004600082815260200190815260200160002060006101000a81549073ffffffffffffffffffffffffffffffffffffffff021916905550565b6000611c868473ffffffffffffffffffffffffffffffffffffffff16611ded565b15611de0578373ffffffffffffffffffffffffffffffffffffffff1663150b7a02611caf611e00565b8786866040518563ffffffff1660e01b8152600401611cd194939291906132ca565b6020604051808303816000875af1925050508015611d0d57506040513d601f19601f82011682018060405250810190611d0a919061332b565b60015b611d90573d8060008114611d3d576040519150601f19603f3d011682016040523d82523d6000602084013e611d42565b606091505b50600081511415611d88576040517f08c379a0000000000000000000000000000000000000000000000000000000008152600401611d7f906133ca565b60405180910390fd5b805181602001fd5b63150b7a0260e01b7bffffffffffffffffffffffffffffffffffffffffffffffffffffffff1916817bffffffffffffffffffffffffffffffffffffffffffffffffffffffff191614915050611de5565b600190505b949350505050565b600080823b905060008111915050919050565b600033905090565b828054611e14906128ae565b90600052602060002090601f016020900481019282611e365760008555611e7d565b82601f10611e4f57805160ff1916838001178555611e7d565b82800160010185558215611e7d579182015b82811115611e7c578251825591602001919060010190611e61565b5b509050611e8a9190611ee2565b5090565b6040518060800160405280600073ffffffffffffffffffffffffffffffffffffffff168152602001600073ffffffffffffffffffffffffffffffffffffffff16815260200160008152602001600081525090565b5b80821115611efb576000816000905550600101611ee3565b5090565b6000604051905090565b600080fd5b600080fd5b60007fffffffff0000000000000000000000000000000000000000000000000000000082169050919050565b611f4881611f13565b8114611f5357600080fd5b50565b600081359050611f6581611f3f565b92915050565b600060208284031215611f8157611f80611f09565b5b6000611f8f84828501611f56565b91505092915050565b60008115159050919050565b611fad81611f98565b82525050565b6000602082019050611fc86000830184611fa4565b92915050565b600081519050919050565b600082825260208201905092915050565b60005b83811015612008578082015181840152602081019050611fed565b83811115612017576000848401525b50505050565b6000601f19601f8301169050919050565b600061203982611fce565b6120438185611fd9565b9350612053818560208601611fea565b61205c8161201d565b840191505092915050565b60006020820190508181036000830152612081818461202e565b905092915050565b6000819050919050565b61209c81612089565b81146120a757600080fd5b50565b6000813590506120b981612093565b92915050565b6000602082840312156120d5576120d4611f09565b5b60006120e3848285016120aa565b91505092915050565b600073ffffffffffffffffffffffffffffffffffffffff82169050919050565b6000612117826120ec565b9050919050565b6121278161210c565b82525050565b6000602082019050612142600083018461211e565b92915050565b6121518161210c565b811461215c57600080fd5b50565b60008135905061216e81612148565b92915050565b6000806040838503121561218b5761218a611f09565b5b60006121998582860161215f565b92505060206121aa858286016120aa565b9150509250929050565b6000806000606084860312156121cd576121cc611f09565b5b60006121db8682870161215f565b93505060206121ec8682870161215f565b92505060406121fd868287016120aa565b9150509250925092565b6000819050919050565b61221a81612207565b82525050565b6000604082019050818103600083015261223a818561202e565b90506122496020830184612211565b9392505050565b60006020820190506122656000830184612211565b92915050565b60006020828403121561228157612280611f09565b5b600061228f8482850161215f565b91505092915050565b6122a181612089565b82525050565b60006020820190506122bc6000830184612298565b92915050565b600080fd5b600080fd5b7f4e487b7100000000000000000000000000000000000000000000000000000000600052604160045260246000fd5b6123048261201d565b810181811067ffffffffffffffff82111715612323576123226122cc565b5b80604052505050565b6000612336611eff565b905061234282826122fb565b919050565b600067ffffffffffffffff821115612362576123616122cc565b5b61236b8261201d565b9050602081019050919050565b82818337600083830152505050565b600061239a61239584612347565b61232c565b9050828152602081018484840111156123b6576123b56122c7565b5b6123c1848285612378565b509392505050565b600082601f8301126123de576123dd6122c2565b5b81356123ee848260208601612387565b91505092915050565b6000806040838503121561240e5761240d611f09565b5b600061241c8582860161215f565b925050602083013567ffffffffffffffff81111561243d5761243c611f0e565b5b612449858286016123c9565b9150509250929050565b61245c81611f98565b811461246757600080fd5b50565b60008135905061247981612453565b92915050565b6000806040838503121561249657612495611f09565b5b60006124a48582860161215f565b92505060206124b58582860161246a565b9150509250929050565b600067ffffffffffffffff8211156124da576124d96122cc565b5b6124e38261201d565b9050602081019050919050565b60006125036124fe846124bf565b61232c565b90508281526020810184848401111561251f5761251e6122c7565b5b61252a848285612378565b509392505050565b600082601f830112612547576125466122c2565b5b81356125578482602086016124f0565b91505092915050565b6000806000806080858703121561257a57612579611f09565b5b60006125888782880161215f565b94505060206125998782880161215f565b93505060406125aa878288016120aa565b925050606085013567ffffffffffffffff8111156125cb576125ca611f0e565b5b6125d787828801612532565b91505092959194509250565b600080600080608085870312156125fd576125fc611f09565b5b600061260b8782880161215f565b945050602061261c8782880161215f565b935050604061262d878288016120aa565b925050606061263e878288016120aa565b91505092959194509250565b6000806040838503121561266157612660611f09565b5b600061266f8582860161215f565b92505060206126808582860161215f565b9150509250929050565b600060808201905061269f600083018761211e565b6126ac602083018661211e565b6126b96040830185612298565b6126c66060830184612298565b95945050505050565b6126d881612207565b81146126e357600080fd5b50565b6000813590506126f5816126cf565b92915050565b6000806040838503121561271257612711611f09565b5b6000612720858286016120aa565b9250506020612731858286016126e6565b9150509250929050565b600081519050919050565b600082825260208201905092915050565b6000819050602082019050919050565b6127708161210c565b82525050565b61277f81612089565b82525050565b60808201600082015161279b6000850182612767565b5060208201516127ae6020850182612767565b5060408201516127c16040850182612776565b5060608201516127d46060850182612776565b50505050565b60006127e68383612785565b60808301905092915050565b6000602082019050919050565b600061280a8261273b565b6128148185612746565b935061281f83612757565b8060005b8381101561285057815161283788826127da565b9750612842836127f2565b925050600181019050612823565b5085935050505092915050565b6000602082019050818103600083015261287781846127ff565b905092915050565b7f4e487b7100000000000000000000000000000000000000000000000000000000600052602260045260246000fd5b600060028204905060018216806128c657607f821691505b602082108114156128da576128d961287f565b5b50919050565b7f617070726f76616c20746f2063757272656e74206f776e657200000000000000600082015250565b6000612916601983611fd9565b9150612921826128e0565b602082019050919050565b6000602082019050818103600083015261294581612909565b9050919050565b7f617070726f76656420717565727920666f72206e6f6e6578697374656e74207460008201527f6f6b656e00000000000000000000000000000000000000000000000000000000602082015250565b60006129a8602483611fd9565b91506129b38261294c565b604082019050919050565b600060208201905081810360008301526129d78161299b565b9050919050565b7f617070726f76652063616c6c6572206973206e6f74206f776e6572206e6f722060008201527f617070726f76656420666f7220616c6c00000000000000000000000000000000602082015250565b6000612a3a603083611fd9565b9150612a45826129de565b604082019050919050565b60006020820190508181036000830152612a6981612a2d565b9050919050565b7f7472616e736665722063616c6c6572206973206e6f7420746865206f776e657260008201527f206e6f7220617070726f76656400000000000000000000000000000000000000602082015250565b6000612acc602d83611fd9565b9150612ad782612a70565b604082019050919050565b60006020820190508181036000830152612afb81612abf565b9050919050565b7f4552433732313a20696e76616c696420746f6b656e2049440000000000000000600082015250565b6000612b38601883611fd9565b9150612b4382612b02565b602082019050919050565b60006020820190508181036000830152612b6781612b2b565b9050919050565b7f4552433732313a2061646472657373207a65726f206973206e6f74206120766160008201527f6c6964206f776e65720000000000000000000000000000000000000000000000602082015250565b6000612bca602983611fd9565b9150612bd582612b6e565b604082019050919050565b60006020820190508181036000830152612bf981612bbd565b9050919050565b7f617070726f766520746f2063616c6c6572000000000000000000000000000000600082015250565b6000612c36601183611fd9565b9150612c4182612c00565b602082019050919050565b60006020820190508181036000830152612c6581612c29565b9050919050565b7f4552433732313a2063616c6c6572206973206e6f7420746f6b656e206f776e6560008201527f72206f7220617070726f76656400000000000000000000000000000000000000602082015250565b6000612cc8602d83611fd9565b9150612cd382612c6c565b604082019050919050565b60006020820190508181036000830152612cf781612cbb565b9050919050565b7f496e76616c696420627579657220616464726573730000000000000000000000600082015250565b6000612d34601583611fd9565b9150612d3f82612cfe565b602082019050919050565b60006020820190508181036000830152612d6381612d27565b9050919050565b7f496e76616c69642073656c6c6572206164647265737300000000000000000000600082015250565b6000612da0601683611fd9565b9150612dab82612d6a565b602082019050919050565b60006020820190508181036000830152612dcf81612d93565b9050919050565b7f496e76616c696420746f6b656e20494400000000000000000000000000000000600082015250565b6000612e0c601083611fd9565b9150612e1782612dd6565b602082019050919050565b60006020820190508181036000830152612e3b81612dff565b9050919050565b7f4e465420646f6573206e6f742065786973740000000000000000000000000000600082015250565b6000612e78601283611fd9565b9150612e8382612e42565b602082019050919050565b60006020820190508181036000830152612ea781612e6b565b9050919050565b7f4e487b7100000000000000000000000000000000000000000000000000000000600052603260045260246000fd5b7f4e487b7100000000000000000000000000000000000000000000000000000000600052601160045260246000fd5b6000612f1782612089565b91507fffffffffffffffffffffffffffffffffffffffffffffffffffffffffffffffff821415612f4a57612f49612edd565b5b600182019050919050565b7f6f70657261746f7220716575727920666f72206e6f6e6578697374656e74207460008201527f6f6b656e00000000000000000000000000000000000000000000000000000000602082015250565b6000612fb1602483611fd9565b9150612fbc82612f55565b604082019050919050565b60006020820190508181036000830152612fe081612fa4565b9050919050565b7f4552433732313a207472616e736665722066726f6d20696e636f72726563742060008201527f6f776e6572000000000000000000000000000000000000000000000000000000602082015250565b6000613043602583611fd9565b915061304e82612fe7565b604082019050919050565b6000602082019050818103600083015261307281613036565b9050919050565b7f4552433732313a207472616e7366657220746f20746865207a65726f2061646460008201527f7265737300000000000000000000000000000000000000000000000000000000602082015250565b60006130d5602483611fd9565b91506130e082613079565b604082019050919050565b60006020820190508181036000830152613104816130c8565b9050919050565b7f6d696e7420746f20746865207a65726f20616464726573730000000000000000600082015250565b6000613141601883611fd9565b915061314c8261310b565b602082019050919050565b6000602082019050818103600083015261317081613134565b9050919050565b7f746f6b656e20616c7265616479206d696e746564000000000000000000000000600082015250565b60006131ad601483611fd9565b91506131b882613177565b602082019050919050565b600060208201905081810360008301526131dc816131a0565b9050919050565b7f7472616e7366657220746f206e6f6e204552433732315265636569766572206960008201527f6d706c656d656e74657200000000000000000000000000000000000000000000602082015250565b600061323f602a83611fd9565b915061324a826131e3565b604082019050919050565b6000602082019050818103600083015261326e81613232565b9050919050565b600081519050919050565b600082825260208201905092915050565b600061329c82613275565b6132a68185613280565b93506132b6818560208601611fea565b6132bf8161201d565b840191505092915050565b60006080820190506132df600083018761211e565b6132ec602083018661211e565b6132f96040830185612298565b818103606083015261330b8184613291565b905095945050505050565b60008151905061332581611f3f565b92915050565b60006020828403121561334157613340611f09565b5b600061334f84828501613316565b91505092915050565b7f4552433732313a207472616e7366657220746f206e6f6e20455243373231526560008201527f63656976657220696d706c656d656e7465720000000000000000000000000000602082015250565b60006133b4603283611fd9565b91506133bf82613358565b604082019050919050565b600060208201905081810360008301526133e3816133a7565b905091905056fea264697066735822122082fe93a4454771bd6a74998448c4fd5e1fdff61266feaf278f2743f9c861cef664736f6c634300080a0033",
  "immutableReferences": {},
  "source": "// SPDX-License-Identifier: MIT\r\npragma solidity >=0.4.22 <0.9.0;\r\n\r\nimport \"./token/ERC721/ERC721.sol\";\r\nimport \"./utils/Counters.sol\";\r\nimport \"./utils/Strings.sol\";\r\n\r\n/**\r\n * PJT  -  2) NFT Creator \r\n *         .\r\n */\r\ncontract HereNFT is ERC721 {\r\n    \r\n    using Counters for Counters.Counter;\r\n    using Strings for uint256;\r\n\r\n    Counters.Counter private _tokenIds;\r\n    mapping(uint256 => string) tokenURIs;\r\n\r\n    event createNFT (uint256 indexed _tokenId, address indexed _owner);\r\n\r\n    constructor() ERC721(\"HERE-NFT\", \"TBD\") {}\r\n\r\n    // NFT \r\n    struct NFT {\r\n        string tokenURI;\r\n        bytes32 hashValue;\r\n    }\r\n    mapping(uint256 => NFT) public nfts;\r\n\r\n    //  \r\n    struct TransactionLog {\r\n        address from;\r\n        address to;\r\n        uint256 tokenId;\r\n        uint256 timestamp;\r\n    }\r\n    //  \r\n    TransactionLog[] public transactionLogs;\r\n\r\n    // NFT    \r\n    function donateNFT(\r\n        address _from,\r\n        address _to,\r\n        uint256 _tokenId,\r\n        uint256 _timestamp\r\n    ) public payable {\r\n        require(_from != address(0), \"Invalid buyer address\");\r\n        require(_to != address(0), \"Invalid seller address\");\r\n        require(_tokenId != 0, \"Invalid token ID\");\r\n\r\n        // Transfer ownership of NFT from seller to buyer\r\n        //emit Transfer(_seller, _buyer, _tokenId);\r\n        safeTransferFrom(_from, _to, _tokenId);\r\n\r\n        // Add transaction log to the transactionLogs array\r\n        transactionLogs.push(\r\n            TransactionLog({\r\n                from: _from,\r\n                to: _to,\r\n                tokenId: _tokenId,\r\n                timestamp: _timestamp\r\n            })\r\n        );\r\n\r\n    }\r\n\r\n    //  NFT    \r\n    function getTransactionLogs(uint256 _tokenId)\r\n        external\r\n        view\r\n        returns (TransactionLog[] memory)\r\n    {\r\n        uint256 count = 0;\r\n        for (uint256 i = 0; i < transactionLogs.length; i++) {\r\n            if (transactionLogs[i].tokenId == _tokenId) {\r\n                count++;\r\n            }\r\n        }\r\n        TransactionLog[] memory logs = new TransactionLog[](count);\r\n        uint256 index = 0;\r\n        for (uint256 i = 0; i < transactionLogs.length; i++) {\r\n            if (transactionLogs[i].tokenId == _tokenId) {\r\n                logs[index] = transactionLogs[i];\r\n                index++;\r\n            }\r\n        }\r\n        return logs;\r\n    }\r\n\r\n    function current() public view returns (uint256) {\r\n        return _tokenIds.current();\r\n    }\r\n\r\n    function tokenURI(uint256 tokenId) public view override returns (string memory) {\r\n        // TODO\r\n        _requireMinted(tokenId);\r\n        return tokenURIs[tokenId];\r\n    }\r\n\r\n    function create(address to, string memory _tokenURI) public returns (uint256) {\r\n\r\n        // TODO\r\n        _tokenIds.increment();\r\n\r\n        uint256 newItemId = _tokenIds.current();\r\n        _mint(to, newItemId);\r\n        tokenURIs[newItemId] = _tokenURI;\r\n\r\n        bytes32 hashValue = keccak256(bytes(_tokenURI));\r\n        NFT memory nft = NFT({\r\n            tokenURI: _tokenURI,\r\n            hashValue: hashValue\r\n        });\r\n        nfts[newItemId] = nft;\r\n        //emit createNFT(newItemId, to);\r\n        return newItemId;\r\n    }\r\n\r\n    function getHashValue(uint256 tokenId) public view returns(bytes32) {\r\n        return nfts[tokenId].hashValue;\r\n    }\r\n\r\n    event NFTVerified(uint256 indexed tokenId, string metadataURI, bytes metadata, bytes32 metadataHash, bytes32 inputHash);\r\n\r\n    function verifyNFT(uint256 tokenId, bytes32 hash) public view returns (bool) {\r\n        require(_exists(tokenId), \"NFT does not exist\");\r\n\r\n        // NFT Metadata URI \r\n        string memory metadataURI = tokenURI(tokenId);\r\n\r\n        // JSON   \r\n        bytes32 transactionHash = keccak256(bytes(metadataURI));\r\n\r\n         //      \r\n        bool verified = transactionHash == hash;\r\n\r\n\r\n        return verified;\r\n    }\r\n}",
  "sourcePath": "C:\\SSAFY\\workspace\\blockchain\\S08P22B209\\here-blockchain\\contracts\\HereNFT.sol",
  "compiler": {
    "name": "solc",
    "version": "0.8.10+commit.fc410830.Emscripten.clang"
  },
  "schemaVersion": "3.4.4",
  "updatedAt": "2023-03-23T00:47:05.187Z",
  "networkType": "ethereum",
  "devdoc": {
    "kind": "dev",
    "methods": {
      "approve(address,uint256)": {
        "details": "See {IERC721-approve}."
      },
      "balanceOf(address)": {
        "details": "See {IERC721-balanceOf}."
      },
      "getApproved(uint256)": {
        "details": "See {IERC721-getApproved}."
      },
      "isApprovedForAll(address,address)": {
        "details": "See {IERC721-isApprovedForAll}."
      },
      "name()": {
        "details": "See {IERC721Metadata-name}."
      },
      "ownerOf(uint256)": {
        "details": "See {IERC721-ownerOf}."
      },
      "safeTransferFrom(address,address,uint256)": {
        "details": "See {IERC721-safeTransferFrom}."
      },
      "safeTransferFrom(address,address,uint256,bytes)": {
        "details": "See {IERC721-safeTransferFrom}."
      },
      "setApprovalForAll(address,bool)": {
        "details": "See {IERC721-setApprovalForAll}."
      },
      "supportsInterface(bytes4)": {
        "details": "See {IERC165-supportsInterface}."
      },
      "symbol()": {
        "details": "See {IERC721Metadata-symbol}."
      },
      "tokenURI(uint256)": {
        "details": "See {IERC721Metadata-tokenURI}."
      },
      "transferFrom(address,address,uint256)": {
        "details": "See {IERC721-transferFrom}."
      }
    },
    "version": 1
  },
  "userdoc": {
    "kind": "user",
    "methods": {},
    "notice": "PJT  -  2) NFT Creator          .",
    "version": 1
  }
}