{
  "contractName": "HereNFT",
  "abi": [
    {
      "inputs": [],
      "stateMutability": "nonpayable",
      "type": "constructor"
    },
    {
      "anonymous": false,
      "inputs": [
        {
          "indexed": true,
          "internalType": "address",
          "name": "owner",
          "type": "address"
        },
        {
          "indexed": true,
          "internalType": "address",
          "name": "approved",
          "type": "address"
        },
        {
          "indexed": true,
          "internalType": "uint256",
          "name": "tokenId",
          "type": "uint256"
        }
      ],
      "name": "Approval",
      "type": "event"
    },
    {
      "anonymous": false,
      "inputs": [
        {
          "indexed": true,
          "internalType": "address",
          "name": "owner",
          "type": "address"
        },
        {
          "indexed": true,
          "internalType": "address",
          "name": "operator",
          "type": "address"
        },
        {
          "indexed": false,
          "internalType": "bool",
          "name": "approved",
          "type": "bool"
        }
      ],
      "name": "ApprovalForAll",
      "type": "event"
    },
    {
      "anonymous": false,
      "inputs": [
        {
          "indexed": true,
          "internalType": "uint256",
          "name": "tokenId",
          "type": "uint256"
        },
        {
          "indexed": false,
          "internalType": "string",
          "name": "metadataURI",
          "type": "string"
        },
        {
          "indexed": false,
          "internalType": "bytes",
          "name": "metadata",
          "type": "bytes"
        },
        {
          "indexed": false,
          "internalType": "bytes32",
          "name": "metadataHash",
          "type": "bytes32"
        },
        {
          "indexed": false,
          "internalType": "bytes32",
          "name": "inputHash",
          "type": "bytes32"
        }
      ],
      "name": "NFTVerified",
      "type": "event"
    },
    {
      "anonymous": false,
      "inputs": [
        {
          "indexed": true,
          "internalType": "address",
          "name": "from",
          "type": "address"
        },
        {
          "indexed": true,
          "internalType": "address",
          "name": "to",
          "type": "address"
        },
        {
          "indexed": true,
          "internalType": "uint256",
          "name": "tokenId",
          "type": "uint256"
        }
      ],
      "name": "Transfer",
      "type": "event"
    },
    {
      "anonymous": false,
      "inputs": [
        {
          "indexed": true,
          "internalType": "uint256",
          "name": "_tokenId",
          "type": "uint256"
        },
        {
          "indexed": true,
          "internalType": "address",
          "name": "_owner",
          "type": "address"
        }
      ],
      "name": "createNFT",
      "type": "event"
    },
    {
      "inputs": [
        {
          "internalType": "address",
          "name": "to",
          "type": "address"
        },
        {
          "internalType": "uint256",
          "name": "tokenId",
          "type": "uint256"
        }
      ],
      "name": "approve",
      "outputs": [],
      "stateMutability": "nonpayable",
      "type": "function"
    },
    {
      "inputs": [
        {
          "internalType": "address",
          "name": "owner",
          "type": "address"
        }
      ],
      "name": "balanceOf",
      "outputs": [
        {
          "internalType": "uint256",
          "name": "",
          "type": "uint256"
        }
      ],
      "stateMutability": "view",
      "type": "function",
      "constant": true
    },
    {
      "inputs": [
        {
          "internalType": "uint256",
          "name": "tokenId",
          "type": "uint256"
        }
      ],
      "name": "getApproved",
      "outputs": [
        {
          "internalType": "address",
          "name": "",
          "type": "address"
        }
      ],
      "stateMutability": "view",
      "type": "function",
      "constant": true
    },
    {
      "inputs": [
        {
          "internalType": "address",
          "name": "owner",
          "type": "address"
        },
        {
          "internalType": "address",
          "name": "operator",
          "type": "address"
        }
      ],
      "name": "isApprovedForAll",
      "outputs": [
        {
          "internalType": "bool",
          "name": "",
          "type": "bool"
        }
      ],
      "stateMutability": "view",
      "type": "function",
      "constant": true
    },
    {
      "inputs": [],
      "name": "name",
      "outputs": [
        {
          "internalType": "string",
          "name": "",
          "type": "string"
        }
      ],
      "stateMutability": "view",
      "type": "function",
      "constant": true
    },
    {
      "inputs": [
        {
          "internalType": "uint256",
          "name": "tokenId",
          "type": "uint256"
        }
      ],
      "name": "ownerOf",
      "outputs": [
        {
          "internalType": "address",
          "name": "",
          "type": "address"
        }
      ],
      "stateMutability": "view",
      "type": "function",
      "constant": true
    },
    {
      "inputs": [
        {
          "internalType": "address",
          "name": "from",
          "type": "address"
        },
        {
          "internalType": "address",
          "name": "to",
          "type": "address"
        },
        {
          "internalType": "uint256",
          "name": "tokenId",
          "type": "uint256"
        }
      ],
      "name": "safeTransferFrom",
      "outputs": [],
      "stateMutability": "nonpayable",
      "type": "function"
    },
    {
      "inputs": [
        {
          "internalType": "address",
          "name": "from",
          "type": "address"
        },
        {
          "internalType": "address",
          "name": "to",
          "type": "address"
        },
        {
          "internalType": "uint256",
          "name": "tokenId",
          "type": "uint256"
        },
        {
          "internalType": "bytes",
          "name": "_data",
          "type": "bytes"
        }
      ],
      "name": "safeTransferFrom",
      "outputs": [],
      "stateMutability": "nonpayable",
      "type": "function"
    },
    {
      "inputs": [
        {
          "internalType": "address",
          "name": "operator",
          "type": "address"
        },
        {
          "internalType": "bool",
          "name": "approved",
          "type": "bool"
        }
      ],
      "name": "setApprovalForAll",
      "outputs": [],
      "stateMutability": "nonpayable",
      "type": "function"
    },
    {
      "inputs": [
        {
          "internalType": "bytes4",
          "name": "interfaceId",
          "type": "bytes4"
        }
      ],
      "name": "supportsInterface",
      "outputs": [
        {
          "internalType": "bool",
          "name": "",
          "type": "bool"
        }
      ],
      "stateMutability": "view",
      "type": "function",
      "constant": true
    },
    {
      "inputs": [],
      "name": "symbol",
      "outputs": [
        {
          "internalType": "string",
          "name": "",
          "type": "string"
        }
      ],
      "stateMutability": "view",
      "type": "function",
      "constant": true
    },
    {
      "inputs": [
        {
          "internalType": "uint256",
          "name": "",
          "type": "uint256"
        }
      ],
      "name": "transactionLogs",
      "outputs": [
        {
          "internalType": "address",
          "name": "from",
          "type": "address"
        },
        {
          "internalType": "address",
          "name": "to",
          "type": "address"
        },
        {
          "internalType": "uint256",
          "name": "tokenId",
          "type": "uint256"
        },
        {
          "internalType": "uint256",
          "name": "timestamp",
          "type": "uint256"
        }
      ],
      "stateMutability": "view",
      "type": "function",
      "constant": true
    },
    {
      "inputs": [
        {
          "internalType": "address",
          "name": "from",
          "type": "address"
        },
        {
          "internalType": "address",
          "name": "to",
          "type": "address"
        },
        {
          "internalType": "uint256",
          "name": "tokenId",
          "type": "uint256"
        }
      ],
      "name": "transferFrom",
      "outputs": [],
      "stateMutability": "nonpayable",
      "type": "function"
    },
    {
      "inputs": [
        {
          "internalType": "address",
          "name": "_from",
          "type": "address"
        },
        {
          "internalType": "address",
          "name": "_to",
          "type": "address"
        },
        {
          "internalType": "uint256",
          "name": "_tokenId",
          "type": "uint256"
        },
        {
          "internalType": "uint256",
          "name": "_timestamp",
          "type": "uint256"
        }
      ],
      "name": "donateNFT",
      "outputs": [],
      "stateMutability": "payable",
      "type": "function",
      "payable": true
    },
    {
      "inputs": [
        {
          "internalType": "uint256",
          "name": "_tokenId",
          "type": "uint256"
        }
      ],
      "name": "getTransactionLogs",
      "outputs": [
        {
          "components": [
            {
              "internalType": "address",
              "name": "from",
              "type": "address"
            },
            {
              "internalType": "address",
              "name": "to",
              "type": "address"
            },
            {
              "internalType": "uint256",
              "name": "tokenId",
              "type": "uint256"
            },
            {
              "internalType": "uint256",
              "name": "timestamp",
              "type": "uint256"
            }
          ],
          "internalType": "struct HereNFT.TransactionLog[]",
          "name": "",
          "type": "tuple[]"
        }
      ],
      "stateMutability": "view",
      "type": "function",
      "constant": true
    },
    {
      "inputs": [],
      "name": "current",
      "outputs": [
        {
          "internalType": "uint256",
          "name": "",
          "type": "uint256"
        }
      ],
      "stateMutability": "view",
      "type": "function",
      "constant": true
    },
    {
      "inputs": [
        {
          "internalType": "uint256",
          "name": "tokenId",
          "type": "uint256"
        }
      ],
      "name": "tokenURI",
      "outputs": [
        {
          "internalType": "string",
          "name": "",
          "type": "string"
        }
      ],
      "stateMutability": "view",
      "type": "function",
      "constant": true
    },
    {
      "inputs": [
        {
          "internalType": "address",
          "name": "to",
          "type": "address"
        },
        {
          "internalType": "string",
          "name": "_tokenURI1",
          "type": "string"
        },
        {
          "internalType": "string",
          "name": "_tokenURI2",
          "type": "string"
        }
      ],
      "name": "create",
      "outputs": [
        {
          "internalType": "uint256",
          "name": "",
          "type": "uint256"
        },
        {
          "internalType": "uint256",
          "name": "",
          "type": "uint256"
        }
      ],
      "stateMutability": "nonpayable",
      "type": "function"
    },
    {
      "inputs": [],
      "name": "getAllNFTs",
      "outputs": [
        {
          "components": [
            {
              "internalType": "string",
              "name": "tokenURI",
              "type": "string"
            },
            {
              "internalType": "bytes32",
              "name": "hashValue",
              "type": "bytes32"
            }
          ],
          "internalType": "struct HereNFT.NFT[]",
          "name": "",
          "type": "tuple[]"
        }
      ],
      "stateMutability": "view",
      "type": "function",
      "constant": true
    },
    {
      "inputs": [
        {
          "internalType": "uint256",
          "name": "tokenId",
          "type": "uint256"
        }
      ],
      "name": "getHashValue",
      "outputs": [
        {
          "internalType": "bytes32",
          "name": "",
          "type": "bytes32"
        }
      ],
      "stateMutability": "view",
      "type": "function",
      "constant": true
    },
    {
      "inputs": [
        {
          "internalType": "uint256",
          "name": "tokenId",
          "type": "uint256"
        },
        {
          "internalType": "bytes32",
          "name": "hash",
          "type": "bytes32"
        }
      ],
      "name": "verifyNFT",
      "outputs": [
        {
          "internalType": "bool",
          "name": "",
          "type": "bool"
        }
      ],
      "stateMutability": "view",
      "type": "function",
      "constant": true
    }
  ],
  "bytecode": "0x60806040523480156200001157600080fd5b506040518060400160405280600881526020017f484552452d4e46540000000000000000000000000000000000000000000000008152506040518060400160405280600381526020017f5442440000000000000000000000000000000000000000000000000000000000815250816000908051906020019062000096929190620000b8565b508060019080519060200190620000af929190620000b8565b505050620001cd565b828054620000c69062000197565b90600052602060002090601f016020900481019282620000ea576000855562000136565b82601f106200010557805160ff191683800117855562000136565b8280016001018555821562000136579182015b828111156200013557825182559160200191906001019062000118565b5b50905062000145919062000149565b5090565b5b80821115620001645760008160009055506001016200014a565b5090565b7f4e487b7100000000000000000000000000000000000000000000000000000000600052602260045260246000fd5b60006002820490506001821680620001b057607f821691505b60208210811415620001c757620001c662000168565b5b50919050565b6137b680620001dd6000396000f3fe60806040526004361061012a5760003560e01c806395d89b41116100ab578063e0391b091161006f578063e0391b0914610429578063e2b553a414610454578063e985e9c514610470578063f1f69f22146104ad578063f5545e96146104ed578063fb13effc1461052a5761012a565b806395d89b41146103445780639fa6a6e31461036f578063a22cb4651461039a578063b88d4fde146103c3578063c87b56dd146103ec5761012a565b806342842e0e116100f257806342842e0e146102265780636352211e1461024f5780636fbf29e61461028c57806370a08231146102c9578063796d5836146103065761012a565b806301ffc9a71461012f57806306fdde031461016c578063081812fc14610197578063095ea7b3146101d457806323b872dd146101fd575b600080fd5b34801561013b57600080fd5b506101566004803603810190610151919061215f565b610567565b60405161016391906121a7565b60405180910390f35b34801561017857600080fd5b50610181610649565b60405161018e919061225b565b60405180910390f35b3480156101a357600080fd5b506101be60048036038101906101b991906122b3565b6106db565b6040516101cb9190612321565b60405180910390f35b3480156101e057600080fd5b506101fb60048036038101906101f69190612368565b610721565b005b34801561020957600080fd5b50610224600480360381019061021f91906123a8565b610916565b005b34801561023257600080fd5b5061024d600480360381019061024891906123a8565b61096f565b005b34801561025b57600080fd5b50610276600480360381019061027191906122b3565b61098f565b6040516102839190612321565b60405180910390f35b34801561029857600080fd5b506102b360048036038101906102ae91906122b3565b610a41565b6040516102c09190612414565b60405180910390f35b3480156102d557600080fd5b506102f060048036038101906102eb919061242f565b610a61565b6040516102fd919061246b565b60405180910390f35b34801561031257600080fd5b5061032d600480360381019061032891906125bb565b610b19565b60405161033b929190612646565b60405180910390f35b34801561035057600080fd5b50610359610cdc565b604051610366919061225b565b60405180910390f35b34801561037b57600080fd5b50610384610d6e565b604051610391919061246b565b60405180910390f35b3480156103a657600080fd5b506103c160048036038101906103bc919061269b565b610d7f565b005b3480156103cf57600080fd5b506103ea60048036038101906103e5919061277c565b610eeb565b005b3480156103f857600080fd5b50610413600480360381019061040e91906122b3565b610f46565b604051610420919061225b565b60405180910390f35b34801561043557600080fd5b5061043e610ff4565b60405161044b9190612957565b60405180910390f35b61046e60048036038101906104699190612979565b611181565b005b34801561047c57600080fd5b50610497600480360381019061049291906129e0565b6113d2565b6040516104a491906121a7565b60405180910390f35b3480156104b957600080fd5b506104d460048036038101906104cf91906122b3565b611466565b6040516104e49493929190612a20565b60405180910390f35b3480156104f957600080fd5b50610514600480360381019061050f9190612a91565b6114e6565b60405161052191906121a7565b60405180910390f35b34801561053657600080fd5b50610551600480360381019061054c91906122b3565b61155c565b60405161055e9190612bf3565b60405180910390f35b60007f80ac58cd000000000000000000000000000000000000000000000000000000007bffffffffffffffffffffffffffffffffffffffffffffffffffffffff1916827bffffffffffffffffffffffffffffffffffffffffffffffffffffffff1916148061063257507f5b5e139f000000000000000000000000000000000000000000000000000000007bffffffffffffffffffffffffffffffffffffffffffffffffffffffff1916827bffffffffffffffffffffffffffffffffffffffffffffffffffffffff1916145b8061064257506106418261178e565b5b9050919050565b60606000805461065890612c44565b80601f016020809104026020016040519081016040528092919081815260200182805461068490612c44565b80156106d15780601f106106a6576101008083540402835291602001916106d1565b820191906000526020600020905b8154815290600101906020018083116106b457829003601f168201915b5050505050905090565b60006106e6826117f8565b6004600083815260200190815260200160002060009054906101000a900473ffffffffffffffffffffffffffffffffffffffff169050919050565b600061072c8261098f565b90508073ffffffffffffffffffffffffffffffffffffffff168373ffffffffffffffffffffffffffffffffffffffff16141561079d576040517f08c379a000000000000000000000000000000000000000000000000000000000815260040161079490612cc2565b60405180910390fd5b6107a682611843565b6107e5576040517f08c379a00000000000000000000000000000000000000000000000000000000081526004016107dc90612d54565b60405180910390fd5b8073ffffffffffffffffffffffffffffffffffffffff163373ffffffffffffffffffffffffffffffffffffffff161480610825575061082481336113d2565b5b610864576040517f08c379a000000000000000000000000000000000000000000000000000000000815260040161085b90612de6565b60405180910390fd5b826004600084815260200190815260200160002060006101000a81548173ffffffffffffffffffffffffffffffffffffffff021916908373ffffffffffffffffffffffffffffffffffffffff160217905550818373ffffffffffffffffffffffffffffffffffffffff168273ffffffffffffffffffffffffffffffffffffffff167f8c5be1e5ebec7d5bd14f71427d1e84f3dd0314c0f7b2291e5b200ac8c7c3b92560405160405180910390a4505050565b61092033826118af565b61095f576040517f08c379a000000000000000000000000000000000000000000000000000000000815260040161095690612e78565b60405180910390fd5b61096a83838361198d565b505050565b61098a83838360405180602001604052806000815250610eeb565b505050565b6000806002600084815260200190815260200160002060009054906101000a900473ffffffffffffffffffffffffffffffffffffffff169050600073ffffffffffffffffffffffffffffffffffffffff168173ffffffffffffffffffffffffffffffffffffffff161415610a38576040517f08c379a0000000000000000000000000000000000000000000000000000000008152600401610a2f90612ee4565b60405180910390fd5b80915050919050565b600060096000838152602001908152602001600020600101549050919050565b60008073ffffffffffffffffffffffffffffffffffffffff168273ffffffffffffffffffffffffffffffffffffffff161415610ad2576040517f08c379a0000000000000000000000000000000000000000000000000000000008152600401610ac990612f76565b60405180910390fd5b600360008373ffffffffffffffffffffffffffffffffffffffff1673ffffffffffffffffffffffffffffffffffffffff168152602001908152602001600020549050919050565b600080610b266006611bca565b6000610b326006611be0565b9050610b3e8682611bee565b84600760008381526020019081526020016000209080519060200190610b65929190611fdf565b5060008580519060200120905060006040518060400160405280888152602001838152509050600883908060018154018082558091505060019003906000526020600020016000909190919091505580600960008581526020019081526020016000206000820151816000019080519060200190610be4929190611fdf565b5060208201518160010155905050610bfc6006611bca565b6000610c086006611be0565b9050610c148982611bee565b86600760008381526020019081526020016000209080519060200190610c3b929190611fdf565b50600087805190602001209050600060405180604001604052808a8152602001838152509050600883908060018154018082558091505060019003906000526020600020016000909190919091505580600960008581526020019081526020016000206000820151816000019080519060200190610cba929190611fdf565b5060208201518160010155905050858397509750505050505050935093915050565b606060018054610ceb90612c44565b80601f0160208091040260200160405190810160405280929190818152602001828054610d1790612c44565b8015610d645780601f10610d3957610100808354040283529160200191610d64565b820191906000526020600020905b815481529060010190602001808311610d4757829003601f168201915b5050505050905090565b6000610d7a6006611be0565b905090565b3373ffffffffffffffffffffffffffffffffffffffff168273ffffffffffffffffffffffffffffffffffffffff161415610dee576040517f08c379a0000000000000000000000000000000000000000000000000000000008152600401610de590612fe2565b60405180910390fd5b80600560003373ffffffffffffffffffffffffffffffffffffffff1673ffffffffffffffffffffffffffffffffffffffff16815260200190815260200160002060008473ffffffffffffffffffffffffffffffffffffffff1673ffffffffffffffffffffffffffffffffffffffff16815260200190815260200160002060006101000a81548160ff0219169083151502179055508173ffffffffffffffffffffffffffffffffffffffff163373ffffffffffffffffffffffffffffffffffffffff167f17307eab39ab6107e8899845ad3d59bd9653f200f220920489ca2b5937696c3183604051610edf91906121a7565b60405180910390a35050565b610ef533836118af565b610f34576040517f08c379a0000000000000000000000000000000000000000000000000000000008152600401610f2b90613074565b60405180910390fd5b610f4084848484611da7565b50505050565b6060610f51826117f8565b600760008381526020019081526020016000208054610f6f90612c44565b80601f0160208091040260200160405190810160405280929190818152602001828054610f9b90612c44565b8015610fe85780601f10610fbd57610100808354040283529160200191610fe8565b820191906000526020600020905b815481529060010190602001808311610fcb57829003601f168201915b50505050509050919050565b60606000600880549050905060008167ffffffffffffffff81111561101c5761101b612490565b5b60405190808252806020026020018201604052801561105557816020015b611042612065565b81526020019060019003908161103a5790505b50905060005b828110156111785760006008828154811061107957611078613094565b5b906000526020600020015490506000600960008381526020019081526020016000206040518060400160405290816000820180546110b690612c44565b80601f01602080910402602001604051908101604052809291908181526020018280546110e290612c44565b801561112f5780601f106111045761010080835404028352916020019161112f565b820191906000526020600020905b81548152906001019060200180831161111257829003601f168201915b5050505050815260200160018201548152505090508084848151811061115857611157613094565b5b602002602001018190525050508080611170906130f2565b91505061105b565b50809250505090565b600073ffffffffffffffffffffffffffffffffffffffff168473ffffffffffffffffffffffffffffffffffffffff1614156111f1576040517f08c379a00000000000000000000000000000000000000000000000000000000081526004016111e890613187565b60405180910390fd5b600073ffffffffffffffffffffffffffffffffffffffff168373ffffffffffffffffffffffffffffffffffffffff161415611261576040517f08c379a0000000000000000000000000000000000000000000000000000000008152600401611258906131f3565b60405180910390fd5b60008214156112a5576040517f08c379a000000000000000000000000000000000000000000000000000000000815260040161129c9061325f565b60405180910390fd5b6112b084848461096f565b600a60405180608001604052808673ffffffffffffffffffffffffffffffffffffffff1681526020018573ffffffffffffffffffffffffffffffffffffffff16815260200184815260200183815250908060018154018082558091505060019003906000526020600020906004020160009091909190915060008201518160000160006101000a81548173ffffffffffffffffffffffffffffffffffffffff021916908373ffffffffffffffffffffffffffffffffffffffff16021790555060208201518160010160006101000a81548173ffffffffffffffffffffffffffffffffffffffff021916908373ffffffffffffffffffffffffffffffffffffffff1602179055506040820151816002015560608201518160030155505050505050565b6000600560008473ffffffffffffffffffffffffffffffffffffffff1673ffffffffffffffffffffffffffffffffffffffff16815260200190815260200160002060008373ffffffffffffffffffffffffffffffffffffffff1673ffffffffffffffffffffffffffffffffffffffff16815260200190815260200160002060009054906101000a900460ff16905092915050565b600a818154811061147657600080fd5b90600052602060002090600402016000915090508060000160009054906101000a900473ffffffffffffffffffffffffffffffffffffffff16908060010160009054906101000a900473ffffffffffffffffffffffffffffffffffffffff16908060020154908060030154905084565b60006114f183611843565b611530576040517f08c379a0000000000000000000000000000000000000000000000000000000008152600401611527906132cb565b60405180910390fd5b600061153b84610f46565b90506000818051906020012090506000848214905080935050505092915050565b60606000805b600a805490508110156115be5783600a828154811061158457611583613094565b5b90600052602060002090600402016002015414156115ab5781806115a7906130f2565b9250505b80806115b6906130f2565b915050611562565b5060008167ffffffffffffffff8111156115db576115da612490565b5b60405190808252806020026020018201604052801561161457816020015b611601612082565b8152602001906001900390816115f95790505b5090506000805b600a805490508110156117825785600a828154811061163d5761163c613094565b5b906000526020600020906004020160020154141561176f57600a818154811061166957611668613094565b5b90600052602060002090600402016040518060800160405290816000820160009054906101000a900473ffffffffffffffffffffffffffffffffffffffff1673ffffffffffffffffffffffffffffffffffffffff1673ffffffffffffffffffffffffffffffffffffffff1681526020016001820160009054906101000a900473ffffffffffffffffffffffffffffffffffffffff1673ffffffffffffffffffffffffffffffffffffffff1673ffffffffffffffffffffffffffffffffffffffff1681526020016002820154815260200160038201548152505083838151811061175557611754613094565b5b6020026020010181905250818061176b906130f2565b9250505b808061177a906130f2565b91505061161b565b50819350505050919050565b60007f01ffc9a7000000000000000000000000000000000000000000000000000000007bffffffffffffffffffffffffffffffffffffffffffffffffffffffff1916827bffffffffffffffffffffffffffffffffffffffffffffffffffffffff1916149050919050565b61180181611843565b611840576040517f08c379a000000000000000000000000000000000000000000000000000000000815260040161183790612ee4565b60405180910390fd5b50565b60008073ffffffffffffffffffffffffffffffffffffffff166002600084815260200190815260200160002060009054906101000a900473ffffffffffffffffffffffffffffffffffffffff1673ffffffffffffffffffffffffffffffffffffffff1614159050919050565b60006118ba82611843565b6118f9576040517f08c379a00000000000000000000000000000000000000000000000000000000081526004016118f09061335d565b60405180910390fd5b60006119048361098f565b90508073ffffffffffffffffffffffffffffffffffffffff168473ffffffffffffffffffffffffffffffffffffffff16148061197357508373ffffffffffffffffffffffffffffffffffffffff1661195b846106db565b73ffffffffffffffffffffffffffffffffffffffff16145b80611984575061198381856113d2565b5b91505092915050565b8273ffffffffffffffffffffffffffffffffffffffff166119ad8261098f565b73ffffffffffffffffffffffffffffffffffffffff1614611a03576040517f08c379a00000000000000000000000000000000000000000000000000000000081526004016119fa906133ef565b60405180910390fd5b600073ffffffffffffffffffffffffffffffffffffffff168273ffffffffffffffffffffffffffffffffffffffff161415611a73576040517f08c379a0000000000000000000000000000000000000000000000000000000008152600401611a6a90613481565b60405180910390fd5b611a7c81611e03565b6001600360008573ffffffffffffffffffffffffffffffffffffffff1673ffffffffffffffffffffffffffffffffffffffff168152602001908152602001600020600082825403925050819055506001600360008473ffffffffffffffffffffffffffffffffffffffff1673ffffffffffffffffffffffffffffffffffffffff16815260200190815260200160002060008282540192505081905550816002600083815260200190815260200160002060006101000a81548173ffffffffffffffffffffffffffffffffffffffff021916908373ffffffffffffffffffffffffffffffffffffffff160217905550808273ffffffffffffffffffffffffffffffffffffffff168473ffffffffffffffffffffffffffffffffffffffff167fddf252ad1be2c89b69c2b068fc378daa952ba7f163c4a11628f55a4df523b3ef60405160405180910390a4505050565b6001816000016000828254019250508190555050565b600081600001549050919050565b600073ffffffffffffffffffffffffffffffffffffffff168273ffffffffffffffffffffffffffffffffffffffff161415611c5e576040517f08c379a0000000000000000000000000000000000000000000000000000000008152600401611c55906134ed565b60405180910390fd5b611c6781611843565b15611ca7576040517f08c379a0000000000000000000000000000000000000000000000000000000008152600401611c9e90613559565b60405180910390fd5b6001600360008473ffffffffffffffffffffffffffffffffffffffff1673ffffffffffffffffffffffffffffffffffffffff16815260200190815260200160002060008282540192505081905550816002600083815260200190815260200160002060006101000a81548173ffffffffffffffffffffffffffffffffffffffff021916908373ffffffffffffffffffffffffffffffffffffffff160217905550808273ffffffffffffffffffffffffffffffffffffffff16600073ffffffffffffffffffffffffffffffffffffffff167fddf252ad1be2c89b69c2b068fc378daa952ba7f163c4a11628f55a4df523b3ef60405160405180910390a45050565b611db284848461198d565b611dbe84848484611e3c565b611dfd576040517f08c379a0000000000000000000000000000000000000000000000000000000008152600401611df4906135eb565b60405180910390fd5b50505050565b6004600082815260200190815260200160002060006101000a81549073ffffffffffffffffffffffffffffffffffffffff021916905550565b6000611e5d8473ffffffffffffffffffffffffffffffffffffffff16611fc4565b15611fb7578373ffffffffffffffffffffffffffffffffffffffff1663150b7a02611e86611fd7565b8786866040518563ffffffff1660e01b8152600401611ea89493929190613660565b6020604051808303816000875af1925050508015611ee457506040513d601f19601f82011682018060405250810190611ee191906136c1565b60015b611f67573d8060008114611f14576040519150601f19603f3d011682016040523d82523d6000602084013e611f19565b606091505b50600081511415611f5f576040517f08c379a0000000000000000000000000000000000000000000000000000000008152600401611f5690613760565b60405180910390fd5b805181602001fd5b63150b7a0260e01b7bffffffffffffffffffffffffffffffffffffffffffffffffffffffff1916817bffffffffffffffffffffffffffffffffffffffffffffffffffffffff191614915050611fbc565b600190505b949350505050565b600080823b905060008111915050919050565b600033905090565b828054611feb90612c44565b90600052602060002090601f01602090048101928261200d5760008555612054565b82601f1061202657805160ff1916838001178555612054565b82800160010185558215612054579182015b82811115612053578251825591602001919060010190612038565b5b50905061206191906120d6565b5090565b604051806040016040528060608152602001600080191681525090565b6040518060800160405280600073ffffffffffffffffffffffffffffffffffffffff168152602001600073ffffffffffffffffffffffffffffffffffffffff16815260200160008152602001600081525090565b5b808211156120ef5760008160009055506001016120d7565b5090565b6000604051905090565b600080fd5b600080fd5b60007fffffffff0000000000000000000000000000000000000000000000000000000082169050919050565b61213c81612107565b811461214757600080fd5b50565b60008135905061215981612133565b92915050565b600060208284031215612175576121746120fd565b5b60006121838482850161214a565b91505092915050565b60008115159050919050565b6121a18161218c565b82525050565b60006020820190506121bc6000830184612198565b92915050565b600081519050919050565b600082825260208201905092915050565b60005b838110156121fc5780820151818401526020810190506121e1565b8381111561220b576000848401525b50505050565b6000601f19601f8301169050919050565b600061222d826121c2565b61223781856121cd565b93506122478185602086016121de565b61225081612211565b840191505092915050565b600060208201905081810360008301526122758184612222565b905092915050565b6000819050919050565b6122908161227d565b811461229b57600080fd5b50565b6000813590506122ad81612287565b92915050565b6000602082840312156122c9576122c86120fd565b5b60006122d78482850161229e565b91505092915050565b600073ffffffffffffffffffffffffffffffffffffffff82169050919050565b600061230b826122e0565b9050919050565b61231b81612300565b82525050565b60006020820190506123366000830184612312565b92915050565b61234581612300565b811461235057600080fd5b50565b6000813590506123628161233c565b92915050565b6000806040838503121561237f5761237e6120fd565b5b600061238d85828601612353565b925050602061239e8582860161229e565b9150509250929050565b6000806000606084860312156123c1576123c06120fd565b5b60006123cf86828701612353565b93505060206123e086828701612353565b92505060406123f18682870161229e565b9150509250925092565b6000819050919050565b61240e816123fb565b82525050565b60006020820190506124296000830184612405565b92915050565b600060208284031215612445576124446120fd565b5b600061245384828501612353565b91505092915050565b6124658161227d565b82525050565b6000602082019050612480600083018461245c565b92915050565b600080fd5b600080fd5b7f4e487b7100000000000000000000000000000000000000000000000000000000600052604160045260246000fd5b6124c882612211565b810181811067ffffffffffffffff821117156124e7576124e6612490565b5b80604052505050565b60006124fa6120f3565b905061250682826124bf565b919050565b600067ffffffffffffffff82111561252657612525612490565b5b61252f82612211565b9050602081019050919050565b82818337600083830152505050565b600061255e6125598461250b565b6124f0565b90508281526020810184848401111561257a5761257961248b565b5b61258584828561253c565b509392505050565b600082601f8301126125a2576125a1612486565b5b81356125b284826020860161254b565b91505092915050565b6000806000606084860312156125d4576125d36120fd565b5b60006125e286828701612353565b935050602084013567ffffffffffffffff81111561260357612602612102565b5b61260f8682870161258d565b925050604084013567ffffffffffffffff8111156126305761262f612102565b5b61263c8682870161258d565b9150509250925092565b600060408201905061265b600083018561245c565b612668602083018461245c565b9392505050565b6126788161218c565b811461268357600080fd5b50565b6000813590506126958161266f565b92915050565b600080604083850312156126b2576126b16120fd565b5b60006126c085828601612353565b92505060206126d185828601612686565b9150509250929050565b600067ffffffffffffffff8211156126f6576126f5612490565b5b6126ff82612211565b9050602081019050919050565b600061271f61271a846126db565b6124f0565b90508281526020810184848401111561273b5761273a61248b565b5b61274684828561253c565b509392505050565b600082601f83011261276357612762612486565b5b813561277384826020860161270c565b91505092915050565b60008060008060808587031215612796576127956120fd565b5b60006127a487828801612353565b94505060206127b587828801612353565b93505060406127c68782880161229e565b925050606085013567ffffffffffffffff8111156127e7576127e6612102565b5b6127f38782880161274e565b91505092959194509250565b600081519050919050565b600082825260208201905092915050565b6000819050602082019050919050565b600082825260208201905092915050565b6000612847826121c2565b612851818561282b565b93506128618185602086016121de565b61286a81612211565b840191505092915050565b61287e816123fb565b82525050565b600060408301600083015184820360008601526128a1828261283c565b91505060208301516128b66020860182612875565b508091505092915050565b60006128cd8383612884565b905092915050565b6000602082019050919050565b60006128ed826127ff565b6128f7818561280a565b9350836020820285016129098561281b565b8060005b85811015612945578484038952815161292685826128c1565b9450612931836128d5565b925060208a0199505060018101905061290d565b50829750879550505050505092915050565b6000602082019050818103600083015261297181846128e2565b905092915050565b60008060008060808587031215612993576129926120fd565b5b60006129a187828801612353565b94505060206129b287828801612353565b93505060406129c38782880161229e565b92505060606129d48782880161229e565b91505092959194509250565b600080604083850312156129f7576129f66120fd565b5b6000612a0585828601612353565b9250506020612a1685828601612353565b9150509250929050565b6000608082019050612a356000830187612312565b612a426020830186612312565b612a4f604083018561245c565b612a5c606083018461245c565b95945050505050565b612a6e816123fb565b8114612a7957600080fd5b50565b600081359050612a8b81612a65565b92915050565b60008060408385031215612aa857612aa76120fd565b5b6000612ab68582860161229e565b9250506020612ac785828601612a7c565b9150509250929050565b600081519050919050565b600082825260208201905092915050565b6000819050602082019050919050565b612b0681612300565b82525050565b612b158161227d565b82525050565b608082016000820151612b316000850182612afd565b506020820151612b446020850182612afd565b506040820151612b576040850182612b0c565b506060820151612b6a6060850182612b0c565b50505050565b6000612b7c8383612b1b565b60808301905092915050565b6000602082019050919050565b6000612ba082612ad1565b612baa8185612adc565b9350612bb583612aed565b8060005b83811015612be6578151612bcd8882612b70565b9750612bd883612b88565b925050600181019050612bb9565b5085935050505092915050565b60006020820190508181036000830152612c0d8184612b95565b905092915050565b7f4e487b7100000000000000000000000000000000000000000000000000000000600052602260045260246000fd5b60006002820490506001821680612c5c57607f821691505b60208210811415612c7057612c6f612c15565b5b50919050565b7f617070726f76616c20746f2063757272656e74206f776e657200000000000000600082015250565b6000612cac6019836121cd565b9150612cb782612c76565b602082019050919050565b60006020820190508181036000830152612cdb81612c9f565b9050919050565b7f617070726f76656420717565727920666f72206e6f6e6578697374656e74207460008201527f6f6b656e00000000000000000000000000000000000000000000000000000000602082015250565b6000612d3e6024836121cd565b9150612d4982612ce2565b604082019050919050565b60006020820190508181036000830152612d6d81612d31565b9050919050565b7f617070726f76652063616c6c6572206973206e6f74206f776e6572206e6f722060008201527f617070726f76656420666f7220616c6c00000000000000000000000000000000602082015250565b6000612dd06030836121cd565b9150612ddb82612d74565b604082019050919050565b60006020820190508181036000830152612dff81612dc3565b9050919050565b7f7472616e736665722063616c6c6572206973206e6f7420746865206f776e657260008201527f206e6f7220617070726f76656400000000000000000000000000000000000000602082015250565b6000612e62602d836121cd565b9150612e6d82612e06565b604082019050919050565b60006020820190508181036000830152612e9181612e55565b9050919050565b7f4552433732313a20696e76616c696420746f6b656e2049440000000000000000600082015250565b6000612ece6018836121cd565b9150612ed982612e98565b602082019050919050565b60006020820190508181036000830152612efd81612ec1565b9050919050565b7f4552433732313a2061646472657373207a65726f206973206e6f74206120766160008201527f6c6964206f776e65720000000000000000000000000000000000000000000000602082015250565b6000612f606029836121cd565b9150612f6b82612f04565b604082019050919050565b60006020820190508181036000830152612f8f81612f53565b9050919050565b7f617070726f766520746f2063616c6c6572000000000000000000000000000000600082015250565b6000612fcc6011836121cd565b9150612fd782612f96565b602082019050919050565b60006020820190508181036000830152612ffb81612fbf565b9050919050565b7f4552433732313a2063616c6c6572206973206e6f7420746f6b656e206f776e6560008201527f72206f7220617070726f76656400000000000000000000000000000000000000602082015250565b600061305e602d836121cd565b915061306982613002565b604082019050919050565b6000602082019050818103600083015261308d81613051565b9050919050565b7f4e487b7100000000000000000000000000000000000000000000000000000000600052603260045260246000fd5b7f4e487b7100000000000000000000000000000000000000000000000000000000600052601160045260246000fd5b60006130fd8261227d565b91507fffffffffffffffffffffffffffffffffffffffffffffffffffffffffffffffff8214156131305761312f6130c3565b5b600182019050919050565b7f496e76616c696420627579657220616464726573730000000000000000000000600082015250565b60006131716015836121cd565b915061317c8261313b565b602082019050919050565b600060208201905081810360008301526131a081613164565b9050919050565b7f496e76616c69642073656c6c6572206164647265737300000000000000000000600082015250565b60006131dd6016836121cd565b91506131e8826131a7565b602082019050919050565b6000602082019050818103600083015261320c816131d0565b9050919050565b7f496e76616c696420746f6b656e20494400000000000000000000000000000000600082015250565b60006132496010836121cd565b915061325482613213565b602082019050919050565b600060208201905081810360008301526132788161323c565b9050919050565b7f4e465420646f6573206e6f742065786973740000000000000000000000000000600082015250565b60006132b56012836121cd565b91506132c08261327f565b602082019050919050565b600060208201905081810360008301526132e4816132a8565b9050919050565b7f6f70657261746f7220716575727920666f72206e6f6e6578697374656e74207460008201527f6f6b656e00000000000000000000000000000000000000000000000000000000602082015250565b60006133476024836121cd565b9150613352826132eb565b604082019050919050565b600060208201905081810360008301526133768161333a565b9050919050565b7f4552433732313a207472616e736665722066726f6d20696e636f72726563742060008201527f6f776e6572000000000000000000000000000000000000000000000000000000602082015250565b60006133d96025836121cd565b91506133e48261337d565b604082019050919050565b60006020820190508181036000830152613408816133cc565b9050919050565b7f4552433732313a207472616e7366657220746f20746865207a65726f2061646460008201527f7265737300000000000000000000000000000000000000000000000000000000602082015250565b600061346b6024836121cd565b91506134768261340f565b604082019050919050565b6000602082019050818103600083015261349a8161345e565b9050919050565b7f6d696e7420746f20746865207a65726f20616464726573730000000000000000600082015250565b60006134d76018836121cd565b91506134e2826134a1565b602082019050919050565b60006020820190508181036000830152613506816134ca565b9050919050565b7f746f6b656e20616c7265616479206d696e746564000000000000000000000000600082015250565b60006135436014836121cd565b915061354e8261350d565b602082019050919050565b6000602082019050818103600083015261357281613536565b9050919050565b7f7472616e7366657220746f206e6f6e204552433732315265636569766572206960008201527f6d706c656d656e74657200000000000000000000000000000000000000000000602082015250565b60006135d5602a836121cd565b91506135e082613579565b604082019050919050565b60006020820190508181036000830152613604816135c8565b9050919050565b600081519050919050565b600082825260208201905092915050565b60006136328261360b565b61363c8185613616565b935061364c8185602086016121de565b61365581612211565b840191505092915050565b60006080820190506136756000830187612312565b6136826020830186612312565b61368f604083018561245c565b81810360608301526136a18184613627565b905095945050505050565b6000815190506136bb81612133565b92915050565b6000602082840312156136d7576136d66120fd565b5b60006136e5848285016136ac565b91505092915050565b7f4552433732313a207472616e7366657220746f206e6f6e20455243373231526560008201527f63656976657220696d706c656d656e7465720000000000000000000000000000602082015250565b600061374a6032836121cd565b9150613755826136ee565b604082019050919050565b600060208201905081810360008301526137798161373d565b905091905056fea264697066735822122094672380be67591b53cadfdc993fe55615e7e36366134c16911e8f10ced3401164736f6c634300080a0033",
  "immutableReferences": {},
  "source": "// SPDX-License-Identifier: MIT\r\npragma solidity >=0.4.22 <0.9.0;\r\n\r\nimport \"./token/ERC721/ERC721.sol\";\r\nimport \"./utils/Counters.sol\";\r\nimport \"./utils/Strings.sol\";\r\n\r\n/**\r\n * PJT  -  2) NFT Creator \r\n *         .\r\n */\r\ncontract HereNFT is ERC721 {\r\n    \r\n    using Counters for Counters.Counter;\r\n    using Strings for uint256;\r\n\r\n    Counters.Counter private _tokenIds;\r\n    mapping(uint256 => string) tokenURIs;\r\n\r\n    event createNFT (uint256 indexed _tokenId, address indexed _owner);\r\n\r\n    constructor() ERC721(\"HERE-NFT\", \"TBD\") {}\r\n\r\n    // NFT \r\n    struct NFT {\r\n        string tokenURI;\r\n        bytes32 hashValue;\r\n    }\r\n    uint256[] private _nftIds;\r\n    mapping(uint256 => NFT) private _nfts;\r\n\r\n    //  \r\n    struct TransactionLog {\r\n        address from;\r\n        address to;\r\n        uint256 tokenId;\r\n        uint256 timestamp;\r\n    }\r\n    //  \r\n    TransactionLog[] public transactionLogs;\r\n\r\n    // NFT    \r\n    function donateNFT(\r\n        address _from,\r\n        address _to,\r\n        uint256 _tokenId,\r\n        uint256 _timestamp\r\n    ) public payable {\r\n        require(_from != address(0), \"Invalid buyer address\");\r\n        require(_to != address(0), \"Invalid seller address\");\r\n        require(_tokenId != 0, \"Invalid token ID\");\r\n\r\n        // Transfer ownership of NFT from seller to buyer\r\n        //emit Transfer(_seller, _buyer, _tokenId);\r\n        safeTransferFrom(_from, _to, _tokenId);\r\n\r\n        // Add transaction log to the transactionLogs array\r\n        transactionLogs.push(\r\n            TransactionLog({\r\n                from: _from,\r\n                to: _to,\r\n                tokenId: _tokenId,\r\n                timestamp: _timestamp\r\n            })\r\n        );\r\n\r\n    }\r\n\r\n    //  NFT    \r\n    function getTransactionLogs(uint256 _tokenId)\r\n        external\r\n        view\r\n        returns (TransactionLog[] memory)\r\n    {\r\n        uint256 count = 0;\r\n        for (uint256 i = 0; i < transactionLogs.length; i++) {\r\n            if (transactionLogs[i].tokenId == _tokenId) {\r\n                count++;\r\n            }\r\n        }\r\n        TransactionLog[] memory logs = new TransactionLog[](count);\r\n        uint256 index = 0;\r\n        for (uint256 i = 0; i < transactionLogs.length; i++) {\r\n            if (transactionLogs[i].tokenId == _tokenId) {\r\n                logs[index] = transactionLogs[i];\r\n                index++;\r\n            }\r\n        }\r\n        return logs;\r\n    }\r\n\r\n    function current() public view returns (uint256) {\r\n        return _tokenIds.current();\r\n    }\r\n\r\n    function tokenURI(uint256 tokenId) public view override returns (string memory) {\r\n        // TODO\r\n        _requireMinted(tokenId);\r\n        return tokenURIs[tokenId];\r\n    }\r\n\r\n    function create(address to, string memory _tokenURI1, string memory _tokenURI2) public returns (uint256, uint256) {\r\n        _tokenIds.increment();\r\n\r\n        uint256 newItemId1 = _tokenIds.current();\r\n        _mint(to, newItemId1);\r\n        tokenURIs[newItemId1] = _tokenURI1;\r\n\r\n        bytes32 hashValue1 = keccak256(bytes(_tokenURI1));\r\n        NFT memory nft1 = NFT({\r\n            tokenURI: _tokenURI1,\r\n            hashValue: hashValue1\r\n        });\r\n        _nftIds.push(newItemId1);\r\n        _nfts[newItemId1] = nft1;\r\n\r\n        _tokenIds.increment();\r\n\r\n        uint256 newItemId2 = _tokenIds.current();\r\n        _mint(to, newItemId2);\r\n        tokenURIs[newItemId2] = _tokenURI2;\r\n\r\n        bytes32 hashValue2 = keccak256(bytes(_tokenURI2));\r\n        NFT memory nft2 = NFT({\r\n            tokenURI: _tokenURI2,\r\n            hashValue: hashValue2\r\n        });\r\n        _nftIds.push(newItemId2);\r\n        _nfts[newItemId2] = nft2;\r\n\r\n        return (newItemId1, newItemId2);\r\n    }\r\n\r\n    function getAllNFTs() public view returns (NFT[] memory) {\r\n        uint256 totalNFTs = _nftIds.length;\r\n        NFT[] memory nftsList = new NFT[](totalNFTs);\r\n        for (uint256 i = 0; i < totalNFTs; i++) {\r\n            uint256 nftId = _nftIds[i];\r\n            NFT memory nft = _nfts[nftId];\r\n            nftsList[i] = nft;\r\n        }\r\n        return nftsList;\r\n    }   \r\n\r\n    function getHashValue(uint256 tokenId) public view returns(bytes32) {\r\n        return _nfts[tokenId].hashValue;\r\n    }\r\n\r\n    event NFTVerified(uint256 indexed tokenId, string metadataURI, bytes metadata, bytes32 metadataHash, bytes32 inputHash);\r\n\r\n    function verifyNFT(uint256 tokenId, bytes32 hash) public view returns (bool) {\r\n        require(_exists(tokenId), \"NFT does not exist\");\r\n\r\n        // NFT Metadata URI \r\n        string memory metadataURI = tokenURI(tokenId);\r\n\r\n        // JSON   \r\n        bytes32 transactionHash = keccak256(bytes(metadataURI));\r\n\r\n         //      \r\n        bool verified = transactionHash == hash;\r\n\r\n\r\n        return verified;\r\n    }\r\n}",
  "sourcePath": "C:\\SSAFY\\workspace\\work-blockchain\\S08P22B209\\here-blockchain\\contracts\\HereNFT.sol",
  "compiler": {
    "name": "solc",
    "version": "0.8.10+commit.fc410830.Emscripten.clang"
  },
  "schemaVersion": "3.4.4",
  "updatedAt": "2023-03-26T07:38:13.378Z",
  "networkType": "ethereum",
  "devdoc": {
    "kind": "dev",
    "methods": {
      "approve(address,uint256)": {
        "details": "See {IERC721-approve}."
      },
      "balanceOf(address)": {
        "details": "See {IERC721-balanceOf}."
      },
      "getApproved(uint256)": {
        "details": "See {IERC721-getApproved}."
      },
      "isApprovedForAll(address,address)": {
        "details": "See {IERC721-isApprovedForAll}."
      },
      "name()": {
        "details": "See {IERC721Metadata-name}."
      },
      "ownerOf(uint256)": {
        "details": "See {IERC721-ownerOf}."
      },
      "safeTransferFrom(address,address,uint256)": {
        "details": "See {IERC721-safeTransferFrom}."
      },
      "safeTransferFrom(address,address,uint256,bytes)": {
        "details": "See {IERC721-safeTransferFrom}."
      },
      "setApprovalForAll(address,bool)": {
        "details": "See {IERC721-setApprovalForAll}."
      },
      "supportsInterface(bytes4)": {
        "details": "See {IERC165-supportsInterface}."
      },
      "symbol()": {
        "details": "See {IERC721Metadata-symbol}."
      },
      "tokenURI(uint256)": {
        "details": "See {IERC721Metadata-tokenURI}."
      },
      "transferFrom(address,address,uint256)": {
        "details": "See {IERC721-transferFrom}."
      }
    },
    "version": 1
  },
  "userdoc": {
    "kind": "user",
    "methods": {},
    "notice": "PJT  -  2) NFT Creator          .",
    "version": 1
  }
}