{
  "contractName": "MyNFT",
  "abi": [
    {
      "inputs": [
        {
          "internalType": "string",
          "name": "name",
          "type": "string"
        },
        {
          "internalType": "string",
          "name": "symbol",
          "type": "string"
        }
      ],
      "stateMutability": "nonpayable",
      "type": "constructor"
    },
    {
      "anonymous": false,
      "inputs": [
        {
          "indexed": true,
          "internalType": "address",
          "name": "owner",
          "type": "address"
        },
        {
          "indexed": true,
          "internalType": "address",
          "name": "approved",
          "type": "address"
        },
        {
          "indexed": true,
          "internalType": "uint256",
          "name": "tokenId",
          "type": "uint256"
        }
      ],
      "name": "Approval",
      "type": "event"
    },
    {
      "anonymous": false,
      "inputs": [
        {
          "indexed": true,
          "internalType": "address",
          "name": "owner",
          "type": "address"
        },
        {
          "indexed": true,
          "internalType": "address",
          "name": "operator",
          "type": "address"
        },
        {
          "indexed": false,
          "internalType": "bool",
          "name": "approved",
          "type": "bool"
        }
      ],
      "name": "ApprovalForAll",
      "type": "event"
    },
    {
      "anonymous": false,
      "inputs": [
        {
          "indexed": true,
          "internalType": "address",
          "name": "from",
          "type": "address"
        },
        {
          "indexed": true,
          "internalType": "address",
          "name": "to",
          "type": "address"
        },
        {
          "indexed": true,
          "internalType": "uint256",
          "name": "tokenId",
          "type": "uint256"
        }
      ],
      "name": "Transfer",
      "type": "event"
    },
    {
      "inputs": [
        {
          "internalType": "address",
          "name": "to",
          "type": "address"
        },
        {
          "internalType": "uint256",
          "name": "tokenId",
          "type": "uint256"
        }
      ],
      "name": "approve",
      "outputs": [],
      "stateMutability": "nonpayable",
      "type": "function"
    },
    {
      "inputs": [
        {
          "internalType": "address",
          "name": "owner",
          "type": "address"
        }
      ],
      "name": "balanceOf",
      "outputs": [
        {
          "internalType": "uint256",
          "name": "",
          "type": "uint256"
        }
      ],
      "stateMutability": "view",
      "type": "function"
    },
    {
      "inputs": [
        {
          "internalType": "uint256",
          "name": "tokenId",
          "type": "uint256"
        }
      ],
      "name": "getApproved",
      "outputs": [
        {
          "internalType": "address",
          "name": "",
          "type": "address"
        }
      ],
      "stateMutability": "view",
      "type": "function"
    },
    {
      "inputs": [
        {
          "internalType": "address",
          "name": "owner",
          "type": "address"
        },
        {
          "internalType": "address",
          "name": "operator",
          "type": "address"
        }
      ],
      "name": "isApprovedForAll",
      "outputs": [
        {
          "internalType": "bool",
          "name": "",
          "type": "bool"
        }
      ],
      "stateMutability": "view",
      "type": "function"
    },
    {
      "inputs": [],
      "name": "name",
      "outputs": [
        {
          "internalType": "string",
          "name": "",
          "type": "string"
        }
      ],
      "stateMutability": "view",
      "type": "function"
    },
    {
      "inputs": [
        {
          "internalType": "uint256",
          "name": "tokenId",
          "type": "uint256"
        }
      ],
      "name": "ownerOf",
      "outputs": [
        {
          "internalType": "address",
          "name": "",
          "type": "address"
        }
      ],
      "stateMutability": "view",
      "type": "function"
    },
    {
      "inputs": [
        {
          "internalType": "address",
          "name": "from",
          "type": "address"
        },
        {
          "internalType": "address",
          "name": "to",
          "type": "address"
        },
        {
          "internalType": "uint256",
          "name": "tokenId",
          "type": "uint256"
        }
      ],
      "name": "safeTransferFrom",
      "outputs": [],
      "stateMutability": "nonpayable",
      "type": "function"
    },
    {
      "inputs": [
        {
          "internalType": "address",
          "name": "from",
          "type": "address"
        },
        {
          "internalType": "address",
          "name": "to",
          "type": "address"
        },
        {
          "internalType": "uint256",
          "name": "tokenId",
          "type": "uint256"
        },
        {
          "internalType": "bytes",
          "name": "data",
          "type": "bytes"
        }
      ],
      "name": "safeTransferFrom",
      "outputs": [],
      "stateMutability": "nonpayable",
      "type": "function"
    },
    {
      "inputs": [
        {
          "internalType": "address",
          "name": "operator",
          "type": "address"
        },
        {
          "internalType": "bool",
          "name": "approved",
          "type": "bool"
        }
      ],
      "name": "setApprovalForAll",
      "outputs": [],
      "stateMutability": "nonpayable",
      "type": "function"
    },
    {
      "inputs": [
        {
          "internalType": "bytes4",
          "name": "interfaceId",
          "type": "bytes4"
        }
      ],
      "name": "supportsInterface",
      "outputs": [
        {
          "internalType": "bool",
          "name": "",
          "type": "bool"
        }
      ],
      "stateMutability": "view",
      "type": "function"
    },
    {
      "inputs": [],
      "name": "symbol",
      "outputs": [
        {
          "internalType": "string",
          "name": "",
          "type": "string"
        }
      ],
      "stateMutability": "view",
      "type": "function"
    },
    {
      "inputs": [
        {
          "internalType": "uint256",
          "name": "tokenId",
          "type": "uint256"
        }
      ],
      "name": "tokenURI",
      "outputs": [
        {
          "internalType": "string",
          "name": "",
          "type": "string"
        }
      ],
      "stateMutability": "view",
      "type": "function"
    },
    {
      "inputs": [
        {
          "internalType": "address",
          "name": "from",
          "type": "address"
        },
        {
          "internalType": "address",
          "name": "to",
          "type": "address"
        },
        {
          "internalType": "uint256",
          "name": "tokenId",
          "type": "uint256"
        }
      ],
      "name": "transferFrom",
      "outputs": [],
      "stateMutability": "nonpayable",
      "type": "function"
    },
    {
      "inputs": [
        {
          "internalType": "uint256",
          "name": "tokenId",
          "type": "uint256"
        },
        {
          "internalType": "bytes32",
          "name": "message",
          "type": "bytes32"
        },
        {
          "internalType": "uint8",
          "name": "v",
          "type": "uint8"
        },
        {
          "internalType": "bytes32",
          "name": "r",
          "type": "bytes32"
        },
        {
          "internalType": "bytes32",
          "name": "s",
          "type": "bytes32"
        }
      ],
      "name": "verifyNFT",
      "outputs": [
        {
          "internalType": "bool",
          "name": "",
          "type": "bool"
        }
      ],
      "stateMutability": "view",
      "type": "function"
    }
  ],
  "bytecode": "0x60806040523480156200001157600080fd5b50604051620027de380380620027de8339818101604052810190620000379190620002c2565b818181600090805190602001906200005192919062000075565b5080600190805190602001906200006a92919062000075565b5050505050620003ac565b828054620000839062000376565b90600052602060002090601f016020900481019282620000a75760008555620000f3565b82601f10620000c257805160ff1916838001178555620000f3565b82800160010185558215620000f3579182015b82811115620000f2578251825591602001919060010190620000d5565b5b50905062000102919062000106565b5090565b5b808211156200012157600081600090555060010162000107565b5090565b6000604051905090565b600080fd5b600080fd5b600080fd5b600080fd5b6000601f19601f8301169050919050565b7f4e487b7100000000000000000000000000000000000000000000000000000000600052604160045260246000fd5b6200018e8262000143565b810181811067ffffffffffffffff82111715620001b057620001af62000154565b5b80604052505050565b6000620001c562000125565b9050620001d3828262000183565b919050565b600067ffffffffffffffff821115620001f657620001f562000154565b5b620002018262000143565b9050602081019050919050565b60005b838110156200022e57808201518184015260208101905062000211565b838111156200023e576000848401525b50505050565b60006200025b6200025584620001d8565b620001b9565b9050828152602081018484840111156200027a57620002796200013e565b5b620002878482856200020e565b509392505050565b600082601f830112620002a757620002a662000139565b5b8151620002b984826020860162000244565b91505092915050565b60008060408385031215620002dc57620002db6200012f565b5b600083015167ffffffffffffffff811115620002fd57620002fc62000134565b5b6200030b858286016200028f565b925050602083015167ffffffffffffffff8111156200032f576200032e62000134565b5b6200033d858286016200028f565b9150509250929050565b7f4e487b7100000000000000000000000000000000000000000000000000000000600052602260045260246000fd5b600060028204905060018216806200038f57607f821691505b60208210811415620003a657620003a562000347565b5b50919050565b61242280620003bc6000396000f3fe608060405234801561001057600080fd5b50600436106100ea5760003560e01c80636a85691d1161008c578063a22cb46511610066578063a22cb4651461026f578063b88d4fde1461028b578063c87b56dd146102a7578063e985e9c5146102d7576100ea565b80636a85691d146101f157806370a082311461022157806395d89b4114610251576100ea565b8063095ea7b3116100c8578063095ea7b31461016d57806323b872dd1461018957806342842e0e146101a55780636352211e146101c1576100ea565b806301ffc9a7146100ef57806306fdde031461011f578063081812fc1461013d575b600080fd5b6101096004803603810190610104919061160c565b610307565b6040516101169190611654565b60405180910390f35b6101276103e9565b6040516101349190611708565b60405180910390f35b61015760048036038101906101529190611760565b61047b565b60405161016491906117ce565b60405180910390f35b61018760048036038101906101829190611815565b6104c1565b005b6101a3600480360381019061019e9190611855565b6105d9565b005b6101bf60048036038101906101ba9190611855565b610639565b005b6101db60048036038101906101d69190611760565b610659565b6040516101e891906117ce565b60405180910390f35b61020b60048036038101906102069190611917565b6106e0565b6040516102189190611654565b60405180910390f35b61023b60048036038101906102369190611992565b61079d565b60405161024891906119ce565b60405180910390f35b610259610855565b6040516102669190611708565b60405180910390f35b61028960048036038101906102849190611a15565b6108e7565b005b6102a560048036038101906102a09190611b8a565b6108fd565b005b6102c160048036038101906102bc9190611760565b61095f565b6040516102ce9190611708565b60405180910390f35b6102f160048036038101906102ec9190611c0d565b6109c7565b6040516102fe9190611654565b60405180910390f35b60007f80ac58cd000000000000000000000000000000000000000000000000000000007bffffffffffffffffffffffffffffffffffffffffffffffffffffffff1916827bffffffffffffffffffffffffffffffffffffffffffffffffffffffff191614806103d257507f5b5e139f000000000000000000000000000000000000000000000000000000007bffffffffffffffffffffffffffffffffffffffffffffffffffffffff1916827bffffffffffffffffffffffffffffffffffffffffffffffffffffffff1916145b806103e257506103e182610a5b565b5b9050919050565b6060600080546103f890611c7c565b80601f016020809104026020016040519081016040528092919081815260200182805461042490611c7c565b80156104715780601f1061044657610100808354040283529160200191610471565b820191906000526020600020905b81548152906001019060200180831161045457829003601f168201915b5050505050905090565b600061048682610ac5565b6004600083815260200190815260200160002060009054906101000a900473ffffffffffffffffffffffffffffffffffffffff169050919050565b60006104cc82610659565b90508073ffffffffffffffffffffffffffffffffffffffff168373ffffffffffffffffffffffffffffffffffffffff16141561053d576040517f08c379a000000000000000000000000000000000000000000000000000000000815260040161053490611d20565b60405180910390fd5b8073ffffffffffffffffffffffffffffffffffffffff1661055c610b10565b73ffffffffffffffffffffffffffffffffffffffff16148061058b575061058a81610585610b10565b6109c7565b5b6105ca576040517f08c379a00000000000000000000000000000000000000000000000000000000081526004016105c190611db2565b60405180910390fd5b6105d48383610b18565b505050565b6105ea6105e4610b10565b82610bd1565b610629576040517f08c379a000000000000000000000000000000000000000000000000000000000815260040161062090611e44565b60405180910390fd5b610634838383610c66565b505050565b610654838383604051806020016040528060008152506108fd565b505050565b60008061066583610f60565b9050600073ffffffffffffffffffffffffffffffffffffffff168173ffffffffffffffffffffffffffffffffffffffff1614156106d7576040517f08c379a00000000000000000000000000000000000000000000000000000000081526004016106ce90611eb0565b60405180910390fd5b80915050919050565b6000806001866040516020016106f69190611f48565b604051602081830303815290604052805190602001208686866040516000815260200160405260405161072c9493929190611f8c565b6020604051602081039080840390855afa15801561074e573d6000803e3d6000fd5b50505060206040510351905061076387610659565b73ffffffffffffffffffffffffffffffffffffffff168173ffffffffffffffffffffffffffffffffffffffff161491505095945050505050565b60008073ffffffffffffffffffffffffffffffffffffffff168273ffffffffffffffffffffffffffffffffffffffff16141561080e576040517f08c379a000000000000000000000000000000000000000000000000000000000815260040161080590612043565b60405180910390fd5b600360008373ffffffffffffffffffffffffffffffffffffffff1673ffffffffffffffffffffffffffffffffffffffff168152602001908152602001600020549050919050565b60606001805461086490611c7c565b80601f016020809104026020016040519081016040528092919081815260200182805461089090611c7c565b80156108dd5780601f106108b2576101008083540402835291602001916108dd565b820191906000526020600020905b8154815290600101906020018083116108c057829003601f168201915b5050505050905090565b6108f96108f2610b10565b8383610f9d565b5050565b61090e610908610b10565b83610bd1565b61094d576040517f08c379a000000000000000000000000000000000000000000000000000000000815260040161094490611e44565b60405180910390fd5b6109598484848461110a565b50505050565b606061096a82610ac5565b6000610974611166565b9050600081511161099457604051806020016040528060008152506109bf565b8061099e8461117d565b6040516020016109af929190612094565b6040516020818303038152906040525b915050919050565b6000600560008473ffffffffffffffffffffffffffffffffffffffff1673ffffffffffffffffffffffffffffffffffffffff16815260200190815260200160002060008373ffffffffffffffffffffffffffffffffffffffff1673ffffffffffffffffffffffffffffffffffffffff16815260200190815260200160002060009054906101000a900460ff16905092915050565b60007f01ffc9a7000000000000000000000000000000000000000000000000000000007bffffffffffffffffffffffffffffffffffffffffffffffffffffffff1916827bffffffffffffffffffffffffffffffffffffffffffffffffffffffff1916149050919050565b610ace81611255565b610b0d576040517f08c379a0000000000000000000000000000000000000000000000000000000008152600401610b0490611eb0565b60405180910390fd5b50565b600033905090565b816004600083815260200190815260200160002060006101000a81548173ffffffffffffffffffffffffffffffffffffffff021916908373ffffffffffffffffffffffffffffffffffffffff160217905550808273ffffffffffffffffffffffffffffffffffffffff16610b8b83610659565b73ffffffffffffffffffffffffffffffffffffffff167f8c5be1e5ebec7d5bd14f71427d1e84f3dd0314c0f7b2291e5b200ac8c7c3b92560405160405180910390a45050565b600080610bdd83610659565b90508073ffffffffffffffffffffffffffffffffffffffff168473ffffffffffffffffffffffffffffffffffffffff161480610c1f5750610c1e81856109c7565b5b80610c5d57508373ffffffffffffffffffffffffffffffffffffffff16610c458461047b565b73ffffffffffffffffffffffffffffffffffffffff16145b91505092915050565b8273ffffffffffffffffffffffffffffffffffffffff16610c8682610659565b73ffffffffffffffffffffffffffffffffffffffff1614610cdc576040517f08c379a0000000000000000000000000000000000000000000000000000000008152600401610cd39061212a565b60405180910390fd5b600073ffffffffffffffffffffffffffffffffffffffff168273ffffffffffffffffffffffffffffffffffffffff161415610d4c576040517f08c379a0000000000000000000000000000000000000000000000000000000008152600401610d43906121bc565b60405180910390fd5b610d598383836001611296565b8273ffffffffffffffffffffffffffffffffffffffff16610d7982610659565b73ffffffffffffffffffffffffffffffffffffffff1614610dcf576040517f08c379a0000000000000000000000000000000000000000000000000000000008152600401610dc69061212a565b60405180910390fd5b6004600082815260200190815260200160002060006101000a81549073ffffffffffffffffffffffffffffffffffffffff02191690556001600360008573ffffffffffffffffffffffffffffffffffffffff1673ffffffffffffffffffffffffffffffffffffffff168152602001908152602001600020600082825403925050819055506001600360008473ffffffffffffffffffffffffffffffffffffffff1673ffffffffffffffffffffffffffffffffffffffff16815260200190815260200160002060008282540192505081905550816002600083815260200190815260200160002060006101000a81548173ffffffffffffffffffffffffffffffffffffffff021916908373ffffffffffffffffffffffffffffffffffffffff160217905550808273ffffffffffffffffffffffffffffffffffffffff168473ffffffffffffffffffffffffffffffffffffffff167fddf252ad1be2c89b69c2b068fc378daa952ba7f163c4a11628f55a4df523b3ef60405160405180910390a4610f5b838383600161129c565b505050565b60006002600083815260200190815260200160002060009054906101000a900473ffffffffffffffffffffffffffffffffffffffff169050919050565b8173ffffffffffffffffffffffffffffffffffffffff168373ffffffffffffffffffffffffffffffffffffffff16141561100c576040517f08c379a000000000000000000000000000000000000000000000000000000000815260040161100390612228565b60405180910390fd5b80600560008573ffffffffffffffffffffffffffffffffffffffff1673ffffffffffffffffffffffffffffffffffffffff16815260200190815260200160002060008473ffffffffffffffffffffffffffffffffffffffff1673ffffffffffffffffffffffffffffffffffffffff16815260200190815260200160002060006101000a81548160ff0219169083151502179055508173ffffffffffffffffffffffffffffffffffffffff168373ffffffffffffffffffffffffffffffffffffffff167f17307eab39ab6107e8899845ad3d59bd9653f200f220920489ca2b5937696c31836040516110fd9190611654565b60405180910390a3505050565b611115848484610c66565b611121848484846112a2565b611160576040517f08c379a0000000000000000000000000000000000000000000000000000000008152600401611157906122ba565b60405180910390fd5b50505050565b606060405180602001604052806000815250905090565b60606000600161118c8461142a565b01905060008167ffffffffffffffff8111156111ab576111aa611a5f565b5b6040519080825280601f01601f1916602001820160405280156111dd5781602001600182028036833780820191505090505b509050600082602001820190505b60011561124a578080600190039150507f3031323334353637383961626364656600000000000000000000000000000000600a86061a8153600a8581611234576112336122da565b5b04945060008514156112455761124a565b6111eb565b819350505050919050565b60008073ffffffffffffffffffffffffffffffffffffffff1661127783610f60565b73ffffffffffffffffffffffffffffffffffffffff1614159050919050565b50505050565b50505050565b60006112c38473ffffffffffffffffffffffffffffffffffffffff1661157d565b1561141d578373ffffffffffffffffffffffffffffffffffffffff1663150b7a026112ec610b10565b8786866040518563ffffffff1660e01b815260040161130e949392919061235e565b6020604051808303816000875af192505050801561134a57506040513d601f19601f8201168201806040525081019061134791906123bf565b60015b6113cd573d806000811461137a576040519150601f19603f3d011682016040523d82523d6000602084013e61137f565b606091505b506000815114156113c5576040517f08c379a00000000000000000000000000000000000000000000000000000000081526004016113bc906122ba565b60405180910390fd5b805181602001fd5b63150b7a0260e01b7bffffffffffffffffffffffffffffffffffffffffffffffffffffffff1916817bffffffffffffffffffffffffffffffffffffffffffffffffffffffff191614915050611422565b600190505b949350505050565b600080600090507a184f03e93ff9f4daa797ed6e38ed64bf6a1f0100000000000000008310611488577a184f03e93ff9f4daa797ed6e38ed64bf6a1f010000000000000000838161147e5761147d6122da565b5b0492506040810190505b6d04ee2d6d415b85acef810000000083106114c5576d04ee2d6d415b85acef810000000083816114bb576114ba6122da565b5b0492506020810190505b662386f26fc1000083106114f457662386f26fc1000083816114ea576114e96122da565b5b0492506010810190505b6305f5e100831061151d576305f5e1008381611513576115126122da565b5b0492506008810190505b6127108310611542576127108381611538576115376122da565b5b0492506004810190505b60648310611565576064838161155b5761155a6122da565b5b0492506002810190505b600a8310611574576001810190505b80915050919050565b6000808273ffffffffffffffffffffffffffffffffffffffff163b119050919050565b6000604051905090565b600080fd5b600080fd5b60007fffffffff0000000000000000000000000000000000000000000000000000000082169050919050565b6115e9816115b4565b81146115f457600080fd5b50565b600081359050611606816115e0565b92915050565b600060208284031215611622576116216115aa565b5b6000611630848285016115f7565b91505092915050565b60008115159050919050565b61164e81611639565b82525050565b60006020820190506116696000830184611645565b92915050565b600081519050919050565b600082825260208201905092915050565b60005b838110156116a957808201518184015260208101905061168e565b838111156116b8576000848401525b50505050565b6000601f19601f8301169050919050565b60006116da8261166f565b6116e4818561167a565b93506116f481856020860161168b565b6116fd816116be565b840191505092915050565b6000602082019050818103600083015261172281846116cf565b905092915050565b6000819050919050565b61173d8161172a565b811461174857600080fd5b50565b60008135905061175a81611734565b92915050565b600060208284031215611776576117756115aa565b5b60006117848482850161174b565b91505092915050565b600073ffffffffffffffffffffffffffffffffffffffff82169050919050565b60006117b88261178d565b9050919050565b6117c8816117ad565b82525050565b60006020820190506117e360008301846117bf565b92915050565b6117f2816117ad565b81146117fd57600080fd5b50565b60008135905061180f816117e9565b92915050565b6000806040838503121561182c5761182b6115aa565b5b600061183a85828601611800565b925050602061184b8582860161174b565b9150509250929050565b60008060006060848603121561186e5761186d6115aa565b5b600061187c86828701611800565b935050602061188d86828701611800565b925050604061189e8682870161174b565b9150509250925092565b6000819050919050565b6118bb816118a8565b81146118c657600080fd5b50565b6000813590506118d8816118b2565b92915050565b600060ff82169050919050565b6118f4816118de565b81146118ff57600080fd5b50565b600081359050611911816118eb565b92915050565b600080600080600060a08688031215611933576119326115aa565b5b60006119418882890161174b565b9550506020611952888289016118c9565b945050604061196388828901611902565b9350506060611974888289016118c9565b9250506080611985888289016118c9565b9150509295509295909350565b6000602082840312156119a8576119a76115aa565b5b60006119b684828501611800565b91505092915050565b6119c88161172a565b82525050565b60006020820190506119e360008301846119bf565b92915050565b6119f281611639565b81146119fd57600080fd5b50565b600081359050611a0f816119e9565b92915050565b60008060408385031215611a2c57611a2b6115aa565b5b6000611a3a85828601611800565b9250506020611a4b85828601611a00565b9150509250929050565b600080fd5b600080fd5b7f4e487b7100000000000000000000000000000000000000000000000000000000600052604160045260246000fd5b611a97826116be565b810181811067ffffffffffffffff82111715611ab657611ab5611a5f565b5b80604052505050565b6000611ac96115a0565b9050611ad58282611a8e565b919050565b600067ffffffffffffffff821115611af557611af4611a5f565b5b611afe826116be565b9050602081019050919050565b82818337600083830152505050565b6000611b2d611b2884611ada565b611abf565b905082815260208101848484011115611b4957611b48611a5a565b5b611b54848285611b0b565b509392505050565b600082601f830112611b7157611b70611a55565b5b8135611b81848260208601611b1a565b91505092915050565b60008060008060808587031215611ba457611ba36115aa565b5b6000611bb287828801611800565b9450506020611bc387828801611800565b9350506040611bd48782880161174b565b925050606085013567ffffffffffffffff811115611bf557611bf46115af565b5b611c0187828801611b5c565b91505092959194509250565b60008060408385031215611c2457611c236115aa565b5b6000611c3285828601611800565b9250506020611c4385828601611800565b9150509250929050565b7f4e487b7100000000000000000000000000000000000000000000000000000000600052602260045260246000fd5b60006002820490506001821680611c9457607f821691505b60208210811415611ca857611ca7611c4d565b5b50919050565b7f4552433732313a20617070726f76616c20746f2063757272656e74206f776e6560008201527f7200000000000000000000000000000000000000000000000000000000000000602082015250565b6000611d0a60218361167a565b9150611d1582611cae565b604082019050919050565b60006020820190508181036000830152611d3981611cfd565b9050919050565b7f4552433732313a20617070726f76652063616c6c6572206973206e6f7420746f60008201527f6b656e206f776e6572206f7220617070726f76656420666f7220616c6c000000602082015250565b6000611d9c603d8361167a565b9150611da782611d40565b604082019050919050565b60006020820190508181036000830152611dcb81611d8f565b9050919050565b7f4552433732313a2063616c6c6572206973206e6f7420746f6b656e206f776e6560008201527f72206f7220617070726f76656400000000000000000000000000000000000000602082015250565b6000611e2e602d8361167a565b9150611e3982611dd2565b604082019050919050565b60006020820190508181036000830152611e5d81611e21565b9050919050565b7f4552433732313a20696e76616c696420746f6b656e2049440000000000000000600082015250565b6000611e9a60188361167a565b9150611ea582611e64565b602082019050919050565b60006020820190508181036000830152611ec981611e8d565b9050919050565b600081905092915050565b7f19457468657265756d205369676e6564204d6573736167653a0a333200000000600082015250565b6000611f11601c83611ed0565b9150611f1c82611edb565b601c82019050919050565b6000819050919050565b611f42611f3d826118a8565b611f27565b82525050565b6000611f5382611f04565b9150611f5f8284611f31565b60208201915081905092915050565b611f77816118a8565b82525050565b611f86816118de565b82525050565b6000608082019050611fa16000830187611f6e565b611fae6020830186611f7d565b611fbb6040830185611f6e565b611fc86060830184611f6e565b95945050505050565b7f4552433732313a2061646472657373207a65726f206973206e6f74206120766160008201527f6c6964206f776e65720000000000000000000000000000000000000000000000602082015250565b600061202d60298361167a565b915061203882611fd1565b604082019050919050565b6000602082019050818103600083015261205c81612020565b9050919050565b600061206e8261166f565b6120788185611ed0565b935061208881856020860161168b565b80840191505092915050565b60006120a08285612063565b91506120ac8284612063565b91508190509392505050565b7f4552433732313a207472616e736665722066726f6d20696e636f72726563742060008201527f6f776e6572000000000000000000000000000000000000000000000000000000602082015250565b600061211460258361167a565b915061211f826120b8565b604082019050919050565b6000602082019050818103600083015261214381612107565b9050919050565b7f4552433732313a207472616e7366657220746f20746865207a65726f2061646460008201527f7265737300000000000000000000000000000000000000000000000000000000602082015250565b60006121a660248361167a565b91506121b18261214a565b604082019050919050565b600060208201905081810360008301526121d581612199565b9050919050565b7f4552433732313a20617070726f766520746f2063616c6c657200000000000000600082015250565b600061221260198361167a565b915061221d826121dc565b602082019050919050565b6000602082019050818103600083015261224181612205565b9050919050565b7f4552433732313a207472616e7366657220746f206e6f6e20455243373231526560008201527f63656976657220696d706c656d656e7465720000000000000000000000000000602082015250565b60006122a460328361167a565b91506122af82612248565b604082019050919050565b600060208201905081810360008301526122d381612297565b9050919050565b7f4e487b7100000000000000000000000000000000000000000000000000000000600052601260045260246000fd5b600081519050919050565b600082825260208201905092915050565b600061233082612309565b61233a8185612314565b935061234a81856020860161168b565b612353816116be565b840191505092915050565b600060808201905061237360008301876117bf565b61238060208301866117bf565b61238d60408301856119bf565b818103606083015261239f8184612325565b905095945050505050565b6000815190506123b9816115e0565b92915050565b6000602082840312156123d5576123d46115aa565b5b60006123e3848285016123aa565b9150509291505056fea264697066735822122049ba555122a7042b8766e6d894709cbd534263fd31988822303708cff7fcadd864736f6c634300080a0033",
  "immutableReferences": {},
  "source": "pragma solidity ^0.8.0;\r\n\r\nimport \"@openzeppelin/contracts/token/ERC721/ERC721.sol\";\r\n\r\ncontract MyNFT is ERC721 {\r\n    constructor(string memory name, string memory symbol) ERC721(name, symbol) {}\r\n\r\n    function verifyNFT(uint256 tokenId, bytes32 message, uint8 v, bytes32 r, bytes32 s) public view returns (bool) {\r\n        address signer = ecrecover(keccak256(abi.encodePacked(\"\\x19Ethereum Signed Message:\\n32\", message)), v, r, s);\r\n        return signer == ownerOf(tokenId);\r\n    }\r\n}",
  "sourcePath": "C:\\SSAFY\\workspace\\work-blockchain\\S08P22B209\\here-blockchain\\contracts\\NFTver.sol",
  "compiler": {
    "name": "solc",
    "version": "0.8.10+commit.fc410830.Emscripten.clang"
  },
  "schemaVersion": "3.4.4",
  "updatedAt": "2023-03-22T15:49:44.022Z",
  "devdoc": {
    "kind": "dev",
    "methods": {
      "approve(address,uint256)": {
        "details": "See {IERC721-approve}."
      },
      "balanceOf(address)": {
        "details": "See {IERC721-balanceOf}."
      },
      "getApproved(uint256)": {
        "details": "See {IERC721-getApproved}."
      },
      "isApprovedForAll(address,address)": {
        "details": "See {IERC721-isApprovedForAll}."
      },
      "name()": {
        "details": "See {IERC721Metadata-name}."
      },
      "ownerOf(uint256)": {
        "details": "See {IERC721-ownerOf}."
      },
      "safeTransferFrom(address,address,uint256)": {
        "details": "See {IERC721-safeTransferFrom}."
      },
      "safeTransferFrom(address,address,uint256,bytes)": {
        "details": "See {IERC721-safeTransferFrom}."
      },
      "setApprovalForAll(address,bool)": {
        "details": "See {IERC721-setApprovalForAll}."
      },
      "supportsInterface(bytes4)": {
        "details": "See {IERC165-supportsInterface}."
      },
      "symbol()": {
        "details": "See {IERC721Metadata-symbol}."
      },
      "tokenURI(uint256)": {
        "details": "See {IERC721Metadata-tokenURI}."
      },
      "transferFrom(address,address,uint256)": {
        "details": "See {IERC721-transferFrom}."
      }
    },
    "version": 1
  },
  "userdoc": {
    "kind": "user",
    "methods": {},
    "version": 1
  }
}