{
  "contractName": "NFTTransactionLogger",
  "abi": [
    {
      "inputs": [
        {
          "internalType": "address",
          "name": "_nftTokenAddress",
          "type": "address"
        }
      ],
      "stateMutability": "nonpayable",
      "type": "constructor"
    },
    {
      "anonymous": false,
      "inputs": [
        {
          "indexed": true,
          "internalType": "address",
          "name": "from",
          "type": "address"
        },
        {
          "indexed": true,
          "internalType": "address",
          "name": "to",
          "type": "address"
        },
        {
          "indexed": true,
          "internalType": "uint256",
          "name": "tokenId",
          "type": "uint256"
        }
      ],
      "name": "Transfer",
      "type": "event"
    },
    {
      "inputs": [],
      "name": "nftToken",
      "outputs": [
        {
          "internalType": "contract IERC721",
          "name": "",
          "type": "address"
        }
      ],
      "stateMutability": "view",
      "type": "function",
      "constant": true
    },
    {
      "inputs": [
        {
          "internalType": "uint256",
          "name": "",
          "type": "uint256"
        }
      ],
      "name": "transactionLogs",
      "outputs": [
        {
          "internalType": "address",
          "name": "buyer",
          "type": "address"
        },
        {
          "internalType": "address",
          "name": "seller",
          "type": "address"
        },
        {
          "internalType": "uint256",
          "name": "tokenId",
          "type": "uint256"
        },
        {
          "internalType": "uint256",
          "name": "timestamp",
          "type": "uint256"
        }
      ],
      "stateMutability": "view",
      "type": "function",
      "constant": true
    },
    {
      "inputs": [
        {
          "internalType": "address",
          "name": "_buyer",
          "type": "address"
        },
        {
          "internalType": "address",
          "name": "_seller",
          "type": "address"
        },
        {
          "internalType": "uint256",
          "name": "_tokenId",
          "type": "uint256"
        },
        {
          "internalType": "uint256",
          "name": "_timestamp",
          "type": "uint256"
        }
      ],
      "name": "addTransactionLog",
      "outputs": [],
      "stateMutability": "nonpayable",
      "type": "function"
    },
    {
      "inputs": [
        {
          "internalType": "uint256",
          "name": "_tokenId",
          "type": "uint256"
        }
      ],
      "name": "getTransactionLogs",
      "outputs": [
        {
          "components": [
            {
              "internalType": "address",
              "name": "buyer",
              "type": "address"
            },
            {
              "internalType": "address",
              "name": "seller",
              "type": "address"
            },
            {
              "internalType": "uint256",
              "name": "tokenId",
              "type": "uint256"
            },
            {
              "internalType": "uint256",
              "name": "timestamp",
              "type": "uint256"
            }
          ],
          "internalType": "struct NFTTransactionLogger.TransactionLog[]",
          "name": "",
          "type": "tuple[]"
        }
      ],
      "stateMutability": "view",
      "type": "function",
      "constant": true
    }
  ],
  "bytecode": "0x608060405234801561001057600080fd5b50604051610c37380380610c37833981810160405281019061003291906100db565b806000806101000a81548173ffffffffffffffffffffffffffffffffffffffff021916908373ffffffffffffffffffffffffffffffffffffffff16021790555050610108565b600080fd5b600073ffffffffffffffffffffffffffffffffffffffff82169050919050565b60006100a88261007d565b9050919050565b6100b88161009d565b81146100c357600080fd5b50565b6000815190506100d5816100af565b92915050565b6000602082840312156100f1576100f0610078565b5b60006100ff848285016100c6565b91505092915050565b610b20806101176000396000f3fe608060405234801561001057600080fd5b506004361061004c5760003560e01c806326c9d90714610051578063d06fcba81461006d578063f1f69f221461008b578063fb13effc146100be575b600080fd5b61006b600480360381019061006691906106bc565b6100ee565b005b6100756102f9565b6040516100829190610782565b60405180910390f35b6100a560048036038101906100a0919061079d565b61031d565b6040516100b594939291906107e8565b60405180910390f35b6100d860048036038101906100d3919061079d565b61039d565b6040516100e5919061094f565b60405180910390f35b60008054906101000a900473ffffffffffffffffffffffffffffffffffffffff1673ffffffffffffffffffffffffffffffffffffffff163373ffffffffffffffffffffffffffffffffffffffff161461017c576040517f08c379a0000000000000000000000000000000000000000000000000000000008152600401610173906109f4565b60405180910390fd5b600160405180608001604052808673ffffffffffffffffffffffffffffffffffffffff1681526020018573ffffffffffffffffffffffffffffffffffffffff16815260200184815260200183815250908060018154018082558091505060019003906000526020600020906004020160009091909190915060008201518160000160006101000a81548173ffffffffffffffffffffffffffffffffffffffff021916908373ffffffffffffffffffffffffffffffffffffffff16021790555060208201518160010160006101000a81548173ffffffffffffffffffffffffffffffffffffffff021916908373ffffffffffffffffffffffffffffffffffffffff16021790555060408201518160020155606082015181600301555050818473ffffffffffffffffffffffffffffffffffffffff168473ffffffffffffffffffffffffffffffffffffffff167fddf252ad1be2c89b69c2b068fc378daa952ba7f163c4a11628f55a4df523b3ef60405160405180910390a450505050565b60008054906101000a900473ffffffffffffffffffffffffffffffffffffffff1681565b6001818154811061032d57600080fd5b90600052602060002090600402016000915090508060000160009054906101000a900473ffffffffffffffffffffffffffffffffffffffff16908060010160009054906101000a900473ffffffffffffffffffffffffffffffffffffffff16908060020154908060030154905084565b60606000805b6001805490508110156103ff5783600182815481106103c5576103c4610a14565b5b90600052602060002090600402016002015414156103ec5781806103e890610a72565b9250505b80806103f790610a72565b9150506103a3565b5060008167ffffffffffffffff81111561041c5761041b610abb565b5b60405190808252806020026020018201604052801561045557816020015b6104426105cf565b81526020019060019003908161043a5790505b5090506000805b6001805490508110156105c357856001828154811061047e5761047d610a14565b5b90600052602060002090600402016002015414156105b057600181815481106104aa576104a9610a14565b5b90600052602060002090600402016040518060800160405290816000820160009054906101000a900473ffffffffffffffffffffffffffffffffffffffff1673ffffffffffffffffffffffffffffffffffffffff1673ffffffffffffffffffffffffffffffffffffffff1681526020016001820160009054906101000a900473ffffffffffffffffffffffffffffffffffffffff1673ffffffffffffffffffffffffffffffffffffffff1673ffffffffffffffffffffffffffffffffffffffff1681526020016002820154815260200160038201548152505083838151811061059657610595610a14565b5b602002602001018190525081806105ac90610a72565b9250505b80806105bb90610a72565b91505061045c565b50819350505050919050565b6040518060800160405280600073ffffffffffffffffffffffffffffffffffffffff168152602001600073ffffffffffffffffffffffffffffffffffffffff16815260200160008152602001600081525090565b600080fd5b600073ffffffffffffffffffffffffffffffffffffffff82169050919050565b600061065382610628565b9050919050565b61066381610648565b811461066e57600080fd5b50565b6000813590506106808161065a565b92915050565b6000819050919050565b61069981610686565b81146106a457600080fd5b50565b6000813590506106b681610690565b92915050565b600080600080608085870312156106d6576106d5610623565b5b60006106e487828801610671565b94505060206106f587828801610671565b9350506040610706878288016106a7565b9250506060610717878288016106a7565b91505092959194509250565b6000819050919050565b600061074861074361073e84610628565b610723565b610628565b9050919050565b600061075a8261072d565b9050919050565b600061076c8261074f565b9050919050565b61077c81610761565b82525050565b60006020820190506107976000830184610773565b92915050565b6000602082840312156107b3576107b2610623565b5b60006107c1848285016106a7565b91505092915050565b6107d381610648565b82525050565b6107e281610686565b82525050565b60006080820190506107fd60008301876107ca565b61080a60208301866107ca565b61081760408301856107d9565b61082460608301846107d9565b95945050505050565b600081519050919050565b600082825260208201905092915050565b6000819050602082019050919050565b61086281610648565b82525050565b61087181610686565b82525050565b60808201600082015161088d6000850182610859565b5060208201516108a06020850182610859565b5060408201516108b36040850182610868565b5060608201516108c66060850182610868565b50505050565b60006108d88383610877565b60808301905092915050565b6000602082019050919050565b60006108fc8261082d565b6109068185610838565b935061091183610849565b8060005b8381101561094257815161092988826108cc565b9750610934836108e4565b925050600181019050610915565b5085935050505092915050565b6000602082019050818103600083015261096981846108f1565b905092915050565b600082825260208201905092915050565b7f4f6e6c79204e465420636f6e74726163742063616e20616464207472616e736160008201527f6374696f6e206c6f670000000000000000000000000000000000000000000000602082015250565b60006109de602983610971565b91506109e982610982565b604082019050919050565b60006020820190508181036000830152610a0d816109d1565b9050919050565b7f4e487b7100000000000000000000000000000000000000000000000000000000600052603260045260246000fd5b7f4e487b7100000000000000000000000000000000000000000000000000000000600052601160045260246000fd5b6000610a7d82610686565b91507fffffffffffffffffffffffffffffffffffffffffffffffffffffffffffffffff821415610ab057610aaf610a43565b5b600182019050919050565b7f4e487b7100000000000000000000000000000000000000000000000000000000600052604160045260246000fdfea26469706673582212206bc75a6ec22d73148321136552fcef23aa1a72d170ee1f09414ba402aba5d47464736f6c634300080a0033",
  "immutableReferences": {},
  "source": "// SPDX-License-Identifier: MIT\r\npragma solidity ^0.8.0;\r\n\r\n//import \"@openzeppelin/contracts/token/ERC721/ERC721.sol\";\r\n//import \"./token/ERC721/ERC721.sol\";\r\nimport \"./token/ERC721/IERC721.sol\";\r\ncontract NFTTransactionLogger {\r\n    IERC721 public nftToken;\r\n    //  \r\n    struct TransactionLog {\r\n        address buyer;\r\n        address seller;\r\n        uint256 tokenId;\r\n        uint256 timestamp;\r\n    }\r\n\r\n    //  \r\n    TransactionLog[] public transactionLogs;\r\n\r\n    event Transfer(address indexed from, address indexed to, uint256 indexed tokenId);\r\n    // ERC-721 \r\n    //IERC721 private nftToken;\r\n    //ERC721 private nftToken;\r\n\r\n    // \r\n\r\n    constructor(address _nftTokenAddress) {\r\n        //nftToken = ERC721(_nftTokenAddress);\r\n        nftToken = IERC721(_nftTokenAddress);\r\n    }\r\n    // NFT    \r\n    function addTransactionLog(\r\n        address _buyer,\r\n        address _seller,\r\n        uint256 _tokenId,\r\n        uint256 _timestamp\r\n    ) external {\r\n        require(\r\n            msg.sender == address(nftToken),\r\n            \"Only NFT contract can add transaction log\"\r\n        );\r\n        transactionLogs.push(\r\n            TransactionLog({\r\n                buyer: _buyer,\r\n                seller: _seller,\r\n                tokenId: _tokenId,\r\n                timestamp: _timestamp\r\n            })\r\n        );\r\n        emit Transfer(_seller, _buyer, _tokenId);\r\n    }\r\n\r\n    //  NFT    \r\n    function getTransactionLogs(uint256 _tokenId)\r\n        external\r\n        view\r\n        returns (TransactionLog[] memory)\r\n    {\r\n        uint256 count = 0;\r\n        for (uint256 i = 0; i < transactionLogs.length; i++) {\r\n            if (transactionLogs[i].tokenId == _tokenId) {\r\n                count++;\r\n            }\r\n        }\r\n        TransactionLog[] memory logs = new TransactionLog[](count);\r\n        uint256 index = 0;\r\n        for (uint256 i = 0; i < transactionLogs.length; i++) {\r\n            if (transactionLogs[i].tokenId == _tokenId) {\r\n                logs[index] = transactionLogs[i];\r\n                index++;\r\n            }\r\n        }\r\n        return logs;\r\n    }\r\n}",
  "sourcePath": "C:\\SSAFY\\workspace\\blockchain\\S08P22B209\\here-blockchain\\contracts\\NFTTransactionLogger.sol",
  "compiler": {
    "name": "solc",
    "version": "0.8.10+commit.fc410830.Emscripten.clang"
  },
  "schemaVersion": "3.4.4",
  "updatedAt": "2023-03-21T08:16:05.011Z",
  "networkType": "ethereum",
  "devdoc": {
    "kind": "dev",
    "methods": {},
    "version": 1
  },
  "userdoc": {
    "kind": "user",
    "methods": {},
    "version": 1
  }
}