{
  "contractName": "NFTTransactionLogger",
  "abi": [
    {
      "inputs": [
        {
          "internalType": "address",
          "name": "_nftTokenAddress",
          "type": "address"
        }
      ],
      "stateMutability": "nonpayable",
      "type": "constructor"
    },
    {
      "inputs": [],
      "name": "nftToken",
      "outputs": [
        {
          "internalType": "contract IERC721",
          "name": "",
          "type": "address"
        }
      ],
      "stateMutability": "view",
      "type": "function",
      "constant": true
    },
    {
      "inputs": [
        {
          "internalType": "uint256",
          "name": "",
          "type": "uint256"
        }
      ],
      "name": "transactionLogs",
      "outputs": [
        {
          "internalType": "address",
          "name": "buyer",
          "type": "address"
        },
        {
          "internalType": "address",
          "name": "seller",
          "type": "address"
        },
        {
          "internalType": "uint256",
          "name": "tokenId",
          "type": "uint256"
        },
        {
          "internalType": "uint256",
          "name": "price",
          "type": "uint256"
        },
        {
          "internalType": "uint256",
          "name": "timestamp",
          "type": "uint256"
        }
      ],
      "stateMutability": "view",
      "type": "function",
      "constant": true
    },
    {
      "inputs": [
        {
          "internalType": "address",
          "name": "_buyer",
          "type": "address"
        },
        {
          "internalType": "address",
          "name": "_seller",
          "type": "address"
        },
        {
          "internalType": "uint256",
          "name": "_tokenId",
          "type": "uint256"
        },
        {
          "internalType": "uint256",
          "name": "_price",
          "type": "uint256"
        },
        {
          "internalType": "uint256",
          "name": "_timestamp",
          "type": "uint256"
        }
      ],
      "name": "addTransactionLog",
      "outputs": [],
      "stateMutability": "nonpayable",
      "type": "function"
    },
    {
      "inputs": [
        {
          "internalType": "uint256",
          "name": "_tokenId",
          "type": "uint256"
        }
      ],
      "name": "getTransactionLogs",
      "outputs": [
        {
          "components": [
            {
              "internalType": "address",
              "name": "buyer",
              "type": "address"
            },
            {
              "internalType": "address",
              "name": "seller",
              "type": "address"
            },
            {
              "internalType": "uint256",
              "name": "tokenId",
              "type": "uint256"
            },
            {
              "internalType": "uint256",
              "name": "price",
              "type": "uint256"
            },
            {
              "internalType": "uint256",
              "name": "timestamp",
              "type": "uint256"
            }
          ],
          "internalType": "struct NFTTransactionLogger.TransactionLog[]",
          "name": "",
          "type": "tuple[]"
        }
      ],
      "stateMutability": "view",
      "type": "function",
      "constant": true
    }
  ],
  "bytecode": "0x608060405234801561001057600080fd5b50604051610c3a380380610c3a833981810160405281019061003291906100db565b806000806101000a81548173ffffffffffffffffffffffffffffffffffffffff021916908373ffffffffffffffffffffffffffffffffffffffff16021790555050610108565b600080fd5b600073ffffffffffffffffffffffffffffffffffffffff82169050919050565b60006100a88261007d565b9050919050565b6100b88161009d565b81146100c357600080fd5b50565b6000815190506100d5816100af565b92915050565b6000602082840312156100f1576100f0610078565b5b60006100ff848285016100c6565b91505092915050565b610b23806101176000396000f3fe608060405234801561001057600080fd5b506004361061004c5760003560e01c8063d06fcba814610051578063e6b790851461006f578063f1f69f221461008b578063fb13effc146100bf575b600080fd5b6100596100ef565b6040516100669190610670565b60405180910390f35b61008960048036038101906100849190610704565b610113565b005b6100a560048036038101906100a0919061077f565b6102d4565b6040516100b69594939291906107ca565b60405180910390f35b6100d960048036038101906100d4919061077f565b61035a565b6040516100e69190610952565b60405180910390f35b60008054906101000a900473ffffffffffffffffffffffffffffffffffffffff1681565b60008054906101000a900473ffffffffffffffffffffffffffffffffffffffff1673ffffffffffffffffffffffffffffffffffffffff163373ffffffffffffffffffffffffffffffffffffffff16146101a1576040517f08c379a0000000000000000000000000000000000000000000000000000000008152600401610198906109f7565b60405180910390fd5b60016040518060a001604052808773ffffffffffffffffffffffffffffffffffffffff1681526020018673ffffffffffffffffffffffffffffffffffffffff16815260200185815260200184815260200183815250908060018154018082558091505060019003906000526020600020906005020160009091909190915060008201518160000160006101000a81548173ffffffffffffffffffffffffffffffffffffffff021916908373ffffffffffffffffffffffffffffffffffffffff16021790555060208201518160010160006101000a81548173ffffffffffffffffffffffffffffffffffffffff021916908373ffffffffffffffffffffffffffffffffffffffff16021790555060408201518160020155606082015181600301556080820151816004015550505050505050565b600181815481106102e457600080fd5b90600052602060002090600502016000915090508060000160009054906101000a900473ffffffffffffffffffffffffffffffffffffffff16908060010160009054906101000a900473ffffffffffffffffffffffffffffffffffffffff16908060020154908060030154908060040154905085565b60606000805b6001805490508110156103bc57836001828154811061038257610381610a17565b5b90600052602060002090600502016002015414156103a95781806103a590610a75565b9250505b80806103b490610a75565b915050610360565b5060008167ffffffffffffffff8111156103d9576103d8610abe565b5b60405190808252806020026020018201604052801561041257816020015b6103ff610596565b8152602001906001900390816103f75790505b5090506000805b60018054905081101561058a57856001828154811061043b5761043a610a17565b5b9060005260206000209060050201600201541415610577576001818154811061046757610466610a17565b5b90600052602060002090600502016040518060a00160405290816000820160009054906101000a900473ffffffffffffffffffffffffffffffffffffffff1673ffffffffffffffffffffffffffffffffffffffff1673ffffffffffffffffffffffffffffffffffffffff1681526020016001820160009054906101000a900473ffffffffffffffffffffffffffffffffffffffff1673ffffffffffffffffffffffffffffffffffffffff1673ffffffffffffffffffffffffffffffffffffffff168152602001600282015481526020016003820154815260200160048201548152505083838151811061055d5761055c610a17565b5b6020026020010181905250818061057390610a75565b9250505b808061058290610a75565b915050610419565b50819350505050919050565b6040518060a00160405280600073ffffffffffffffffffffffffffffffffffffffff168152602001600073ffffffffffffffffffffffffffffffffffffffff1681526020016000815260200160008152602001600081525090565b600073ffffffffffffffffffffffffffffffffffffffff82169050919050565b6000819050919050565b600061063661063161062c846105f1565b610611565b6105f1565b9050919050565b60006106488261061b565b9050919050565b600061065a8261063d565b9050919050565b61066a8161064f565b82525050565b60006020820190506106856000830184610661565b92915050565b600080fd5b600061069b826105f1565b9050919050565b6106ab81610690565b81146106b657600080fd5b50565b6000813590506106c8816106a2565b92915050565b6000819050919050565b6106e1816106ce565b81146106ec57600080fd5b50565b6000813590506106fe816106d8565b92915050565b600080600080600060a086880312156107205761071f61068b565b5b600061072e888289016106b9565b955050602061073f888289016106b9565b9450506040610750888289016106ef565b9350506060610761888289016106ef565b9250506080610772888289016106ef565b9150509295509295909350565b6000602082840312156107955761079461068b565b5b60006107a3848285016106ef565b91505092915050565b6107b581610690565b82525050565b6107c4816106ce565b82525050565b600060a0820190506107df60008301886107ac565b6107ec60208301876107ac565b6107f960408301866107bb565b61080660608301856107bb565b61081360808301846107bb565b9695505050505050565b600081519050919050565b600082825260208201905092915050565b6000819050602082019050919050565b61085281610690565b82525050565b610861816106ce565b82525050565b60a08201600082015161087d6000850182610849565b5060208201516108906020850182610849565b5060408201516108a36040850182610858565b5060608201516108b66060850182610858565b5060808201516108c96080850182610858565b50505050565b60006108db8383610867565b60a08301905092915050565b6000602082019050919050565b60006108ff8261081d565b6109098185610828565b935061091483610839565b8060005b8381101561094557815161092c88826108cf565b9750610937836108e7565b925050600181019050610918565b5085935050505092915050565b6000602082019050818103600083015261096c81846108f4565b905092915050565b600082825260208201905092915050565b7f4f6e6c79204e465420636f6e74726163742063616e20616464207472616e736160008201527f6374696f6e206c6f670000000000000000000000000000000000000000000000602082015250565b60006109e1602983610974565b91506109ec82610985565b604082019050919050565b60006020820190508181036000830152610a10816109d4565b9050919050565b7f4e487b7100000000000000000000000000000000000000000000000000000000600052603260045260246000fd5b7f4e487b7100000000000000000000000000000000000000000000000000000000600052601160045260246000fd5b6000610a80826106ce565b91507fffffffffffffffffffffffffffffffffffffffffffffffffffffffffffffffff821415610ab357610ab2610a46565b5b600182019050919050565b7f4e487b7100000000000000000000000000000000000000000000000000000000600052604160045260246000fdfea2646970667358221220920ca535b285b37f62b7cd23a157d1f7f168b4c422c9bd95b11fa7aaf26ebca764736f6c634300080a0033",
  "immutableReferences": {},
  "source": "// SPDX-License-Identifier: MIT\r\npragma solidity ^0.8.0;\r\n\r\n//import \"@openzeppelin/contracts/token/ERC721/ERC721.sol\";\r\n//import \"./token/ERC721/ERC721.sol\";\r\nimport \"./token/ERC721/IERC721.sol\";\r\ncontract NFTTransactionLogger {\r\n    IERC721 public nftToken;\r\n    //  \r\n    struct TransactionLog {\r\n        address buyer;\r\n        address seller;\r\n        uint256 tokenId;\r\n        uint256 price;\r\n        uint256 timestamp;\r\n    }\r\n\r\n    //  \r\n    TransactionLog[] public transactionLogs;\r\n\r\n    // ERC-721 \r\n    //IERC721 private nftToken;\r\n    //ERC721 private nftToken;\r\n\r\n    // \r\n\r\n    constructor(address _nftTokenAddress) {\r\n        //nftToken = ERC721(_nftTokenAddress);\r\n        nftToken = IERC721(_nftTokenAddress);\r\n    }\r\n    // NFT    \r\n    function addTransactionLog(\r\n        address _buyer,\r\n        address _seller,\r\n        uint256 _tokenId,\r\n        uint256 _price,\r\n        uint256 _timestamp\r\n    ) external {\r\n        require(\r\n            msg.sender == address(nftToken),\r\n            \"Only NFT contract can add transaction log\"\r\n        );\r\n        transactionLogs.push(\r\n            TransactionLog({\r\n                buyer: _buyer,\r\n                seller: _seller,\r\n                tokenId: _tokenId,\r\n                price: _price,\r\n                timestamp: _timestamp\r\n            })\r\n        );\r\n        \r\n    }\r\n\r\n    //  NFT    \r\n    function getTransactionLogs(uint256 _tokenId)\r\n        external\r\n        view\r\n        returns (TransactionLog[] memory)\r\n    {\r\n        uint256 count = 0;\r\n        for (uint256 i = 0; i < transactionLogs.length; i++) {\r\n            if (transactionLogs[i].tokenId == _tokenId) {\r\n                count++;\r\n            }\r\n        }\r\n        TransactionLog[] memory logs = new TransactionLog[](count);\r\n        uint256 index = 0;\r\n        for (uint256 i = 0; i < transactionLogs.length; i++) {\r\n            if (transactionLogs[i].tokenId == _tokenId) {\r\n                logs[index] = transactionLogs[i];\r\n                index++;\r\n            }\r\n        }\r\n        return logs;\r\n    }\r\n}",
  "sourcePath": "C:\\SSAFY\\workspace\\work-blockchain\\S08P22B209\\here-blockchain\\contracts\\NFTTransactionLogger.sol",
  "compiler": {
    "name": "solc",
    "version": "0.8.10+commit.fc410830.Emscripten.clang"
  },
  "schemaVersion": "3.4.4",
  "updatedAt": "2023-03-20T16:44:34.511Z",
  "networkType": "ethereum",
  "devdoc": {
    "kind": "dev",
    "methods": {},
    "version": 1
  },
  "userdoc": {
    "kind": "user",
    "methods": {},
    "version": 1
  }
}