{
  "contractName": "NFTVerifier",
  "abi": [
    {
      "inputs": [
        {
          "internalType": "address",
          "name": "_nftContractAddress",
          "type": "address"
        }
      ],
      "stateMutability": "nonpayable",
      "type": "constructor"
    },
    {
      "inputs": [],
      "name": "nftContract",
      "outputs": [
        {
          "internalType": "contract IERC721",
          "name": "",
          "type": "address"
        }
      ],
      "stateMutability": "view",
      "type": "function"
    },
    {
      "inputs": [
        {
          "internalType": "uint256",
          "name": "_tokenId",
          "type": "uint256"
        }
      ],
      "name": "verifyNFT",
      "outputs": [
        {
          "internalType": "bool",
          "name": "",
          "type": "bool"
        }
      ],
      "stateMutability": "view",
      "type": "function"
    }
  ],
  "bytecode": "0x608060405234801561001057600080fd5b506040516106c23803806106c2833981810160405281019061003291906100db565b806000806101000a81548173ffffffffffffffffffffffffffffffffffffffff021916908373ffffffffffffffffffffffffffffffffffffffff16021790555050610108565b600080fd5b600073ffffffffffffffffffffffffffffffffffffffff82169050919050565b60006100a88261007d565b9050919050565b6100b88161009d565b81146100c357600080fd5b50565b6000815190506100d5816100af565b92915050565b6000602082840312156100f1576100f0610078565b5b60006100ff848285016100c6565b91505092915050565b6105ab806101176000396000f3fe608060405234801561001057600080fd5b50600436106100365760003560e01c8063b7c6fe361461003b578063d56d229d1461006b575b600080fd5b61005560048036038101906100509190610352565b610089565b604051610062919061039a565b60405180910390f35b6100736102f3565b6040516100809190610434565b60405180910390f35b60008060008054906101000a900473ffffffffffffffffffffffffffffffffffffffff1673ffffffffffffffffffffffffffffffffffffffff16636352211e846040518263ffffffff1660e01b81526004016100e5919061045e565b602060405180830381865afa158015610102573d6000803e3d6000fd5b505050506040513d601f19601f8201168201806040525081019061012691906104b7565b905060008060009054906101000a900473ffffffffffffffffffffffffffffffffffffffff1673ffffffffffffffffffffffffffffffffffffffff1663081812fc856040518263ffffffff1660e01b8152600401610184919061045e565b602060405180830381865afa1580156101a1573d6000803e3d6000fd5b505050506040513d601f19601f820116820180604052508101906101c591906104b7565b905060008060009054906101000a900473ffffffffffffffffffffffffffffffffffffffff1673ffffffffffffffffffffffffffffffffffffffff1663e985e9c584306040518363ffffffff1660e01b81526004016102259291906104f3565b602060405180830381865afa158015610242573d6000803e3d6000fd5b505050506040513d601f19601f820116820180604052508101906102669190610548565b90508273ffffffffffffffffffffffffffffffffffffffff163373ffffffffffffffffffffffffffffffffffffffff1614806102cd57508173ffffffffffffffffffffffffffffffffffffffff163373ffffffffffffffffffffffffffffffffffffffff16145b806102d55750805b156102e657600193505050506102ee565b600093505050505b919050565b60008054906101000a900473ffffffffffffffffffffffffffffffffffffffff1681565b600080fd5b6000819050919050565b61032f8161031c565b811461033a57600080fd5b50565b60008135905061034c81610326565b92915050565b60006020828403121561036857610367610317565b5b60006103768482850161033d565b91505092915050565b60008115159050919050565b6103948161037f565b82525050565b60006020820190506103af600083018461038b565b92915050565b600073ffffffffffffffffffffffffffffffffffffffff82169050919050565b6000819050919050565b60006103fa6103f56103f0846103b5565b6103d5565b6103b5565b9050919050565b600061040c826103df565b9050919050565b600061041e82610401565b9050919050565b61042e81610413565b82525050565b60006020820190506104496000830184610425565b92915050565b6104588161031c565b82525050565b6000602082019050610473600083018461044f565b92915050565b6000610484826103b5565b9050919050565b61049481610479565b811461049f57600080fd5b50565b6000815190506104b18161048b565b92915050565b6000602082840312156104cd576104cc610317565b5b60006104db848285016104a2565b91505092915050565b6104ed81610479565b82525050565b600060408201905061050860008301856104e4565b61051560208301846104e4565b9392505050565b6105258161037f565b811461053057600080fd5b50565b6000815190506105428161051c565b92915050565b60006020828403121561055e5761055d610317565b5b600061056c84828501610533565b9150509291505056fea2646970667358221220c046e8eb5eafaaa8abd92337a1314875c8e45dd99a26a8af400d77b78496d11464736f6c634300080a0033",
  "immutableReferences": {},
  "source": "// SPDX-License-Identifier: MIT\r\n\r\npragma solidity ^0.8.4;\r\nimport \"./token/ERC721/IERC721.sol\";\r\n\r\n/*\r\n    IERC721   NFT   . \r\nIERC721  OpenZeppelin ERC721    NFT  .\r\nNFTVerifier  IERC721   NFT    . \r\nverifyNFT  NFT  ID ,  NFT    , \r\n    NFT     true .\r\n,     NFT    verifyNFT  , \r\nNFT  ID   . \r\n true   NFT     .\r\n*/\r\ncontract NFTVerifier {\r\n    IERC721 public nftContract;\r\n\r\n    constructor(address _nftContractAddress) {\r\n        nftContract = IERC721(_nftContractAddress);\r\n    }\r\n\r\n    function verifyNFT(uint256 _tokenId) external view returns (bool) {\r\n        address owner = nftContract.ownerOf(_tokenId);\r\n        address approved = nftContract.getApproved(_tokenId);\r\n        bool isApprovedForAll = nftContract.isApprovedForAll(owner, address(this));\r\n\r\n        // Check if the owner or an approved operator has the NFT\r\n        if (msg.sender == owner || msg.sender == approved || isApprovedForAll) {\r\n            return true;\r\n        }\r\n\r\n        return false;\r\n    }\r\n}\r\n\r\n",
  "sourcePath": "C:\\SSAFY\\workspace\\work-blockchain\\S08P22B209\\here-blockchain\\contracts\\NFTVerifier.sol",
  "compiler": {
    "name": "solc",
    "version": "0.8.10+commit.fc410830.Emscripten.clang"
  },
  "schemaVersion": "3.4.4",
  "updatedAt": "2023-03-20T16:44:01.558Z",
  "devdoc": {
    "kind": "dev",
    "methods": {},
    "version": 1
  },
  "userdoc": {
    "kind": "user",
    "methods": {},
    "version": 1
  }
}