{
  "contractName": "NFTVerification",
  "abi": [
    {
      "inputs": [
        {
          "internalType": "address",
          "name": "nftAddress",
          "type": "address"
        },
        {
          "internalType": "uint256",
          "name": "nftId",
          "type": "uint256"
        },
        {
          "internalType": "bytes",
          "name": "signature",
          "type": "bytes"
        }
      ],
      "name": "verifyNFT",
      "outputs": [
        {
          "internalType": "bool",
          "name": "",
          "type": "bool"
        }
      ],
      "stateMutability": "view",
      "type": "function"
    }
  ],
  "bytecode": "0x608060405234801561001057600080fd5b50610b96806100206000396000f3fe608060405234801561001057600080fd5b506004361061002b5760003560e01c8063ff4b32aa14610030575b600080fd5b61004a6004803603810190610045919061068c565b610060565b6040516100579190610716565b60405180910390f35b60008084905060008173ffffffffffffffffffffffffffffffffffffffff16636352211e866040518263ffffffff1660e01b81526004016100a19190610740565b602060405180830381865afa1580156100be573d6000803e3d6000fd5b505050506040513d601f19601f820116820180604052508101906100e29190610770565b9050600061011786306040516020016100fc929190610806565b604051602081830303815290604052805190602001206101a4565b9050600061012582876101d4565b90508273ffffffffffffffffffffffffffffffffffffffff168173ffffffffffffffffffffffffffffffffffffffff1614610195576040517f08c379a000000000000000000000000000000000000000000000000000000000815260040161018c9061088f565b60405180910390fd5b60019450505050509392505050565b6000816040516020016101b79190610931565b604051602081830303815290604052805190602001209050919050565b60008060006101e385856101fb565b915091506101f08161024d565b819250505092915050565b60008060418351141561023d5760008060006020860151925060408601519150606086015160001a9050610231878285856103bb565b94509450505050610246565b60006002915091505b9250929050565b6000600481111561026157610260610957565b5b81600481111561027457610273610957565b5b141561027f576103b8565b6001600481111561029357610292610957565b5b8160048111156102a6576102a5610957565b5b14156102e7576040517f08c379a00000000000000000000000000000000000000000000000000000000081526004016102de906109d2565b60405180910390fd5b600260048111156102fb576102fa610957565b5b81600481111561030e5761030d610957565b5b141561034f576040517f08c379a000000000000000000000000000000000000000000000000000000000815260040161034690610a3e565b60405180910390fd5b6003600481111561036357610362610957565b5b81600481111561037657610375610957565b5b14156103b7576040517f08c379a00000000000000000000000000000000000000000000000000000000081526004016103ae90610ad0565b60405180910390fd5b5b50565b6000807f7fffffffffffffffffffffffffffffff5d576e7357a4501ddfe92f46681b20a08360001c11156103f6576000600391509150610495565b60006001878787876040516000815260200160405260405161041b9493929190610b1b565b6020604051602081039080840390855afa15801561043d573d6000803e3d6000fd5b505050602060405103519050600073ffffffffffffffffffffffffffffffffffffffff168173ffffffffffffffffffffffffffffffffffffffff16141561048c57600060019250925050610495565b80600092509250505b94509492505050565b6000604051905090565b600080fd5b600080fd5b600073ffffffffffffffffffffffffffffffffffffffff82169050919050565b60006104dd826104b2565b9050919050565b6104ed816104d2565b81146104f857600080fd5b50565b60008135905061050a816104e4565b92915050565b6000819050919050565b61052381610510565b811461052e57600080fd5b50565b6000813590506105408161051a565b92915050565b600080fd5b600080fd5b6000601f19601f8301169050919050565b7f4e487b7100000000000000000000000000000000000000000000000000000000600052604160045260246000fd5b61059982610550565b810181811067ffffffffffffffff821117156105b8576105b7610561565b5b80604052505050565b60006105cb61049e565b90506105d78282610590565b919050565b600067ffffffffffffffff8211156105f7576105f6610561565b5b61060082610550565b9050602081019050919050565b82818337600083830152505050565b600061062f61062a846105dc565b6105c1565b90508281526020810184848401111561064b5761064a61054b565b5b61065684828561060d565b509392505050565b600082601f83011261067357610672610546565b5b813561068384826020860161061c565b91505092915050565b6000806000606084860312156106a5576106a46104a8565b5b60006106b3868287016104fb565b93505060206106c486828701610531565b925050604084013567ffffffffffffffff8111156106e5576106e46104ad565b5b6106f18682870161065e565b9150509250925092565b60008115159050919050565b610710816106fb565b82525050565b600060208201905061072b6000830184610707565b92915050565b61073a81610510565b82525050565b60006020820190506107556000830184610731565b92915050565b60008151905061076a816104e4565b92915050565b600060208284031215610786576107856104a8565b5b60006107948482850161075b565b91505092915050565b6000819050919050565b6107b86107b382610510565b61079d565b82525050565b60008160601b9050919050565b60006107d6826107be565b9050919050565b60006107e8826107cb565b9050919050565b6108006107fb826104d2565b6107dd565b82525050565b600061081282856107a7565b60208201915061082282846107ef565b6014820191508190509392505050565b600082825260208201905092915050565b7f496e76616c6964207369676e6174757265000000000000000000000000000000600082015250565b6000610879601183610832565b915061088482610843565b602082019050919050565b600060208201905081810360008301526108a88161086c565b9050919050565b600081905092915050565b7f19457468657265756d205369676e6564204d6573736167653a0a333200000000600082015250565b60006108f0601c836108af565b91506108fb826108ba565b601c82019050919050565b6000819050919050565b6000819050919050565b61092b61092682610906565b610910565b82525050565b600061093c826108e3565b9150610948828461091a565b60208201915081905092915050565b7f4e487b7100000000000000000000000000000000000000000000000000000000600052602160045260246000fd5b7f45434453413a20696e76616c6964207369676e61747572650000000000000000600082015250565b60006109bc601883610832565b91506109c782610986565b602082019050919050565b600060208201905081810360008301526109eb816109af565b9050919050565b7f45434453413a20696e76616c6964207369676e6174757265206c656e67746800600082015250565b6000610a28601f83610832565b9150610a33826109f2565b602082019050919050565b60006020820190508181036000830152610a5781610a1b565b9050919050565b7f45434453413a20696e76616c6964207369676e6174757265202773272076616c60008201527f7565000000000000000000000000000000000000000000000000000000000000602082015250565b6000610aba602283610832565b9150610ac582610a5e565b604082019050919050565b60006020820190508181036000830152610ae981610aad565b9050919050565b610af981610906565b82525050565b600060ff82169050919050565b610b1581610aff565b82525050565b6000608082019050610b306000830187610af0565b610b3d6020830186610b0c565b610b4a6040830185610af0565b610b576060830184610af0565b9594505050505056fea264697066735822122044e53f32755752a40768597c0085f741acde0074ee83a0119d45907bf1f2893a64736f6c634300080a0033",
  "immutableReferences": {},
  "source": "// SPDX-License-Identifier: MIT\r\n\r\npragma solidity >=0.4.22 <0.9.0;\r\n\r\nimport \"@openzeppelin/contracts/token/ERC721/IERC721.sol\";\r\nimport \"@openzeppelin/contracts/utils/cryptography/ECDSA.sol\";\r\n\r\ncontract NFTVerification {\r\n    \r\n    function verifyNFT(address nftAddress, uint256 nftId, bytes memory signature) public view returns (bool) {\r\n        // 1. NFT   \r\n        IERC721 nftContract = IERC721(nftAddress);\r\n        \r\n        // 2. NFT  \r\n        address owner = nftContract.ownerOf(nftId);\r\n        \r\n        // 3.    \r\n        bytes32 message = prefixed(keccak256(abi.encodePacked(nftId, address(this))));\r\n        address signer = ECDSA.recover(message, signature);\r\n        require(signer == owner, \"Invalid signature\");\r\n        \r\n        // 4. NFT  \r\n       // uint256 state = nftContract.tokenState(nftId);\r\n        //require(state == 1, \"NFT is not available for transfer\");\r\n        \r\n        return true;\r\n    }\r\n    \r\n    function prefixed(bytes32 hash) internal pure returns (bytes32) {\r\n        return keccak256(abi.encodePacked(\"\\x19Ethereum Signed Message:\\n32\", hash));\r\n    }\r\n}\r\n",
  "sourcePath": "C:\\SSAFY\\workspace\\work-blockchain\\S08P22B209\\here-blockchain\\contracts\\NFTVerification.sol",
  "compiler": {
    "name": "solc",
    "version": "0.8.10+commit.fc410830.Emscripten.clang"
  },
  "schemaVersion": "3.4.4",
  "updatedAt": "2023-03-20T16:44:01.554Z",
  "devdoc": {
    "kind": "dev",
    "methods": {},
    "version": 1
  },
  "userdoc": {
    "kind": "user",
    "methods": {},
    "version": 1
  }
}