{
  "contractName": "Sale",
  "abi": [
    {
      "inputs": [
        {
          "internalType": "address",
          "name": "_admin",
          "type": "address"
        },
        {
          "internalType": "address",
          "name": "_seller",
          "type": "address"
        },
        {
          "internalType": "uint256",
          "name": "_tokenId",
          "type": "uint256"
        },
        {
          "internalType": "uint256",
          "name": "_minPrice",
          "type": "uint256"
        },
        {
          "internalType": "uint256",
          "name": "_purchasePrice",
          "type": "uint256"
        },
        {
          "internalType": "uint256",
          "name": "startTime",
          "type": "uint256"
        },
        {
          "internalType": "uint256",
          "name": "endTime",
          "type": "uint256"
        },
        {
          "internalType": "address",
          "name": "_currencyAddress",
          "type": "address"
        },
        {
          "internalType": "address",
          "name": "_nftAddress",
          "type": "address"
        }
      ],
      "stateMutability": "nonpayable",
      "type": "constructor"
    },
    {
      "anonymous": false,
      "inputs": [
        {
          "indexed": false,
          "internalType": "address",
          "name": "bidder",
          "type": "address"
        },
        {
          "indexed": false,
          "internalType": "uint256",
          "name": "amount",
          "type": "uint256"
        }
      ],
      "name": "HighestBidIncereased",
      "type": "event"
    },
    {
      "anonymous": false,
      "inputs": [
        {
          "indexed": false,
          "internalType": "address",
          "name": "winner",
          "type": "address"
        },
        {
          "indexed": false,
          "internalType": "uint256",
          "name": "amount",
          "type": "uint256"
        }
      ],
      "name": "SaleEnded",
      "type": "event"
    },
    {
      "inputs": [],
      "name": "buyer",
      "outputs": [
        {
          "internalType": "address",
          "name": "",
          "type": "address"
        }
      ],
      "stateMutability": "view",
      "type": "function"
    },
    {
      "inputs": [],
      "name": "currencyAddress",
      "outputs": [
        {
          "internalType": "address",
          "name": "",
          "type": "address"
        }
      ],
      "stateMutability": "view",
      "type": "function"
    },
    {
      "inputs": [],
      "name": "ended",
      "outputs": [
        {
          "internalType": "bool",
          "name": "",
          "type": "bool"
        }
      ],
      "stateMutability": "view",
      "type": "function"
    },
    {
      "inputs": [],
      "name": "erc20Contract",
      "outputs": [
        {
          "internalType": "contract IERC20",
          "name": "",
          "type": "address"
        }
      ],
      "stateMutability": "view",
      "type": "function"
    },
    {
      "inputs": [],
      "name": "erc721Constract",
      "outputs": [
        {
          "internalType": "contract IERC721",
          "name": "",
          "type": "address"
        }
      ],
      "stateMutability": "view",
      "type": "function"
    },
    {
      "inputs": [],
      "name": "highestBid",
      "outputs": [
        {
          "internalType": "uint256",
          "name": "",
          "type": "uint256"
        }
      ],
      "stateMutability": "view",
      "type": "function"
    },
    {
      "inputs": [],
      "name": "highestBidder",
      "outputs": [
        {
          "internalType": "address",
          "name": "",
          "type": "address"
        }
      ],
      "stateMutability": "view",
      "type": "function"
    },
    {
      "inputs": [],
      "name": "minPrice",
      "outputs": [
        {
          "internalType": "uint256",
          "name": "",
          "type": "uint256"
        }
      ],
      "stateMutability": "view",
      "type": "function"
    },
    {
      "inputs": [],
      "name": "nftAddress",
      "outputs": [
        {
          "internalType": "address",
          "name": "",
          "type": "address"
        }
      ],
      "stateMutability": "view",
      "type": "function"
    },
    {
      "inputs": [],
      "name": "purchasePrice",
      "outputs": [
        {
          "internalType": "uint256",
          "name": "",
          "type": "uint256"
        }
      ],
      "stateMutability": "view",
      "type": "function"
    },
    {
      "inputs": [],
      "name": "saleEndTime",
      "outputs": [
        {
          "internalType": "uint256",
          "name": "",
          "type": "uint256"
        }
      ],
      "stateMutability": "view",
      "type": "function"
    },
    {
      "inputs": [],
      "name": "saleStartTime",
      "outputs": [
        {
          "internalType": "uint256",
          "name": "",
          "type": "uint256"
        }
      ],
      "stateMutability": "view",
      "type": "function"
    },
    {
      "inputs": [],
      "name": "seller",
      "outputs": [
        {
          "internalType": "address",
          "name": "",
          "type": "address"
        }
      ],
      "stateMutability": "view",
      "type": "function"
    },
    {
      "inputs": [],
      "name": "tokenId",
      "outputs": [
        {
          "internalType": "uint256",
          "name": "",
          "type": "uint256"
        }
      ],
      "stateMutability": "view",
      "type": "function"
    },
    {
      "inputs": [
        {
          "internalType": "uint256",
          "name": "bid_amount",
          "type": "uint256"
        }
      ],
      "name": "bid",
      "outputs": [],
      "stateMutability": "nonpayable",
      "type": "function"
    },
    {
      "inputs": [],
      "name": "purchase",
      "outputs": [],
      "stateMutability": "nonpayable",
      "type": "function"
    },
    {
      "inputs": [],
      "name": "confirmItem",
      "outputs": [],
      "stateMutability": "nonpayable",
      "type": "function"
    },
    {
      "inputs": [],
      "name": "cancelSales",
      "outputs": [],
      "stateMutability": "nonpayable",
      "type": "function"
    },
    {
      "inputs": [],
      "name": "getTimeLeft",
      "outputs": [
        {
          "internalType": "int256",
          "name": "",
          "type": "int256"
        }
      ],
      "stateMutability": "view",
      "type": "function"
    },
    {
      "inputs": [],
      "name": "getSaleInfo",
      "outputs": [
        {
          "internalType": "uint256",
          "name": "",
          "type": "uint256"
        },
        {
          "internalType": "uint256",
          "name": "",
          "type": "uint256"
        },
        {
          "internalType": "uint256",
          "name": "",
          "type": "uint256"
        },
        {
          "internalType": "uint256",
          "name": "",
          "type": "uint256"
        },
        {
          "internalType": "uint256",
          "name": "",
          "type": "uint256"
        },
        {
          "internalType": "address",
          "name": "",
          "type": "address"
        },
        {
          "internalType": "uint256",
          "name": "",
          "type": "uint256"
        },
        {
          "internalType": "address",
          "name": "",
          "type": "address"
        },
        {
          "internalType": "address",
          "name": "",
          "type": "address"
        }
      ],
      "stateMutability": "view",
      "type": "function"
    },
    {
      "inputs": [],
      "name": "getHighestBid",
      "outputs": [
        {
          "internalType": "uint256",
          "name": "",
          "type": "uint256"
        }
      ],
      "stateMutability": "view",
      "type": "function"
    }
  ],
  "bytecode": "0x60806040523480156200001157600080fd5b5060405162000c6838038062000c688339818101604052810190620000379190620002bc565b600086116200004557600080fd5b866007819055508560058190555084600681905550876000806101000a81548173ffffffffffffffffffffffffffffffffffffffff021916908373ffffffffffffffffffffffffffffffffffffffff16021790555088600260006101000a81548173ffffffffffffffffffffffffffffffffffffffff021916908373ffffffffffffffffffffffffffffffffffffffff160217905550836003819055508260048190555081600860006101000a81548173ffffffffffffffffffffffffffffffffffffffff021916908373ffffffffffffffffffffffffffffffffffffffff16021790555080600960006101000a81548173ffffffffffffffffffffffffffffffffffffffff021916908373ffffffffffffffffffffffffffffffffffffffff1602179055506000600960146101000a81548160ff02191690831515021790555081600c60006101000a81548173ffffffffffffffffffffffffffffffffffffffff021916908373ffffffffffffffffffffffffffffffffffffffff16021790555080600d60006101000a81548173ffffffffffffffffffffffffffffffffffffffff021916908373ffffffffffffffffffffffffffffffffffffffff1602179055505050505050505050506200039b565b600080fd5b600073ffffffffffffffffffffffffffffffffffffffff82169050919050565b600062000249826200021c565b9050919050565b6200025b816200023c565b81146200026757600080fd5b50565b6000815190506200027b8162000250565b92915050565b6000819050919050565b620002968162000281565b8114620002a257600080fd5b50565b600081519050620002b6816200028b565b92915050565b60008060008060008060008060006101208a8c031215620002e257620002e162000217565b5b6000620002f28c828d016200026a565b9950506020620003058c828d016200026a565b9850506040620003188c828d01620002a5565b97505060606200032b8c828d01620002a5565b96505060806200033e8c828d01620002a5565b95505060a0620003518c828d01620002a5565b94505060c0620003648c828d01620002a5565b93505060e0620003778c828d016200026a565b9250506101006200038b8c828d016200026a565b9150509295985092959850929598565b6108bd80620003ab6000396000f3fe608060405234801561001057600080fd5b50600436106101375760003560e01c80637150d8ae116100b8578063d57bde791161007c578063d57bde79146102c0578063db83694c146102de578063defd6c5f14610304578063e45be8eb14610322578063ed338ff114610340578063ef0a230e1461035e57610137565b80637150d8ae1461023e578063903e329c1461025c57806391f9015714610266578063a8f6c91314610284578063c7e284b8146102a257610137565b80631cbaee2d116100ff5780631cbaee2d146101be578063454a2ab3146101dc5780634979440a146101f85780635bf8633a1461021657806364edfbf01461023457610137565b806308551a531461013c5780630a7f463f1461015a57806312fa6feb1461016457806317d70f7c146101825780631c1cb323146101a0575b600080fd5b61014461037c565b60405161015191906105ca565b60405180910390f35b6101626103a0565b005b61016c6103a2565b6040516101799190610600565b60405180910390f35b61018a6103b5565b6040516101979190610634565b60405180910390f35b6101a86103bb565b6040516101b591906105ca565b60405180910390f35b6101c66103e1565b6040516101d39190610634565b60405180910390f35b6101f660048036038101906101f19190610680565b6103e7565b005b6102006103ea565b60405161020d9190610634565b60405180910390f35b61021e6103f4565b60405161022b91906105ca565b60405180910390f35b61023c61041a565b005b61024661041c565b60405161025391906105ca565b60405180910390f35b610264610442565b005b61026e610444565b60405161027b91906105ca565b60405180910390f35b61028c61046a565b604051610299919061070c565b60405180910390f35b6102aa610490565b6040516102b79190610740565b60405180910390f35b6102c86104a5565b6040516102d59190610634565b60405180910390f35b6102e66104ab565b6040516102fb9998979695949392919061075b565b60405180910390f35b61030c610551565b6040516103199190610634565b60405180910390f35b61032a610557565b6040516103379190610634565b60405180910390f35b61034861055d565b6040516103559190610634565b60405180910390f35b610366610563565b6040516103739190610809565b60405180910390f35b60008054906101000a900473ffffffffffffffffffffffffffffffffffffffff1681565b565b600960149054906101000a900460ff1681565b60075481565b600860009054906101000a900473ffffffffffffffffffffffffffffffffffffffff1681565b60035481565b50565b6000600b54905090565b600960009054906101000a900473ffffffffffffffffffffffffffffffffffffffff1681565b565b600160009054906101000a900473ffffffffffffffffffffffffffffffffffffffff1681565b565b600a60009054906101000a900473ffffffffffffffffffffffffffffffffffffffff1681565b600c60009054906101000a900473ffffffffffffffffffffffffffffffffffffffff1681565b6000426004546104a09190610853565b905090565b600b5481565b6000806000806000806000806000600354600454600554600654600754600a60009054906101000a900473ffffffffffffffffffffffffffffffffffffffff16600b54600860009054906101000a900473ffffffffffffffffffffffffffffffffffffffff16600960009054906101000a900473ffffffffffffffffffffffffffffffffffffffff16985098509850985098509850985098509850909192939495969798565b60065481565b60055481565b60045481565b600d60009054906101000a900473ffffffffffffffffffffffffffffffffffffffff1681565b600073ffffffffffffffffffffffffffffffffffffffff82169050919050565b60006105b482610589565b9050919050565b6105c4816105a9565b82525050565b60006020820190506105df60008301846105bb565b92915050565b60008115159050919050565b6105fa816105e5565b82525050565b600060208201905061061560008301846105f1565b92915050565b6000819050919050565b61062e8161061b565b82525050565b60006020820190506106496000830184610625565b92915050565b600080fd5b61065d8161061b565b811461066857600080fd5b50565b60008135905061067a81610654565b92915050565b6000602082840312156106965761069561064f565b5b60006106a48482850161066b565b91505092915050565b6000819050919050565b60006106d26106cd6106c884610589565b6106ad565b610589565b9050919050565b60006106e4826106b7565b9050919050565b60006106f6826106d9565b9050919050565b610706816106eb565b82525050565b600060208201905061072160008301846106fd565b92915050565b6000819050919050565b61073a81610727565b82525050565b60006020820190506107556000830184610731565b92915050565b600061012082019050610771600083018c610625565b61077e602083018b610625565b61078b604083018a610625565b6107986060830189610625565b6107a56080830188610625565b6107b260a08301876105bb565b6107bf60c0830186610625565b6107cc60e08301856105bb565b6107da6101008301846105bb565b9a9950505050505050505050565b60006107f3826106d9565b9050919050565b610803816107e8565b82525050565b600060208201905061081e60008301846107fa565b92915050565b7f4e487b7100000000000000000000000000000000000000000000000000000000600052601160045260246000fd5b600061085e8261061b565b91506108698361061b565b92508282101561087c5761087b610824565b5b82820390509291505056fea26469706673582212203431c5cc27a055be718f85786121fd800f29a27abaadfec71d4040d5e8cc130664736f6c634300080a0033",
  "immutableReferences": {},
  "source": "// SPDX-License-Identifier: MIT\r\npragma solidity ^0.8.4;\r\n\r\nimport \"./access/Ownable.sol\";\r\nimport \"./token/ERC20/ERC20.sol\";\r\nimport \"./token/ERC721/ERC721.sol\";\r\n\r\n/**\r\n * PJT  - Req.1-SC1 SaleFactory \r\n *    ,      .\r\n */\r\ncontract SaleFactory is Ownable {\r\n    address public admin;\r\n    address[] public sales;\r\n\r\n    event NewSale(\r\n        address indexed _saleContract,\r\n        address indexed _owner,\r\n        uint256 _workId\r\n    );\r\n\r\n    constructor() {\r\n        admin = msg.sender;\r\n    }\r\n\r\n    /**\r\n     * @dev   . \r\n     */\r\n    function createSale(\r\n        uint256 itemId,\r\n        uint256 minPrice,\r\n        uint256 purchasePrice,\r\n        uint256 startTime,\r\n        uint256 endTime,\r\n        address currencyAddress,\r\n        address nftAddress\r\n    ) public returns (address) {\r\n        // TODO\r\n    }\r\n\r\n    function allSales() public view returns (address[] memory) {\r\n        return sales;\r\n    }\r\n}\r\n\r\n/**\r\n *  PJT  - Req.1-SC2) Sale \r\n */\r\ncontract Sale {\r\n    //    \r\n    address public seller;\r\n    address public buyer;\r\n    address admin;\r\n    uint256 public saleStartTime;\r\n    uint256 public saleEndTime;\r\n    uint256 public minPrice;\r\n    uint256 public purchasePrice;\r\n    uint256 public tokenId;\r\n    address public currencyAddress;\r\n    address public nftAddress;\r\n    bool public ended;\r\n\r\n    //    \r\n    address public highestBidder;\r\n    uint256 public highestBid;\r\n\r\n    IERC20 public erc20Contract;\r\n    IERC721 public erc721Constract;\r\n\r\n    event HighestBidIncereased(address bidder, uint256 amount);\r\n    event SaleEnded(address winner, uint256 amount);\r\n\r\n    constructor(\r\n        address _admin,\r\n        address _seller,\r\n        uint256 _tokenId,\r\n        uint256 _minPrice,\r\n        uint256 _purchasePrice,\r\n        uint256 startTime,\r\n        uint256 endTime,\r\n        address _currencyAddress,\r\n        address _nftAddress\r\n    ) {\r\n        require(_minPrice > 0);\r\n        tokenId = _tokenId;\r\n        minPrice = _minPrice;\r\n        purchasePrice = _purchasePrice;\r\n        seller = _seller;\r\n        admin = _admin;\r\n        saleStartTime = startTime;\r\n        saleEndTime = endTime;\r\n        currencyAddress = _currencyAddress;\r\n        nftAddress = _nftAddress;\r\n        ended = false;\r\n        erc20Contract = IERC20(_currencyAddress);\r\n        erc721Constract = IERC721(_nftAddress);\r\n    }\r\n\r\n    function bid(uint256 bid_amount) public {\r\n        // TODO\r\n    }\r\n\r\n    function purchase() public {\r\n        // TODO \r\n    }\r\n\r\n    function confirmItem() public {\r\n        // TODO \r\n    }\r\n    \r\n    function cancelSales() public {\r\n        // TODO\r\n    }\r\n\r\n    function getTimeLeft() public view returns (int256) {\r\n        return (int256)(saleEndTime - block.timestamp);\r\n    }\r\n\r\n    function getSaleInfo()\r\n        public\r\n        view\r\n        returns (\r\n            uint256,\r\n            uint256,\r\n            uint256,\r\n            uint256,\r\n            uint256,\r\n            address,\r\n            uint256,\r\n            address,\r\n            address\r\n        )\r\n    {\r\n        return (\r\n            saleStartTime,\r\n            saleEndTime,\r\n            minPrice,\r\n            purchasePrice,\r\n            tokenId,\r\n            highestBidder,\r\n            highestBid,\r\n            currencyAddress,\r\n            nftAddress\r\n        );\r\n    }\r\n\r\n    function getHighestBid() public view returns(uint256){\r\n        return highestBid;\r\n    }\r\n\r\n    // internal  private     _  .\r\n    function _end() internal {\r\n        ended = true;\r\n    }\r\n\r\n    function _getCurrencyAmount() private view returns (uint256) {\r\n        return erc20Contract.balanceOf(msg.sender);\r\n    }\r\n\r\n    // modifier       . \r\n    modifier onlySeller() {\r\n        require(msg.sender == seller, \"Sale: You are not seller.\");\r\n        _;\r\n    }\r\n\r\n    modifier onlyAfterStart() {\r\n        require(\r\n            block.timestamp >= saleStartTime,\r\n            \"Sale: This sale is not started.\"\r\n        );\r\n        _;\r\n    }\r\n}\r\n",
  "sourcePath": "C:\\SSAFY\\workspace\\work-blockchain\\S08P22B209\\here-blockchain\\contracts\\SaleFactory.sol",
  "compiler": {
    "name": "solc",
    "version": "0.8.10+commit.fc410830.Emscripten.clang"
  },
  "schemaVersion": "3.4.4",
  "updatedAt": "2023-04-03T17:00:07.726Z",
  "devdoc": {
    "kind": "dev",
    "methods": {},
    "version": 1
  },
  "userdoc": {
    "kind": "user",
    "methods": {},
    "notice": "PJT  - Req.1-SC2) Sale ",
    "version": 1
  }
}